:020000040800F2
:10000000805200205D020008D5360008AD2C0008A3
:1000100041350008FD0E0008D93F0008000000002F
:100020000000000000000000000000009D0100082A
:10003000FF0E000800000000F9010008493900081F
:1000400077020008770200087702000877020008AC
:10005000770200087702000877020008770200089C
:10006000770200087702000877020008770200088C
:10007000770200087702000877020008770200087C
:10008000770200087702000877020008770200086C
:10009000770200087702000877020008770200085C
:1000A000770200087702000877020008770200084C
:1000B000770200087702000877020008770200083C
:1000C000770200087702000877020008770200082C
:1000D0007702000877020008C13F0008CD3F000802
:1000E000770200087702000877020008770200080C
:1000F00077020008770200087702000877020008FC
:1001000077020008770200087702000877020008EB
:10011000770200087702000877020008093A000811
:1001200077020008770200087702000877020008CB
:1001300077020008770200087702000877020008BB
:1001400077020008770200087702000877020008AB
:10015000770200087702000877020008770200089B
:10016000770200087702000877020008770200088B
:1001700077020008770200087702000800000000FC
:100180007702000877020008DFF80CD000F0E8FBE7
:1001900000480047BD490008805200202C4B1968D8
:1001A0000868B0E8F04F80F30988BFF36F8F4FF015
:1001B000000080F3118870470000000008480068C4
:1001C000006880F308884FF0000080F3148862B65E
:1001D00061B6BFF34F8FBFF36F8F00DF00BF00BF6B
:1001E00008ED00E0DFF80C00016841F470010160E7
:1001F000704700BF88ED00E0EFF30980BFF36F8F19
:10020000134B1A681EF0100F08BF20ED108A20E96A
:10021000F04F106009B44FF0500080F31188BFF325
:100220004F8FBFF36F8F05F0AFFA4FF0000080F3F0
:10023000118809BC19680868B0E8F04F1EF0100F6B
:1002400008BFB0EC108A80F30988BFF36F8F704746
:100250005C000020EFF305807047000006488047EF
:1002600006480047FEE7FEE7FEE7FEE7FEE7FEE79B
:10027000FEE7FEE7FEE7FEE7F9390008890100081E
:100280002DE9F05F0546002092469B4688460646CB
:10029000814640241BE0284641464746224600F05E
:1002A00026F953465A46C01A914110D311461846B2
:1002B000224600F00DF92D1A67EB01084F46224641
:1002C0000120002100F004F917EB00094E41201E27
:1002D000A4F10104DFDC484631462A464346BDE826
:1002E000F09F40EA01039B0703D009E008C9121FF1
:1002F00008C0042AFAD203E011F8013B00F8013BE0
:10030000521EF9D27047D2B201E000F8012B491E0B
:10031000FBD270470022F6E710B513460A460446A2
:100320001946FFF7F0FF204610BD10B5044604E063
:100330000B7800F8013B03B1491C521EF8D220464D
:1003400010BD421C10F8011B0029FBD1801A704718
:10035000034611F8012B00F8012B002AF9D11846A9
:1003600070472DE9FE4F81EA030404F0004421F0B8
:10037000004100944FF0000B23F0004350EA0104C9
:100380005ED052EA03045BD0C3F30A54C1F30A55AA
:100390002C44A4F2F3340194A0FB0254C1F31301E2
:1003A00041F48011C3F3130343F4801301FB0244AF
:1003B00000FB034E840A970A44EA815447EA8357B4
:1003C000A4FB076802958D0A05FB07854FEA932C6D
:1003D00004FB0C542705029D4FEA065847EA1637DE
:1003E000B5EB08056EEB070C870E920E47EA8117F6
:1003F00042EA8312A7FB0201B6EB0B0164EB000497
:100400002B0D43EA0C335E1844EB1C50DA46514680
:10041000E7FB0201C5F313044FEA0B3343EA14531D
:100420004FEA0432019C43EA0603A4F10C0402944F
:10043000009CCDE900B400F0FFF803B0BDE8F08FF8
:1004400000200146F9E700F0004230F000400AD0F9
:10045000C10D01F56071C0F3160042EA0151C208F6
:1004600040071143704700200146704701F00043E8
:1004700030B421F0004150EA010206D00A0DA2F585
:100480006072C1F31301002A02DC30BC0020704707
:10049000440F44EAC104C100E01830BC00EBC25074
:1004A00000F084B830B50B4601460020202201241C
:1004B00009E021FA02F59D4205D303FA02F5491B32
:1004C00004FA02F52844151EA2F10102F1DC30BD48
:1004D000202A04DB203A00FA02F100207047914004
:1004E000C2F1200320FA03F3194390407047202AF9
:1004F00004DB203A21FA02F00021704721FA02F3CE
:10050000D040C2F1200291400843194670470000D4
:100510000FB4002300B589B00CA900910B996FF0BE
:100520000042CB601E4B06931E4B07930423CDE97C
:1005300001321D4A089202466B46002000F0CEFAB6
:1005400009B05DF814FB70B586B006464FF0FF3079
:100550000091CDE90101002015460C460490324679
:10056000694604A8FFF7D4FF02460498211825B174
:1005700008B1084600E020462860049800280DD005
:10058000002A02DD0098884208D0081B0094CDE9BB
:1005900001043246694604A8FFF7BAFF06B070BDF1
:1005A000150D0008330D0008A90900080029A8BF8F
:1005B0007047401C490008BF20F00100704710B48C
:1005C000B0FA80FC00FA0CF050EA010404BF10BC41
:1005D000704749B1CCF1200421FA04F411FA0CF16E
:1005E00018BF012121430843A3EB0C01CB1D4FEAA7
:1005F00000614FEA102042BF002010BC704700EBA2
:10060000C35010440029A4BF10BC7047401C4900CF
:1006100008BF20F0010010BC704710B5141E73F124
:10062000000408DA401C41F1000192185B411A43B2
:1006300001D120F0010010BD2DE9F04D92469B46FE
:1006400011B1B1FA81F202E0B0FA80F220329046A4
:10065000FFF73EFF04460F4640EA0A0041EA0B015D
:1006600053465A46084313D0114653EA010019D0A5
:10067000C8F140025046FFF73AFF05460E46504685
:1006800059464246FFF724FF084305D0012004E005
:1006900020463946BDE8F08D0020054346EAE07665
:1006A0002C4337430A986305E40AA0EB08000022B4
:1006B000FD0A44EA47540A3002D500200146E9E722
:1006C000010510196941DDE9084500196941BDE8D6
:1006D000F04DA2E72DE9FE4F804681EA0300C00FEE
:1006E0000C46009021F0004123F00045B8EB0200D9
:1006F000A94105D24046214690461C460B4602467B
:1007000023F00040104347D0270DC7F30A00C3F37E
:100710000A510290401A019040286BDAC3F313008B
:1007200040F4801B0098924620B10023D2EB030ACC
:1007300063EB0B0B01985946C0F140025046FFF79E
:10074000C7FE06460D4650465946019A00F01AF972
:1007500010EB08006141002487EA115284EAE77334
:100760001A4340D0009A62B3019A012A4FEA075215
:1007700015DC001B61EB02014FF0004202EA075258
:10078000CDE90042001C41F5801132462B46FFF7AF
:1007900053FF03B0BDE8F08F40462146F9E7001B48
:1007A00061EB0201001C41F5801300185B41201829
:1007B000A2F5001747EB030140EAD570B6196D4169
:1007C00011E06D084FEA360645EAC0754FEA075258
:1007D000001B61EB0201001C41F5801149084FEA42
:1007E00030000019514132462B4603B0BDE8F04FAE
:1007F000FFF713BF0098012240000023D0EB020254
:1008000063EBE073009821464FEAE074B8EB000018
:1008100061EB0401E9E783F000435BE781F000410D
:1008200058E72DE9F04D81EA030404F0004B21F074
:10083000004514464FF0000A23F0004150EA05023B
:1008400020D054EA01021DD0C5F30A570246C5F371
:100850001303C1F31300C1F30A5640F4801543F4A7
:100860008013A7EB0608101BD64608F2FD3873EB81
:10087000050002D308F1010801E092185B41B8F1CC
:10088000000F03DA00200146BDE8F08D00204FF490
:100890008011064684460EE0171B73EB050705D34F
:1008A000121B63EB050306434CEA010C49084FEAAF
:1008B000300092185B4150EA0107EDD152EA030083
:1008C00012D082EA040083EA0501084305D0101B18
:1008D000AB4106D20122002306E000224FF0004384
:1008E00002E06FF0010253101AEB06004CEB0851C6
:1008F00010EB0A0041EB0B01BDE8F04DFFF78DBE98
:10090000C1F30A52C1F3130140F2FF3341F48011E5
:100910009A4202DA00200146704740F233439A427D
:10092000A2F2334202DC5242FFF7E1BDFFF7D0BD35
:1009300030B5041E71F1000404DB4FF00044404266
:1009400064EB0101141E73F1000405DB1C464FF03B
:100950000043524263EB0403994208BF904230BD0A
:10096000064C074D06E0E06840F0010394E80700FC
:1009700098471034AC42F6D3FFF70AFC68620008CF
:1009800088620008202A06DBCB17203A41FA02F0E1
:1009900043EAE07306E041FA02F3D040C2F12002DC
:1009A0009140084319467047C0B24FF4F05100F02F
:1009B000D1B900002DE9FF4F087883B09946FF2890
:1009C00005D0491C2D2804D00024002008E0002078
:1009D0000BE00124F9E700EB800003EB4000491C29
:1009E0000B78FF2BF7D104B1404200230293147817
:1009F00019461D462D2C01D02B2C04D1521C2D2C18
:100A000013D000240294AA461478FF2C0FD00A2594
:100A1000A3FB057801FB05814FF0000C03FB0C11D3
:100A2000521CE3194AEB0101EEE70124EAE7814495
:100A300053EA010002D019F5C87F06DA03980021B5
:100A4000C0E9001107B0BDE8F08F0025AE4E2F467B
:100A5000DFF8B882184600F091F9CDE90001B9F14C
:100A6000000002DAC9F1000400E004460023A74AAE
:100A70001AEB030B42EB045A12E0E00707D02A46B8
:100A8000334638464146FFF76CFC074688462A46FF
:100A9000334610461946FFF764FC05460E466410BF
:100AA000002CEAD1DDE90001B9F1000F5A465346A6
:100AB00006DAFFF7B6FE3A464346FFF7B2FE05E018
:100AC000FFF74FFC3A464346FFF74BFC029A0AB148
:100AD00081F00041039AC2E90001B3E72DE9FF4F1D
:100AE0001F468DB0D7E901464FF0FF382E2045460E
:100AF0004FF000090B90B9696D1C0E988847396A50
:100B0000824688470028F6D1BAF1FF3F0AD024F484
:100B1000D064002E11DDBAF12B0F08D0BAF12D0FE1
:100B20000BD102E0404611B08DE744F48064B9690E
:100B30006D1C0E9888478246761E6946600501D571
:100B40002D2000E02B208DF8000001F1010B0DF1AC
:100B5000200809E0B9696D1C0E98884782460F98F5
:100B600044F40074761E0560002E02DDBAF1300FE9
:100B7000F0D00B998A453ED144F0800406E00F99ED
:100B8000681CA9F1010944F400740860B9696D1C7E
:100B9000761E0E98884782463028F0D02BE00B99BD
:100BA0008A4505D1200603D444F08004761E18E05F
:100BB000504603F047FB08B30DF11301761E44F4D1
:100BC00000748B4508D2AAF130000BF8010B200607
:100BD00007D5A9F1010003E0200602D409F10100C4
:100BE0008146A00502D50F99681C0860B9696D1C83
:100BF0000E9888478246002ED1DC53E0002E51DD4E
:100C0000BAF1650F02D0BAF1450F4BD1A00549D515
:100C1000B9696D1C24F44074761E0E98884782468C
:100C2000002E0CDD2B2804D0BAF12D0F07D144F48F
:100C30008074B9696D1C0E9888478246761EE0055F
:100C400001D52D2100E02B2108F8011BCDF82C80C7
:100C500021E00DF12901761E44F4007488450CD280
:100C6000AAF1300010F0FF0088F8000002D10B99C3
:100C7000884509D908F1010806E0E00501D52448B6
:100C800001E042F20F708146B9696D1C0E988847E9
:100C900082460F980560002E04DD504603F0D2FA1C
:100CA0000028D6D1F9690E988847FF208BF80000FC
:100CB00088F800000020069007904B466A4608A975
:100CC00006A8FFF777FEA00502D46FF001002AE71F
:100CD00014F0240F0AD0E00714D1DDE906123868B9
:100CE000031D3B600068C0E900120BE0DDE906016E
:100CF000FFF7BCFB0146E00704D13868021D3A60EB
:100D00000068016028460EE7000014400000F03F34
:100D1000F1D8FFFF426842B1016811F8013B23B1ED
:100D2000521EC0E90012184670470121C160881E9A
:100D3000704742685AB1C368016843B983688B42FF
:100D400005D0491E521CC0E90012002070474FF028
:100D5000FF3070477F2801D9002208E0064A02EBE5
:100D60005002C007127800D1120902F00F020120D0
:100D70009040084070470000206200080EB540F225
:100D8000334202920022CDE900221346FFF754FCC1
:100D900003B000BD464910B54A6822F440324A60AB
:100DA0004A6843681A434A6001684A6822F48072BC
:100DB0004A6001684A68036942EA03224A6001689E
:100DC0004A6822F040724A6001684A6883681A43A0
:100DD0004A6001688A6822F400628A6001688A6851
:100DE000C3681A438A60816A6FF07062D1420168F9
:100DF0008A6822F070628A6001688A680CD0836A0F
:100E00001A438A6001688A6822F040528A60016849
:100E10008A68C36A1A4301E022F040528A6001687E
:100E20008A6822F002028A6001688A68037E42EAC8
:100E300043028A6090F82010002901684A680FD0A8
:100E400042F400624A6001684A6822F460424A60E3
:100E500001684A68174C436A04EB43331A4301E0C4
:100E600022F400624A600168CA6A22F47002CA620F
:100E70000168CA6A838B104C04EB03531A43CA629D
:100E800001688A6822F400728A6001688A6890F8B2
:100E9000303042EA43228A6001688A6822F4806224
:100EA0008A6001688A68406942EA8020886010BDD3
:100EB0000023014000E0FFFF0000F0FF70B5094C87
:100EC000074A61885054491C88B260800A2806D3BA
:100ED00000259572114604A003F09AF8658070BD54
:100EE00068040020140000205BE8939DE78999E6E0
:100EF00095B0E68DAE5D2025730D0A00FEE77047C4
:100F000072B6FEE7401A00B2B0F5004F02DA10F5F3
:100F1000004F00DA00B2704710B501F085FE0149BC
:100F2000486010BD1800002078B50024009490F8A7
:100F30003C20012A19D0012280F83C200A680723AE
:100F40000568092A13D9EE680A3A02EB4202934077
:100F50009E43EE600B788A680A3B03EB43039A409A
:100F60000368DD682A43DA6010E0022078BD2E694C
:100F700002EB420293409E432E610B788A6803EB9A
:100F800043039A4003681D692A431A614A681F2374
:100F9000072A13D205686E6B521E02EB8202934041
:100FA0009E436E630B790A885B1E92B203EB830348
:100FB0009A4003685D6B2A435A6327E005680D2A4F
:100FC00012D22E6BD21F02EB820293409E432E63FD
:100FD0000B790A88DB1F92B203EB83039A40036804
:100FE0001D6B2A431A6311E0EE6A0D3A02EB82028E
:100FF00093409E43EE620B790A880D3B92B203EB5D
:1010000083039A400368DD6A2A43DA62164B056857
:10101000144A9D4206D10D68122D03D1556845F43E
:101020008005556005689D4218D10B68102B01D0D2
:10103000112B13D1536843F400035360096810293E
:101040000CD10A490A4A0968B1FBF2F101EB8101AE
:10105000490000E0491E00910029FBD180F83C4086
:10106000002078BD00230140002001401000002036
:1010700040420F0070B504004FF0000503D0206C13
:10108000002610B107E0012070BD204600F01CF8DA
:10109000666484F83C60206CC00610D4206C20F498
:1010A000885040F0020020642046FFF773FE66641B
:1010B000206C20F0020040F00100206400E00125D7
:1010C00084F83C60284670BD10B586B004461421F3
:1010D0006846FFF71FF91149206888421CD1104863
:1010E0000021026842F480720260006800F480709F
:1010F00005900B481438026842F001020260006853
:1011000000F001000590022000900320CDE90101CC
:101110006946044800F076F806B010BD0020014092
:1011200044380240000002402DE9F0410446876D3A
:1011300000F06AF9064694F835000025022806D02A
:101140008020606584F834500120BDE8F08120687B
:10115000016821F0160101602068416921F08001D9
:101160004161206C08B9A06C20B12068016821F0B1
:10117000080101602068016821F0010101600CE0B4
:1011800000F042F9801B052807D920206065032064
:1011900084F8350084F83450D7E720680068C00729
:1011A000EED194F85C103F208840B860012084F8AC
:1011B000350084F834500020C7E790F83510022934
:1011C00003D08021416501207047052180F835104A
:1011D0000068016821F001010160002070470000F3
:1011E00070B5044600F010F90546601C02D00448B2
:1011F0000078044400F008F9401BA042FAD370BD07
:10120000040000202DE9F84FDFF8BCA100220125E1
:1012100003264FF00F090AF1040BAAF1040E00BFD8
:101220000B6805FA02F42340A34270D10F7907F04E
:101230000307012F01D0022F16D187684FEA420819
:1012400006FA08FC27EA0C07D1F80CC00CFA08FCD7
:101250004CEA070CC0F808C04768A7430C79C4F3F0
:10126000001494403C4344600C79E443A4070AD042
:10127000C4684FEA420C06FA0CF7BC438F6807FAC1
:101280000CF72743C7600C7904F00304022C12D139
:10129000D40800EB840CDCF820405707FF0E09FA55
:1012A00007F824EA0804D1F8108008FA07F848EA99
:1012B0000408CCF8208004684FEA420C06FA0CF7C8
:1012C000BC430F7907F0030707FA0CF727430760C1
:1012D0004C6814F4403F70D03C4C276847F480477A
:1012E0002760246822F0030704F480440094384CFB
:1012F00007EB040CDCF8084897074FEA177809FA5F
:1013000008F7BC43334FB84202D1002724E054E031
:10131000314FB84201D101271EE0304FB84201D110
:10132000022719E02E4FB84201D1032714E02D4FB8
:10133000B84201D104270FE02B4FB84201D1052755
:101340000AE02A4FB84201D1062705E0284FB842EB
:1013500001D1072700E0082707FA08F72743CCF850
:101360000878DAF800405746D1F804C09C435FEA99
:10137000CC2C00D51C433C60DBF800405F46D1F824
:1013800004C09C435FEA8C2C00D51C433C60DEF813
:1013900000407746D1F804C09C435FEA8C3C00D5FE
:1013A0001C433C60084F083F3C68D1F804C09C4394
:1013B0005FEACC3C00D51C433C60521C102AFFF471
:1013C0002FAFBDE8F88F0000083C014044380240D0
:1013D00000300140000002400004024000080240CA
:1013E000000C0240001002400014024000180240AD
:1013F000001C02400069084000D0012070470AB17B
:10140000816170470904FBE701488068704700006C
:101410000400002070B5040025D094F83D0000259C
:1014200020B984F83C50204600F050F9242084F87C
:101430003D002068016821F0010101602068016819
:1014400041F4004101602068016821F4004101601D
:1014500000F04CFB4D4A6168914201D84C4900E0D4
:101460004C49884201D2012070BD4B492368B0FB32
:10147000F1F15E6826F03F060E435E6063689342BA
:1014800006D94FF4967359434FF47A73B1FBF3F1D5
:101490002368491C1E6A26F03F06314319626168C1
:1014A000914210D84900401EB0FBF1F2521CC2F329
:1014B0000B02042A01D2042022E0B0FBF1F0401C10
:1014C000C0F30B001CE0A268F2B301EBC10303EB15
:1014D0000116431EB3FBF6F35B1C43F480431B056C
:1014E00049D092B301EBC10202EB0111401EB0FBE7
:1014F000F1F0401CC0F30B0040F4804040F4004089
:101500002168CA694CF6FF739A431043C861D4E955
:10151000071001432068026822F0C00211430160F5
:10152000D4E9030101432068826848F2FF339A43FB
:1015300011438160D4E9050108432168CA6822F09B
:10154000FF021043C86001E00EE016E02068016869
:1015500041F0010101602564202084F83D002563ED
:1015600084F83E50002070BD01EB4106431EB3FBE2
:10157000F6F35B1CB3E70120C2E701EB4101401E1B
:10158000B0FBF1F0401CC0F30B00B7E7A0860100F0
:1015900080841E0000093D0040420F002DE9FF4FEE
:1015A00083B09A46DDE9119793460446DDF8408002
:1015B000FFF72AFF054694F83D0020287FD1192324
:1015C000012240492046009501F008FC002876D110
:1015D00094F83C00012872D0012084F83C00206877
:1015E0000168C90703D1016841F001010160206869
:1015F000016821F400610160212084F83D00402051
:1016000084F83E0000262664C4F82480A4F82A90BA
:10161000608D20852C48E062CDE9007553465A461E
:101620002046049901F05AFB70B930E02A46394649
:10163000204601F079FC58B1206C042804D12068C0
:10164000016841F400710160012007B0BDE8F08F2E
:10165000606A216800780861606A401C6062218DC0
:10166000491E89B22185628D521E628522685369A6
:10167000DB435B070BD469B100781061606A401CE2
:101680006062208D401E2085608D401E6085208D0B
:101690000028CBD12A463946204601F073FB0028AA
:1016A000CAD154F83D0B016841F40071016020205B
:1016B00004F81E09E67766770020C6E7FFE70220F8
:1016C000C3E70000020010000000FFFF2DE9F04119
:1016D00086B0044614216846FEF71CFE22683A4C88
:1016E000384B0021384812260325042710349A422B
:1016F00019D1026842F002020260006802AA00F0FA
:101700000200059082E8A200C020CDE900066946EB
:101710002E48FFF777FD206840F400102060206815
:1017200000F400101AE02A4B9A421BD1026842F0E2
:1017300020020260006802AA00F020000590CDE9B6
:10174000005682E8A20069462248FFF75BFD206848
:1017500040F480002060206800F48000059006B00E
:10176000BDE8F0811C4B9A42F9D18846016841F0EE
:1017700004010160016801F004010591016841F074
:10178000010101600068694600F0010005905015F4
:101790008DE84101CDE903571048FFF733FD4FF4C1
:1017A00080708DE84101CDE9035769460C48FFF789
:1017B00029FD206840F400002060206800F400004B
:1017C000CCE70000005400403038024000040240E2
:1017D0000058004000140240005C00400008024035
:1017E000000002400248816802781144816070471D
:1017F000040000200B4810B5016841F4007101603D
:10180000016841F480610160016841F48071016008
:10181000032000F09FF80F2000F006F800F050F8C9
:10182000002010BD003C024030B505461F4887B07F
:101830000024016841F020010160006806A900F061
:101840002000009001A800F031F90498A8B100F040
:101850004DF940001649174AB0FBF1F11648491EF0
:10186000026040F2E732C0E90324C0E90114846158
:1018700000F08EFB040003D015E000F037F9E9E733
:101880000D4800F0CDFB04000DD1372000F034F8F6
:10189000102D07D200222946372000F03BF80748D8
:1018A000056000E0012407B0204630BD403802400A
:1018B00040420F00001400402004002008000020D7
:1018C0000C4882B0016841F480410160006800F476
:1018D000804000900748001F016841F0805101607E
:1018E0000068002200F0805000900F21901E02B08E
:1018F00000F010B844380240002809DB00F01F0255
:10190000012191404009800000F1E020C0F8001161
:1019100070470000F0B40E4B1B680C46C3F3022363
:10192000C3F10705042D00D90425191D072901D28B
:10193000002300E0DB1E012606FA05F1491E2140C6
:1019400099409E40761E16403143F0BC02F070BBB9
:101950000CED00E0064900F0070208684FF6FF03AF
:10196000184040EA0220034A104308607047000014
:101970000CED00E00000FA052DE9F0470E460500E9
:1019800065D0DFF81481D8F80000F7B200F0070046
:10199000B04207D288F80070D8F8000000F00700C5
:1019A000B04254D128683D4C810712D5400703D579
:1019B000206840F4E05020602878000703D52068B4
:1019C00040F4604020602068A96820F0F0000843DF
:1019D00020602878C0072DD0304968680839012870
:1019E00012D0022813D0032811D0096889070029D2
:1019F0002DDA216821F0030101432160FFF704FD86
:101A0000814641F2883A0EE009688903EFE70968E8
:101A10008901ECE7FFF7F8FCA0EB0901514502D979
:101A20000320BDE8F0872068696800F00C00B0EB87
:101A3000810FEFD1D8F80010404601F00701B14204
:101A400007D90770006800F00700B04201D00120FC
:101A5000E7E72878400705D52068E96820F4E050DA
:101A6000084320602878000706D52068296920F4FB
:101A7000604040EAC100206000F058F82168084A40
:101A8000C1F30311515CC84006490860064800686C
:101A9000FFF7CAFE0020C4E7003C024008380240BD
:101AA0000862000810000020080000200F220260D9
:101AB0000C4A136803F003034360136803F0F00358
:101AC0008360136803F4E053C36012684FF4E0537B
:101AD00003EAD20202610448006800F007000860CF
:101AE0007047000008380240003C024004480549A5
:101AF00000680968044AC1F38221515CC8407047FC
:101B00001000002008380240186200080448054907
:101B100000680968044AC1F34231515CC84070470B
:101B2000100000200838024018620008154810B55F
:101B3000006810F00C02144813D01449042A0FD086
:101B4000082A0ED10F4C241F2268236802F03F029E
:101B50005B0207D52068C0F38810A0FB010106E0F6
:101B6000084610BD2168C1F38811A1FB00010023C4
:101B7000FEF786FB2168C1F30141491C4900B0FB17
:101B8000F1F010BD083802400024F40040787D01D7
:101B90002DE9F84F04006ED02078DFF84C93C00791
:101BA000A9F104054AD009F104000168C1F38101DB
:101BB000012908D00068C0F3810002280AD1D9F8B1
:101BC0000000400206D52868800337D560680028E9
:101BD000E1D033E06068B0F5803F10D0B0F5A02FC1
:101BE000286810D020F480302860286820F48020F5
:101BF00028606068A8B1FFF707FC06460DE028687A
:101C000040F48030F4E740F480202860F7E700BF1C
:101C1000FFF7FAFB801B642873D828688003F7D588
:101C20000CE0FFF7F1FB064605E000BFFFF7ECFB19
:101C3000801B6428F0D828688003F7D42078DFF868
:101C4000AC8280074FF0000A3ED5A748001D01680E
:101C500011F00C0F08D00068C0F3810002280BD1EE
:101C6000D9F80000400207D42868800716D5E0683C
:101C7000012800D112E033E1E068B8B10120C8F8D2
:101C80000000FFF7C1FB064605E000BFFFF7BCFB05
:101C9000801B0228C0D828688007F7D528682169EA
:101CA00020F0F80040EAC10028600DE0C8F800A06C
:101CB000FFF7AAFB064604E0FFF7A6FB801B0228FD
:101CC0001FD828688007F7D42078000722D5864FD0
:101CD00087486169703771B101210160FFF794FB9A
:101CE000064604E0FFF790FB801B022809D83868FD
:101CF0008007F7D50EE0C0F800A0FFF785FB064689
:101D000005E082E0FFF780FB801B02287DD8386861
:101D10008007F7D42078400768D5DFF8CCB10027DA
:101D20000BF13C0BDBF80000C0000BD4DBF800101B
:101D300041F08051CBF80010DBF80000012700F0E3
:101D4000805000906B4E3068C00510D4306840F46D
:101D500080703060FFF758FB009005E0FFF754FB00
:101D60000099401A022850D83068C005F6D55E4E5A
:101D7000A0686C3601280FD00528306810D020F0FC
:101D800001003060306820F004003060A068B8B115
:101D9000FFF73AFB00900FE0306840F00100F4E7F5
:101DA00040F004003060F7E7FFF72EFB0099411A7E
:101DB00041F28830814266D830688007F4D50EE061
:101DC000FFF722FB009007E0FFF71EFB0099411A86
:101DD00041F28830814256D830688007F4D42FB160
:101DE000DBF8001021F08051CBF80010A069C8B3D7
:101DF0003D49091D0968C1F3810102294AD0022821
:101E0000504607D0C8F8600000E03CE0FFF7FCFA5D
:101E100004463BE04746C8F86000FFF7F5FA06467F
:101E200005E000BFFFF7F0FA801B02282BD82868D6
:101E30008001F7D4D4E907010843A16A2E4A490872
:101E400002EB0141626A41EA8211084394F82C10C6
:101E500040EA0161C9F8001001203866FFF7D4FAA2
:101E6000044606E03EE000BFFFF7CEFA001B022862
:101E700009D828688001F7D534E000BFFFF7C4FA1D
:101E8000001B022802D90320BDE8F88F28688001D2
:101E9000F4D427E00128F7D0D9F80000E26900F473
:101EA000800191421CD1226A00F03F01914217D17A
:101EB00047F6C071626A0140B1EB821F10D1A26A7D
:101EC0004FF0FF3300F4403103EB5202B1EB024F0D
:101ED00006D194F82C1000F07060B0EB016F01D0C7
:101EE0000120D1E70020CFE704380240000047423C
:101EF000800E4742007000400000FFFF70477047AF
:101F000070B590F83C20012A32D0012480F83C4082
:101F1000022280F83D2003685A689D6822F070060E
:101F20000A6832435A60134B02689A4214D0B2F1E5
:101F3000804F11D0104B9A420ED0104B9A420BD0CA
:101F40000F4B9A4208D00F4B9A4205D00E4B9A4243
:101F500002D00E4B9A4204D1496825F08003194300
:101F6000916080F83D40002180F83C10084670BD2B
:101F7000022070BD00000140000400400008004045
:101F8000000C0040000401400040014000180040E7
:101F900010B5040003D094F83D0010B107E0012013
:101FA00010BD002084F83C00204600F01FF80220FD
:101FB00084F83D00211D206801F02CFD012084F8EB
:101FC000460084F83E0084F83F0084F8400084F81E
:101FD000410084F8420084F8430084F8440084F807
:101FE000450084F83D00002010BD000008B50068E1
:101FF0000949884201D1094804E0B0F1804F09D174
:102000000648001F016841F001010160006800F00E
:102010000100009008BD000000000140443802406B
:1020200090F83D10012901D001207047022180F86D
:102030003D100168CA6842F00102CA600068114997
:10204000884214D0B0F1804F11D00F4988420ED091
:102050000E4988420BD00E49884208D00D4988426B
:1020600005D00D49884202D00C49884204D18168CC
:1020700001F00701062903D0016841F00101016068
:1020800000207047000001400004004000080040AC
:10209000000C0040000401400040014000180040D6
:1020A00070B5044690F83C000025012817D00126A1
:1020B00084F83C60022084F83D002068826822F0A9
:1020C000770222F47F4282600868502838D00DDC05
:1020D00020284FD005DC90B3102811D14AE002200F
:1020E00070BD302846D040280AD13BE060282FD070
:1020F00070280DD0B0F5805F03D0B0F5005F12D02E
:10210000012584F83D60002084F83C00284670BD1D
:10211000CB68D1E90121206801F0F1FC20688168D9
:1021200041F0770109E0CB68D1E90121206801F095
:10213000E6FC2068816841F480418160E1E719E0B4
:10214000CA684968206801F0AFFD5021206806E0A8
:10215000CA684968206801F0B8FD6021206801F074
:10216000D8FCCEE7CA684968206801F09DFD40218F
:102170002068F4E7226801461046F0E72DE9F041B7
:102180000D46040003D094F83D0018B108E001208A
:10219000BDE8F081002084F83C00204600F040F8C3
:1021A000022084F83D002068816844F207029143D0
:1021B0008160211D206801F02DFC226890689169E2
:1021C000166A2B68AF69034340F20330814341EA4A
:1021D0000721A868EF6908434FF6FC418843E96886
:1021E00040EA0720014328692F6A000140EA0730CE
:1021F000084369686D6926F0AA0646EA0515294371
:1022000093602268906154F8460B0162012004F843
:102210001F09E0752076E0762077A0750020B7E7EB
:1022200030B587B0044614216846FEF773F821489C
:1022300024681F4D00221F4910380223AC4216D1DA
:102240000C6844F002040C60096801F00201059179
:10225000016841F0010101600068694600F0010079
:102260000590C0200090CDE90132134819E0134DCC
:10227000AC421AD10C6844F004040C60096801F007
:1022800004010591016841F0080101600068694698
:1022900000F0080005904FF440500090CDE9013265
:1022A0000748CDE90323FEF7ADFF07B030BD0000BE
:1022B0000004004040380240000002400008004096
:1022C000000C024070B590F83E60044690F83F5014
:1022D00090F8423090F84320022021B104290ED01A
:1022E000012E1BD114E0012E18D1012B16D184F838
:1022F0003E0084F8420001220021206820E0012DE8
:102300000CD1012A0AD184F83F0084F8430014E07C
:10231000012D03D1012B01D1012A01D0012070BD73
:1023200084F83E0084F83F0084F8420084F84300BB
:1023300001220021206801F0D5FB01220421206840
:1023400001F0D0FB2068016841F00101016000202C
:1023500070BD70472DE9F04104460068C668056904
:102360004FF00007A90713D5B10711D5F91E016178
:1023700001202077206880698007204602D0FFF77F
:10238000E8FF04E000F0A6F8204600F038F92777CF
:10239000680716D5700714D521686FF0040008612E
:1023A000022020772068806910F4407F204602D008
:1023B000FFF7CFFF04E000F08DF8204600F01FF992
:1023C0002777280715D5300713D521686FF0080047
:1023D0000861042020772068C0698007204602D069
:1023E000FFF7B7FF04E000F075F8204600F007F9AA
:1023F0002777E80616D5F00614D521686FF010008F
:102400000861082020772068C06910F4407F2046CA
:1024100002D0FFF79EFF04E000F05CF8204600F0D9
:10242000EEF82777E80708D0F00706D021686FF0AC
:1024300001000861204600F047F9280608D530065B
:1024400006D521686FF0800008612046FFF756FD31
:10245000680608D5700606D521686FF0400008614F
:10246000204600F03BF9A8060AD5B00608D5216839
:102470006FF0200008612046BDE8F041FFF73FBD46
:10248000BDE8F08110B586B0044614216846FDF71A
:1024900041FF2068B0F1804F16D10C48002102683E
:1024A00042F002020260006800F0020005904FF462
:1024B000406000900220CDE901010120CDE9031028
:1024C00069460348FEF79EFE06B010BD3038024054
:1024D00000040240704770B5044690F83C000026A6
:1024E0000D4601280FD0012084F83C006AB1042A6F
:1024F0001DD0082A2FD00C2A3FD00126002084F8B6
:102500003C00304670BD022070BD206801F00AFB1F
:102510002068816941F0080181612068816921F0AA
:1025200004018161206881692A69114311E02068F2
:1025300001F028FB2068816941F400618161206815
:10254000816921F480618161206881692A6941EA99
:1025500002218161D2E7206801F04AFB2068C1694D
:1025600041F00801C1612068C16921F00401C16125
:102570002068C1692A69114311E0206801F06CFBF1
:102580002068C16941F40061C1612068C16921F41A
:102590008061C1612068C1692A6941EA0221C16183
:1025A000ACE710B5040003D094F83D0010B107E08B
:1025B000012010BD002084F83C00204600F01EF8E9
:1025C000022084F83D00211D206801F023FA01203B
:1025D00084F8460084F83E0084F83F0084F8400008
:1025E00084F8410084F8420084F8430084F84400F1
:1025F00084F8450084F83D00002010BD7047704706
:1026000010B50446022249B104290ED0082913D07E
:1026100094F84100012816D0012010BD94F83E0026
:102620000128F9D184F83E200FE094F83F000128FA
:10263000F2D184F83F2008E094F840000128EBD163
:1026400084F8402001E084F841200122206801F054
:1026500049FA16492068164A884201D0904203D1AF
:10266000436C43F4004343642068884213D0B0F1C4
:10267000804F10D00F4988420DD00F4988420AD0B0
:102680000E49884207D0904205D00D49884202D0B9
:102690000C49884204D1816801F00701062903D062
:1026A000016841F001010160002010BD00000140FF
:1026B000000401400004004000080040000C0040FD
:1026C000004001400018004000680349884201D1E1
:1026D000FFF788B87047000000140040704770474B
:1026E000074910B5884209D106A001F091FCBDE868
:1026F000104001220A49024800F00EBA10BD000045
:1027000090030020E8939DE78999E9809AE4BFA1AE
:10271000E99499E8AFAFEFBC815C720A0000000059
:1027200014000020F8B5016804460868CA684B69BF
:1027300010F00F0F4FF0000559D003F0010602F41E
:102740009077374365D0C10705D0D10503D5616CBB
:1027500041F001016164410705D5D90703D0616CDF
:1027600041F002016164810705D5D90703D0616C8E
:1027700041F004016164010707D502F020013143F3
:1027800003D0616C41F008016164616C00293AD0AA
:10279000800604D5900602D5204601F0D6FA2068BE
:1027A0004069616CC0F38010090700D460B3204613
:1027B00001F0A4FA20684069400621D52068143051
:1027C00050E8001F21F0400140E80012002AF5D136
:1027D000E06BA8B172490165E06BFEF7EEFC0028E2
:1027E00011D0E06B016D01B0BDE8F04008478306F1
:1027F0000FD593060DD52046BDE8F84001F0A5BAE7
:102800002046FFF76DFFF8BD2046FFF769FF6564BE
:10281000F8BD266B2023012E7ED1C6067CD5D606B8
:102820007AD508684868009048694FF0020640066B
:102830004DD5E26B106840684FF480770004000CBF
:102840003AD0A18D814237D9E085D069B8422DD0E8
:1028500020680C3050E8001F21F4807140E800121D
:10286000002AF5D12068143050E8001F21F0010142
:1028700040E80012002AF5D12068143050E8001F0B
:1028800021F0400140E80012002AF5D184F84230DE
:10289000256320680C3050E8001F21F0100140E84B
:1028A0000012002AF5D1E06BFEF73EFC6663A08DB6
:1028B000E18D401A81B206E0A18D8142A8D1D06994
:1028C000B842A5D166632046FFF709FFF8BDA08D89
:1028D000E18D401A81B2E08D0028F7D00029F5D0B3
:1028E00020680C3050E8002F22F4907240E8002756
:1028F000002FF5D12068143050E8002F22F001029B
:1029000040E80027002FF5D184F842302563206885
:102910000C3050E8002F00E006E022F0100240E802
:102920000023002BF3D1CDE705062BD5150629D5BD
:1029300094F841002128C9D1A068B0F5805F01D189
:102940002069B0B1206A411C21622168007848608A
:10295000E08C401E0004000CE084B7D12068C16800
:1029600021F08001C1602068C16841F04001C16070
:10297000F8BD206A0088C0F308004860206A801C07
:102980002062E5E74006F3D55006F1D5CA68204637
:1029900022F04002CA6084F8413000F043F9F8BDEB
:1029A000EF3C000870B5040004D094F84100002505
:1029B00010B106E0012070BD84F84050204600F0C0
:1029C00023F8242084F841002068C16821F40051D4
:1029D000C160204601F01AFA2068016921F4904193
:1029E00001612068416921F02A0141612068C168C4
:1029F00041F40051C1606564202084F8410084F8EE
:102A000042006563002070BDF0B587B00446142114
:102A10006846FDF77FFC3A4B2768002239490224BB
:102A20000325072638489F421CD1364B14331F68B4
:102A300047F010071F601B6803F0100305930B6835
:102A400043F001030B60096802AB01F0010105913D
:102A50006902CDE9001483E864006946FEF7D2FB01
:102A600007B0F0BD274BDFF8A4C0103367451FD176
:102A70001F6847F400371F601B6803F40033059399
:102A80000B6843F001030B60096802AF01F001011C
:102A900005910C21CDE9001487E864006946FEF732
:102AA000B1FB002205212620FEF734FF262023E07B
:102AB00017488742D4D1186840F4802018601868FD
:102AC00000F480200590086840F00800086008685D
:102AD00002AF00F0080005904FF44070CDE900040B
:102AE00087E8640069460B48FEF78CFB002205214D
:102AF0002720FEF70FFF2720FEF7FEFEB0E70000BD
:102B00000010014030380240000002400044004004
:102B100000480040000C024090F84230202B01D0C9
:102B20000220704721B11AB10023036301F0F4B908
:102B30000120704710B500680C49884207D10C4845
:102B4000007800F0B7FE012209490A4809E00A4965
:102B500088420AD109480078FEF7B0F907490848C9
:102B60000122BDE81040FFF7D7BF10BD004800406C
:102B700057000020D803002000440040140000202B
:102B8000900300202DE9F843044690F84100984650
:102B900016460D46202802D00220BDE8F88385B1F4
:102BA0007EB100206064212084F84100FEF72CFCF7
:102BB000A6848146E684A0682027B0F5805F02D015
:102BC00003E00120E9E7206910B12E4600250EE060
:102BD00000260CE08021204601F0B9F9A8B9C6B161
:102BE00016F8010B21684860E08C401EE084E08C00
:102BF0004B464FF00002CDF800800028EAD14FF09C
:102C00004001204601F0A3F940B184F8417003204F
:102C1000C3E735F8020BC0F30800E3E784F841701E
:102C20000020BAE7704700002DE9F0411E4F002454
:102C30004FF4007631463846FEF7DCFB0128F9D028
:102C4000B0463E4600254FF4807701223946304693
:102C5000FEF7D5FB012001F095FE64000022394605
:102C60003046FEF7CCFB012001F08CFE4146304699
:102C7000FEF7C0FB012800D1641C6D1CEDB2182DBD
:102C8000E3D3012239463046FEF7B9FB012001F0BB
:102C900079FE84F40004002239463046FEF7AFFB8B
:102CA0002046BDE8F081000000100240FEE7016808
:102CB0004A69D24352050FD46FF480624A61002101
:102CC00040F8301F202242738173026942F00402EF
:102CD0000261017301207047002070472DE9F8431D
:102CE000044600680D46DDE90897016898461646D7
:102CF00041F4807101604B4600224FF001112046E3
:102D0000009700F06BF848B120680068C00502D554
:102D10004FF4007020640320BDE8F883216805F0BB
:102D2000FE0008613B464A461549204600F09EF8E1
:102D300088B920684169806900903A464946204632
:102D400000F0F2F848B1206C042804D12068016832
:102D500041F4007101600120DEE7F5B2B8F1010F26
:102D600009D02168300A08613A464946204600F0F9
:102D7000DBF80028E7D1206805610020CCE70000DF
:102D80000200010070B516460D4604461EE02046BE
:102D9000FFF78DFF08B1012070BD681C16D0FEF74B
:102DA00033FB801BA84200D885B920684069C04326
:102DB00040070BD5002044F8300F20216173A07329
:102DC000216941F0200121612073E4E72068406916
:102DD000C0434007DBD4002070BD00002DE9F04760
:102DE000984617460D460446C1F30746DDF8209085
:102DF0002AE000BFB8F1FF3F26D0FEF705FBA0EBAD
:102E00000901414502D8B8F1000F1DD12068012EFB
:102E100016D0806925EA00000004000C12D00020C2
:102E2000B84211D1002044F8300F20216173A07303
:102E3000216941F02001216120730120BDE8F08764
:102E40004069E7E70120EBE72068012E0AD080699E
:102E500025EA00000004000C06D00020B842C9D0CA
:102E60000020EBE74069F3E70120F7E72DE9F047A1
:102E7000984616460D4604464FF000094FF0200ACA
:102E8000C1F3074723E020684069C043400515D4DB
:102E90002068016841F40071016021686FF480606E
:102EA0004861C4F8309084F83DA084F83E90216CCD
:102EB00041F00401216484F83C9021E0701C06D0AC
:102EC000FEF7A2FAA0EB0800B04203D816B1012F1A
:102ED0001FD021E02068012F15D0806925EA00006D
:102EE0000004000C18D000BF44F8309F84F80DA0F7
:102EF00084F80E90216941F02001216184F80C9042
:102F00000120BDE8F087406925EA00000004000CBC
:102F1000EAD12068406901E02068806925EA000064
:102F20000004000CAFD1ECE770B516460D46044620
:102F30001EE02046FFF7BBFE08B1012070BD681CF3
:102F400016D0FEF761FA801BA84200D885B9206828
:102F50004069C04300060BD5002044F8300F202103
:102F60006173A073216941F0200121612073E4E7BE
:102F700020684069C0430006DBD4002070BD00001B
:102F8000F0B587B014216846FDF7C4F91248002453
:102F9000016841F00201016000684FF4807500F0A3
:102FA0000200059002200126CDE902400B4FCDE939
:102FB000005669463846FEF725F968008DE851004D
:102FC00069463846FEF71EF9002229463846FEF7C4
:102FD00016FA07B0F0BD0000303802400010024081
:102FE0001FB500211548009101910291124A0391E9
:102FF00002604FF48032C0E90121012401610476AE
:1030000080F820100E4AC0E90A21C461C16080F82E
:1030100030104461FEF72EF808B1FDF771FF04206F
:103020000094CDE9014069460448FDF77DFF002882
:1030300001D0FDF765FF1FBD00200140E400002026
:103040000100000F10B5044A0021044801F020FDE2
:103050000349086010BD0000E46100082139000840
:10306000000000202DE9F04F87B014216846FDF7DD
:1030700051F958480024016841F0040101600168D9
:1030800001F004010591016841F02001016001682F
:1030900001F020010591016841F0800101600168A3
:1030A00001F080010591016841F0010101600168B2
:1030B00001F001010591016841F002010160016820
:1030C00001F002010591016841F010010160016801
:1030D00001F010010591016841F0080101600068EC
:1030E000DFF8F49000F00800059000224FF4B05192
:1030F0004846FEF784F9DFF8E4B0002248F2060102
:103100005846FEF77CF9DFF8D8A04FF4807800220B
:1031100041465046FEF773F9002240213148FEF740
:103120006EF9012215213048FEF769F900220A21C3
:103130002D48FEF764F94FF4C06000900125CDE9F9
:103140000154694648460394FEF75CF80620009057
:10315000CDE90154694658460394FEF753F8280315
:1031600011260227CDE90006CDE9025769464846F7
:10317000FEF748F8CDF800800397CDE90154694681
:103180005046FEF73FF868028DE831006946504628
:10319000FEF738F8E803CDE900060326CDE902562C
:1031A00069465846FEF72EF84020CDE90005CDE9E6
:1031B000024669460B48FEF725F81F200090CDE92E
:1031C0000154694608480394FEF71CF807B0BDE8AF
:1031D000F08F00003038024000140240000402402A
:1031E0000010024000080240000C02400D4810B5DB
:1031F0000B4901600C49416000214FF4804281601D
:10320000C0E9031241618161C1610162FEF702F907
:10321000002803D0BDE81040FDF772BE10BD0000CD
:10322000005400402C010020801A06000D4810B503
:103230000B4901600C49416000214FF480428160DC
:10324000C0E9031241618161C1610162FEF7E2F8E8
:10325000002803D0BDE81040FDF752BE10BD0000AD
:103260000058004080010020801A06000D4810B56B
:103270000B4901600C49416000214FF4804281609C
:10328000C0E9031241618161C1610162FEF7C2F8C8
:10329000002803D0BDE81040FDF732BE10BD00008D
:1032A000005C0040D4010020A086010010B586B06B
:1032B000002418480094019402940394049414493F
:1032C00005940160A721C0E901144FF6FF71C0E920
:1032D00003148021C0E90541FEF75AFE08B1FDF74D
:1032E0000FFE4FF48050009069460A48FEF7D8FE62
:1032F00008B1FDF705FE049404A906480594FEF7FD
:10330000FFFD002801D0FDF7FBFD06B010BD000059
:10331000000001402802002010B58EB00024079460
:10332000089409940A940B941C2168460C94FCF7A9
:10333000F1FF22484FF0804101605321C0E90114A0
:103340004FF47A71C0E9031480218161FEF720FEF9
:1033500008B1FDF7D5FD4FF48050079007A9174835
:10336000FEF79EFE08B1FDF7CBFD1448FFF719F9F3
:1033700008B1FDF7C5FD0B940BA910480C94FEF79E
:10338000BFFD08B1FDF7BCFD6020CDE9000402944B
:103390000822694609480494FFF79DF808B1FDF733
:1033A000AFFD0C2269460548FFF795F808B1FDF717
:1033B000A7FD0248FFF766F80EB010BD70020020AE
:1033C00010B58CB024216846FCF7A4FF00241648F1
:1033D000099414490A94C0E900144FF6FF71C0E93A
:1033E0000241046184610320CDE900040120CDE99C
:1033F00002040494CDE90540079469460A480894FC
:10340000FEF7BCFE08B1FDF77BFD099409A906484B
:103410000A94FEF775FD002801D0FDF771FD0CB090
:1034200010BD000000040040B802002010B58CB0B0
:1034300024216846FCF76EFF0024164809941449BD
:103440000A94C0E900144FF6FF71C0E9024104611B
:1034500084610320CDE900040120CDE90204049435
:10346000CDE90540079469460A480894FEF786FEB0
:1034700008B1FDF745FD099409A906480A94FEF72D
:103480003FFD002801D0FDF73BFD0CB010BD000052
:1034900000080040000300200C4810B50A490160F4
:1034A0004FF4E1314160002181600C22C160C0E92C
:1034B00004128161C161FFF775FA002803D0BDE8ED
:1034C0001040FDF71DBD10BD001001404803002055
:1034D0000C4810B50A4901604FF4E1314160002108
:1034E00081600C22C160C0E904128161C161FFF7F3
:1034F00059FA002803D0BDE81040FDF701BD10BD0A
:1035000000440040900300200C4810B50A490160B7
:103510004FF4E1314160002181600C22C160C0E9BB
:1035200004128161C161FFF73DFA002803D0BDE8B4
:103530001040FDF7E5BC10BD00480040D803002056
:10354000FEE70000DFED060A80EE201A9FED050A77
:1035500061EE000A9FED041A80EE810A70470000B8
:103560000000C344D91A513ECDCCCC3D024890ED69
:10357000020AFFF7E7BF000024000020024890ED98
:10358000030AFFF7DFBF00002400002010B5082168
:103590000E48FFF735F80C210C48FFF731F83C21B5
:1035A0000B48FEF78FFE3C210A48FEF78BFE0122F6
:1035B00004210948FDF723FF05480068416A0748D0
:1035C000018004490968496A418010BD70020020E9
:1035D000B802002000030020000402402400002064
:1035E0002DE9F0411C4615000E46804601D001220F
:1035F00000E00022124F01213846FDF700FF45B1DF
:10360000002202213D463846FDF7F9FE1CB1012299
:1036100002E00122F5E7002204212846FDF7EFFE33
:1036200064B1002208212846FDF7E9FE054802683A
:10363000C2F83C8000680664BDE8F0810122F1E731
:10364000000C02407002002070B51F480068406AFC
:1036500006B21E480068406A1D4C05B23046B4F9F7
:103660000010FDF74FFCA080B4F902102846FDF7CA
:1036700049FCE08026806580B4F90410D4ED040A8A
:1036800000EE101AB7EE001AD4ED021AB8EEC00A16
:1036900031EE601A20EE800A01EE210A84ED020A62
:1036A00000EE100AB8EEC00A20EE800AD4ED030A3C
:1036B00001EE200A84ED030A6069401C60610A285B
:1036C00001DB0020606170BDB80200200003002013
:1036D00024000020FEE770B5002404F1B000C0B261
:1036E00000F01CF8002000F019F8102000F016F887
:1036F0000025002000F024F86D1CEDB2802DF8D3D9
:10370000641CE4B2082CE8D370BD10B5C820FDF7E6
:1037100067FDBDE8104000F061BC000001B584B059
:1037200001214FF4807204A88DE807000B460022A7
:1037300078210248FDF732FF05B000BD2C010020C2
:1037400001B584B001214FF4807204A88DE8070010
:103750000B46402278210248FDF720FF05B000BD4E
:103760002C010020F0B52DED028B8BB00446FCF748
:10377000E8FD2178562915D1204410F8011C45296F
:1037800010D10026012500F8016C641C05E0605D85
:103790002B280BD02D2809D06D1C2046FCF7D1FD1D
:1037A000A842F4D80BB0BDEC028BF0BD6519F9D07E
:1037B0000296039604962F1B059606960796089682
:1037C0003A46214602A80996FCF7AFFD02A8294611
:1037D000C65506A8FCF7BCFD02A800F039FC51EC68
:1037E000100BFCF743FE08EE900A06A800F030FC30
:1037F00051EC100BFCF73AFE08EE100AF5EEC08A09
:10380000F1EE10FA01DB012400E00024B5EEC08ADD
:10381000F1EE10FA01DB012500E00025B0EE680AA8
:1038200000F068F80646B0EE480A00F063F801B20E
:103830002B46224630B2FFF7D3FEFFF705FFFFF716
:1038400095FE10EE104AFFF799FE10EE100AFCF7F5
:10385000FAFD05460E462046FCF7F5FD41EC100B3F
:10386000CDE9005653EC102B01A000F0D1FB99E7F5
:1038700041637475616C2053706565643A204C3DFA
:10388000252E3366206D2F732C20523D252E336656
:10389000206D2F730D0A00000449034801220978A6
:1038A00001440348FFF738B968050020580000209C
:1038B000D803002070B50D2813D00A2811D00B4C66
:1038C0000B4A217871B13F2902D25054491C217012
:1038D000452806D1C8B2002515540548FFF742FF18
:1038E000257070BD5628F0D070BD00005800002033
:1038F00068050020DFED090AB0EEC00A4FF47A71C6
:1039000020EE200ABDEEC00A10EE100A884201DD4A
:10391000084670470028FCDA0020704700803B44CE
:10392000074810B50078FFF7C5FF01220449054894
:10393000FFF7F2F8BDE810404FF47A7001F06DB86F
:1039400057000020D803002010B54FF0E020006998
:1039500002F092FA012803D0BDE8104001F0C0BF88
:1039600010BD000030B593B030216846FCF7D2FCA2
:1039700014210CA8FCF7CEFC1D480025016841F07D
:1039800080510160006800F0805011901948016872
:1039900041F4804101600068022400F480401190ED
:1039A0000120039010200490009406940820CDE993
:1039B0000750A820CDE9090404200B906846FEF7C3
:1039C000E7F808B172B6FEE70CA90F2081E83100D4
:1039D0004FF4A0500F904FF48050109005210CA888
:1039E000FDF7CAFF002801D072B6FEE713B030BD64
:1039F00040380240007000400248016841F4700104
:103A00000160704788ED00E00148FEF7A3BC0000AC
:103A100020040020F0B50268274B284D284E294F7E
:103A2000294C4FF0804C984209D0604507D0A842FD
:103A300005D0B04203D0B84201D0A04204D122F058
:103A4000700E4A6842EA0E0298421BD0604519D0B7
:103A5000A84217D0B04215D0B84213D0A04211D01E
:103A60001A4DA8420ED01A4DA8420BD0194DA842AB
:103A700008D0194DA84205D0184DA84202D0184DC3
:103A8000A84203D122F44075CA682A434D6922F046
:103A900080022A438D68C5620D688562984201D014
:103AA000A04201D109690163016841F0040101608C
:103AB000012141610260F0BD0000014000040040AE
:103AC00000080040000C004000040140004001409C
:103AD000004401400048014000180040001C004024
:103AE0000020004010B501F01F030121046A994035
:103AF0008C430462016A9A401143016210BD10B503
:103B0000846842EA032224F47F440A432243826009
:103B100010BD826822F070020A4342F00701816002
:103B200070470000F0B5036A026A22F001020262E7
:103B300042688469124E24F073050C682C4323F00C
:103B400002058B682B430D4DA84201D0B04205D130
:103B500023F00807CB683B4323F00403A84201D0BD
:103B6000B04205D14D6922F4407215438A692A4357
:103B700042608461496841630362F0BD0000014016
:103B800000040140F0B5026A036A23F010030362E7
:103B9000436884690D6824F4E64444EA05248D688A
:103BA00022F0200242EA05120F4D104EA84201D029
:103BB000B04206D1CF6822F0800242EA071222F01A
:103BC0004002A84201D0B04207D14D6923F44063BE
:103BD00043EA85038D6943EA85034360846149684C
:103BE00081630262F0BD000000000140000401405A
:103BF000F0B5026A036A23F4807303624368C46900
:103C000022F4007224F073050C68124E2C438D6868
:103C100042EA05220E4DA84201D0B04206D1CF683B
:103C200022F4006242EA072222F48062A84201D014
:103C3000B04207D14D6923F4405343EA05138D691F
:103C400043EA05134360C4614968C1630262F0BD81
:103C5000000001400004014030B5046A026A22F409
:103C6000805202624268C3690D6823F4E64343EA66
:103C700005238D6824F4005444EA0534084DA84215
:103C800002D0084DA84204D14D6922F4804242EA94
:103C900085124260C36149680164046230BD00005E
:103CA000000001400004014010B5036A046A24F0DA
:103CB00001040462846924F0F00444EA021423F04D
:103CC0000A020A438461026210BD10B5036A046AE5
:103CD00024F010040462846923F0A00324F47044E7
:103CE00044EA023243EA01118261016210BD10B55B
:103CF000806B0021C185FEF7F3FC10BD01680C311B
:103D000051E8002F22F4907241E80023002BF5D1F6
:103D10000168143151E8002F22F0010241E800232C
:103D2000002BF5D1016B012909D101680C3151E853
:103D3000002F22F0100241E80023002BF5D12021B2
:103D400080F8421000210163704708B590F84210D6
:103D5000222901D0022008BD82684FF480539A4284
:103D600001D1016921B1816A9A421BD04AB10AE0AE
:103D70000268816A5268C2F308020A80816A891C5B
:103D800008E0026972B10268526802F07F020A70AC
:103D9000816A491C8162C18D491E0904090CC185D3
:103DA00003D01BE002685268F1E70168CA6822F09C
:103DB0002002CA600168CA6822F48072CA60016881
:103DC0004A6922F001024A61202180F84210002154
:103DD0004163026B012A03D0FEF7ACFE002008BD50
:103DE000016301680C3151E8002F22F0100241E814
:103DF0000023002BF5D101680A68D20602D50A68B3
:103E000049680091818DFEF76AFCE7E770B50446CA
:103E100000680169E26821F44051114301612169A0
:103E2000A068E26908436169114308432168CA68D0
:103E300049F20C639A430243CA6020684169A2694F
:103E400021F440711143416131492068884202D018
:103E50003049884202D1FDF759FE01E0FDF746FEE8
:103E6000E2690023192164253226B2F5004F626809
:103E700028D0A0FB0101930F9200FCF701FA014644
:103E8000B0FBF5F06FF01802504301EB800006EB39
:103E90000010B0FBF5F000F0F002B1FBF5F002EB22
:103EA0000012B1FBF5F06FF01803584301EB8000EE
:103EB00006EB0010B0FBF5F000F00F002168104495
:103EC000886070BDA0FB010192185B41FCF7D8F936
:103ED0000146B0FBF5F00201B1FBF5F06FF01803FD
:103EE000584301EB800006EBC000B0FBF5F000F09A
:103EF000F80002EB4002B1FBF5F0584301EB800003
:103F000006EBC000B0FBF5F000F00700D6E70000BC
:103F1000001001400014014081628285C2850021A9
:103F20004164222180F84210016921B10168CA6808
:103F300042F48072CA6001684A6942F001024A6133
:103F40000068C16841F02001C160002070472DE980
:103F5000F843984617460D460446089E24E0701C18
:103F600022D0FDF751FAA0EB0800B0421AD8CEB12A
:103F70002068C168490717D5802D15D0402D13D072
:103F80000168C94309070FD4016800254068009003
:103F90002046FFF7B3FE0820606484F840500120FB
:103FA000BDE8F8830320FBE72068006835EA0000DD
:103FB00004D00020B842D2D00020F1E70120F9E778
:103FC0000148FEF7AFBB0000900300200148FEF758
:103FD000A9BB0000D8030020FEE70000FEB50024C6
:103FE000094F4FF4807501263819CDE900060123E9
:103FF0000022782102950548FDF7D0FA641CE4B24E
:104000001B2CF1D3FEBD00003C0000202C01002041
:104010000FB4054B10B503A9044A029800F01AF931
:1040200010BC5DF814FB0000A5490008DC0000206E
:104030000907090E002804DB00F1E02080F80014D5
:10404000704700F00F0000F1E02080F8141D704769
:1040500030B583B0044600F017F89FED090B054614
:104060008DED000B002221466846FCF76CFA2846CD
:1040700000F020F89DED000B03B030BD0000000003
:1040800000000000000000000148006870470000C8
:10409000E000002002E008C8121F08C1002AFAD17F
:1040A00070477047002001E001C1121F002AFBD1B8
:1040B000704700000149086070470000E0000020E0
:1040C0002DE9FF5F82B00021DDE90430020DDDF84B
:1040D00040B0034318D044F61050A2F2FF324243DE
:1040E0001514119801281FD0A5EB0B00401C5FEAA6
:1040F000000A4FF000064E4FDFF83891B0465046A8
:1041000015D5CAF1000413E0119801244AA301282F
:1041100001D16FEA0B010298119AC0E90031C0E9A0
:10412000024206B0BDE8F09FCBF10000DFE7044695
:104130000021404A491842EB0450CDE9001012E03A
:10414000E00707D032463B4640464946FCF709F9AE
:104150008046894632463B4610461946FCF701F92F
:1041600006460F466410002CEAD1DDE90401DDE9C2
:104170000023BAF1000F06DAFCF7F3F842464B468B
:10418000FCF7EFF805E0FCF74CFB42464B46FCF72A
:1041900048FB04460E460022284BFCF7C9FB03D817
:1041A0004FF0FF30014607E00022254B2046314604
:1041B000FCF790FAFCF7A4FB102409E0002C0ADBC2
:1041C0000A220023FCF75CF8039B30321A55641E68
:1041D00050EA0102F2D1641C039AC4F111031444A1
:1041E000119A012A03D0012208430DD10AE00843A5
:1041F00004D000204FF0110B119072E7A3EB0B05D8
:104200006D1E0DE05B4504DD4FF0000205F1010578
:1042100004E003DA4FF00002A5F10105002AECD01A
:1042200002981199C0E90231C0E9004579E7000020
:10423000000014400000F03F300000000000F04398
:104240000000E03F30380A2801D2012070470020EA
:10425000704700002DE9FF4F95B09B468946064602
:1042600000250FE2252877D100242746F84A0121AE
:10427000059400E0044316F8013F203B01FA03F0E7
:104280001042F7D130782A2811D06FF02F03307800
:10429000A0F13002092A16D8059A44F0020402EB74
:1042A000820203EB42021044761C0590EFE759F8B6
:1042B000042B0592002A03DA504244F4005405907E
:1042C00044F00204761C30782E2816D116F8010F1F
:1042D00044F004042A280DD06FF02F023078A0F1AA
:1042E0003003092B09D807EB870302EB4303C718F8
:1042F000761CF3E759F8047B761C30786C280FD0D5
:1043000006DC4C2817D068280DD06A2814D104E0A8
:10431000742810D07A280FD10DE044F400140AE07C
:1043200044F4801401E044F440147278824202D1D3
:1043300004F58014761C761C307866280BD013DCCC
:10434000582877D009DC002875D04528F6D04628B3
:10435000F4D047281AD19DE118E0632835D06428AD
:1043600079D0652812D195E1702873D008DC6728D0
:10437000F1D069286FD06E280DD06F2806D1B5E036
:1043800073282CD0752875D0782874D05A46179980
:1043900090476D1C75E1C4F30250022809D0032830
:1043A0000DD0D9F8001004280DD00D6009F10409D2
:1043B00067E1D9F80010EA17C1E90052F6E7D9F829
:1043C00000100D80F2E70D70F0E719F8041B8DF86E
:1043D000001000208DF80100EA46012003E059F8A2
:1043E00004AB4FF0FF3061074FF0000102D40DE045
:1043F00008F101018846B9420FDA8045F8DB1AF866
:1044000008100029F4D108E008F101018846814232
:10441000FADB1AF808100029F6D105985B46A0EBE4
:10442000080721463846179A00F094FA284400EB12
:10443000080507E04DE029E10DE01AF8010B5A46A6
:1044400017999047B8F10108F7D25B4621463846E4
:10445000179A13E142E00A220092C4F302524FF08D
:10446000000A022A08D059F804CB032A4FEAEC715B
:104470000AD00DE029E02AE009F1070121F0070246
:10448000F2E802C1914609E00FFA8CFC4FEAEC71A8
:10449000042A03D14FFA8CFC4FEAEC71002907DAA9
:1044A0000A460021DCF1000C61EB02012D2202E042
:1044B000220504D52B228DF80420012203E0E20717
:1044C00001D02022F7E7904659E00A2102E01022AD
:1044D0000DE010214FF0000A00910BE010224FF088
:1044E000000A44F004040827009203E008224FF079
:1044F000000A0092C4F30252022A05D059F804CBF4
:104500000021032A08D009E009F1070121F0070280
:10451000F2E802C1914605E01FFA8CFC042A01D1A1
:104520000CF0FF0C4FF00008220728D5702806D0A9
:10453000009B83F0100353EA0A0305D00EE04022EB
:104540008DF80420012208E05CEA010206D0302246
:104550008DF804208DF8050002229046009B83F020
:10456000080353EA0A030AD15CEA010201D1620797
:1045700005D530228DF804204FF001087F1E582801
:1045800004D034A003900EA802900DE036A0F9E705
:1045900053466046009AFBF773FE84460398825C9C
:1045A0000298401E029002705CEA0100F0D102986D
:1045B00006A9081A00F1200A600702D524F4803405
:1045C00000E00127574502DDA7EB0A0000E00020CC
:1045D00000EB0A01009005984144401A0590E00361
:1045E00006D45B462146179A059800F0B3F90544B6
:1045F000002706E001A85A46C05D179990476D1C38
:104600007F1C4745F6DBE0030CD55B462146179A35
:10461000059800F09FF9054404E030205A461799A8
:1046200090476D1C0099481E00900029F5DC08E0B9
:10463000029802995A460078491C029117999047AE
:104640006D1CBAF10001AAF1010AF1DC65E100007C
:104650000928010030313233343536373839616258
:10466000636465660000000030313233343536371C
:1046700038394142434445460000000000F058F9F3
:104680000544761C307800287FF4ECAD19B028463C
:10469000BDE8F08F620700D4062709F1070222F077
:1046A000070CFCE80223E14603F000485FEA080C2F
:1046B00002D00FF2702C0DE05FEA045C02D50FF21D
:1046C000682C07E05FEAC47C02D00FF2602C01E0A6
:1046D000AFF2700C4FF0FF3823F00043CDF850C01C
:1046E00065280CD006DC452809D046281DD047286F
:1046F0003DD13DE0662818D067287ED138E0002102
:10470000112F01DB112000E0781CCDE9000106A982
:104710000EA8FFF7D5FCDDE90F010E9A03910021E9
:10472000009207F1010A04914DE04FF0004000971C
:10473000CDE9011006A90EA8FFF7C2FCDDE90F02C2
:1047400003920E9B11990022DDF80CA000930492B5
:1047500011B9791C00EB010AB7EB0A0004D4C0F1CF
:10476000FF3007F1010A0490AAEB0700019044E032
:10477000012F00DA01270021112F01DD112000E0B7
:104780003846CDE9000106A90EA8FFF799FCDDE93E
:104790000F010E9A0391002104910092BA4621075D
:1047A0000CD40399514500DA8A46BAF1010F05DDB0
:1047B000009AAAF10101515C302908D0B84202DA0E
:1047C00010F1040F06DA0121CDE9011015E0AAF17C
:1047D0000101E9E7002805DC049901440491AAEBF2
:1047E000000102E0411C514500DD8A460499401A4F
:1047F000401C01904FF000400290200704D4019823
:10480000504501DBCDF8048000208DF84F00029860
:104810000DF14F07B0F1004F25D02B200E900298DC
:104820004FF0020800280CDA404202902D200E9032
:1048300007E00A210298FBF735FE3031029007F8B5
:10484000011DB8F10001A8F10108F2DC029800286E
:10485000EFD1791E0E980870307800F0200040F0FB
:10486000450007F8020D12A8C01B00F107081498B4
:10487000007800B1012000EB0A01019801EBE07122
:1048800005984144401A401E0590E00306D45B465B
:104890002146179A059800F05DF8054414980078B1
:1048A00018B15A46179990476D1CE00324D55B4612
:1048B0002146179A059800F04DF805441CE004982D
:1048C000002807DBDDE90301884203DD0098405C36
:1048D000179901E0179930205A469047049805F13E
:1048E0000105401C04900198401E019004D12E2027
:1048F0005A46179990476D1CBAF10001AAF1010AB6
:10490000DDDC05E017F8010B5A46179990476D1C3E
:10491000B8F10001A8F10108F4DC5B462146179AC2
:104920000598ABE62D0000002B00000020000000E1
:104930002DE9F041044600251E461746880404D49C
:1049400005E039462020B0476D1C641EF9D5284685
:10495000BDE8F0812DE9F041044600251E46904651
:10496000C80301D5302700E02027880404D505E0DE
:1049700041463846B0476D1C641EF9D52846BDE84F
:10498000F08100000549064A0968B1FBF2F1414394
:104990000520B1FBF0F0401EFDD270471000002052
:1049A00040420F0013B54FF0FF3301226946024821
:1049B000FEF7E8F800981CBDD8030020FCF71AFFAA
:1049C000FEF7D0FFFEF74EFBFEF770FCFEF764FD2E
:1049D000FEF77EFDFEF7A0FCFEF7F2FCFEF726FDDB
:1049E000FEF792FDFEF7FCFAFEF700FCFEF71EFC58
:1049F000FEF73CFCFEF7CAFDFEF74EFFFEF7C0FADD
:104A0000FCF78AFA00F016F8FEF71CFB00F024F819
:104A1000FEF77BFEFEF75FFEFEE710B5EFF30581C4
:104A200011B16FF0050403E0002408B100F0F8FDB7
:104A3000204610BDEFF3058010B16FF00500704700
:104A40000448016811B14FF0FF3070470121016047
:104A500000207047AC00002010B5EFF3058010B1C6
:104A60006FF0050010BD08480168012902D04FF021
:104A7000FF3010BD054A002182F8141D022101609B
:104A800000F036FE002010BDAC0000200BE000E07E
:104A90002DE9FF414FEA01034FF00005EFF30581D7
:104AA000039549BB40B38027182100244AB31668F8
:104AB00006B1344696691EB13146761E382E02D2B2
:104AC0001679F60703D0002004B0BDE8F0815669DE
:104AD00006B1B708D2F808C0BCF1000F0DD0D568F8
:104AE0005C2D18D312693AB136B18DE806103A46FA
:104AF000214601F096F903900DE0D6685EB912697F
:104B00004AB903AACDE90012BAB2214601F05CF914
:104B1000012800D003950398D6E700002DE9F04165
:104B2000134C0F460546E6682068001D00F044FC63
:104B3000681C07D137B12168BDE8F0410D48091D57
:104B400000F08ABC20683544B5424560216805D232
:104B5000A06BBDE8F041091D00F066BC606B091D4B
:104B600000F062FCA06A854200D2A562BDE8F08137
:104B70005C000020980A00202DE9F041054600F075
:104B800077FC2D4CA068401CA06020682B4F10B112
:104B9000606930B32BE02560A068012827D100268A
:104BA00006EB860007EB800000F030FC761C382E08
:104BB000F6D3234800F02AFC2148143000F026FCEC
:104BC0001F48283000F022FC1D483C3000F01EFC3D
:104BD0001B48503000F01AFC194860631430A06381
:104BE00005E02068E96AC06A884200D82560606AEA
:104BF000401C60626864E86A2169884200D92061CB
:104C000000EB800007EB8000291D00F025FC00F080
:104C10004FFC606900280CD02068E96AC06A8842AD
:104C200007D208494FF080500860BFF34F8FBFF3A1
:104C30006F8FBDE8F08100005C000020E8050020D7
:104C4000480A002004ED00E038B500F011FC104CDB
:104C50002068C8B90F4800F0D9FB0E48143000F0A6
:104C6000D5FB0C48E060143020610A4B0020F03B7B
:104C7000009003F1500210210A2000F047FE20604E
:104C800010B105A100F096FCBDE8384000F010BC62
:104C9000980000209C0B0020546D72510000000011
:104CA00030B4026C0B46002A0BD0C1681144C160BD
:104CB0008468A14201D30168C16030BC1846FBF78B
:104CC00010BB30BC70472DE9F041856B1746044698
:104CD0000026026C82B1C7B1E068FBF702FBE16815
:104CE000206C091AE1602268914202D2A168081A78
:104CF000E060022F16D017E02068A8B9A06801F084
:104D000033F906460020A0600EE06068FBF7E9FA80
:104D1000216C606808446060A168884204D3206800
:104D2000606001E005B16D1E6D1CA5633046BDE8F5
:104D3000F08110B5044690F8590058B101280CD004
:104D400002280FD0502080F31188BFF34F8FBFF39C
:104D50006F8FFEE7206B00F0BFFB2046BDE81040E0
:104D600000F0BABB10BD000010484FF4705142076C
:104D700006D0C01D0D4920F00700411AC1F5705141
:104D80000B4A00230144C2E900030839183A21F014
:104D9000070111604B600B600B1AC0E900139360B0
:104DA0004FF0004053605061704700007C120020BB
:104DB000C8000020144E154CA6F29C474FF08058B6
:104DC000DFF84C9012E000BF00F052FBF068C568BD
:104DD000281D00F0F1FAA068401EA0606068401E27
:104DE000606000F065FB2846FFF7A3FF60680028BD
:104DF000EAD138680128F9D9C9F80080BFF34F8F8C
:104E0000BFF36F8FF2E70000840A00205C000020EF
:104E100004ED00E070B51D46049C51B1C4F80020BB
:104E2000C4E90F010121204600F0A4FD84F84C5094
:104E300070BD2460F4E700002DE9F05F8846DDE9ED
:104E40000B941546834691009A460A9EA522206B34
:104E5000FBF759FA6FF00301206B01EB8501084461
:104E600020F00707780707D0502080F31188BFF3A0
:104E70004F8FBFF36F8FFEE70025B8F1000F0FD003
:104E80005FF00000221818F8001082F8341018F8AB
:104E9000001011B1401C1028F4D384F8435001E0F5
:104EA00084F83450382E00D33726E662C4E91365FF
:104EB000201D00F0B6FA04F1180000F0B2FA2461E7
:104EC000C6F138006462A061656584F858505246A6
:104ED0005946384600F05AFA2060B9F1000F01D067
:104EE000C9F80040BDE8F09F30B5114900E0114617
:104EF0000A688242FBD34B685C18844203D1406845
:104F000018444860084643681C18944209D1084C6C
:104F1000183C2468A24209D052681A4442600A68C8
:104F200012680260814200D0086030BD0460F9E779
:104F3000C800002070B5002441600B4D0061914213
:104F400006D8D11A8269914206D2011D286907E06C
:104F50009A4203D2994201D3012403E0011DE8687B
:104F600000F062FA204670BD9800002010B504469B
:104F700000F07EFAA06B28B15FF0000400F098FA10
:104F8000204610BD0124F9E730B589B03C4D6EE0F4
:104F90000498002806DADDE90601059A904704988E
:104FA000002864DB069C606910B1201D00F004FA43
:104FB00003A800F0D7F8024604980A2857D2DFE881
:104FC00000F00505052D334A05052D3394F828001A
:104FD00040F0010084F828000599A069059B014470
:104FE0002046FFF7A7FF68B3216A2046884794F858
:104FF000280040073BD5002000900598A1690023B8
:1050000042181946204601F0B9F8D8B9502080F36B
:105010001188BFF34F8FBFF36F8FFEE714F8280F8F
:1050200020F00100207022E094F8280040F00100F8
:1050300084F828000598A06128B1811813462046FD
:10504000FFF778FF13E0502080F31188BFF34F8FF4
:10505000BFF36F8FFEE794F82800810703D4204642
:1050600000F03AFA03E020F0010084F82800002262
:1050700004A9286800F0D2FD002889D109B030BD0C
:10508000980000202DE9FC410F46054600F074FB16
:1050900001A800F067F80446019818B100F0DCFFA1
:1050A000BDE8FC81254EAFB130690068D0B3002760
:1050B000291B3A46306800F091FA00F0CDFF002835
:1050C000EED11F494FF080500860BFF34F8FBFF300
:1050D0006F8FE5E7A542EBD800F0BEFFF0682746EA
:1050E000C068C468201D00F067F994F828004107E3
:1050F00019D5A0692B4641193A462046FFF71AFFF9
:10510000A8B100200346014600902A46204601F03F
:1051100035F860B9502080F31188BFF34F8FBFF38B
:105120006F8FFEE707E020F0010084F82800216A75
:1051300020468847B4E70127BAE70000980000201E
:1051400004ED00E00648416B096829B1416BC9686C
:10515000C9684968816270474FF0FF31FAE7000083
:105160005C00002070B5054600F094FE064E044633
:10517000B068844203D200F009F8012000E000206A
:1051800028602046B46070BD98000020F8B5194D25
:1051900020E0C068C4680668201D00F00DF9216A8F
:1051A0002046884794F82800400713D5A06930446A
:1051B000B04206D924616060211DE86800F034F92E
:1051C00008E000200346014600903246204600F0E9
:1051D000D5FF38B1E86801680029DAD12969C5E945
:1051E0000310F8BD502080F31188BFF34F8FBFF339
:1051F0006F8FFEE79800002008484068401C4FF081
:10520000500080F3118804D0BFF34F8FBFF36F8F2E
:10521000FEE7BFF34F8FBFF36F8FFEE7D000002094
:10522000074CE068016841B1C0680021D0F8000077
:10523000FFF728FFFFF7A8FEF3E701210020F7E7BB
:10524000980000202DE9F041044600F011F994F98E
:10525000455004F1240609E0606A48B1304600F088
:10526000C3FE08B100F00AFA6D1E6DB2002DF3DC2A
:105270004FF0FF3684F8456000F01AF900F0F8F8B6
:1052800094F9445004F1100709E0206948B1384608
:1052900000F0AAFE08B100F0F1F96D1E6DB2002D0C
:1052A000F3DC84F84460BDE8F04100F001B900008F
:1052B0002DE9F0410546002700F05EFA324E3068D5
:1052C00008B9FFF751FD706905424ED1C5B30835E5
:1052D00068070ED005F00700C0F108000544680714
:1052E00007D0502080F31188BFF34F8FBFF36F8F2B
:1052F000FEE72DB37068854237D823481830014641
:105300000C6801E020460C466168A94202D221687F
:105310000029F7D131688C4227D0076821680160E5
:1053200060680837411B10290FD96019420708D05F
:10533000502080F31188BFF34F8FBFF36F8FFEE7CC
:1053400013E041606560FFF7CFFD61687068401A47
:105350007060B268904200D2B06070690143002072
:10536000C4E90001F068401CF06000F075FE7807A9
:1053700007D0502080F31188BFF34F8FBFF36F8F9A
:10538000FEE73846BDE8F081B000002010B5031FED
:105390004FF080741C601B1F21F001011960191F60
:1053A000044B0B6014390A60091F6FF00202443885
:1053B0000A6010BDF9510008D0E9013201699A6014
:1053C000D0E901235A604A68824201D182684A606A
:1053D000002202610868401E0860086870470000EB
:1053E000034B036003F15C0008608020106070478D
:1053F000C40B0020044B036003F15C0008604FF411
:105400008070106070470000200E002000F108013D
:105410004FF0FF32C0E90112C1600161002101605B
:10542000704700210161704730B50B685A1C02D0EB
:1054300000F1080202E0026904E02246546825688F
:105440009D42FAD953684B6099608A605160086147
:105450000168491C016030BD42684A6093688B60F6
:1054600093685960916008610168491C0160704748
:10547000502080F31188BFF34F8FBFF36F8F0A491D
:105480004868401C486001280CD10848006810F0AA
:10549000FF0F07D0502080F31188BFF34F8FBFF369
:1054A0006F8FFEE770470000D000002004ED00E0A1
:1054B0000849486828B1401E486001D180F311882E
:1054C0007047502080F31188BFF34F8FBFF36F8F69
:1054D000FEE70000D000002070B500282AD0164D4D
:1054E000A0F1080460686969084207D1502080F380
:1054F0001188BFF34F8FBFF36F8FFEE722683AB179
:10550000502080F31188BFF34F8FBFF36F8FFEE7FA
:105510008843606000F030F960686968084468603A
:105520002046FFF7E1FC2869401C2861BDE8704077
:1055300000F092BD70BD0000B00000204FF0E020F0
:1055400000210161816105494FF47A720968B1FB5C
:10555000F2F1491E416107210161704710000020EE
:1055600010B5FAF777FE114910280ED300F1E020AC
:1055700090F8F0030A78904207D2502080F3118807
:10558000BFF34F8FBFF36F8FFEE70948006889684C
:1055900000F4E060884207D9502080F31188BFF3FF
:1055A0004F8FBFF36F8FFEE710BD0000D0000020CB
:1055B0000CED00E010B5084B002200BF53F832405C
:1055C0001CB1521C082AF9D310BD43F8321003EB6A
:1055D000C201486010BD0000A805002070B5154646
:1055E0000E460446FFF744FF94F944100020491C7E
:1055F00001D184F8440094F94510491C01D184F884
:105600004500FFF755FFA06B28B92A46314604F143
:10561000240000F051F82046BDE87040FFF712BEAC
:1056200010B5020014D00F48006B38B1502080F341
:105630001188BFF34F8FBFF36F8FFEE700F09CF828
:1056400000211046FFF76AFA00F006FD002807D196
:1056500005494FF080500860BFF34F8FBFF36F8F45
:1056600010BD00005C00002004ED00E002490A6A61
:105670000260C968416070475C0000200149012058
:10568000C86170475C00002010B50C4650B1094954
:1056900009681831FFF7C8FE2046BDE81040012117
:1056A000FFF73CBA502080F31188BFF34F8FBFF350
:1056B0006F8FFEE75C00002070B514460D4668B1A0
:1056C0000A4909681831FFF7C7FE0CB14FF0FF35E2
:1056D00021462846BDE87040FFF720BA502080F3ED
:1056E0001188BFF34F8FBFF36F8FFEE75C00002080
:1056F00030B587B00024039405AA04A903A8049434
:10570000FFF76EFEDDE903010094CDE901100023EF
:1057100015A11748059A00F084FB164D0028E86291
:105720001FD000F0FBFC012809D0401C19D15020EB
:1057300080F31188BFF34F8FBFF36F8FFEE75020C8
:1057400080F31188BFF34F8FBFF36F8F4FF0FF309F
:10575000A86201206861EC6007B0BDE8304000F04D
:1057600045B807B030BD000049444C45000000007A
:10577000B54D00085C0000200248016B491C016324
:10578000704700005C000020164810B5016B11B195
:105790000121C16110BD0021C1610169124A01E00E
:1057A000B9B1491E01EB810352F82330002BF7D029
:1057B00001EB810302EB830202F1080453685B688A
:1057C0005360A34201D15B685360DA6802600161F3
:1057D00010BD502080F31188BFF34F8FBFF36F8F40
:1057E000FEE700005C000020E80500201CB53748FB
:1057F0000168374A914207D1502080F31188BFF3E6
:105800004F8FBFF36F8FFEE700683149491E884212
:1058100007D1502080F31188BFF34F8FBFF36F8FF4
:10582000FEE72C4908780190FF20087008788DF871
:1058300000009DF800009DF8002000F0F00090426C
:1058400007D0502080F31188BFF34F8FBFF36F8FC5
:10585000FEE79DF80000204C00F05000207007206B
:10586000A06005E09DF8002052008DF80020401E49
:105870009DF800201206F5D4A060032807D0502020
:1058800080F31188BFF34F8FBFF36F8FFEE74FF4A4
:105890004070A060019808700C482030016841F405
:1058A00070010160016841F070410160FFF746FE40
:1058B00000206060FAF796FC0848016841F040411A
:1058C0000160FAF77BFC00201CBD000000ED00E049
:1058D00071C20F4100E400E0D000002034EF00E08E
:1058E00010B5502080F31188BFF34F8FBFF36F8F37
:1058F00000F0D6FA18B104494FF08050086000203B
:1059000080F3118810BD000004ED00E038B5049D5F
:1059100018B153B1CAB181B120E0502080F3118891
:10592000BFF34F8FBFF36F8FFEE7502080F31188D6
:10593000BFF34F8FBFF36F8FFEE7502080F31188C6
:10594000BFF34F8FBFF36F8FFEE739B1502080F365
:105950001188BFF34F8FBFF36F8FFEE750241C46B3
:10596000012384F846302B460094FFF753FA204673
:1059700038BD000070B50D46040025D0FFF778FD56
:10598000D4E90F20216802FB0011A1600021A1636E
:10599000216861600A46D4E90F01401E00FB012125
:1059A000E16021464FF0FF3001F8440F487004F1E8
:1059B00010008DB1FFF72AFD04F12400FFF726FD4A
:1059C000FFF776FD012070BD502080F31188BFF3F2
:1059D0004F8FBFF36F8FFEE721690029F0D000F0F1
:1059E00003FB0028ECD004494FF080500860BFF35F
:1059F0004F8FBFF36F8FE3E704ED00E02DE9FF4722
:105A000082B01D468A464FF00008040003D0BAF168
:105A1000000F08D011E0502080F31188BFF34F8FA2
:105A2000BFF36F8FFEE7206C38B1502080F31188F0
:105A3000BFF34F8FBFF36F8FFEE7022D0AD1E06BEC
:105A4000012807D0502080F31188BFF34F8FBFF398
:105A50006F8FFEE700F010FA3F4F4FF000094FF054
:105A6000805648B9049838B1502080F31188BFF3AC
:105A70004F8FBFF36F8FFEE7FFF7FAFCA06BE16B70
:105A8000884207D3022D05D00498D0B1B8F1000F99
:105A90001AD01EE02A4651462046FFF714F9616AE3
:105AA00019B104F1240000F09FFA20B13E60BFF369
:105AB0004F8FBFF36F8FFFF7FBFC012006B0BDE8EF
:105AC000F087FFF7F5FC22E06846FFF7CFFD4FF0C7
:105AD0000108FFF7EDFCFFF74FFEFFF7C9FC94F953
