:020000040800F2
:10000000E0080020A101000865350008852B0008E4
:10001000ED3300089D0A00087D3F00080000000045
:10002000000000000000000000000000B1380008DF
:10003000090D000800000000893800081139000887
:10004000BB010008BB010008BB010008BB010008A0
:10005000BB010008BB010008BB010008BB01000890
:10006000BB010008BB010008BB010008BB01000880
:10007000BB010008BB010008BB010008BB01000870
:10008000BB010008BB010008BB010008BB01000860
:10009000BB010008BB010008BB010008BB01000850
:1000A000BB010008BB010008BB010008BB01000840
:1000B000BB010008BB010008BB010008BB01000830
:1000C000BB010008BB010008BB010008BB01000820
:1000D000BB010008BB010008653F0008713F000834
:1000E000BB010008BB010008BB010008BB01000800
:1000F000BB010008BB010008BB010008BB010008F0
:10010000BB010008BB010008BB010008BB010008DF
:10011000BB010008BB010008BB010008BB010008CF
:10012000BB010008BB010008BB010008BB010008BF
:10013000BB010008BB010008BB010008BB010008AF
:10014000BB010008BB010008BB010008BB0100089F
:10015000BB010008BB010008BB010008BB0100088F
:10016000BB010008BB010008BB010008BB0100087F
:10017000BB010008BB010008BB0100080000000033
:10018000BB010008BB010008DFF810D000F04CFBF9
:10019000004800471D490008AFF30080E008002038
:1001A0000648804706480047FEE7FEE7FEE7FEE711
:1001B000FEE7FEE7FEE7FEE7FEE7FEE7A9390008F7
:1001C000890100082DE9F05F0546002092469B4614
:1001D00088460646814640241BE02846414647465D
:1001E000224600F0A4F953465A46C01A914110D352
:1001F00011461846224600F08BF92D1A67EB0108CC
:100200004F4622460120002100F082F917EB000939
:100210004E41201EA4F10104DFDC484631462A4647
:100220004346BDE8F09FD2B201E000F8012B491E21
:10023000FBD270470022F6E710B513460A46044683
:100240001946FFF7F0FF204610BD10B5044604E044
:100250000B7800F8013B03B1491C521EF8D220462E
:1002600010BD421C10F8011B0029FBD1801A7047F9
:10027000034611F8012B00F8012B002AF9D118468A
:10028000704770B5064603F0B5FE046805460A22BD
:100290000021304600F05BF92C6070BD2DE9FE4F67
:1002A00081EA030404F0004421F0004100944FF07F
:1002B000000B23F0004350EA01045ED052EA03042D
:1002C0005BD0C3F30A54C1F30A552C44A4F2F334AF
:1002D0000194A0FB0254C1F3130141F48011C3F354
:1002E000130343F4801301FB024400FB034E840A12
:1002F000970A44EA815447EA8357A4FB07680295AA
:100300008D0A05FB07854FEA932C04FB0C54270547
:10031000029D4FEA065847EA1637B5EB08056EEB23
:10032000070C870E920E47EA811742EA8312A7FB59
:100330000201B6EB0B0164EB00042B0D43EA0C3316
:100340005E1844EB1C50DA465146E7FB0201C5F348
:1003500013044FEA0B3343EA14534FEA0432019C6F
:1003600043EA0603A4F10C040294009CCDE900B416
:1003700000F034F903B0BDE8F08F00200146F9E742
:100380002DE9F04D81EA030404F0004B21F0004513
:1003900014464FF0000A23F0004150EA050220D035
:1003A00054EA01021DD0C5F30A570246C5F31303F0
:1003B000C1F31300C1F30A5640F4801543F48013CF
:1003C000A7EB0608101BD64608F2FD3873EB0500B4
:1003D00002D308F1010801E092185B41B8F1000F67
:1003E00003DA00200146BDE8F08D00204FF48011B3
:1003F000064684460EE0171B73EB050705D3121B58
:1004000063EB050306434CEA010C49084FEA300050
:1004100092185B4150EA0107EDD152EA030012D075
:1004200082EA040083EA0501084305D0101BAB41B2
:1004300006D20122002306E000224FF0004302E032
:100440006FF0010253101AEB06004CEB085110EB51
:100450000A0041EB0B01BDE8F04D00F0B0B80EB55D
:10046000C10F80EAE0700844CA07002140F233431C
:100470008DE80E000A460B4600F0B0F803B000BD50
:1004800070B5C1F30A5201F000450024C1F3130115
:1004900040F2FF3341F480119A4201DA002070BD2E
:1004A00040F233439A42A2F2334203DC524200F05C
:1004B0003EF800E090402C43F1D0404270BD00F087
:1004C000004230F000400AD0C10D01F56071C0F368
:1004D000160042EA0151C20840071143704700204C
:1004E0000146704730B50B4601460020202201240A
:1004F00009E021FA02F59D4205D303FA02F5491BF2
:1005000004FA02F52844151EA2F10102F1DC30BD07
:10051000202A04DB203A00FA02F1002070479140C3
:10052000C2F1200320FA03F3194390407047202AB8
:1005300004DB203A21FA02F00021704721FA02F38D
:10054000D040C2F1200291400843194670472DE97E
:10055000F04791460F4680460446002614F8015B9A
:100560002DB100F085F90068405DC007F6D12B2D54
:1005700002D02D2D18D0641E4A463946204600F080
:100580007BF927B13968A14201D1C7F80080710514
:100590004FF002040BD54042002803DD03F02AFD92
:1005A0000460A007BDE8F08746F48066E4E7002811
:1005B000F8DA03F01FFD04606FF00040F2E710B5B9
:1005C000141E73F1000408DA401C41F10001921876
:1005D0005B411A4301D120F0010010BD2DE9F04D1F
:1005E00092469B4611B1B1FA81F202E0B0FA80F274
:1005F00020329046FFF78CFF04460F4640EA0A007F
:1006000041EA0B0153465A46084313D0114653EAB8
:10061000010019D0C8F140025046FFF788FF054697
:100620000E46504659464246FFF772FF084305D032
:10063000012004E020463946BDE8F08D0020054346
:1006400046EAE0762C4337430A986305E40AA0EBB8
:1006500008000022FD0A44EA47540A3002D500206F
:100660000146E9E7010510196941DDE9084500196E
:100670006941BDE8F04DA2E72DE9FE4F804681EAD1
:100680000300C00F0C46009021F0004123F000450C
:10069000B8EB0200A94105D24046214690461C46CF
:1006A0000B46024623F00040104347D0270DC7F306
:1006B0000A00C3F30A510290401A019040286BDAF5
:1006C000C3F3130040F4801B0098924620B100232E
:1006D000D2EB030A63EB0B0B01985946C0F14002C1
:1006E0005046FFF715FF06460D4650465946019AFB
:1006F00000F0ACF810EB08006141002487EA1152C9
:1007000084EAE7731A4340D0009A62B3019A012A3F
:100710004FEA075215DC001B61EB02014FF000426B
:1007200002EA0752CDE90042001C41F58011324631
:100730002B46FFF753FF03B0BDE8F08F404621463C
:10074000F9E7001B61EB0201001C41F58013001862
:100750005B412018A2F5001747EB030140EAD57072
:10076000B6196D4111E06D084FEA360645EAC075CD
:100770004FEA0752001B61EB0201001C41F580119A
:1007800049084FEA30000019514132462B4603B068
:10079000BDE8F04FFFF713BF00980122400000238F
:1007A000D0EB020263EBE073009821464FEAE0745D
:1007B000B8EB000061EB0401E9E783F000435BE77D
:1007C00081F0004158E7C1F30A52C1F3130140F22E
:1007D000FF3341F480119A4202DA0020014670474B
:1007E00040F233439A42A2F2334202DC5242FFF714
:1007F0009EBEFFF78DBE000030B5041E71F10004EF
:1008000004DB4FF00044404264EB0101141E73F11D
:10081000000405DB1C464FF00043524263EB040327
:10082000994208BF904230BD064C074D06E0E06893
:1008300040F0010394E8070098471034AC42F6D327
:10084000FFF7A6FCC85E0008E85E0008202A06DB69
:10085000CB17203A41FA02F043EAE07306E041FA8E
:1008600002F3D040C2F1200291400843194670477C
:1008700000487047C45E00082DE9F05F82460078AA
:10088000002715468B460AF10104B946302801D0ED
:100890009DB113E014F8010B0127782803D05828E4
:1008A00001D045B10AE00DB1102D07D10027102568
:1008B00014F8010B02E0082500E00A250026B046E6
:1008C0000EE005FB080005FB06F1012701EB1046D1
:1008D0001FFA80F8B6F5803F00D3B94614F8010B33
:1008E000294600F018F80028EBDABBF1000F05D01C
:1008F0000FB1641E00E05446CBF80040B9F1000F80
:1009000006D003F077FB02210160C81EBDE8F09F0E
:1009100048EA0640FAE73A2800D2303820F02002B0
:10092000412A01D3A2F13700884201D34FF0FF30B2
:1009300070470000464910B54A6822F440324A60C8
:100940004A6843681A434A6001684A6822F4807220
:100950004A6001684A68036942EA03224A60016802
:100960004A6822F040724A6001684A6883681A4304
:100970004A6001688A6822F400628A6001688A68B5
:10098000C3681A438A60816A6FF07062D14201685D
:100990008A6822F070628A6001688A680CD0836A73
:1009A0001A438A6001688A6822F040528A600168AE
:1009B0008A68C36A1A4301E022F040528A600168E3
:1009C0008A6822F002028A6001688A68037E42EA2D
:1009D00043028A6090F82010002901684A680FD00D
:1009E00042F400624A6001684A6822F460424A6048
:1009F00001684A68174C436A04EB43331A4301E029
:100A000022F400624A600168CA6A22F47002CA6273
:100A10000168CA6A838B104C04EB03531A43CA6201
:100A200001688A6822F400728A6001688A6890F816
:100A3000303042EA43228A6001688A6822F4806288
:100A40008A6001688A68406942EA8020886010BD37
:100A50000023014000E0FFFF0000F0FF70B5094CEB
:100A6000074A61885054491C88B260800A2806D31E
:100A700000259572114604A003F09CFA658070BDB4
:100A80009C030020100000205BE8939DE78999E615
:100A900095B0E68DAE5D2025730D0A00FEE70000DF
:100AA000A0F2B1424FF4D8718A4201D207A00AE005
:100AB000A0F262628A4201D807A004E0A0F6140006
:100AC000884202D206A003F075BA70475665727963
:100AD000205765740A0000005765740A0000000082
:100AE0004472790A0000000070B5002400F0B2F8EA
:100AF0004FF40045124E04E0641CE4B2012003F000
:100B0000DDFE2946304600F0ABFC10B1C82CF3D313
:100B10000FE0C82C0DD2002404E0641CE4B20120D4
:100B200003F0CCFE2946304600F09AFC18B1F02CB8
:100B300004D3012070BDF02CEFD3FAE7002070BD84
:100B40000004024070B5002500F09EF840F2EE204F
:100B500003F0A9FE00F07EF8FFF7C6FFCC2000F0FE
:100B6000A1F8BE2000F09EF800F044F8044600F022
:100B700041F8072804D9C043E143C0B2CCB20125F3
:100B800004EB002000B2FFF76AFC9FED061B53EC5C
:100B9000112BFFF783FBFFF773FC00B205B1404256
:100BA00000B270BD000000000000E43F00B587B057
:100BB00014216846FFF73EFB0C48016841F0010133
:100BC00001600068694600F0010005904FF40040A4
:100BD000009011200190012002900220039004480F
:100BE00000F046FBFFF780FF07B000BD3038024041
:100BF000000402402DE9F0410024154F25464FF432
:100C00000046640800223146384600F036FC0220D7
:100C100003F054FE01223146384600F02EFC0C2031
:100C200003F04CFE3146384600F01AFC00284FF025
:100C3000320004D003F042FE44F0800401E003F0EF
:100C40003DFE6D1CEDB2082DDBD32046BDE8F081E2
:100C50000004024070B50B4D4FF4004400222146C1
:100C6000284600F00AFC40F2EE2003F027FE0122A5
:100C70002146284600F001FCBDE870400F2003F03B
:100C80001DBE00000004024010B5FFF7E3FFFFF7B0
:100C90002BFFCC2000F006F8BDE81040442000F007
:100CA00001B800002DE9F041164F054600244FF42D
:100CB000004600BF15F0010F4FEA55054FF0000246
:100CC000314638460BD000F0D8FB022003F0F6FD89
:100CD00001223146384600F0D0FB3C200AE000F00B
:100CE000CCFB3C2003F0EAFD01223146384600F0FF
:100CF000C4FB022003F0E2FD641CE4B2082CD9D34B
:100D0000BDE8F08100040240704772B6FEE7401A69
:100D100000B2B0F5004F02DA10F5004F00DA00B271
:100D20007047000010EE100A0649884201DD06A057
:100D3000704710EE100A0749884201DD06A070478F
:100D400006A070470000844256657279205765748A
:100D500000000000000004425765740044727900EE
:100D600010B501F0CDFE0149486010BD140000200F
:100D700040F6C411884202D39FED0A0A70479FEDE6
:100D80000A0AB0F5966FF9D9A0F6C410404200EEF9
:100D9000900A9FED061AF8EE600A60EE800A80EE77
:100DA000810A7047000000000000C8420080A24491
:100DB00010B501F0A5FE094908604A6890420CD9B7
:100DC000801A00EE100ADFED060AB8EEC00A80EEC7
:100DD000201ABDEEC10A81ED020A10BD14000020E8
:100DE000CDCC204278B50024009490F83C20012A14
:100DF00019D0012280F83C200A6807230568092AD7
:100E000013D9EE680A3A02EB420293409E43EE6029
:100E10000B788A680A3B03EB43039A400368DD685A
:100E20002A43DA6010E0022078BD2E6902EB42020C
:100E300093409E432E610B788A6803EB43039A40EC
:100E400003681D692A431A614A681F23072A13D2BF
:100E500005686E6B521E02EB820293409E436E63E6
:100E60000B790A885B1E92B203EB83039A400368F6
:100E70005D6B2A435A6327E005680D2A12D22E6B58
:100E8000D21F02EB820293409E432E630B790A88A5
:100E9000DB1F92B203EB83039A4003681D6B2A4366
:100EA0001A6311E0EE6A0D3A02EB820293409E4310
:100EB000EE620B790A880D3B92B203EB83039A40F2
:100EC0000368DD6A2A43DA62164B0568144A9D42BC
:100ED00006D10D68122D03D1556845F48005556083
:100EE00005689D4218D10B68102B01D0112B13D12E
:100EF000536843F400035360096810290CD10A4970
:100F00000A4A0968B1FBF2F101EB8101490000E0F6
:100F1000491E00910029FBD180F83C40002078BD9B
:100F200000230140002001400C00002040420F003F
:100F30000068C06C704770B504004FF0000503D026
:100F4000206C002610B107E0012070BD204600F0A3
:100F50001DF8666484F83C60206CC00610D4206CD8
:100F600020F4885040F0020020642046FFF7E2FCA5
:100F70006664206C20F0020040F00100206400E074
:100F8000012584F83C60284670BD000010B586B08D
:100F9000044614216846FFF74DF91149206888423C
:100FA0001CD110480021026842F48072026000687F
:100FB00000F4807005900B481438026842F001027A
:100FC0000260006800F001000590022000900320FC
:100FD000CDE901016946044800F04AF906B010BDA8
:100FE0000020014044380240000002402DE9F04159
:100FF000044600680D4681684FF0000749050BD58F
:101000008068C00508D5206C40F02000206484F87A
:101010003C700120BDE8F08100F034FA064613E090
:10102000681C11D025B100F02DFA801BA8420BD905
:1010300020680068800707D4206C40F0040020641A
:1010400084F83C700320E5E7206800688007E7D556
:1010500021686FF012000860206C40F4007020647A
:101060002068816811F0405F13D1217E89B9C16A7F
:1010700011F4700F02D0806840050AD4206C20F46F
:1010800080702064206CC00403D4206C40F0010008
:1010900020640020BEE7000018B50021009190F800
:1010A0003C20012A07D0012280F83C200268936886
:1010B000DB0702D011E0022018BD936843F0010362
:1010C00093602E4A2E4B1268B2FBF3F202EB4202FF
:1010D00000E0521E0092002AFBD102689368DB07F1
:1010E00042D0036C40F20164A34343F48073036471
:1010F00053685B0505D5036C23F4005343F4805318
:101100000364036CDB0404D5436C23F006034364DF
:1011100000E0416480F83C101A496FF0220313602C
:1011200049680068CA06184906D0884224D18168F7
:1011300011F0405F13D01FE08842F8D0134A90426C
:1011400003D1D1F80423D206F1D0114A904213D131
:10115000D1F8041301F01F011029E8D30CE08168D5
:1011600041F08041816007E0016C41F010010164B1
:10117000416C41F001014164002018BD0C000020C9
:1011800040420F00002301400020014000210140A7
:10119000002201402DE9F0410446876D00F072F90C
:1011A000064694F835000025022806D080206065A8
:1011B00084F834500120BDE8F0812068016821F0F6
:1011C000160101602068416921F080014161206CB5
:1011D00008B9A06C20B12068016821F00801016005
:1011E0002068016821F0010101600CE000F04AF97B
:1011F000801B052807D920206065032084F835006E
:1012000084F83450D7E720680068C007EED194F81E
:101210005C103F208840B860012084F8350084F8D5
:1012200034500020C7E790F83510022903D0802100
:10123000416501207047052180F83510006801687C
:1012400021F00101016000207047000070B50446E4
:1012500000F018F90546601C02D0044800780444E8
:1012600000F010F9401BA042FAD370BD000000202E
:101270002DE9F84FDFF8BCA10022012503264FF02D
:101280000F090AF1040BAAF1040E00BF0B6805FA5E
:1012900002F42340A34270D10F7907F00307012F16
:1012A00001D0022F16D187684FEA420806FA08FCDF
:1012B00027EA0C07D1F80CC00CFA08FC4CEA070C22
:1012C000C0F808C04768A7430C79C4F300149440E1
:1012D0003C4344600C79E443A4070AD0C4684FEA55
:1012E000420C06FA0CF7BC438F6807FA0CF7274349
:1012F000C7600C7904F00304022C12D1D40800EB6F
:10130000840CDCF820405707FF0E09FA07F824EA9E
:101310000804D1F8108008FA07F848EA0408CCF865
:10132000208004684FEA420C06FA0CF7BC430F79A0
:1013300007F0030707FA0CF7274307604C6814F41B
:10134000403F70D03C4C276847F4804727602468B2
:1013500022F0030704F480440094384C07EB040C9B
:10136000DCF8084897074FEA177809FA08F7BC43F2
:10137000334FB84202D1002724E054E0314FB84245
:1013800001D101271EE0304FB84201D1022719E0F8
:101390002E4FB84201D1032714E02D4FB84201D19E
:1013A00004270FE02B4FB84201D105270AE02A4F4E
:1013B000B84201D1062705E0284FB84201D10727DE
:1013C00000E0082707FA08F72743CCF80878DAF88E
:1013D00000405746D1F804C09C435FEACC2C00D5AE
:1013E0001C433C60DBF800405F46D1F804C09C43DE
:1013F0005FEA8C2C00D51C433C60DEF80040774649
:10140000D1F804C09C435FEA8C3C00D51C433C608F
:10141000084F083F3C68D1F804C09C435FEACC3CCD
:1014200000D51C433C60521C102AFFF42FAFBDE8CE
:10143000F88F0000083C0140443802400030014071
:10144000000002400004024000080240000C02407C
:10145000001002400014024000180240001C02402C
:101460000069084000D001207047426921EA020368
:101470000A4043EA0241816170470AB181617047C5
:101480000904FBE701488068704700000000002065
:1014900070B5040025D094F83D00002520B984F8EB
:1014A0003C50204600F050F9242084F83D0020688C
:1014B000016821F0010101602068016841F40041E8
:1014C00001602068016821F40041016000F0FCFA2D
:1014D0004D4A6168914201D84C4900E04C4988422C
:1014E00001D2012070BD4B492368B0FBF1F15E6869
:1014F00026F03F060E435E606368934206D94FF4C0
:10150000967359434FF47A73B1FBF3F12368491C86
:101510001E6A26F03F06314319626168914210D875
:101520004900401EB0FBF1F2521CC2F30B02042A28
:1015300001D2042022E0B0FBF1F0401CC0F30B000C
:101540001CE0A268F2B301EBC10303EB0116431EDA
:10155000B3FBF6F35B1C43F480431B0549D092B305
:1015600001EBC10202EB0111401EB0FBF1F0401C87
:10157000C0F30B0040F4804040F400402168CA6989
:101580004CF6FF739A431043C861D4E90710014336
:101590002068026822F0C00211430160D4E903010F
:1015A00001432068826848F2FF339A431143816007
:1015B000D4E9050108432168CA6822F0FF021043FC
:1015C000C86001E00EE016E02068016841F001010A
:1015D00001602564202084F83D00256384F83E5096
:1015E000002070BD01EB4106431EB3FBF6F35B1C0C
:1015F000B3E70120C2E701EB4101401EB0FBF1F06F
:10160000401CC0F30B00B7E7A086010080841E00D9
:1016100000093D0040420F002DE9FF4F83B09A467C
:10162000DDE9119793460446DDF84080FFF72AFF75
:10163000054694F83D0020287FD119230122404916
:101640002046009501F036FB002876D194F83C0046
:10165000012872D0012084F83C0020680168C90785
:1016600003D1016841F0010101602068016821F4A3
:1016700000610160212084F83D00402084F83E0094
:1016800000262664C4F82480A4F82A90608D208562
:101690002C48E062CDE9007553465A46204604992D
:1016A00001F088FA70B930E02A463946204601F048
:1016B000A7FB58B1206C042804D12068016841F4CC
:1016C00000710160012007B0BDE8F08F606A2168F9
:1016D00000780861606A401C6062218D491E89B2F1
:1016E0002185628D521E628522685369DB435B0748
:1016F0000BD469B100781061606A401C6062208D73
:10170000401E2085608D401E6085208D0028CBD135
:101710002A463946204601F0A1FA0028CAD154F8D9
:101720003D0B016841F400710160202004F81E099E
:10173000E67766770020C6E7FFE70220C3E70000F0
:10174000020010000000FFFF2DE9F04186B00446C2
:1017500014216846FEF76EFD22683A4C384B002192
:10176000384812260325042710349A4219D10268FA
:1017700042F002020260006802AA00F00200059036
:1017800082E8A200C020CDE9000669462E48FFF796
:101790006FFD206840F400102060206800F4001005
:1017A0001AE02A4B9A421BD1026842F020020260E2
:1017B000006802AA00F020000590CDE9005682E8FA
:1017C000A20069462248FFF753FD206840F48000DC
:1017D0002060206800F48000059006B0BDE8F0812C
:1017E0001C4B9A42F9D18846016841F0040101601E
:1017F000016801F004010591016841F001010160F7
:101800000068694600F00100059050158DE841011F
:10181000CDE903571048FFF72BFD4FF480708DE89A
:101820004101CDE9035769460C48FFF721FD2068C7
:1018300040F400002060206800F40000CCE70000C5
:10184000005400403038024000040240005800407C
:1018500000140240005C004000080240000002400A
:1018600002488168027811448160704700000020BE
:101870000B4810B5016841F400710160016841F442
:1018800080610160016841F480710160032000F013
:101890006FF80F2000F006F800F024F8002010BDCB
:1018A000003C024070B50D4D04464FF47A71287823
:1018B000B1FBF0F00A490968B1FBF0F000F00CFB55
:1018C00048B9102C07D200222146501E00F030F8F3
:1018D00000206C6070BD012070BD00000000002081
:1018E0000C0000200A4808B5016841F480410160FD
:1018F000006800F4804000900548001F016841F036
:1019000080510160006800F08050009008BD000028
:1019100044380240002809DB00F01F0201219140F9
:101920004009800000F1E020C0F80011704700007D
:10193000F0B40E4B1B680C46C3F30223C3F107053A
:10194000042D00D90425191D072901D2002300E028
:10195000DB1E012606FA05F1491E214099409E40F2
:10196000761E16403143F0BC02F034BB0CED00E0B3
:10197000064900F0070208684FF6FF03184040EAE6
:101980000220034A10430860704700000CED00E09D
:101990000000FA052DE9F0470E46050065D0DFF896
:1019A0001481D8F80000F7B200F00700B04207D267
:1019B00088F80070D8F8000000F00700B04254D159
:1019C00028683D4C810712D5400703D5206840F4B4
:1019D000E05020602878000703D5206840F460407C
:1019E00020602068A96820F0F00008432060287873
:1019F000C0072DD0304968680839012812D0022864
:101A000013D0032811D00968890700292DDA21682D
:101A100021F0030101432160FFF734FD814641F2CB
:101A2000883A0EE009688903EFE709688901ECE765
:101A3000FFF728FDA0EB0901514502D90320BDE8BD
:101A4000F0872068696800F00C00B0EB810FEFD1DF
:101A5000D8F80010404601F00701B14207D90770DD
:101A6000006800F00700B04201D00120E7E72878C5
:101A7000400705D52068E96820F4E050084320605D
:101A80002878000706D52068296920F4604040EADC
:101A9000C100206000F038F82168084AC1F3031142
:101AA000515CC8400649086006480068FFF7FAFE26
:101AB0000020C4E7003C024008380240204E0008E5
:101AC0000C00002004000020044805490068096853
:101AD000044AC1F38221515CC84070470C000020C9
:101AE00008380240304E000804480549006809687B
:101AF000044AC1F34231515CC84070470C000020D9
:101B000008380240304E0008154810B5006810F043
:101B10000C02144813D01449042A0FD0082A0ED1FD
:101B20000F4C241F2268236802F03F025B0207D596
:101B30002068C0F38810A0FB010106E0084610BD34
:101B40002168C1F38811A1FB00010023FEF73AFBD5
:101B50002168C1F30141491C4900B0FBF1F010BDFF
:101B6000083802400024F40040787D012DE9F84F48
:101B700004006ED02078DFF84C93C007A9F104056B
:101B80004AD009F104000168C1F38101012908D09C
:101B90000068C0F3810002280AD1D9F80000400291
:101BA00006D52868800337D560680028E1D033E087
:101BB0006068B0F5803F10D0B0F5A02F286810D035
:101BC00020F480302860286820F480202860606835
:101BD000A8B1FFF757FC06460DE0286840F48030B6
:101BE000F4E740F480202860F7E700BFFFF74AFCE5
:101BF000801B642873D828688003F7D50CE0FFF7B2
:101C000041FC064605E000BFFFF73CFC801B642852
:101C1000F0D828688003F7D42078DFF8AC828007FA
:101C20004FF0000A3ED5A748001D016811F00C0FC7
:101C300008D00068C0F3810002280BD1D9F8000059
:101C4000400207D42868800716D5E068012800D133
:101C500012E033E1E068B8B10120C8F80000FFF7F6
:101C600011FC064605E000BFFFF70CFC801B0228B4
:101C7000C0D828688007F7D52868216920F0F800C7
:101C800040EAC10028600DE0C8F800A0FFF7FAFBA9
:101C9000064604E0FFF7F6FB801B02281FD82868E1
:101CA0008007F7D42078000722D5864F87486169DE
:101CB000703771B101210160FFF7E4FB064604E0D3
:101CC000FFF7E0FB801B022809D838688007F7D5AA
:101CD0000EE0C0F800A0FFF7D5FB064605E082E065
:101CE000FFF7D0FB801B02287DD838688007F7D427
:101CF0002078400768D5DFF8CCB100270BF13C0B0A
:101D0000DBF80000C0000BD4DBF8001041F080517C
:101D1000CBF80010DBF80000012700F080500090A5
:101D20006B4E3068C00510D4306840F4807030606D
:101D3000FFF7A8FB009005E0FFF7A4FB0099401A0D
:101D4000022850D83068C005F6D55E4EA0686C36C3
:101D500001280FD00528306810D020F00100306035
:101D6000306820F004003060A068B8B1FFF78AFB4B
:101D700000900FE0306840F00100F4E740F004000C
:101D80003060F7E7FFF77EFB0099411A41F2883097
:101D9000814266D830688007F4D50EE0FFF772FB09
:101DA000009007E0FFF76EFB0099411A41F288307E
:101DB000814256D830688007F4D42FB1DBF8001088
:101DC00021F08051CBF80010A069C8B33D49091D2E
:101DD0000968C1F3810102294AD00228504607D080
:101DE000C8F8600000E03CE0FFF74CFB04463BE035
:101DF0004746C8F86000FFF745FB064605E000BF10
:101E0000FFF740FB801B02282BD828688001F7D4FD
:101E1000D4E907010843A16A2E4A490802EB0141AF
:101E2000626A41EA8211084394F82C1040EA016189
:101E3000C9F8001001203866FFF724FB044606E0CD
:101E40003EE000BFFFF71EFB001B022809D82868F0
:101E50008001F7D534E000BFFFF714FB001B022818
:101E600002D90320BDE8F88F28688001F4D427E068
:101E70000128F7D0D9F80000E26900F4800191420E
:101E80001CD1226A00F03F01914217D147F6C07180
:101E9000626A0140B1EB821F10D1A26A4FF0FF339A
:101EA00000F4403103EB5202B1EB024F06D194F83B
:101EB0002C1000F07060B0EB016F01D00120D1E771
:101EC0000020CFE70438024000004742800E47421E
:101ED000007000400000FFFF10B5401EB0F1807F91
:101EE00001D3012010BD4FF0E02460610F21601785
:101EF00002F070F80020A06107202061002010BDD2
:101F000070B590F83C20012A32D0012480F83C4082
:101F1000022280F83D2003685A689D6822F070060E
:101F20000A6832435A60134B02689A4214D0B2F1E5
:101F3000804F11D0104B9A420ED0104B9A420BD0CA
:101F40000F4B9A4208D00F4B9A4205D00E4B9A4243
:101F500002D00E4B9A4204D1496825F08003194300
:101F6000916080F83D40002180F83C10084670BD2B
:101F7000022070BD00000140000400400008004045
:101F8000000C0040000401400040014000180040E7
:101F900010B5040003D094F83D0010B107E0012013
:101FA00010BD002084F83C00204600F01FF80220FD
:101FB00084F83D00211D206801F0FEFC012084F81A
:101FC000460084F83E0084F83F0084F8400084F81E
:101FD000410084F8420084F8430084F8440084F807
:101FE000450084F83D00002010BD000008B50068E1
:101FF0000949884201D1094804E0B0F1804F09D174
:102000000648001F016841F001010160006800F00E
:102010000100009008BD000000000140443802406B
:1020200090F83D10012901D001207047022180F86D
:102030003D1000681149884214D0B0F1804F11D092
:102040000F4988420ED00F4988420BD00E49884272
:1020500008D00E49884205D00D49884202D00D496A
:10206000884204D1816801F00701062903D0016884
:1020700041F00101016000207047000000000140B4
:102080000004004000080040000C00400004014033
:10209000004001400018004001680A6A41F2111333
:1020A0001A4207D10A6A9B101A4203D10A6822F029
:1020B00001020A60012180F83D100020704770B5D0
:1020C000044690F83C000025012817D0012684F82A
:1020D0003C60022084F83D002068826822F077028C
:1020E00022F47F4282600868502838D00DDC202816
:1020F0004FD005DC90B3102811D14AE0022070BD0A
:10210000302846D040280AD13BE060282FD07028E4
:102110000DD0B0F5805F03D0B0F5005F12D001257F
:1021200084F83D60002084F83C00284670BDCB68F0
:10213000D1E90121206801F0B4FC2068816841F0F8
:10214000770109E0CB68D1E90121206801F0A9FC01
:102150002068816841F480418160E1E719E0CA6844
:102160004968206801F072FD5021206806E0CA68C5
:102170004968206801F07BFD6021206801F09BFC2C
:10218000CEE7CA684968206801F060FD40212068F8
:10219000F4E7226801461046F0E72DE9F0410D46CC
:1021A000040003D094F83D0018B108E00120BDE818
:1021B000F081002084F83C00204600F041F8022025
:1021C00084F83D002068816844F2070291438160F1
:1021D000211D206801F0F0FB226890689169166A61
:1021E0002B68AF69034340F20330814341EA072182
:1021F000A868EF6908434FF6FC418843E96840EA64
:102200000720014328692F6A000140EA073008438C
:1022100069686D6926F0AA0646EA051529439360A8
:102220002268906154F8460B0162012004F81F09EE
:10223000E0752076E0762077A0750020B7E70000F3
:1022400030B587B0044614216846FDF7F3FF2148F6
:1022500024681F4D00221F4910380223AC4216D1BA
:102260000C6844F002040C60096801F00201059159
:10227000016841F0010101600068694600F0010059
:102280000590C0200090CDE90132134819E0134DAC
:10229000AC421AD10C6844F004040C60096801F0E7
:1022A00004010591016841F0080101600068694678
:1022B00000F0080005904FF440500090CDE9013245
:1022C0000748CDE90323FEF7D3FF07B030BD000078
:1022D0000004004040380240000002400008004076
:1022E000000C024070B590F83E60044690F83F50F4
:1022F00090F8423090F84320022021B104290ED0FA
:10230000012E1BD114E0012E18D1012B16D184F817
:102310003E0084F8420001220021206820E0012DC7
:102320000CD1012A0AD184F83F0084F8430014E05C
:10233000012D03D1012B01D1012A01D0012070BD53
:1023400084F83E0084F83F0084F8420084F843009B
:1023500001220021206801F097FB0122042120685E
:1023600001F092FB2068016841F00101016000204A
:1023700070BD000010B586B0044614216846FDF714
:1023800059FF2068B0F1804F16D10C480021026837
:1023900042F002020260006800F0020005904FF473
:1023A000406000900220CDE901010120CDE9031039
:1023B00069460348FEF75CFF06B010BD30380240A6
:1023C0000004024070B5044690F83C0000260D461B
:1023D00001280FD0012084F83C006AB1042A1DD0E6
:1023E000082A2FD00C2A3FD00126002084F83C0078
:1023F000304670BD022070BD206801F065FB20688A
:10240000816941F0080181612068816921F004013E
:102410008161206881692A69114311E0206801F017
:1024200083FB2068816941F40061816120688169D2
:1024300021F480618161206881692A6941EA022171
:102440008161D2E7206801F0A5FB2068C16941F0F5
:102450000801C1612068C16921F00401C1612068DF
:10246000C1692A69114311E0206801F0C7FB2068A7
:10247000C16941F40061C1612068C16921F48061D2
:10248000C1612068C1692A6941EA0221C161ACE7E2
:1024900010B5040003D094F83D0010B107E001200E
:1024A00010BD002084F83C00204600F01EF80220F9
:1024B00084F83D00211D206801F07EFA012084F897
:1024C000460084F83E0084F83F0084F8400084F819
:1024D000410084F8420084F8430084F8440084F802
:1024E000450084F83D00002010BD704710B504463B
:1024F000022249B104290ED0082913D094F84100D2
:10250000012816D0012010BD94F83E000128F9D111
:1025100084F83E200FE094F83F000128F2D184F8BF
:102520003F2008E094F840000128EBD184F84020D7
:1025300001E084F841200122206801F0A5FA164943
:102540002068164A884201D0904203D1436C43F47C
:10255000004343642068884213D0B0F1804F10D00C
:102560000F4988420DD00F4988420AD00E4988424F
:1025700007D0904205D00D49884202D00C498842CC
:1025800004D1816801F00701062903D0016841F0F8
:1025900001010160002010BD000001400004014065
:1025A0000004004000080040000C004000400140D2
:1025B0000018004070470000074910B5884209D153
:1025C00006A001F0F7FCBDE8104001220A490248CC
:1025D00000F00EBA10BD00000C030020E8939DE748
:1025E0008999E9809AE4BFA1E99499E8AFAFEFBC7B
:1025F000815C720A0000000010000020F8B501683C
:1026000004460868CA684B6910F00F0F4FF00005C8
:1026100059D003F0010602F49077374365D0C10723
:1026200005D0D10503D5616C41F00101616441071A
:1026300005D5D90703D0616C41F0020161648107BF
:1026400005D5D90703D0616C41F00401616401072D
:1026500007D502F02001314303D0616C41F008013D
:102660006164616C00293AD0800604D5900602D5D9
:10267000204601F03CFB20684069616CC0F380108B
:10268000090700D460B3204601F00AFB20684069C6
:10269000400621D52068143050E8001F21F0400189
:1026A00040E80012002AF5D1E06BA8B1724901653B
:1026B000E06BFEF7B8FD002811D0E06B016D01B0B2
:1026C000BDE8F040084783060FD593060DD5204698
:1026D000BDE8F84001F00BBB2046FFF76DFFF8BDE9
:1026E0002046FFF769FF6564F8BD266B2023012EA5
:1026F0007ED1C6067CD5D6067AD508684868009093
:1027000048694FF0020640064DD5E26B10684068FC
:102710004FF480770004000C3AD0A18D814237D964
:10272000E085D069B8422DD020680C3050E8001FF9
:1027300021F4807140E80012002AF5D1206814309D
:1027400050E8001F21F0010140E80012002AF5D1F5
:102750002068143050E8001F21F0400140E80012CA
:10276000002AF5D184F84230256320680C3050E807
:10277000001F21F0100140E80012002AF5D1E06BA3
:10278000FEF708FD6663A08DE18D401A81B206E078
:10279000A18D8142A8D1D069B842A5D166632046F7
:1027A000FFF708FFF8BDA08DE18D401A81B2E08DE2
:1027B0000028F7D00029F5D020680C3050E8002F11
:1027C00022F4907240E80027002FF5D120681430E1
:1027D00050E8002F22F0010240E80027002FF5D139
:1027E00084F84230256320680C3050E8002F00E068
:1027F00006E022F0100240E80023002BF3D1CDE7E1
:1028000005062BD5150629D594F841002128C9D1F4
:10281000A068B0F5805F01D12069B0B1206A411C89
:102820002162216800784860E08C401E0004000CA2
:10283000E084B7D12068C16821F08001C1602068C0
:10284000C16841F04001C160F8BD206A0088C0F352
:1028500008004860206A801C2062E5E74006F3D546
:102860005006F1D5CA68204622F04002CA6084F8BA
:10287000413000F043F9F8BD933C000870B5040006
:1028800004D094F84100002510B106E0012070BD8D
:1028900084F84050204600F023F8242084F84100BA
:1028A0002068C16821F40051C160204601F080FA1F
:1028B0002068016921F4904101612068416921F09B
:1028C0002A0141612068C16841F40051C16065641A
:1028D000202084F8410084F842006563002070BD28
:1028E000F0B587B0044614216846FDF7A3FC3A4BC7
:1028F00027680022394902240325072638489F42C9
:102900001CD1364B14331F6847F010071F601B683B
:1029100003F0100305930B6843F001030B60096893
:1029200002AB01F0010105916902CDE9001483E8D1
:1029300064006946FEF79CFC07B0F0BD274BDFF84A
:10294000A4C0103367451FD11F6847F400371F60CC
:102950001B6803F4003305930B6843F001030B601D
:10296000096802AF01F0010105910C21CDE90014C5
:1029700087E864006946FEF77BFC002211462620AA
:10298000FEF7D6FF262023E017488742D4D11868E7
:1029900040F480201860186800F4802005900868D2
:1029A00040F008000860086802AF00F008000590D9
:1029B0004FF44070CDE9000487E8640069460B4895
:1029C000FEF756FC002211462720FEF7B1FF272014
:1029D000FEF7A0FFB0E700000010014030380240D1
:1029E000000002400044004000480040000C02404B
:1029F00090F84230202B01D00220704721B11AB14B
:102A00000023036301F05ABA0120704710B5006833
:102A10000C49884207D10C48007800F059FF012288
:102A200009490A4809E00A4988420AD10948007858
:102A3000FEF714F8074908480122BDE81040FFF7E7
:102A4000D7BF10BD004800405300002054030020B1
:102A500000440040100000200C0300202DE9F84342
:102A6000044690F84100984616460D46202802D0AC
:102A70000220BDE8F88385B17EB10020606421208A
:102A800084F84100FEF7FEFCA6848146E684A06837
:102A90002027B0F5805F02D003E00120E9E720693C
:102AA00010B12E4600250EE000260CE080212046C5
:102AB00001F01FFAA8B9C6B116F8010B21684860E9
:102AC000E08C401EE084E08C4B464FF00002CDF8D5
:102AD00000800028EAD14FF04001204601F009FAB9
:102AE00040B184F841700320C3E735F8020BC0F30E
:102AF0000800E3E784F841700020BAE7704700005F
:102B00002DE9F0411E4F00244FF40076314638463F
:102B1000FEF7A6FC0128F9D0B0463E4600254FF44A
:102B20008077012239463046FEF7A7FC012001F0EC
:102B3000D9FE6400002239463046FEF79EFC012093
:102B400001F0D0FE41463046FEF78AFC012800D154
:102B5000641C6D1CEDB2182DE3D3012239463046BA
:102B6000FEF78BFC012001F0BDFE84F4000400227E
:102B700039463046FEF781FC2046BDE8F081000072
:102B800000100240FEE701684A69D24352050FD4A3
:102B90006FF480624A61002140F8301F20224273A6
:102BA0008173026942F004020261017301207047DF
:102BB000002070472DE9F843044600680D46DDE922
:102BC000089701689846164641F4807101604B46AB
:102BD00000224FF001112046009700F06BF848B139
:102BE00020680068C00502D54FF4007020640320FF
:102BF000BDE8F883216805F0FE0008613B464A46BF
:102C00001549204600F09EF888B92068416980691E
:102C100000903A464946204600F0F2F848B1206C50
:102C2000042804D12068016841F40071016001208A
:102C3000DEE7F5B2B8F1010F09D02168300A08616A
:102C40003A464946204600F0DBF80028E7D12068E4
:102C500005610020CCE700000200010070B51646B7
:102C60000D4604461EE02046FFF78DFF08B1012007
:102C700070BD681C16D0FEF705FC801BA84200D86A
:102C800085B920684069C04340070BD5002044F84F
:102C9000300F20216173A073216941F0200121616F
:102CA0002073E4E720684069C0434007DBD400207C
:102CB00070BD00002DE9F047984617460D460446C2
:102CC000C1F30746DDF820902AE000BFB8F1FF3FCE
:102CD00026D0FEF7D7FBA0EB0901414502D8B8F199
:102CE000000F1DD12068012E16D0806925EA000052
:102CF0000004000C12D00020B84211D1002044F88A
:102D0000300F20216173A073216941F020012161FE
:102D100020730120BDE8F0874069E7E70120EBE779
:102D20002068012E0AD0806925EA00000004000C0A
:102D300006D00020B842C9D00020EBE74069F3E795
:102D40000120F7E72DE9F047984616460D46044660
:102D50004FF000094FF0200AC1F3074723E0206835
:102D60004069C043400515D42068016841F40071F2
:102D7000016021686FF480604861C4F8309084F885
:102D80003DA084F83E90216C41F00401216484F858
:102D90003C9021E0701C06D0FEF774FBA0EB08000D
:102DA000B04203D816B1012F1FD021E02068012FB7
:102DB00015D0806925EA00000004000C18D000BF7F
:102DC00044F8309F84F80DA084F80E90216941F0FA
:102DD0002001216184F80C900120BDE8F087406952
:102DE00025EA00000004000CEAD12068406901E0F7
:102DF0002068806925EA00000004000CAFD1ECE7F0
:102E000070B516460D4604461EE02046FFF7BBFE91
:102E100008B1012070BD681C16D0FEF733FB801B83
:102E2000A84200D885B920684069C04300060BD588
:102E3000002044F8300F20216173A073216941F014
:102E4000200121612073E4E720684069C043000647
:102E5000DBD4002070BD0000F0B587B014216846B7
:102E6000FDF7E8F912480024016841F00201016011
:102E700000684FF4807500F00200059002200126E2
:102E8000CDE902400B4FCDE9005669463846FEF7C2
:102E9000EFF968008DE8510069463846FEF7E8F919
:102EA000002229463846FEF7E8FA07B0F0BD0000D8
:102EB00030380240001002401FB500211548009133
:102EC00001910291124A039102604FF48032C0E9ED
:102ED000012101240161047680F820100E4AC0E926
:102EE0000A21C461C16080F830104461FEF723F804
:102EF00008B1FDF70AFF04200094CDE901406946BE
:102F00000448FDF76FFF002801D0FDF7FEFE1FBD4E
:102F100000200140600000200100000F2DE9F04F6B
:102F200087B014216846FDF785F9554800240168EB
:102F300041F004010160016801F00401059101689C
:102F400041F020010160016801F020010591016854
:102F500041F080010160016801F080010591016884
:102F600041F001010160016801F001010591016872
:102F700041F002010160016801F002010591016860
:102F800041F010010160016801F010010591016834
:102F900041F0080101600068DFF8E89000F00800E7
:102FA000059000224FF4B0514846FEF766FADFF86C
:102FB000D8B0002248F206015846FEF75EFADFF864
:102FC000CCA04FF48078002241465046FEF755FAD7
:102FD000002240212E48FEF750FA00221F212D48E2
:102FE000FEF74BFA4FF4C06000900125CDE9015483
:102FF000694648460394FEF73BF906200090CDE968
:103000000154694658460394FEF732F92803112605
:103010000227CDE90006CDE9025769464846FEF78A
:1030200027F9CDF800800397CDE901546946504651
:10303000FEF71EF968028DE8310069465046FEF73A
:1030400017F9E803CDE900060326CDE902566946E3
:103050005846FEF70DF94020CDE90005CDE90246BE
:1030600069460B48FEF704F91F200090CDE9015492
:10307000694608480394FEF7FBF807B0BDE8F08FF7
:1030800030380240001402400004024000100240A8
:1030900000080240000C02400D4810B50B490160C9
:1030A0000C49416000214FF480428160C0E9031265
:1030B00041618161C1610162FEF7EAF9002803D034
:1030C000BDE81040FDF721BE10BD000000540040D7
:1030D000A8000020801A06000D4810B50B490160B9
:1030E0000C49416000214FF480428160C0E9031225
:1030F00041618161C1610162FEF7CAF9002803D014
:10310000BDE81040FDF701BE10BD000000580040B2
:10311000FC000020801A06000D4810B50B49016024
:103120000C49416000214FF480428160C0E90312E4
:1031300041618161C1610162FEF7AAF9002803D0F3
:10314000BDE81040FDF7E1BD10BD0000005C00408F
:1031500050010020A086010010B586B00024184858
:10316000009401940294039404941449059401601A
:10317000A721C0E901144FF6FF71C0E903148021B3
:10318000C0E90541FEF704FF08B1FDF7BEFD4FF4AD
:103190008050009069460A48FEF791FF08B1FDF79C
:1031A000B4FD049404A906480594FEF7A9FE00287E
:1031B00001D0FDF7AAFD06B010BD000000000140DF
:1031C000A401002010B58EB000240794089409943F
:1031D0000A940B941C2168460C94FDF72BF82248A6
:1031E0004FF080410160A721C0E901144FF47A71CA
:1031F000C0E9031480218161FEF7CAFE08B1FDF722
:1032000084FD4FF48050079007A91748FEF757FF39
:1032100008B1FDF77AFD1448FFF73AF908B1FDF758
:1032200074FD0B940BA910480C94FEF769FE08B1CD
:10323000FDF76BFD6020CDE9000402940822694689
:1032400009480494FFF7BEF808B1FDF75EFD0C22B3
:1032500069460548FFF7B6F808B1FDF756FD024884
:10326000FFF788F80EB010BDEC01002010B58CB04F
:1032700024216846FCF7DEFF00241648099414490F
:103280000A9401605321C0E901144FF6FF71C0E9AF
:10329000031484610120CDE90004CDE90204049403
:1032A000CDE90540079469460A480894FEF775FF82
:1032B00008B1FDF72AFD099409A906480A94FEF70A
:1032C0001FFE002801D0FDF720FD0CB010BD00004E
:1032D000000400403402002010B58CB02421684660
:1032E000FCF7A8FF00241648099414490A940160C9
:1032F0005321C0E901144FF6FF71C0E90314846142
:103300000120CDE90004CDE902040494CDE9054093
:10331000079469460A480894FEF73FFF08B1FDF795
:10332000F4FC099409A906480A94FEF7E9FD00286F
:1033300001D0FDF7EAFC0CB010BD00000008004011
:103340007C0200200C4810B50A4901604FF4E131BD
:103350004160002181600C22C160C0E904128161DA
:10336000C161FFF78BFA002803D0BDE81040FDF7DC
:10337000CCBC10BD00100140C40200200C4810B5A8
:103380000A4901604FF4E1314160002181600C2263
:10339000C160C0E904128161C161FFF76FFA0028C2
:1033A00003D0BDE81040FDF7B0BC10BD00440040A4
:1033B0000C0300200C4810B50A4901604FF4E131BC
:1033C0004160002181600C22C160C0E9041281616A
:1033D000C161FFF753FA002803D0BDE81040FDF7A4
:1033E00094BC10BD0048004054030020FEE70000DC
:1033F00010B508210E48FFF779F80C210C48FFF7AB
:1034000075F83C210B48FEF76DFF3C210A48FEF79A
:1034100069FF012204210948FEF72FF805480068DA
:10342000416A0748018004490968496A418010BD22
:10343000EC010020340200207C0200200004024045
:10344000200000202DE9F0411C4615000E46804664
:1034500001D0012200E00022124F01213846FEF780
:103460000CF845B1002202213D463846FEF705F82A
:103470001CB1012202E00122F5E7002204212846C6
:10348000FDF7FBFF64B1002208212846FDF7F5FF98
:1034900005480268C2F83C8000680664BDE8F08117
:1034A0000122F1E7000C0240EC01002070B52A482F
:1034B0000068406A06B229480068406A284C05B294
:1034C0003046B4F90010FDF722FCA080B4F90210D8
:1034D0002846FDF71CFCE08026806580B4F90430A6
:1034E0004FF496725142934201DDA28002E08B427A
:1034F00000DAA180904201DDE28002E0884200DA39
:10350000E180B4F9040094ED040A00EE900AD4EDD1
:10351000021AF8EEE00A20EE201AF7EE000A70EE2A
:10352000C00A00EEA11A84ED021AB4F9060001EEF9
:10353000100AB8EEC11A20EE010A94ED031A00EE4B
:10354000810A84ED030A6069401C60610A2801DB7E
:103550000020606170BD0000340200207C02002069
:1035600020000020FEE770B5002404F1B000C0B2D6
:1035700000F0E6F8002000F0E3F8102000F0E0F89A
:103580000025002000F0EEF86D1CEDB2802DF8D380
:10359000641CE4B2082CE8D370BD10B5C820FDF758
:1035A00055FEBDE8104000F0EBBC10B50446B0314C
:1035B000C8B200F0C5F8102040EA141000F0C0F8BE
:1035C00004F00F00BDE8104000F0BAB82DE9F0415A
:1035D00015460E460746FFF7E8FF0E48002400EBAD
:1035E0008515285D00F0BEF8641CE4B2102CF8D3F9
:1035F000761CF1B23846FFF7D8FF0024281990F85E
:10360000200000F0AFF8641CE4B2102CF6D3BDE843
:10361000F0810000405600082DE9F041203A0024D6
:103620000D468046D6B27F2803D900208D1C8046E7
:10363000EDB2102B29460FD0FFF7B7FF164906EB66
:10364000460001EB4005285D00F08CF8641CE4B2F4
:10365000062CF8D3BDE8F081FFF7A7FF0F4F00BF9E
:1036600004EB0610385C00F07DF8641CE4B2082C12
:10367000F6D36D1CE9B24046FFF797FF5FF00004F8
:1036800004EB06103844007A00F06CF8641CE4B2D5
:10369000082CF5D3DEE70000384E00086050000823
:1036A0002DE9F05F0026DDF828901D4692468B46F6
:1036B000804634464FEA590723E0281B401EC1B21A
:1036C0000A2001F0A5FBBAFBF0F00A21B0FBF1F2F1
:1036D00001FB120026B9691E8C4201DA38B10126BD
:1036E0003030C2B207FB0480C0B24B4604E007FB97
:1036F0000480C0B24B4620225946FFF78DFF641C60
:10370000E4B2AC42D9D3BDE8F09F2DE9F041984630
:1037100017460E46044600250DE043463146204636
:10372000FFF77AFF0834E4B2782C02D90024B61CE3
:10373000F6B26D1CEDB27A5D002AEED1BDE8F081E3
:1037400001B584B001214FF4807204A88DE8070010
:103750000B46002278210248FDF75EFF05B000BD50
:10376000A800002001B584B001214FF4807204A8A4
:103770008DE807000B46402278210248FDF74CFFF8
:1037800005B000BDA8000020F0B587B00446FCF7E6
:1037900068FD2178562915D1204410F8011C4529CF
:1037A00010D10026012500F8016C641C05E0605D65
:1037B0002B2809D02D2807D06D1C2046FCF751FD81
:1037C000A842F4D807B0F0BD6519FBD000962F1BB6
:1037D00001960296039604963A4621466846059657
:1037E000FCF733FD0DF80760294603A8FCF740FD00
:1037F0006846FCF746FD064603A8FCF742FD0100BB
:103800004FF0010202EBE17402EBE6753046E3B2E1
:10381000EAB200D5494201EB8101490009B2002812
:1038200000DA704200EB8000400000B2FFF70AFEB1
:10383000FFF73CFE0D48B0F900100DB10CA200E0FE
:103840000CA2002900DA49420BA000F0B3FB0D489E
:10385000B0F900100CB106A200E006A2002900DABF
:10386000494205A000F0A6FBACE7000024000020C0
:103870002B0000002D00000025642C2025730D0A6C
:1038800000000000260000207047000010B5074827
:10389000FDF702FC0A210548FDF7A8FB08B100204E
:1038A00010BDBDE810400148FDF742BB600000209C
:1038B0007047000004490348012209780144034885
:1038C000FFF796B89C040020540000205403002009
:1038D00070B50D2813D00A2811D00B4C0B4A217853
:1038E00071B13F2902D25054491C2170452806D19C
:1038F000C8B2002515540548FFF746FF257070BD76
:103900005628F0D070BD0000540000209C04002018
:10391000FDF7A6BF30B593B030216846FCF78AFCAE
:1039200014210CA8FCF786FC1D480025016841F015
:1039300080510160006800F08050119019480168C2
:1039400041F4804101600068022400F4804011903D
:103950000120039010200490009406940820CDE9E3
:103960000750A820CDE9090404200B906846FEF713
:10397000FDF808B172B6FEE70CA90F2081E831000E
:103980004FF4A0500F904FF48050109005210CA8D8
:10399000FEF700F8002801D072B6FEE713B030BD84
:1039A00040380240007000400248016841F4700154
:1039B0000160704788ED00E0F0B50268274B284DA4
:1039C000284E294F294C4FF0804C984209D0604531
:1039D00007D0A84205D0B04203D0B84201D0A042DF
:1039E00004D122F0700E4A6842EA0E0298421BD0BF
:1039F000604519D0A84217D0B04215D0B84213D0B4
:103A0000A04211D01A4DA8420ED01A4DA8420BD098
:103A1000194DA84208D0194DA84205D0184DA8420A
:103A200002D0184DA84203D122F44075CA682A4337
:103A30004D6922F080022A438D68C5620D68856257
:103A4000984201D0A04201D109690163016841F0A7
:103A500004010160012141610260F0BD00000140EC
:103A60000004004000080040000C00400004014039
:103A7000004001400044014000480140001800405F
:103A8000001C00400020004010B501F01F03012180
:103A9000046A99408C430462016A9A4011430162AE
:103AA00010BD10B5846842EA032224F47F440A431F
:103AB0002243826010BD826822F070020A4342F005
:103AC0000701816070470000F0B5036A026A22F0C6
:103AD0000102026242688469124E24F073050C6888
:103AE0002C4323F002058B682B430D4DA84201D0D7
:103AF000B04205D123F00807CB683B4323F0040311
:103B0000A84201D0B04205D14D6922F4407215435C
:103B10008A692A4342608461496841630362F0BD57
:103B20000000014000040140F0B5026A036A23F07E
:103B300010030362436884690D6824F4E64444EA90
:103B400005248D6822F0200242EA05120F4D104E26
:103B5000A84201D0B04206D1CF6822F0800242EAEA
:103B6000071222F04002A84201D0B04207D14D69AD
:103B700023F4406343EA85038D6943EA8503436088
:103B80008461496881630262F0BD00000000014069
:103B900000040140F0B5026A036A23F480730362F3
:103BA0004368C46922F4007224F073050C68124E55
:103BB0002C438D6842EA05220E4DA84201D0B04246
:103BC00006D1CF6822F4006242EA072222F4806222
:103BD000A84201D0B04207D14D6923F4405343EAD3
:103BE00005138D6943EA05134360C4614968C163E5
:103BF0000262F0BD000001400004014030B5046ADB
:103C0000026A22F4805202624268C3690D6823F49A
:103C1000E64343EA05238D6824F4005444EA05345E
:103C2000084DA84202D0084DA84204D14D6922F4A3
:103C3000804242EA85124260C361496801640462BD
:103C400030BD0000000001400004014010B5036ACF
:103C5000046A24F001040462846924F0F00444EA54
:103C6000021423F00A020A438461026210BD10B5F7
:103C7000036A046A24F010040462846923F0A00338
:103C800024F4704444EA023243EA01118261016281
:103C900010BD10B5806B0021C185FEF78DFC10BDF5
:103CA00001680C3151E8002F22F4907241E80023A2
:103CB000002BF5D10168143151E8002F22F00102E8
:103CC00041E80023002BF5D1016B012909D10168DE
:103CD0000C3151E8002F22F0100241E80023002BA4
:103CE000F5D1202180F8421000210163704708B50A
:103CF00090F84210222901D0022008BD82684FF4BA
:103D000080539A4201D1016921B1816A9A421BD044
:103D10004AB10AE00268816A5268C2F308020A8066
:103D2000816A891C08E0026972B10268526802F077
:103D30007F020A70816A491C8162C18D491E090493
:103D4000090CC18503D01BE002685268F1E70168E5
:103D5000CA6822F02002CA600168CA6822F4807230
:103D6000CA6001684A6922F001024A61202180F894
:103D7000421000214163026B012A03D0FEF746FE88
:103D8000002008BD016301680C3151E8002F22F0CA
:103D9000100241E80023002BF5D101680A68D20621
:103DA00002D50A6849680091818DFEF703FCE7E7B8
:103DB00070B5044600680169E26821F4405111437E
:103DC00001612169A068E269084361691143084300
:103DD0002168CA6849F20C639A430243CA602068AA
:103DE0004169A26921F44071114341613149206860
:103DF000884202D03049884202D1FDF775FE01E0C9
:103E0000FDF762FEE2690023192164253226B2F52E
:103E1000004F626828D0A0FB0101930F9200FCF7CD
:103E2000D1F90146B0FBF5F06FF01802504301EBF9
:103E3000800006EB0010B0FBF5F000F0F002B1FBE3
:103E4000F5F002EB0012B1FBF5F06FF018035843E8
:103E500001EB800006EB0010B0FBF5F000F00F0066
:103E600021681044886070BDA0FB010192185B417D
:103E7000FCF7A8F90146B0FBF5F00201B1FBF5F043
:103E80006FF01803584301EB800006EBC000B0FB55
:103E9000F5F000F0F80002EB4002B1FBF5F05843FA
:103EA00001EB800006EBC000B0FBF5F000F007006E
:103EB000D6E70000001001400014014081628285B5
:103EC000C28500214164222180F84210016921B19C
:103ED0000168CA6842F48072CA6001684A6942F0A7
:103EE00001024A610068C16841F02001C160002000
:103EF00070472DE9F843984617460D460446089E3C
:103F000024E0701C22D0FDF7BDFAA0EB0800B042FF
:103F10001AD8CEB12068C168490717D5802D15D0B1
:103F2000402D13D00168C94309070FD4016800254B
:103F3000406800902046FFF7B3FE0820606484F8D4
:103F400040500120BDE8F8830320FBE720680068AB
:103F500035EA000004D00020B842D2D00020F1E7BA
:103F60000120F9E70148FEF749BB00000C030020DF
:103F70000148FEF743BB000054030020FEE70000A9
:103F8000FEB50024094F4FF4807501263819CDE99C
:103F9000000601230022782102950548FDF73CFB2D
:103FA000641CE4B21B2CF1D3FEBD000038000020DD
:103FB000A80000200FB4054B10B503A9044A0298CD
:103FC00000F0EEF810BC5DF814FB00000549000895
:103FD000580000200907090E002804DB00F1E0204A
:103FE00080F80014704700F00F0000F1E02080F826
:103FF000141D7047004870475C00002002E008C8AC
:10400000121F08C1002AFAD170477047002001E052
:1040100001C1121F002AFBD1704700002DE9FF5F8C
:1040200082B00021DDE90430020DDDF840B0034329
:1040300018D044F61050A2F2FF32424315141198E2
:1040400001281FD0A5EB0B00401C5FEA000A4FF0CF
:1040500000064E4FDFF83891B046504615D5CAF1EC
:10406000000413E0119801244AA3012801D16FEA4A
:104070000B010298119AC0E90031C0E9024206B072
:10408000BDE8F09FCBF10000DFE704460021404A85
:10409000491842EB0450CDE9001012E0E00707D0C8
:1040A00032463B4640464946FCF7F8F8804689468A
:1040B00032463B4610461946FCF7F0F806460F46D6
:1040C0006410002CEAD1DDE90401DDE90023BAF136
:1040D000000F06DAFCF7E2F842464B46FCF7DEF842
:1040E00005E0FCF74DF942464B46FCF749F904461A
:1040F0000E460022284BFCF77FFB03D84FF0FF3021
:10410000014607E00022254B20463146FCF7B4FA71
:10411000FCF759FB102409E0002C0ADB0A220023DB
:10412000FCF750F8039B30321A55641E50EA010226
:10413000F2D1641C039AC4F111031444119A012AA8
:1041400003D0012208430DD10AE0084304D0002027
:104150004FF0110B119072E7A3EB0B056D1E0DE0F4
:104160005B4504DD4FF0000205F1010504E003DAD0
:104170004FF00002A5F10105002AECD00298119938
:10418000C0E90231C0E9004579E7000000001440B1
:104190000000F03F300000000000F0430000E03F6E
:1041A0002DE9FF4F95B09A46884606460025EEE178
:1041B000252877D100242746F94A0121039400E0FD
:1041C000044316F8013F203B01FA03F01042F7D1F7
:1041D00030782A2811D06FF02F033078A0F1300208
:1041E000092A16D8039A44F0020402EB820203EB78
:1041F00042021044761C0390EFE758F8042B039218
:10420000002A03DA504244F40054039044F00204BC
:10421000761C30782E2816D116F8010F44F00404CD
:104220002A280DD06FF02F023078A0F13003092B2F
:1042300009D807EB870302EB4303C718761CF3E7A3
:1042400058F8047B761C30786C280FD006DC4C289C
:1042500017D068280DD06A2814D104E0742810D033
:104260007A280FD10DE044F400140AE044F48014DD
:1042700001E044F440147278824202D104F58014C3
:10428000761C761C307866280BD013DC582877D043
:1042900009DC002875D04528F6D04628F4D04728F8
:1042A0001AD193E118E0632835D0642879D06528C5
:1042B00012D18BE1702873D008DC6728F1D069280F
:1042C0006FD06E280DD06F2806D1ACE073282CD0AB
:1042D000752874D0782853D05246179990476D1C92
:1042E00054E1C4F30250022809D003280DD0D8F8B5
:1042F000001004280DD00D6008F1040846E1D8F83C
:104300000010EA17C1E90052F6E7D8F800100D8056
:10431000F2E70D70F0E718F8041B8DF8001000208C
:104320008DF80100EB46012003E058F804BB4FF084
:10433000FF3061074FF0000102D40DE009F10101E7
:104340008946B9420FDA8145F8DB1BF809100029CC
:10435000F4D108E009F1010189468142FADB1BF83A
:1043600009100029F6D103985346A0EB090721460E
:104370003846179A00F080FA284400EB090507E058
:1043800044E008E10DE01BF8010B524617999047F5
:10439000B9F10109F7D2534621463846179AF2E09F
:1043A00039E00A21C4F302524FF0000B0091022AB7
:1043B00006D058F8040BC117032A09D00AE023E0FD
:1043C00008F1070020F00702F2E80201904605E03C
:1043D00000B2C117042A01D140B2C117002906DA80
:1043E0000A460021404261EB02012D2202E0220533
:1043F00004D52B228DF80420012203E0E20701D02E
:104400002022F7E7914657E00A2100E010214FF003
:10441000000B00910BE010214FF0000B44F004045E
:104420000827009103E008204FF0000B0090C4F330
:104430000252022A05D058F8040B0021032A08D0A2
:1044400008E008F1070020F00702F2E802019046B8
:1044500003E080B2042A00D1C0B24FF00009220765
:104460002AD53278702A07D0DDF800C08CF0100C05
:104470005CEA0B0C05D00EE040228DF804200122EE
:1044800008E050EA010306D030238DF804308DF89F
:10449000052002229146009B83F0080353EA0B0398
:1044A0000AD150EA010201D1620705D530228DF808
:1044B00004204FF001097F1E3278582A04D039A217
:1044C0000C920CAA02920BE03BA2F9E75B46009A21
:1044D000FBF778FE0C9B9B5C029A521E02921370B3
:1044E00050EA0102F2D1029804A9081A00F1200B47
:1044F000600702D524F4803400E001275F4502DD27
:10450000A7EB0B0000E0002000EB0B0100900398EC
:104510004944401A0390E00306D453462146179AB3
:10452000039800F0A9F90544002706E001A85246C7
:10453000C05D179990476D1C7F1C4F45F6DBE0036B
:104540000CD553462146179A039800F095F9054477
:1045500004E030205246179990476D1C0099481E80
:1045600000900029F5DC08E0029802995246007894
:10457000491C0291179990476D1CBBF10001ABF1EA
:10458000010BF1DC5BE100F065F90544761C307845
:1045900000287FF40DAE19B02846BDE8F08F00006A
:1045A0000928010030313233343536373839616209
:1045B00063646566000000003031323334353637CD
:1045C000383941424344454600000000600700D4AA
:1045D000062708F1070020F00700F0E802238046D4
:1045E00003F0004C5FEA0C0001D097A009E0200521
:1045F00001D596A005E0E00701D095A001E0AFF25B
:104600004C001390307823F0004365280CD006DC72
:10461000452809D046281DD047287FD13BE0662891
:1046200018D067287AD136E00021112F01DB112044
:1046300000E0781CCDE9000104A90CA8FFF7EEFC0E
:10464000DDE90D010C9A4FF0000B07F10109109202
:1046500000914EE04FF000400097CDE9011004A911
:104660000CA8FFF7DBFCDDE90D020C9B0F994FF066
:10467000000B91461093009211B9791C00EB0109CF
:10468000B7EB090003D4C0F1FF3B07F10109A9EB27
:104690000700019042E0012F00DA01270021112FCD
:1046A00001DD112000E03846CDE9000104A90CA885
:1046B000FFF7B4FCDDE90D010C9A00914FF0000BFF
:1046C000B946109221070FD4009A4A4503DA914661
:1046D00001E0A9F10109B9F1010F05DD109AA9F175
:1046E0000101515C3029F4D0B84202DA10F1040F14
:1046F00003DA0121CDE9011010E0002803DC834436
:10470000A9EB000102E0411C494500DD8946A0EB10
:104710000B00401C01904FF000400290200705D490
:104720000198484502DB4FF0FF30019000208DF8E2
:104730004B0002980DF14B07B0F1004F25D002203D
:104740000C902B200D90029800280CDA4042029029
:104750002D200D9007E00A210298FBF7C3FE3031AF
:10476000029007F8011D0C99481E0C900029F2DCFC
:1047700002980028EFD1791E0D980870307800F06B
:10478000200040F0450007F8020D11A8C01BC01D15
:1047900002901398007800B1012000EB0901019804
:1047A00001EBE071029801440398401A401E039007
:1047B000E00306D453462146179A039800F05CF8AC
:1047C00005441398007818B15246179990476D1C0C
:1047D000E00323D553462146179A039800F04CF87E
:1047E00005441BE0BBF1000F07DB0098584504DDD2
:1047F0001098179910F80B0001E0179930205246D5
:10480000904701980BF1010B401E05F10105019045
:1048100004D12E205246179990476D1CB9F1000122
:10482000A9F10109DEDC05E017F8010B52461799E2
:1048300090476D1C0299481E02900029F4DC5346F3
:104840002146179A03989EE62D0000002B000000D9
:10485000200000002DE9F041044600251E461746C1
:10486000880404D405E039462020B0476D1C641E3E
:10487000F9D52846BDE8F0812DE9F0410446002530
:104880001E469046C80301D5302700E02027880443
:1048900004D505E041463846B0476D1C641EF9D585
:1048A0002846BDE8F08170B504464FF47A7502E001
:1048B000284600F003F8641EFAD270BD70B5084CAB
:1048C00005460020216848622046FDF7A9FB2068C4
:1048D000416AA942FCD3BDE870400148FDF7DCBB4A
:1048E000A40100200549064A0968B1FBF2F14143E1
:1048F0000520B1FBF0F0401EFDD270470C000020F7
:1049000040420F0013B54FF0FF33012269460248C1
:10491000FEF7A4F800981CBD540300202DED028B77
:1049200082B0FCF7A5FFFEF7F5FFFEF7F7FAFEF7FA
:1049300013FCFEF707FDFEF721FDFEF743FCFEF733
:1049400095FCFEF7C9FCFEF735FDFEF7B5FAFEF75C
:10495000A3FBFEF7C1FBFEF7DFFBFEF749FDFEF709
:10496000A9FFFCF723F910B1D6A0FFF723FBDBA0CA
:10497000FFF720FBE0A0FFF71DFBE5A0FFF71AFB08
:10498000FEF76AFAFCF7ECF9FEF707FEFEF7EBFD1F
:104990001024042340F2E972022100200094FEF763
:1049A0007FFE022211462020FEF710FE022307227E
:1049B000194630200094FEF773FE032202214020A6
:1049C000FEF704FE02231722194650200094FEF73A
:1049D00067FE042202216020FEF7F8FD0C23D4A21A
:1049E00006210020FEF791FE4FF47A742046FCF772
:1049F0002DFCFEF7B8FD002105220846FEF7E6FD76
:104A0000062200211020FEF7E1FD072200212020D0
:104A1000FEF7DCFD082200213020FEF7D7FD092239
:104A200004212020FEF7D2FD0A2204213020FEF7C7
:104A3000CDFD0B2204214020FEF7C8FD2046FCF7E7
:104A400005FCFEF790FD002105220846FEF7BEFD9D
:104A5000062200211020FEF7B9FD072200212020A8
:104A6000FEF7B4FD082200213020FEF7AFFD0C2236
:104A700004212020FEF7AAFD0D2204213020FEF79C
:104A8000A5FD0E2204214020FEF7A0FD2046FCF7E4
:104A9000DDFBFEF768FD002105220846FEF796FDC6
:104AA000062200211020FEF791FD07220021202080
:104AB000FEF78CFD082200213020FEF787FD0F2233
:104AC00004212020FEF782FD102204213020FEF771
:104AD0007DFD112204214020FEF778FD2046FCF7E1
:104AE000B5FBFEF740FD002105220846FEF76EFDEE
:104AF000062200211020FEF769FD07220021202058
:104B0000FEF764FD082200213020FEF75FFD12222F
:104B100004213020FEF75AFD132204214020FEF725
:104B200055FD2046FCF792FBFEF71DFD00210522F6
:104B30000846FEF74BFD062200211020FEF746FD39
:104B4000072200212020FEF741FD0822002130200D
:104B5000FEF73CFD142204212020FEF737FD15222C
:104B600004213020FEF732FD162204214020FEF7FA
:104B70002DFD2046FCF76AFBFEF7F5FC002105221F
:104B80000846FEF723FD062200211020FEF71EFD39
:104B9000072200212020FEF719FD082200213020E5
:104BA000FEF714FD172204213020FEF70FFD182216
:104BB00004214020FEF70AFD2046FCF747FBFEF7E4
:104BC000D2FC002105220846FEF700FD0622002146
:104BD0001020FEF7FBFC072200212020FEF7F6FC48
:104BE000082200213020FEF7F1FC192204212020A8
:104BF000FEF7ECFC1A2204213020FEF7E7FC1B2212
:104C000004214020FEF7E2FCDFF83491A0469FED3E
:104C10004D8B4E4FDFF838B166104FF4C06A40211B
:104C20004846FCF722FC4046FCF710FBFBF78AFFE6
:104C3000FBF715FC53EC182BFBF7A2FB41EC100B18
:104C400044A053EC102BFFF7B5F9FCF7B1F847A0DF
:104C50003968FFF7AFF93046FCF7F8FA5146584685
:104C6000FCF703FC47A0FFF7A5F901224A494B488E
:104C7000FDF7BEFE4AA0FFF79DF9FEF707FE0446CA
:104C8000014653A0FFF796F92046FBF709FFFEF710
:104C9000FDFD0546FCF76CF8F0EE400AFCF742F823
:104CA000044610EE900AFBF70AFC41EC100B294673
:104CB00053EC102B4BA00094FFF77CF93046FCF727
:104CC000C5FAACE744533138423230204E6F74207D
:104CD000466F756E64210D0A0000000044533138A0
:104CE000423230205265616479206F6E205042312B
:104CF00035210D0A0000000053797374656D204959
:104D00006E697469616C697A65640D0A000000005F
:104D1000485837313120576569676874204D65619F
:104D2000737572656D656E742044656D6F0D0A0054
:104D300048656C6C6F20576F726C64210000000036
:104D40000008024000000000000024401C00002079
:104D50000014024054656D70657261747572653A35
:104D600020252E3166E5BAA6200D0A004375727221
:104D7000656E74205765696768743A2025642067FA
:104D80000D0A000044485431312054657374205397
:104D9000746172740D0A0000100000200C030020E2
:104DA00053797374656D2052656164792E20576163
:104DB0006974696E6720666F7220426C7565746FE6
:104DC0006F746820446174612E2E2E0D0A0000005D
:104DD0004144432056616C75653A20256C75200D61
:104DE0000A0000004144433A20256C752C20487588
:104DF0006D69646974793A20252E316625252C2049
:104E00005374617475733A202573200D0A000000F5
:104E10000246012000E05043491EC9B2FBD2704750
:104E2000000000000000000001020304060708095A
:104E30000000000001020304000000000000000068
:104E4000002F000000000700070000147F147F14EB
:104E500000242A7F2A120062640813230036495571
:104E6000225000000503000000001C224100000049
:104E700041221C000014083E08140008083E0808DF
:104E8000000000A06000000808080808000060603A
:104E90000000002010080402003E5149453E000079
:104EA000427F4000004261514946002141454B315B
:104EB000001814127F10002745454539003C4A4927
:104EC0004930000171090503003649494936000699
:104ED0004949291E00003636000000005636000001
:104EE000000814224100001414141414000041227C
:104EF000140800020151090600324959513E007C54
:104F00001211127C007F49494936003E414141223D
:104F1000007F4141221C007F49494941007F090926
:104F20000901003E4149497A007F0808087F0000D6
:104F3000417F4100002040413F01007F0814224191
:104F4000007F40404040007F020C027F007F040849
:104F5000107F003E4141413E007F09090906003EA5
:104F60004151215E007F09192946004649494931CE
:104F70000001017F0101003F4040403F001F2040F1
:104F8000201F003F4038403F0063140814630007AF
:104F90000870080700615149454300007F41410006
:104FA00000552A552A55000041417F0000040201A6
:104FB0000204004040404040000001020400002084
:104FC00054545478007F48444438003844444420C2
:104FD00000384444487F00385454541800087E096F
:104FE00001020018A4A4A47C007F08040478000037
:104FF000447D4000004080847D00007F10284400F4
:105000000000417F4000007C04180478007C080404
:10501000047800384444443800FC24242418001840
:10502000242418FC007C080404080048545454202C
:1050300000043F444020003C4040207C001C2040B5
:10504000201C003C4030403C004428102844001CF8
:10505000A0A0A07C004464544C44141414141414F0
:105060000000000000000000000000000000000040
:10507000000000F8000000000000003330000000D5
:1050800000100C06100C06000000000000000000DC
:1050900040C07840C0784000043F04043F0404004E
:1050A000007088FC08300000001820FF211E00005E
:1050B000F008F000E018000000211C031E211E0073
:1050C00000F00888700000001E21232419272110F9
:1050D00010160E000000000000000000000000009C
:1050E000000000E018040200000000071820400043
:1050F00000020418E0000000004020180700000033
:10510000404080F0804040000202010F0102020096
:10511000000000F0000000000101011F010101007A
:10512000000000000000000080B0700000000000DF
:105130000000000000000000000101010101010168
:1051400000000000000000000030300000000000FF
:1051500000000000806018040060180601000000D4
:1051600000E010080810E000000F102020100F00D1
:10517000001010F8000000000020203F2020000058
:1051800000700808088870000030282422213000B0
:1051900000300888884830000018202020110E00B8
:1051A0000000C02010F8000000070424243F240061
:1051B00000F80888880808000019212020110E0036
:1051C00000E0108888180000000F112020110E0048
:1051D00000380808C83808000000003F0000000040
:1051E0000070880808887000001C222121221C0001
:1051F00000E010080810E0000000312222110F002A
:10520000000000C0C00000000000003030000000BE
:10521000000000800000000000008060000000002E
:105220000000804020100800000102040810200047
:105230004040404040404000040404040404040092
:105240000008102040800000002010080402010027
:10525000007048080808F000000000303601000027
:10526000C030C828E810E0000718272423140B00DA
:105270000000C038E0000000203C23020227382054
:1052800008F8888888700000203F202020110E0038
:10529000C03008080808380007182020201008002F
:1052A00008F808080810E000203F202020100F0018
:1052B00008F88888E8081000203F202023201800E4
:1052C00008F88888E8081000203F2000030000004C
:1052D000C03008080838000007182020221E0200ED
:1052E00008F808000008F808203F210101213F20AC
:1052F000000808F8080800000020203F20200000D7
:1053000000000808F8080800C08080807F000000C6
:1053100008F888C028180800203F200126382000FF
:1053200008F8080000000000203F20202020300066
:1053300008F8F800F8F80800203F003F003F200080
:1053400008F830C00008F808203F200007183F0088
:10535000E01008080810E0000F10202020100F00B7
:1053600008F808080808F000203F210101010000AA
:10537000E01008080810E0000F18242438504F00EF
:1053800008F8888888887000203F2000030C3020AF
:1053900000708808080838000038202121221C00ED
:1053A000180808F8080818000000203F2000000036
:1053B00008F808000008F808001F202020201F001F
:1053C0000878880000C83808000007380E0100007F
:1053D000F80800F80008F800033C0700073C030049
:1053E000081868808068180820302C03032C3020AF
:1053F0000838C800C83808000000203F200000001E
:1054000010080808C8380800203826212020180075
:10541000000000FE020202000000007F4040400049
:10542000000C30C000000000000000010638C00081
:1054300000020202FE000000004040407F00000029
:10544000000004020202040000000000000000004E
:10545000000000000000000080808080808080804C
:105460000002020400000000000000000000000034
:1054700000008080808000000019242222223F202A
:1054800008F8008080000000003F112020110E006D
:105490000000008080800000000E112020201100FC
:1054A000000000808088F800000E112020103F20AE
:1054B0000000808080800000001F22222222130032
:1054C000008080F0888888180020203F202000007D
:1054D0000000808080808000006B94949493600032
:1054E00008F8008080800000203F210000203F203D
:1054F00000809898000000000020203F202000003D
:10550000000000809898000000C08080807F00002C
:1055100008F8000080808000203F24022D30200009
:10552000000808F8000000000020203F20200000B4
:105530008080808080808000203F20003F20003FCE
:105540008080008080800000203F210000203F20DC
:105550000000808080800000001F202020201F008D
:10556000808000808000000080FFA12020110E00BC
:105570000000008080808000000E112020A0FF80AD
:10558000808080008080800020203F21200001005A
:1055900000008080808080000033242424241900AF
:1055A000008080E0808000000000001F20200000BC
:1055B0008080000000808000001F202020103F20FD
:1055C000808080000080808000010E30080601008D
:1055D00080800080008080800F300C030C300F0032
:1055E00000808000808080000020312E0E3120005D
:1055F000808080000080808080818E70180601008D
:1056000000808080808080000021302C22213000AA
:1056100000000000807C020200000000003F4040CB
:105620000002027C800000000040403F00000000BB
:1056300000000000FF00000000000000FF0000006C
:10564000404042CC0000008484848484FC0000003C
:10565000000000000000000000000000000000004A
:105660000000007F2010003F40404040414070005B
:10567000000000000000000000000000000000002A
:1056800000FE02FA02FE00000000FF1010101000E1
:10569000000000000000000000000000000000000A
:1056A0008047300F106700FF4141414141FF00003A
:1056B00000000000000000000000000000000000EA
:1056C000002018C744444444FC44444444040000BB
:1056D00000000000000000000000000000000000CA
:1056E0000404040704040404FF0404040404040080
:1056F00000000000000000000000000000000000AA
:10570000000000FE2222222222222222FE0000008D
:105710000000000000000000000000000000000089
:105720008040300F02020202020242827F0000002B
:105730000000000000000000000000000000000069
:10574000000000FE82828282828282FE00000000CF
:105750000000000000000000000000000000000049
:10576000000000FF40404040404040FF000000007B
:105770000000000000000000000000000000000029
:1057800000FE0222222222A2FA22222202FE00008F
:105790000000000000000000000000000000000009
:1057A00000FF4048444251605F40404040FF0000DD
:1057B00000000000000000000000000000000000E9
:1057C00000FE0222DA06000000FF000000000000D8
:1057D00000000000000000000000000000000000C9
:1057E00000FF081088472018070007182040800095
:1057F00000000000000000000000000000000000A9
:105800000000F8888888880808FF08090AC8080086
:105810000000000000000000000000000000000088
:1058200080601F0010201F80402116182641F800BC
:105830000000000000000000000000000000000068
:105840000000C05E525252525252525EC0000000DE
:105850000000000000000000000000000000000048
:1058600080808F404020100E101020204F800000BC
:105870000000000000000000000000000000000028
:105880000000FC444444C2424000FE0222DA06000A
:105890000000000000000000000000000000000008
:1058A00020603F2020101F101000FF081008070084
:1058B00000000000000000000000000000000000E8
:1058C0004458C07FD048002A12BE002A923E0000F1
:1058D00000000000000000000000000000000000C8
:1058E00080601F007F201402FF55557F55554100F1
:1058F00000000000000000000000000000000000A8
:1059000000080888482818FF182848880808000058
:105910000000000000000000000000000000000087
:1059200082423100001060071060000011E20200A6
:105930000000000000000000000000000000000067
:10594000047454555654740400FE0222DA06000012
:105950000000000000000000000000000000000047
:10596000101151917D0B090800FF08100807000075
:105970000000000000000000000000000000000027
:105980000000003E2A2A2A2A2A2A2A3E0000000075
:105990000000000000000000000000000000000007
:1059A000888889494929190F19294949898888000E
:1059B00000000000000000000000000000000000E7
:1059C0001010D0FF9010E42464A43FA46424E400E9
:1059D00000000000000000000000000000000000C7
:1059E000040300FF0001FF0009097F0949807F00CF
:1059F00000000000000000000000000000000000A7
:105A00008084444424140CFF0C14244444848000F7
:105A10000000000000000000000000000000000086
:105A200008080808094989790D0B090808080800C1
:105A30000000000000000000000000000000000066
:105A400040402020908894E38488902020404000AB
:105A50000000000000000000000000000000000046
:105A6000000000FC44444444464544FC000000005F
:105A70000000000000000000000000000000000026
:105A8000202024A4ACB4A5A6A4B4ACA42420200057
:105A90000000000000000000000000000000000006
:105AA0002020202F2A2A2AFA2A2A2A2F20202000E2
:105AB00000000000000000000000000000000000E6
:105AC0008084444424140CFF0C1424444484800037
:105AD00000000000000000000000000000000000C6
