:020000040800F2
:1000000040050020A1010008F31900084517000869
:10001000F1190008F5070008FB1E000800000000A9
:10002000000000000000000000000000F7190008B8
:10003000F707000800000000F5190008151A00086D
:10004000BB010008BB010008BB010008BB010008A0
:10005000BB010008BB010008BB010008BB01000890
:10006000BB010008BB010008BB010008BB01000880
:10007000BB010008BB010008BB010008BB01000870
:10008000BB010008BB010008BB010008BB01000860
:10009000BB010008BB010008BB010008BB01000850
:1000A000BB010008BB010008BB010008BB01000840
:1000B000BB010008BB010008BB010008BB01000830
:1000C000BB010008BB010008BB010008BB01000820
:1000D000BB010008BB010008BB010008BB01000810
:1000E000BB010008BB010008BB010008BB01000800
:1000F000BB010008BB010008BB010008BB010008F0
:10010000BB010008BB010008BB010008BB010008DF
:10011000BB010008BB010008BB010008BB010008CF
:10012000BB010008BB010008BB010008BB010008BF
:10013000BB010008BB010008BB010008BB010008AF
:10014000BB010008BB010008BB010008BB0100089F
:10015000BB010008BB010008BB010008BB0100088F
:10016000BB010008BB010008BB010008BB0100087F
:10017000BB010008BB010008BB0100080000000033
:10018000BB010008BB010008DFF810D000F00EFB37
:100190000048004701280008AFF300804005002018
:1001A0000648804706480047FEE7FEE7FEE7FEE711
:1001B000FEE7FEE7FEE7FEE7FEE7FEE7AD1A000812
:1001C000890100082DE9F05F0546002092469B4614
:1001D00088460646814640241BE02846414647465D
:1001E000224600F0F8F853465A46C01A914110D3FF
:1001F00011461846224600F0DFF82D1A67EB010879
:100200004F4622460120002100F0D6F817EB0009E6
:100210004E41201EA4F10104DFDC484631462A4647
:100220004346BDE8F09FD2B201E000F8012B491E21
:10023000FBD270470022F6E710B513460A46044683
:100240001946FFF7F0FF204610BD2DE9FE4F81EA69
:10025000030404F0004421F0004100944FF0000B2F
:1002600023F0004350EA01045ED052EA03045BD05D
:10027000C3F30A54C1F30A552C44A4F2F334019495
:10028000A0FB0254C1F3130141F48011C3F3130323
:1002900043F4801301FB024400FB034E840A970AD7
:1002A00044EA815447EA8357A4FB076802958D0A04
:1002B00005FB07854FEA932C04FB0C542705029D90
:1002C0004FEA065847EA1637B5EB08056EEB070C00
:1002D000870E920E47EA811742EA8312A7FB0201BA
:1002E000B6EB0B0164EB00042B0D43EA0C335E18F4
:1002F00044EB1C50DA465146E7FB0201C5F31304F8
:100300004FEA0B3343EA14534FEA0432019C43EAA9
:100310000603A4F10C040294009CCDE900B400F0A3
:10032000B0F803B0BDE8F08F00200146F9E700F017
:10033000004230F000400AD0C10D01F56071C0F3F9
:10034000160042EA0151C2084007114370470020DD
:100350000146704701F0004330B421F0004150EAFB
:10036000010206D00A0DA2F56072C1F31301002A42
:1003700002DC30BC00207047440F44EAC104C100D5
:10038000E01830BC00EBC25000F035B830B50B4679
:10039000014600202022012409E021FA02F59D42B5
:1003A00005D303FA02F5491B04FA02F52844151E89
:1003B000A2F10102F1DC30BD202A04DB203A00FA70
:1003C00002F1002070479140C2F1200320FA03F3AC
:1003D000194390407047202A04DB203A21FA02F0AA
:1003E0000021704721FA02F3D040C2F1200291406F
:1003F0000843194670470029A8BF7047401C4900B0
:1004000008BF20F00100704710B4B0FA80FC00FA79
:100410000CF050EA010404BF10BC704749B1CCF1A4
:10042000200421FA04F411FA0CF118BF0121214330
:100430000843A3EB0C01CB1D4FEA00614FEA1020EB
:1004400042BF002010BC704700EBC350104400298D
:10045000A4BF10BC7047401C490008BF20F0010039
:1004600010BC704710B5141E73F1000408DA401C6C
:1004700041F1000192185B411A4301D120F00100C3
:1004800010BD2DE9F04D92469B4611B1B1FA81F2B3
:1004900002E0B0FA80F220329046FFF78DFF04466A
:1004A0000F4640EA0A0041EA0B0153465A46084308
:1004B00013D0114653EA010019D0C8F1400250464A
:1004C000FFF789FF05460E46504659464246FFF75C
:1004D00073FF084305D0012004E020463946BDE8FB
:1004E000F08D0020054346EAE0762C4337430A9816
:1004F0006305E40AA0EB08000022FD0A44EA475421
:100500000A3002D500200146E9E7010510196941CA
:10051000DDE9084500196941BDE8F04DA2E72DE984
:10052000FE4F804681EA0300C00F0C46009021F088
:10053000004123F00045B8EB0200A94105D2404636
:10054000214690461C460B46024623F000401043CD
:1005500047D0270DC7F30A00C3F30A510290401A8F
:10056000019040286BDAC3F3130040F4801B00981D
:10057000924620B10023D2EB030A63EB0B0B0198E8
:100580005946C0F140025046FFF716FF06460D4699
:1005900050465946019A00F01BF910EB08006141E2
:1005A000002487EA115284EAE7731A4340D0009A84
:1005B00062B3019A012A4FEA075215DC001B61EB76
:1005C00002014FF0004202EA0752CDE90042001C4E
:1005D00041F5801132462B46FFF753FF03B0BDE8CB
:1005E000F08F40462146F9E7001B61EB0201001C39
:1005F00041F5801300185B412018A2F5001747EB66
:10060000030140EAD570B6196D4111E06D084FEA5B
:10061000360645EAC0754FEA0752001B61EB02013E
:10062000001C41F5801149084FEA30000019514182
:1006300032462B4603B0BDE8F04FFFF713BF0098DA
:10064000012240000023D0EB020263EBE07300982C
:1006500021464FEAE074B8EB000061EB0401E9E7E2
:1006600083F000435BE781F0004158E72DE9F04D4E
:1006700081EA030404F0004B21F0004514464FF0DA
:10068000000A23F0004150EA050220D054EA01029A
:100690001DD0C5F30A570246C5F31303C1F3130077
:1006A000C1F30A5640F4801543F48013A7EB060803
:1006B000101BD64608F2FD3873EB050002D308F193
:1006C000010801E092185B41B8F1000F03DA002045
:1006D0000146BDE8F08D00204FF4801106468446A7
:1006E0000EE0171B73EB050705D3121B63EB050325
:1006F00006434CEA010C49084FEA300092185B416E
:1007000050EA0107EDD152EA030012D082EA040058
:1007100083EA0501084305D0101BAB4106D2012234
:10072000002306E000224FF0004302E06FF00102D8
:1007300053101AEB06004CEB085110EB0A0041EB8A
:100740000B01BDE8F04DFFF78DBEC1F30A52C1F3B6
:10075000130140F2FF3341F480119A4202DA002083
:100760000146704740F233439A42A2F2334202DC20
:100770005242FFF730BEFFF71FBE000030B5041E27
:1007800071F1000404DB4FF00044404264EB0101CE
:10079000141E73F1000405DB1C464FF00043524267
:1007A00063EB0403994208BF904230BD064C074DED
:1007B00006E0E06840F0010394E807009847103431
:1007C000AC42F6D3FFF7E4FCB4290008D4290008B2
:1007D000202A06DBCB17203A41FA02F043EAE07305
:1007E00006E041FA02F3D040C2F1200291400843F2
:1007F00019467047FEE7704772B6FEE770B50446CB
:1008000000F00CF90546601C02D00448007804444E
:1008100000F004F9401BA042FAD370BD080000208C
:100820002DE9F84FDFF8BCA10022012503264FF087
:100830000F090AF1040BAAF1040E00BF0B6805FAB8
:1008400002F42340A34270D10F7907F00307012F70
:1008500001D0022F16D187684FEA420806FA08FC39
:1008600027EA0C07D1F80CC00CFA08FC4CEA070C7C
:10087000C0F808C04768A7430C79C4F3001494403B
:100880003C4344600C79E443A4070AD0C4684FEAAF
:10089000420C06FA0CF7BC438F6807FA0CF72743A3
:1008A000C7600C7904F00304022C12D1D40800EBC9
:1008B000840CDCF820405707FF0E09FA07F824EAF9
:1008C0000804D1F8108008FA07F848EA0408CCF8C0
:1008D000208004684FEA420C06FA0CF7BC430F79FB
:1008E00007F0030707FA0CF7274307604C6814F476
:1008F000403F70D03C4C276847F48047276024680D
:1009000022F0030704F480440094384C07EB040CF5
:10091000DCF8084897074FEA177809FA08F7BC434C
:10092000334FB84202D1002724E054E0314FB8429F
:1009300001D101271EE0304FB84201D1022719E052
:100940002E4FB84201D1032714E02D4FB84201D1F8
:1009500004270FE02B4FB84201D105270AE02A4FA8
:10096000B84201D1062705E0284FB84201D1072738
:1009700000E0082707FA08F72743CCF80878DAF8E8
:1009800000405746D1F804C09C435FEACC2C00D508
:100990001C433C60DBF800405F46D1F804C09C4338
:1009A0005FEA8C2C00D51C433C60DEF800407746A3
:1009B000D1F804C09C435FEA8C3C00D51C433C60EA
:1009C000084F083F3C68D1F804C09C435FEACC3C28
:1009D00000D51C433C60521C102AFFF42FAFBDE829
:1009E000F88F0000083C01404438024000300140CC
:1009F000000002400004024000080240000C0240D7
:100A0000001002400014024000180240001C024086
:100A10000AB1816170470904FBE700000148806862
:100A200070470000080000200248816802781144E5
:100A300081607047080000200B4810B5016841F440
:100A400000710160016841F480610160016841F456
:100A500080710160032000F061F80F2000F006F8BB
:100A600000F024F8002010BD003C024070B50D4D90
:100A700004464FF47A712878B1FBF0F00A4909680E
:100A8000B1FBF0F000F0FEFA48B9102C07D20022BA
:100A90002146501E00F022F800206C6070BD01203D
:100AA00070BD000008000020140000200A4808B5AE
:100AB000016841F480410160006800F480400090CA
:100AC0000548001F016841F080510160006800F096
:100AD0008050009008BD000044380240F0B40E4B36
:100AE0001B680C46C3F30223C3F10705042D00D98C
:100AF0000425191D072901D2002300E0DB1E012671
:100B000006FA05F1491E214099409E40761E164086
:100B10003143F0BC01F002BA0CED00E0064900F0F0
:100B2000070208684FF6FF03184040EA0220034A14
:100B300010430860704700000CED00E00000FA056B
:100B40002DE9F0470E46050065D0DFF81481D8F88E
:100B50000000F7B200F00700B04207D288F800703A
:100B6000D8F8000000F00700B04254D128683D4C8E
:100B7000810712D5400703D5206840F4E05020607B
:100B80002878000703D5206840F460402060206882
:100B9000A96820F0F000084320602878C0072DD015
:100BA000304968680839012812D0022813D0032878
:100BB00011D00968890700292DDA216821F0030185
:100BC00001432160FFF72AFF814641F2883A0EE097
:100BD00009688903EFE709688901ECE7FFF71EFF61
:100BE000A0EB0901514502D90320BDE8F087206838
:100BF000696800F00C00B0EB810FEFD1D8F800105D
:100C0000404601F00701B14207D90770006800F0C3
:100C10000700B04201D00120E7E72878400705D55A
:100C20002068E96820F4E050084320602878000735
:100C300006D52068296920F4604040EAC1002060A0
:100C400000F038F82168084AC1F30311515CC8402C
:100C50000649086006480068FFF708FF0020C4E75F
:100C6000003C0240083802409C2900081400002083
:100C70000C0000200448054900680968044AC1F3D3
:100C80008221515CC840704714000020083802409F
:100C9000AC2900080448054900680968044AC1F302
:100CA0004231515CC84070471400002008380240AF
:100CB000AC290008154810B5006810F00C02144863
:100CC00013D01449042A0FD0082A0ED10F4C241F28
:100CD0002268236802F03F025B0207D52068C0F358
:100CE0008810A0FB010106E0084610BD2168C1F391
:100CF0008811A1FB00010023FFF764FA2168C1F30A
:100D00000141491C4900B0FBF1F010BD0838024018
:100D10000024F40040787D012DE9F84F04006ED0E6
:100D20002078DFF84C93C007A9F104054AD009F1F7
:100D300004000168C1F38101012908D00068C0F3F3
:100D4000810002280AD1D9F80000400206D528689F
:100D5000800337D560680028E1D033E06068B0F5E3
:100D6000803F10D0B0F5A02F286810D020F480303C
:100D70002860286820F4802028606068A8B1FFF708
:100D80004DFE06460DE0286840F48030F4E740F45C
:100D900080202860F7E700BFFFF740FE801B642833
:100DA00073D828688003F7D50CE0FFF737FE0646B6
:100DB00005E000BFFFF732FE801B6428F0D82868EA
:100DC0008003F7D42078DFF8AC8280074FF0000A68
:100DD0003ED5A748001D016811F00C0F08D000682F
:100DE000C0F3810002280BD1D9F80000400207D4DB
:100DF0002868800716D5E068012800D112E033E1A9
:100E0000E068B8B10120C8F80000FFF707FE064609
:100E100005E000BFFFF702FE801B0228C0D828684B
:100E20008007F7D52868216920F0F80040EAC10062
:100E300028600DE0C8F800A0FFF7F0FD064604E0CA
:100E4000FFF7ECFD801B02281FD828688007F7D425
:100E50002078000722D5864F87486169703771B1C5
:100E600001210160FFF7DAFD064604E0FFF7D6FD39
:100E7000801B022809D838688007F7D50EE0C0F833
:100E800000A0FFF7CBFD064605E082E0FFF7C6FDB8
:100E9000801B02287DD838688007F7D42078400767
:100EA00068D5DFF8CCB100270BF13C0BDBF8000074
:100EB000C0000BD4DBF8001041F08051CBF80010DB
:100EC000DBF80000012700F0805000906B4E306886
:100ED000C00510D4306840F480703060FFF79EFD8C
:100EE000009005E0FFF79AFD0099401A022850D8BB
:100EF0003068C005F6D55E4EA0686C3601280FD06C
:100F00000528306810D020F001003060306820F0F3
:100F100004003060A068B8B1FFF780FD00900FE0DA
:100F2000306840F00100F4E740F004003060F7E77B
:100F3000FFF774FD0099411A41F28830814266D86A
:100F400030688007F4D50EE0FFF768FD009007E0F9
:100F5000FFF764FD0099411A41F28830814256D86A
:100F600030688007F4D42FB1DBF8001021F08051F5
:100F7000CBF80010A069C8B33D49091D0968C1F349
:100F8000810102294AD00228504607D0C8F86000E3
:100F900000E03CE0FFF742FD04463BE04746C8F86E
:100FA0006000FFF73BFD064605E000BFFFF736FD9A
:100FB000801B02282BD828688001F7D4D4E90701C8
:100FC0000843A16A2E4A490802EB0141626A41EADC
:100FD0008211084394F82C1040EA0161C9F800100E
:100FE00001203866FFF71AFD044606E03EE000BF28
:100FF000FFF714FD001B022809D828688001F7D5E7
:1010000034E000BFFFF70AFD001B022802D90320CD
:10101000BDE8F88F28688001F4D427E00128F7D0D4
:10102000D9F80000E26900F4800191421CD1226AE3
:1010300000F03F01914217D147F6C071626A01404A
:10104000B1EB821F10D1A26A4FF0FF3300F44031A0
:1010500003EB5202B1EB024F06D194F82C1000F0D2
:101060007060B0EB016F01D00120D1E70020CFE725
:101070000438024000004742800E474200700040A2
:101080000000FFFF10B5401EB0F1807F01D30120AA
:1010900010BD4FF0E02460610F21601700F03EFFAB
:1010A0000020A06107202061002010BD10B590F83D
:1010B0003C20012A22D0012280F83C20CA688C689A
:1010C00022F4407222434C6822F4806222430C686E
:1010D00022F4006222430C6922F4805222434C69BC
:1010E00022F400522243C969002322F480420A43B9
:1010F00001684A6480F83C30002010BD022010BD19
:1011000070B590F83C20012A32D0012480F83C4090
:10111000022280F83D2003685A689D6822F070061C
:101120000A6832435A60134B02689A4214D0B2F1F3
:10113000804F11D0104B9A420ED0104B9A420BD0D8
:101140000F4B9A4208D00F4B9A4205D00E4B9A4251
:1011500002D00E4B9A4204D1496825F0800319430E
:10116000916080F83D40002180F83C10084670BD39
:10117000022070BD00000140000400400008004053
:10118000000C0040000401400040014000180040F5
:101190002DE9F0410D46040003D094F83D0018B14C
:1011A00008E00120BDE8F081002084F83C002046E2
:1011B00000F040F8022084F83D002068816844F285
:1011C000070291438160211D206800F077FC2268AE
:1011D00090689169166A2B68AF69034340F2033047
:1011E000814341EA0721A868EF6908434FF6FC41B3
:1011F0008843E96840EA0720014328692F6A000113
:1012000040EA0730084369686D6926F0AA0646EA95
:101210000515294393602268906154F8460B0162DA
:10122000012004F81F09E0752076E0762077A0758C
:101230000020B7E730B587B0044614216846FEF7B2
:10124000F9FF214824681F4D00221F49103802234E
:10125000AC4216D10C6844F002040C60096801F03D
:1012600002010591016841F00101016000686946D1
:1012700000F001000590C0200090CDE90132134834
:1012800019E0134DAC421AD10C6844F004040C6010
:10129000096801F004010591016841F0080101604D
:1012A0000068694600F0080005904FF44050009037
:1012B000CDE901320748CDE90323FFF7B1FA07B0C2
:1012C00030BD0000000400404038024000000240F1
:1012D00000080040000C024070B590F83E600446E3
:1012E00090F83F5090F8423090F84320022021B10E
:1012F00004290ED0012E1BD114E0012E18D1012B90
:1013000016D184F83E0084F84200012200212068B2
:1013100020E0012D0CD1012A0AD184F83F0084F885
:10132000430014E0012D03D1012B01D1012A01D08A
:10133000012070BD84F83E0084F83F0084F842002C
:1013400084F8430001220021206800F01FFC0122E4
:101350000421206800F01AFC2068016841F00101B6
:101360000160002070BD000010B586B00446142155
:101370006846FEF75FFF0E492068884216D10D4887
:101380000021026842F010020260006800F01000C4
:1013900005904FF4206000900220CDE9010101206A
:1013A000CDE9031069460448FFF73AFA06B010BDCC
:1013B00000000140303802400010024070B5044681
:1013C00090F83C0000260D4601280FD0012084F83B
:1013D0003C006AB1042A1DD0082A2FD00C2A3FD025
:1013E0000126002084F83C00304670BD022070BD0C
:1013F000206800F0D9FB2068816941F00801816113
:101400002068816921F004018161206881692A696D
:10141000114311E0206800F0F7FB2068816941F476
:10142000006181612068816921F4806181612068A7
:1014300081692A6941EA02218161D2E7206800F0CE
:1014400019FC2068C16941F00801C1612068C169C7
:1014500021F00401C1612068C1692A69114311E0CA
:10146000206800F03BFC2068C16941F40061C16163
:101470002068C16921F48061C1612068C1692A695D
:1014800041EA0221C161ACE710B5040003D094F831
:101490003D0010B107E0012010BD002084F83C00A1
:1014A000204600F01FF8022084F83D00211D20682E
:1014B00000F004FB012084F8460084F83E0084F824
:1014C0003F0084F8400084F8410084F8420084F82A
:1014D000430084F8440084F8450084F83D0000206F
:1014E00010BD000008B500680649884208D10648CA
:1014F000016841F001010160006800F00100009006
:1015000008BD0000000001404438024010B5044608
:10151000022249B104290ED0082913D094F84100C1
:10152000012816D0012010BD94F83E000128F9D101
:1015300084F83E200FE094F83F000128F2D184F8AF
:101540003F2008E094F840000128EBD184F84020C7
:1015500001E084F841200122206800F017FB1649C1
:101560002068164A884201D0904203D1436C43F46C
:10157000004343642068884213D0B0F1804F10D0FC
:101580000F4988420DD00F4988420AD00E4988423F
:1015900007D0904205D00D49884202D00C498842BC
:1015A00004D1816801F00701062903D0016841F0E8
:1015B00001010160002010BD000001400004014055
:1015C0000004004000080040000C004000400140C2
:1015D0000018004070B5040004D094F841000025C4
:1015E00010B106E0012070BD84F84050204600F0A4
:1015F00023F8242084F841002068C16821F40051B8
:10160000C160204600F0BAFB2068016921F49041D6
:1016100001612068416921F02A0141612068C168A7
:1016200041F40051C1606564202084F8410084F8D1
:1016300042006563002070BD10B586B004461421D9
:101640006846FEF7F7FD14492068884221D1134807
:101650000021026842F010020260006800F01000F1
:1016600005900E481438026842F0010202600068DA
:1016700000F0010005904FF4C06000900220CDE919
:101680000101032003900720049069460448FFF7F6
:10169000C7F806B010BD00000010014044380240F9
:1016A000000002402DE9F843044690F841009846B6
:1016B00016460D46202802D00220BDE8F88385B1E9
:1016C0007EB100206064212084F84100FFF7A6F974
:1016D000A6848146E684A0682027B0F5805F02D00A
:1016E00003E00120E9E7206910B12E4600250EE055
:1016F00000260CE08021204600F0C6FBA8B9C6B148
:1017000016F8010B21684860E08C401EE084E08CF4
:101710004B464FF00002CDF800800028EAD14FF090
:101720004001204600F0B0FB40B184F84170032036
:10173000C3E735F8020BC0F30800E3E784F8417013
:101740000020BAE7FEE700002DE9F04186B0142141
:101750006846FEF76FFD32480024016841F004013D
:101760000160016801F004010591016841F0200168
:101770000160016801F020010591016841F08001DC
:101780000160016801F080010591016841F00101EB
:101790000160016801F001010591016841F010014B
:1017A0000160016801F010010591016841F002013A
:1017B0000160016801F002010591016841F0080132
:1017C00001600068174F00F0080005900022052115
:1017D0003846FFF71DF9012241F202013846FFF7B2
:1017E00017F90122DFF84080D60331464046FFF763
:1017F0000FF941F2070000900125CDE90154694637
:1018000038460394FFF70CF80320CDE90240CDE9F8
:10181000006569464046FFF703F806B0BDE8F08171
:1018200030380240001402400004024010B592B06B
:1018300000240F941C2168461094FEF7FBFC202125
:1018400007A8FEF7F7FC254823490160A721C0E956
:1018500001144FF47A71C0E903148021C0E90541F5
:10186000FFF712FE08B1FEF7C7FF0F940FA91B4840
:101870001094FFF745FC08B1FEF7BEFF6020CDE9EC
:1018800000040294039404940594002269461348CA
:101890000694FFF793FD08B1FEF7AEFF04226946F8
:1018A0000E48FFF78BFD08B1FEF7A6FF07940894DA
:1018B00009944FF400500A94CDE90B4007A907485A
:1018C0000E94FFF7F3FB08B1FEF796FF0348FFF70E
:1018D0004BFD12B010BD0000000001401C000020B4
:1018E00010B58CB024216846FEF7A4FC00241648ED
:1018F000099414490A94C0E900144FF6FF71C0E935
:101900000241046184610320CDE900040120CDE996
:1019100002040494CDE90540079469460A480894F6
:10192000FFF736FC08B1FEF767FF099409A90648DE
:101930000A94FFF7E5FB002801D0FEF75DFF0CB02D
:1019400010BD0000000400406400002010B58CB001
:1019500024216846FEF76EFC0024164809941449B9
:101960000A94C0E900144FF6FF71C0E90241046116
:1019700084610320CDE900040120CDE90204049430
:10198000CDE90540079469460A480894FFF700FC32
:1019900008B1FEF731FF099409A906480A94FFF738
:1019A000AFFB002801D0FEF727FF0CB010BD0000F0
:1019B00000080040AC0000200C4810B50A49016046
:1019C0004FF4E1314160002181600C22C160C0E927
:1019D00004128161C161FFF7FDFD002803D0BDE85D
:1019E0001040FEF709BF10BD00100140F4000020B8
:1019F000FEE7FEE7704770474FF47A71884200D9DE
:101A0000084603490A685063096888637047000004
:101A10001C000020FFF708B830B593B030216846AD
:101A2000FEF708FC14210CA8FEF704FC1D48002555
:101A3000016841F080510160006800F08050119011
:101A40001948016841F4804101600068022400F4F3
:101A5000804011900120039010200490009406947F
:101A60000820CDE90750A820CDE9090404200B90F7
:101A70006846FFF751F908B172B6FEE70CA90F20CE
:101A800081E831004FF4A0500F904FF48050109037
:101A900005210CA8FFF754F8002801D072B6FEE724
:101AA00013B030BD40380240007000400248016869
:101AB00041F470010160704788ED00E0F0B5026804
:101AC000274B284D284E294F294C4FF0804C9842E7
:101AD00009D0604507D0A84205D0B04203D0B84233
:101AE00001D0A04204D122F0700E4A6842EA0E02F0
:101AF00098421BD0604519D0A84217D0B04215D0EB
:101B0000B84213D0A04211D01A4DA8420ED01A4D9F
:101B1000A8420BD0194DA84208D0194DA84205D0B3
:101B2000184DA84202D0184DA84203D122F44075A6
:101B3000CA682A434D6922F080022A438D68C56233
:101B40000D688562984201D0A04201D10969016304
:101B5000016841F004010160012141610260F0BDB2
:101B6000000001400004004000080040000C00405C
:101B70000004014000400140004401400048014091
:101B800000180040001C00400020004010B501F08B
:101B90001F030121046A99408C430462016A9A4040
:101BA0001143016210BD0000F0B5036A026A22F021
:101BB0000102026242688469124E24F073050C68C7
:101BC0002C4323F002058B682B430D4DA84201D016
:101BD000B04205D123F00807CB683B4323F0040350
:101BE000A84201D0B04205D14D6922F4407215439C
:101BF0008A692A4342608461496841630362F0BD97
:101C00000000014000040140F0B5026A036A23F0BD
:101C100010030362436884690D6824F4E64444EACF
:101C200005248D6822F0200242EA05120F4D104E65
:101C3000A84201D0B04206D1CF6822F0800242EA29
:101C4000071222F04002A84201D0B04207D14D69EC
:101C500023F4406343EA85038D6943EA85034360C7
:101C60008461496881630262F0BD000000000140A8
:101C700000040140F0B5026A036A23F48073036232
:101C80004368C46922F4007224F073050C68124E94
:101C90002C438D6842EA05220E4DA84201D0B04285
:101CA00006D1CF6822F4006242EA072222F4806261
:101CB000A84201D0B04207D14D6923F4405343EA12
:101CC00005138D6943EA05134360C4614968C16324
:101CD0000262F0BD000001400004014030B5046A1A
:101CE000026A22F4805202624268C3690D6823F4DA
:101CF000E64343EA05238D6824F4005444EA05349E
:101D0000084DA84202D0084DA84204D14D6922F4E2
:101D1000804242EA85124260C361496801640462FC
:101D200030BD0000000001400004014001680C319A
:101D300051E8002F22F4907241E80023002BF5D1E6
:101D40000168143151E8002F22F0010241E800231C
:101D5000002BF5D1016B012909D101680C3151E843
:101D6000002F22F0100241E80023002BF5D12021A2
:101D700080F84210002101637047000070B50446EE
:101D800000680169E26821F4405111430161216951
:101D9000A068E26908436169114308432168CA6881
:101DA00049F20C639A430243CA6020684169A26900
:101DB00021F440711143416131492068884202D0C9
:101DC0003049884202D1FEF765FF01E0FEF752FF7D
:101DD000E2690023192164253226B2F5004F6268BA
:101DE00028D0A0FB0101930F9200FEF7EBF901460A
:101DF000B0FBF5F06FF01802504301EB800006EBEA
:101E00000010B0FBF5F000F0F002B1FBF5F002EBD2
:101E10000012B1FBF5F06FF01803584301EB80009E
:101E200006EB0010B0FBF5F000F00F002168104445
:101E3000886070BDA0FB010192185B41FEF7C2F9FA
:101E40000146B0FBF5F00201B1FBF5F06FF01803AD
:101E5000584301EB800006EBC000B0FBF5F000F04A
:101E6000F80002EB4002B1FBF5F0584301EB8000B3
:101E700006EBC000B0FBF5F000F00700D6E700006D
:101E800000100140001401402DE9F8439846174620
:101E90000D460446089E24E0701C22D0FEF7BEFDCD
:101EA000A0EB0800B0421AD8CEB12068C16849073B
:101EB00017D5802D15D0402D13D00168C9430907CF
:101EC0000FD401680025406800902046FFF72EFFE0
:101ED0000820606484F840500120BDE8F8830320A6
:101EE000FBE72068006835EA000004D00020B84213
:101EF000D2D00020F1E70120F9E7FEE70FB4054B4F
:101F000010B503A9044A029800F0EAF810BC5DF885
:101F100014FB0000E9270008180000200907090E3B
:101F2000002804DB00F1E02080F80014704700F086
:101F30000F0000F1E02080F8141D704702E008C88F
:101F4000121F08C1002AFAD170477047002001E033
:101F500001C1121F002AFBD1704700002DE9FF5F6D
:101F600082B00021DDE90430020DDDF840B003430A
:101F700018D044F61050A2F2FF32424315141198C3
:101F800001281FD0A5EB0B00401C5FEA000A4FF0B0
:101F900000064E4FDFF83891B046504615D5CAF1CD
:101FA000000413E0119801244AA3012801D16FEA2B
:101FB0000B010298119AC0E90031C0E9024206B053
:101FC000BDE8F09FCBF10000DFE704460021404A66
:101FD000491842EB0450CDE9001012E0E00707D0A9
:101FE00032463B4640464946FEF72FF98046894631
:101FF00032463B4610461946FEF727F906460F467D
:102000006410002CEAD1DDE90401DDE90023BAF116
:10201000000F06DAFEF719F942464B46FEF715F9AE
:1020200005E0FEF723FB42464B46FEF71FFB044646
:102030000E460022284BFEF7A1FB03D84FF0FF30DD
:10204000014607E00022254B20463146FEF767FA9D
:10205000FEF77BFB102409E0002C0ADB0A22002398
:10206000FEF7B0F8039B30321A55641E50EA0102A5
:10207000F2D1641C039AC4F111031444119A012A89
:1020800003D0012208430DD10AE0084304D0002008
:102090004FF0110B119072E7A3EB0B056D1E0DE0D5
:1020A0005B4504DD4FF0000205F1010504E003DAB1
:1020B0004FF00002A5F10105002AECD00298119919
:1020C000C0E90231C0E9004579E700000000144092
:1020D0000000F03F300000000000F0430000E03F4F
:1020E0002DE9FF4F95B09A46884606460025EEE159
:1020F000252877D100242746F94A0121039400E0DE
:10210000044316F8013F203B01FA03F01042F7D1D7
:1021100030782A2811D06FF02F033078A0F13002E8
:10212000092A16D8039A44F0020402EB820203EB58
:1021300042021044761C0390EFE758F8042B0392F8
:10214000002A03DA504244F40054039044F002049D
:10215000761C30782E2816D116F8010F44F00404AE
:102160002A280DD06FF02F023078A0F13003092B10
:1021700009D807EB870302EB4303C718761CF3E784
:1021800058F8047B761C30786C280FD006DC4C287D
:1021900017D068280DD06A2814D104E0742810D014
:1021A0007A280FD10DE044F400140AE044F48014BE
:1021B00001E044F440147278824202D104F58014A4
:1021C000761C761C307866280BD013DC582877D024
:1021D00009DC002875D04528F6D04628F4D04728D9
:1021E0001AD193E118E0632835D0642879D06528A6
:1021F00012D18BE1702873D008DC6728F1D06928F0
:102200006FD06E280DD06F2806D1ACE073282CD08B
:10221000752874D0782853D05246179990476D1C72
:1022200054E1C4F30250022809D003280DD0D8F895
:10223000001004280DD00D6008F1040846E1D8F81C
:102240000010EA17C1E90052F6E7D8F800100D8037
:10225000F2E70D70F0E718F8041B8DF8001000206D
:102260008DF80100EB46012003E058F804BB4FF065
:10227000FF3061074FF0000102D40DE009F10101C8
:102280008946B9420FDA8145F8DB1BF809100029AD
:10229000F4D108E009F1010189468142FADB1BF81B
:1022A00009100029F6D103985346A0EB09072146EF
:1022B0003846179A00F080FA284400EB090507E039
:1022C00044E008E10DE01BF8010B524617999047D6
:1022D000B9F10109F7D2534621463846179AF2E080
:1022E00039E00A21C4F302524FF0000B0091022A98
:1022F00006D058F8040BC117032A09D00AE023E0DE
:1023000008F1070020F00702F2E80201904605E01C
:1023100000B2C117042A01D140B2C117002906DA60
:102320000A460021404261EB02012D2202E0220513
:1023300004D52B228DF80420012203E0E20701D00E
:102340002022F7E7914657E00A2100E010214FF0E4
:10235000000B00910BE010214FF0000B44F004043F
:102360000827009103E008204FF0000B0090C4F311
:102370000252022A05D058F8040B0021032A08D083
:1023800008E008F1070020F00702F2E80201904699
:1023900003E080B2042A00D1C0B24FF00009220746
:1023A0002AD53278702A07D0DDF800C08CF0100CE6
:1023B0005CEA0B0C05D00EE040228DF804200122CF
:1023C00008E050EA010306D030238DF804308DF880
:1023D000052002229146009B83F0080353EA0B0379
:1023E0000AD150EA010201D1620705D530228DF8E9
:1023F00004204FF001097F1E3278582A04D039A2F8
:102400000C920CAA02920BE03BA2F9E75B46009A01
:10241000FDF7D8FE0C9B9B5C029A521E0292137031
:1024200050EA0102F2D1029804A9081A00F1200B27
:10243000600702D524F4803400E001275F4502DD07
:10244000A7EB0B0000E0002000EB0B0100900398CD
:102450004944401A0390E00306D453462146179A94
:10246000039800F0A9F90544002706E001A85246A8
:10247000C05D179990476D1C7F1C4F45F6DBE0034C
:102480000CD553462146179A039800F095F9054458
:1024900004E030205246179990476D1C0099481E61
:1024A00000900029F5DC08E0029802995246007875
:1024B000491C0291179990476D1CBBF10001ABF1CB
:1024C000010BF1DC5BE100F065F90544761C307826
:1024D00000287FF40DAE19B02846BDE8F08F00004B
:1024E00009280100303132333435363738396162EA
:1024F00063646566000000003031323334353637AE
:10250000383941424344454600000000600700D48A
:10251000062708F1070020F00700F0E802238046B4
:1025200003F0004C5FEA0C0001D097A009E0200501
:1025300001D596A005E0E00701D095A001E0AFF23B
:102540004C001390307823F0004365280CD006DC53
:10255000452809D046281DD047287FD13BE0662872
:1025600018D067287AD136E00021112F01DB112025
:1025700000E0781CCDE9000104A90CA8FFF7EEFCEF
:10258000DDE90D010C9A4FF0000B07F101091092E3
:1025900000914EE04FF000400097CDE9011004A9F2
:1025A0000CA8FFF7DBFCDDE90D020C9B0F994FF047
:1025B000000B91461093009211B9791C00EB0109B0
:1025C000B7EB090003D4C0F1FF3B07F10109A9EB08
:1025D0000700019042E0012F00DA01270021112FAE
:1025E00001DD112000E03846CDE9000104A90CA866
:1025F000FFF7B4FCDDE90D010C9A00914FF0000BE0
:10260000B946109221070FD4009A4A4503DA914641
:1026100001E0A9F10109B9F1010F05DD109AA9F155
:102620000101515C3029F4D0B84202DA10F1040FF4
:1026300003DA0121CDE9011010E0002803DC834416
:10264000A9EB000102E0411C494500DD8946A0EBF1
:102650000B00401C01904FF000400290200705D471
:102660000198484502DB4FF0FF30019000208DF8C3
:102670004B0002980DF14B07B0F1004F25D002201E
:102680000C902B200D90029800280CDA404202900A
:102690002D200D9007E00A210298FDF777FE3031DA
:1026A000029007F8011D0C99481E0C900029F2DCDD
:1026B00002980028EFD1791E0D980870307800F04C
:1026C000200040F0450007F8020D11A8C01BC01DF6
:1026D00002901398007800B1012000EB09010198E5
:1026E00001EBE071029801440398401A401E0390E8
:1026F000E00306D453462146179A039800F05CF88D
:1027000005441398007818B15246179990476D1CEC
:10271000E00323D553462146179A039800F04CF85E
:1027200005441BE0BBF1000F07DB0098584504DDB2
:102730001098179910F80B0001E0179930205246B5
:10274000904701980BF1010B401E05F10105019026
:1027500004D12E205246179990476D1CB9F1000103
:10276000A9F10109DEDC05E017F8010B52461799C3
:1027700090476D1C0299481E02900029F4DC5346D4
:102780002146179A03989EE62D0000002B000000BA
:10279000200000002DE9F041044600251E461746A2
:1027A000880404D405E039462020B0476D1C641E1F
:1027B000F9D52846BDE8F0812DE9F0410446002511
:1027C0001E469046C80301D5302700E02027880424
:1027D00004D505E041463846B0476D1C641EF9D566
:1027E0002846BDE8F081000013B54FF0FF33012209
:1027F00069460248FEF756FF00981CBDF400002011
:102800002DED048BFEF718F9FFF706F9FEF79CFF94
:10281000FFF70CF8FFF764F8FFF798F8FFF7CCF82C
:1028200000214248FEF772FE04214048FEF76EFE8A
:102830003C213F48FEF750FD3C213E48FEF74CFD51
:102840004FF49670FFF7D8F800224FF400413A4851
:10285000FEF7DEF8394C012211462046FEF7D8F883
:10286000002202212046FEF7D3F80122042120464F
:10287000FEF7CEF832A0FFF741FBDFF8B4A02D4EF3
:10288000DFF8C4909FED318B9FED329B4FF0000835
:102890004FF47A7BDAF80070786AC9F80000326881
:1028A000546A00EE100AC9F80440B8EE400A10EE6F
:1028B000100AFDF73CFD53EC182BFDF7C6FC53EC5A
:1028C000192BFDF7C2FCFDF745FD00EE104A054649
:1028D000B8EE400A10EE100AFDF729FD53EC182B54
:1028E000FDF7B3FC53EC192BFDF7AFFCFDF732FD00
:1028F0000446C7F824803168C1F824802846FDF7D3
:1029000016FD41EC100B15A053EC102BFFF7F6FA57
:102910002046FDF70CFD41EC100B18A053EC102BDA
:10292000FFF7ECFA5846FDF769FFB3E71C000020FB
:1029300064000020AC0000200004024000140240AB
:1029400068656C6C6F000000000000200000000053
:102950000000303F0000000000004E404D6F746FDB
:1029600072205370656564202854494D33293A20FC
:10297000252E32662052504D0A0000004D6F746FB4
:1029800072205370656564202854494D34293A20DB
:10299000252E32662052504D0A0000000000000033
:1029A00000000000010203040607080900000000FF
:1029B00001020304D4290008000000201C000000CC
:1029C0003C1F0008F02900081C000020240500001E
:1029D0004C1F000800000000000000000100000083
:1029E00010000000000000000024F40000000000BF
:040000050800018965
:00000001FF
