:020000040800F2
:100000003007002029020008630F0008750E000861
:10001000610F00081F040008111000080000000014
:10002000000000000000000000000000670F000852
:100030002104000800000000650F0008690F000897
:10004000430200084302000843020008430200087C
:10005000430200084302000843020008430200086C
:10006000430200084302000843020008430200085C
:10007000430200084302000843020008430200084C
:10008000430200084302000843020008430200083C
:10009000430200084302000843020008430200082C
:1000A000430200084302000843020008430200081C
:1000B000430200084302000843020008430200080C
:1000C00043020008430200084302000843020008FC
:1000D00043020008430200084302000843020008EC
:1000E00043020008430200084302000843020008DC
:1000F00043020008430200084302000843020008CC
:1001000043020008430200084302000843020008BB
:1001100043020008430200084302000843020008AB
:10012000430200084302000843020008430200089B
:10013000430200084302000843020008430200088B
:10014000430200084302000843020008430200087B
:10015000430200084302000843020008430200086B
:10016000430200084302000843020008430200085B
:100170004302000843020008430200080000000098
:10018000430200084302000800F002F800F03CF8C7
:100190000AA090E8000C82448344AAF10107DA45E2
:1001A00001D100F031F8AFF2090EBAE80F0013F0F8
:1001B000010F18BFFB1A43F001031847F84900006C
:1001C000184A0000103A24BF78C878C1FAD85207FC
:1001D00024BF30C830C144BF04680C6070470000C1
:1001E0000023002400250026103A28BF78C1FBD840
:1001F000520728BF30C148BF0B6070471FB501F0E0
:10020000F5FC1FBD10B510BD00F0CFF81146FFF78B
:10021000F5FF01F0CBFC00F0EDF803B4FFF7F2FFBF
:1002200003BC00F0F5F80000094880470948004782
:10023000FEE7FEE7FEE7FEE7FEE7FEE7FEE7FEE796
:10024000FEE7FEE704480549054A064B70470000F3
:10025000011000088901000830010020300700204B
:10026000300300203003002053EA020C00F06980C4
:100270002DE9F04B4FF00006002B1FBFB3FA83F5BA
:1002800003FA05F424FA05F65E4012BF1643B2FAEB
:1002900082F502FA05F4C5F120051EBF22FA05FC1D
:1002A00044EA0C04203556EA044C4FEA144418BFC3
:1002B000641C4FF000084FF00009904271EB030CF2
:1002C00039D3002919BFB1FA81F701FA07F6B0FA5C
:1002D00080F700FA07F6C7F120071EBF20FA07FCD7
:1002E00046EA0C062037B6FBF4FCA7EB0507103FE7
:1002F00007F01F0BCBF120060CFA0BFB2CFA06F6CD
:1003000044BFB3460026202FA4BF5E464FF0000B2B
:100310005BEA060C08BF4FF0010B19EB0B09ABFBB6
:10032000027C48EB0608C01B06FB02CC0BFB03CC8F
:1003300071EB0C01C1E70B46024641464846BDE859
:10034000F08B13B54FF000004FF00001AFF30080C9
:10035000BDE81C4070474FF0000200B513469446BC
:100360009646203922BFA0E80C50A0E80C50B1F10D
:100370002001BFF4F7AF090728BFA0E80C5048BF21
:100380000CC05DF804EB890028BF40F8042B08BFBF
:10039000704748BF20F8022B11F0804F18BF00F8BB
:1003A000012B7047704770477047754600F02CF876
:1003B000AE4605006946534620F00700854618B052
:1003C00020B5FFF73FFFBDE820404FF000064FF09B
:1003D00000074FF000084FF0000B21F00701AC467A
:1003E000ACE8C009ACE8C009ACE8C009ACE8C00999
:1003F0008D46704710B50446AFF300802046BDE837
:100400001040FFF70ABF000000487047D0000020EE
:1004100001491820ABBEFEE7260002007047FEE748
:10042000704772B6FEE7000030B5B3F5804F05D0D7
:100430006FF0704140F82210002030BD8C690B68CD
:100440008D6823434C688989240144EA05242343A9
:1004500043EA014150F82230014C23401943E9E7B7
:100460000000F0CF10B50A6850F8223023F00103E5
:1004700040F822308C68082C23D000234A6822439D
:10048000CC681C430B6922431A434B690E4C1A4338
:10049000CB691A430B6A1A434B6A1A438B6A1A4395
:1004A000CB6A1A430B6B1A438B691343CA6B0968F7
:1004B0001A4350F82130A343134340F82130002061
:1004C00010BD4023DAE700007FFF0F0030B5D1E90F
:1004D000003443EA04138C688D89240244EA0544FD
:1004E00023430C8A074D00EB820005EB04542343A1
:1004F0000C7D6D0105EB0464896923430B43436064
:10050000002030BD0000F0FF70B5044600F05AF93D
:100510000546601C02D004480078044400F052F9FB
:10052000401BA042FAD370BD08000020F0B587B090
:1005300014216846FFF70FFF2048016800293AD1CF
:10054000012101601E480024016841F001010160A1
:100550000068022500F0010005904FF23F00CDE950
:10056000000502AA03260C2782E8D0006946154838
:1005700000F030F841F23F00CDE9000502AA6946DB
:1005800082E8D000104800F025F84FF68070CDE9E1
:10059000000502AA694682E8D0000C4800F01AF86B
:1005A0004CF23370CDE9000502AA694682E8D0001A
:1005B000074800F00FF807B0F0BD00000000002071
:1005C0003838024000140240001802400010024077
:1005D000000C02402DE9F84FDFF8BCA100220125F4
:1005E00003264FF00F090AF1040BAAF1040E00BF15
:1005F0000B6805FA02F42340A34270D10F7907F08B
:100600000307012F01D0022F16D187684FEA420855
:1006100006FA08FC27EA0C07D1F80CC00CFA08FC13
:100620004CEA070CC0F808C04768A7430C79C4F32C
:10063000001494403C4344600C79E443A4070AD07E
:10064000C4684FEA420C06FA0CF7BC438F6807FAFD
:100650000CF72743C7600C7904F00304022C12D175
:10066000D40800EB840CDCF820405707FF0E09FA91
:1006700007F824EA0804D1F8108008FA07F848EAD5
:100680000408CCF8208004684FEA420C06FA0CF704
:10069000BC430F7907F0030707FA0CF727430760FD
:1006A0004C6814F4403F70D03C4C276847F48047B6
:1006B0002760246822F0030704F480440094384C37
:1006C00007EB040CDCF8084897074FEA177809FA9B
:1006D00008F7BC43334FB84202D1002724E054E06E
:1006E000314FB84201D101271EE0304FB84201D14D
:1006F000022719E02E4FB84201D1032714E02D4FF5
:10070000B84201D104270FE02B4FB84201D1052791
:100710000AE02A4FB84201D1062705E0284FB84227
:1007200001D1072700E0082707FA08F72743CCF88C
:100730000878DAF800405746D1F804C09C435FEAD5
:10074000CC2C00D51C433C60DBF800405F46D1F860
:1007500004C09C435FEA8C2C00D51C433C60DEF84F
:1007600000407746D1F804C09C435FEA8C3C00D53A
:100770001C433C60084F083F3C68D1F804C09C43D0
:100780005FEACC3C00D51C433C60521C102AFFF4AD
:100790002FAFBDE8F88F0000083C0140443802400C
:1007A0000030014000000240000402400008024006
:1007B000000C0240001002400014024000180240E9
:1007C000001C0240014880687047000008000020BB
:1007D0000248816802781144816070470800002057
:1007E0000B4810B5016841F400710160016841F4E3
:1007F00080610160016841F480710160032000F0B4
:1008000061F80F2000F006F800F024F8002010BD79
:10081000003C024070B50D4D04464FF47A712878C3
:10082000B1FBF0F00A490968B1FBF0F000F00EFBF3
:1008300048B9102C07D200222146501E00F022F8A1
:1008400000206C6070BD012070BD00000800002019
:10085000140000200A4808B5016841F48041016095
:10086000006800F4804000900548001F016841F0D6
:1008700080510160006800F08050009008BD0000C9
:1008800044380240F0B40E4B1B680C46C3F30223FD
:10089000C3F10705042D00D90425191D072901D22C
:1008A000002300E0DB1E012606FA05F1491E214067
:1008B00099409E40761E16403143F0BC00F0A9BB23
:1008C0000CED00E0064900F0070208684FF6FF0350
:1008D000184040EA0220034A1043086070470000B5
:1008E0000CED00E00000FA052DE9F0470E4605008A
:1008F00065D0DFF81481D8F80000F7B200F00700E7
:10090000B04207D288F80070D8F8000000F0070065
:10091000B04254D128683D4C810712D5400703D519
:10092000206840F4E05020602878000703D5206854
:1009300040F4604020602068A96820F0F00008437F
:1009400020602878C0072DD0304968680839012810
:1009500012D0022813D0032811D009688907002972
:100960002DDA216821F0030101432160FFF72AFFFE
:10097000814641F2883A0EE009688903EFE7096889
:100980008901ECE7FFF71EFFA0EB0901514502D9F1
:100990000320BDE8F0872068696800F00C00B0EB28
:1009A000810FEFD1D8F80010404601F00701B142A5
:1009B00007D90770006800F00700B04201D001209D
:1009C000E7E72878400705D52068E96820F4E0507B
:1009D000084320602878000706D52068296920F49C
:1009E000604040EAC100206000F018F82168084A21
:1009F000C1F30311515CC84006490860064800680D
:100A0000FFF708FF0020C4E7003C0240083802401E
:100A1000F61B0008140000200C000020154810B53B
:100A2000006810F00C02144813D01449042A0FD0A7
:100A3000082A0ED10F4C241F2268236802F03F02BF
:100A40005B0207D52068C0F38810A0FB010106E017
:100A5000084610BD2168C1F38811A1FB00010023E5
:100A6000FFF702FC2168C1F30141491C4900B0FBBA
:100A7000F1F010BD083802400024F40040787D01F8
:100A80002DE9F84F04006ED02078DFF84C93C007B2
:100A9000A9F104054AD009F104000168C1F38101FC
:100AA000012908D00068C0F3810002280AD1D9F8D2
:100AB0000000400206D52868800337D5606800280A
:100AC000E1D033E06068B0F5803F10D0B0F5A02FE2
:100AD000286810D020F480302860286820F4802016
:100AE00028606068A8B1FFF76DFE06460DE0286833
:100AF00040F48030F4E740F480202860F7E700BF3E
:100B0000FFF760FE801B642873D828688003F7D540
:100B10000CE0FFF757FE064605E000BFFFF752FE68
:100B2000801B6428F0D828688003F7D42078DFF889
:100B3000AC8280074FF0000A3ED5A748001D01682F
:100B400011F00C0F08D00068C0F3810002280BD10F
:100B5000D9F80000400207D42868800716D5E0685D
:100B6000012800D112E033E1E068B8B10120C8F8F3
:100B70000000FFF727FE064605E000BFFFF722FE54
:100B8000801B0228C0D828688007F7D5286821690B
:100B900020F0F80040EAC10028600DE0C8F800A08D
:100BA000FFF710FE064604E0FFF70CFE801B02284C
:100BB0001FD828688007F7D42078000722D5864FF1
:100BC00087486169703771B101210160FFF7FAFD53
:100BD000064604E0FFF7F6FD801B022809D83868B6
:100BE0008007F7D50EE0C0F800A0FFF7EBFD064642
:100BF00005E082E0FFF7E6FD801B02287DD838681B
:100C00008007F7D42078400768D5DFF8CCB10027FB
:100C10000BF13C0BDBF80000C0000BD4DBF800103C
:100C200041F08051CBF80010DBF80000012700F004
:100C3000805000906B4E3068C00510D4306840F48E
:100C400080703060FFF7BEFD009005E0FFF7BAFD51
:100C50000099401A022850D83068C005F6D55E4E7B
:100C6000A0686C3601280FD00528306810D020F01D
:100C700001003060306820F004003060A068B8B136
:100C8000FFF7A0FD00900FE0306840F00100F4E7AE
:100C900040F004003060F7E7FFF794FD0099411A37
:100CA00041F28830814266D830688007F4D50EE082
:100CB000FFF788FD009007E0FFF784FD0099411AD7
:100CC00041F28830814256D830688007F4D42FB181
:100CD000DBF8001021F08051CBF80010A069C8B3F8
:100CE0003D49091D0968C1F3810102294AD0022842
:100CF000504607D0C8F8600000E03CE0FFF762FD16
:100D000004463BE04746C8F86000FFF75BFD064637
:100D100005E000BFFFF756FD801B02282BD828688E
:100D20008001F7D4D4E907010843A16A2E4A490893
:100D300002EB0141626A41EA8211084394F82C10E7
:100D400040EA0161C9F8001001203866FFF73AFD5A
:100D5000044606E03EE000BFFFF734FD001B02281A
:100D600009D828688001F7D534E000BFFFF72AFDD5
:100D7000001B022802D90320BDE8F88F28688001F3
:100D8000F4D427E00128F7D0D9F80000E26900F494
:100D9000800191421CD1226A00F03F01914217D19B
:100DA00047F6C071626A0140B1EB821F10D1A26A9E
:100DB0004FF0FF3300F4403103EB5202B1EB024F2E
:100DC00006D194F82C1000F07060B0EB016F01D0E8
:100DD0000120D1E70020CFE704380240000047425D
:100DE000800E4742007000400000FFFF70B51546BE
:100DF0000E46040003D094F8490010B107E001202A
:100E000070BD002084F84800204600F01DF804F171
:100E100008012068FFF726FB3146A2682068FFF72B
:100E200055FBD4E901022946236BFFF7FDFA21683F
:100E3000A06851F8202042F0010241F82020012052
:100E400084F84900002070BDFFF770BB10B5401E4C
:100E5000B0F1807F01D3012010BD4FF0E02460612C
:100E60000F21601700F0D5F80020A0610720206155
:100E7000002010BDFEE7000000B587B01C216846C9
:100E8000FFF769FA15484FF020411022016014491C
:100E90004160062181600021C160C0E904128161C6
:100EA000C161016241628162C16201634163816328
:100EB00041640F20FF230090CDE90103CDE9030237
:100EC0001120CDE90501002269460448FFF78EFF95
:100ED000002801D0FFF7A5FA07B000BD24000020CC
:100EE000040100A01D4808B5016841F0040101603B
:100EF000016801F004010091016841F020010160E6
:100F0000016801F020010091016841F08001016059
:100F1000016801F080010091016841F04001016029
:100F2000016801F040010091016841F01001016089
:100F3000016801F010010091016841F008010160B1
:100F4000016801F008010091016841F001010160B0
:100F5000006800F00100009008BD00003038024039
:100F6000FEE7FEE770477047FFF732BC30B593B03D
:100F700030216846FFF7EFF914210CA8FFF7EBF9D1
:100F80001D480025016841F080510160006800F0B3
:100F9000805011901948016841F480410160006857
:100FA000022400F48040119001200390102004904E
:100FB000009406940820CDE90750A820CDE9090443
:100FC00004200B906846FFF75BFD08B172B6FEE7A0
:100FD0000CA90F2081E831004FF4A0500F904FF47E
:100FE0008050109005210CA8FFF77EFC002801D04E
:100FF00072B6FEE713B030BD4038024000700040CA
:101000000248016841F470010160704788ED00E01A
:10101000FEE70907090E002804DB00F1E02080F854
:101020000014704700F00F0000F1E02080F8141D5C
:10103000704710B5044601468C2000F001FB0021EA
:101040008D2000F0FDFA34B108220021BDE81040E7
:10105000852000F0C3BA00220C21F7E708B5009004
:101060000548C1888088491E8BB2401E82B200218B
:10107000084600F075F808BD7400002030B50D4634
:101080000E490446087A38B96C4084EA050089881C
:101090004440081A401E85B221465F2000F0D0FA75
:1010A000210A602000F0CCFA2946612000F0C8FA3D
:1010B000290ABDE83040622000F0C2BA7400002066
:1010C000F0B50F461C4905461C46087A164660B91D
:1010D0007D4082EA040685EA0700898886EA0304DF
:1010E00045406640081A001B87B22946562000F08A
:1010F000A7FA290A572000F0A3FA3946582000F031
:101100009FFA390A592000F09BFA31465A2000F024
:1011100097FA310A5B2000F093FA21465C2000F038
:101120008FFA210A5D2000F08BFA39462846BDE887
:10113000F040FFF7A3BF0000740000204022002110
:10114000122000F04BBA07B5FFF798FF4FF0D840D8
:10115000042120F87E1FBDF8081041800EBD00005C
:1011600030B5121A5B1A521C5B1C92B29BB202FB86
:1011700003F5039CFFF7A4FF4FF0D8400422A0F82A
:101180007E2000210BE04B0706D100BFB0F87E3077
:101190001B06FBD4A0F87E20A0F88040491CA94281
:1011A000F1D304480021C3888288BDE83040084656
:1011B000FFF786BF740000202DE9F04F95B0142191
:1011C0006846FFF7C8F81C2105A8FFF7C4F81C21E2
:1011D0000CA8FFF7C0F8C4480026016841F00101DF
:1011E0000160006800F001001390BF4808380168F2
:1011F00041F020010160016801F0200113910168B4
:1012000041F040010160016801F040011391016863
:1012100041F008010160016801F0080113910168C3
:1012200041F008010160016801F0080113910168B3
:1012300041F008010160016801F0080113910168A3
:1012400041F008010160016801F008011391016893
:1012500041F008010160016801F008011391016883
:1012600041F008010160016801F008011391016873
:1012700041F010010160016801F010011391016853
:1012800041F010010160016801F010011391016843
:1012900041F010010160016801F010011391016833
:1012A00041F010010160016801F010011391016823
:1012B00041F010010160016801F010011391016813
:1012C00041F010010160016801F010011391016803
:1012D00041F010010160016801F0100113910168F3
:1012E00041F010010160016801F0100113910168E3
:1012F00041F010010160016801F0100113910168D3
:1013000041F008010160016801F0080113910168D2
:1013100041F008010160016801F0080113910168C2
:1013200041F00801016000684FF48057022400F08A
:101330000800CDE9007413900C2569466B48CDE98F
:101340000345FFF747F9CDE9007469466848CDE9E0
:101350000345FFF73FF94FF0100ACDE900A46946B5
:101360006448CDE90345FFF735F92020CDE90004B5
:1013700069466048CDE90345FFF72CF94FF48048F2
:10138000CDE9008469465B48CDE90345FFF722F9C2
:101390004FF4004BCDE900B469465648CDE903450A
:1013A000FFF718F90120CDE9000469465148CDE95D
:1013B0000345FFF70FF90094019469464D48CDE9C4
:1013C0000345FFF707F98020CDE9000469464A4844
:1013D000CDE90345FFF7FEF8E001CDE900046946D9
:1013E0004548CDE90345FFF7F5F82002CDE90004B3
:1013F00069464148CDE90345FFF7ECF84FF48069B1
:10140000CDE9009469463C48CDE90345FFF7E2F891
:10141000A002CDE9000469463748CDE90345FFF74E
:10142000D9F8CDE9007469463348CDE90345FFF7A3
:10143000D1F82003CDE9000469462F48CDE90345E2
:10144000FFF7C8F8CDE9008469462B48CDE903458C
:10145000FFF7C0F8CDE900B469462748CDE9034558
:10146000FFF7B8F8E001CDE9000469462148CDE96D
:101470000345FFF7AFF82002CDE9000469461D4897
:10148000CDE90345FFF7A6F8CDE900946946194870
:10149000CDE90345FFF79EF818484FF020410CAA0C
:1014A0000160174941600621C0E90216C0E9046ADB
:1014B0008661C6610662C0E90967C0E90B684663D8
:1014C000866346640F2005903C20CDE90706042082
:1014D000CDE90B60CDE90E0605A908481296FFF785
:1014E00085FC15B0BDE8F08F38380240001402408A
:1014F00000180240000C0240001002408000002052
:10150000040100A010B500220321852000F066F838
:1015100000222021012000F061F880220021F32028
:1015200000F05CF8642000F014FBF22000F016F8E4
:10153000C0F30014F42000F011F800F0800044EA39
:10154000901010BD0148C088704700007400002052
:1015500001488088704700007400002001B581B008
:10156000BDF804104FF0D84020F87E1F4088ADF839
:101570000000BDF800000CBD10B5FFF71DFEFFF721
:10158000C1FF144A002100BF01EB410303EBC1037B
:1015900012F81330834217D101EB410000EBC10078
:1015A0000D4902EB4000086000F08AF8012000F0CD
:1015B0002FF84FF6FF70FFF751FD6420FFF739FD5C
:1015C000FFF7BCFD002010BD491CC9B20229DBD3C6
:1015D000012010BD864B00087400002007B581B0C3
:1015E000BDF804304FF0D84020F87E3F4388ADF876
:1015F0000030BDF800308B43ADF80030BDF800106E
:101600001143ADF80010BDF8001041800FBD00007F
:101610000A4900B50A6818B1012805D0022000BDAA
:10162000D3888B80928802E093888B80D288CA808E
:101630000872002000F010F8002000BD74000020A7
:1016400003B5BDF800104FF0D84020F87E1FBDF85C
:10165000041041800CBD000030B5184D0446287AB6
:1016600038B19CB1022C15D0042C13D0062C17D104
:1016700010E034B1022C06D0052C06D0072C0FD177
:1016800006E0062418E0042414E0002400220AE006
:10169000022407E0022C05D0042C0BD0062C0BD022
:1016A000022030BD122236210220FFF797FF6C7214
:1016B000002030BD2422F6E73622F4E77400002033
:1016C0002DE9F041057B477B867B0446082D01D23E
:1016D0000835EDB2082F00D20827082E00D20826C0
:1016E0004FF0D840B0F87E108907FBD48A2105203E
:1016F000FFF7A6FF217A0620FFF7A2FF8A21072025
:10170000FFF79EFF85210820FFF79AFF8A21092015
:10171000FFF796FF64210A20FFF792FF0021802245
:101720000846FFF75BFF0120FFF718FF0006FAD518
:101730002021E020FFF784FF0321E120FFF780FF55
:1017400042F27801E220FFF77BFF2021E320FFF740
:1017500077FF01220021E420FFF740FFE420FFF79C
:10176000FDFEC007FAD0112258210120FFF736FFF5
:101770000022C0210220FFF731FF002207210320B1
:10178000FFF72CFF00212020FFF75AFF0021212026
:10179000FFF756FF00212220FFF752FF00212320F0
:1017A000FFF74EFFA08820F003012420FFF748FF39
:1017B000A088010A2520FFF743FF00212620FFF71C
:1017C0003FFF00212720FFF73BFF00212820FFF7E4
:1017D00037FF00212920FFF733FF04220C211020BE
:1017E000FFF7FCFE002201211020FFF7F7FE802208
:1017F00011461220FFF7F2FE0022F0211320FFF71E
:10180000EDFE61894FF0FF3808EBD10081B2142062
:10181000FFF716FFA07A00F007011520FFF710FF71
:1018200008EBD50081B21620FFF70AFF05F007018B
:101830001720FFF705FF08EBD70081B21820FFF74C
:10184000FFFE08EBD60081B21920FFF7F9FE208ACF
:10185000401E81B21A20FFF7F3FE208A401EC0F31B
:101860000F211B20FFF7ECFEA07C401E81B21C2044
:10187000FFF7E6FEA07C401EC0F30F211D20FFF7FE
:10188000DFFEE07C401E81B21E20FFF7D9FE207DE6
:10189000401E81B21F20FFF7D3FE00215020FFF72A
:1018A000CFFE00215120FFF7CBFE00215220FFF791
:1018B000C7FE00215320FFF7C3FEA08820F00301DC
:1018C0005420FFF7BDFEA088010A5520FFF7B8FE9F
:1018D000012207215E20FFF781FE00215620FFF73D
:1018E000AFFE00215720FFF7ABFE00215820FFF785
:1018F000A7FE00215920FFF7A3FEA1885A20FFF779
:101900009FFEA088010A5B20FFF79AFEE1885C2019
:10191000FFF796FEE088010A5D20FFF791FE0021A7
:101920005F20FFF78DFE00216020FFF789FE002178
:101930006120FFF785FE00216220FFF781FE402233
:1019400000211220FFF74AFE207A154948438910EA
:10195000B0FBF1F0401E81B28420FFF771FE00223F
:10196000CC218520FFF73AFE202200218620FFF7B8
:1019700035FE00218C20FFF763FE00218D20FFF74C
:101980005FFE64218E20FFF75BFE00218F20FFF7B2
:1019900057FEBDE8F041102200218620FFF71EBE51
:1019A00080841E002DE9FF4F203A4FF0000B81B0DC
:1019B0005C46D0B20C2B0CD0102B13D0182B25D09A
:1019C000202B56D12C49202501EB801A10204021D4
:1019D0000EE02A4900EB400001EB800A06200C25AE
:1019E000294605E0264901EB001A08201025294662
:1019F00088460199014423488288914239D8029946
:101A0000C0882944814234D8002630E01E4900EBCA
:101A1000C00001EB800A0C2018252421E8E700BF54
:101A200001991AF8067001EB0B004FF000090090C5
:101A3000380607D502980E9A204481B2009880B2E9
:101A4000FFF781FB641CE4B2AC4205D10BF101004D
:101A5000002400F0FF0B08E07806070E09F10100F2
:101A600000F0FF09B9F1080FE2D3761CF6B2464543
:101A7000D6D305B0BDE8F08FC6330008061C0008B9
:101A80007A200008740000206A2600087EB5002431
:101A9000DDE907568DE8700000F001F87EBD2DE904
:101AA000FF4F81B01E460EAB824693E8010A4FF00D
:101AB00000084946B9F10C0F0CD010290CD0182998
:101AC0000CD0202942D1102550B101283ED1302719
:101AD000002439E00625F7E70825F5E70C25F3E7AC
:101AE0002027F5E7301B401E0A23C2B20121002047
:101AF00002E05943401CC0B29042FAD30398B0FBB5
:101B0000F1F00A21B0FBF1F201FB1200B8F1000F75
:101B100005D1711E8C4202DA50B14FF0010830300D
:101B2000C2B215FB04A080B24B46CDF800B006E06F
:101B300015FB04A080B24B463A46CDF800B002999E
:101B4000FFF730FF641CE4B2B442CBD305B0BDE86C
:101B5000F08FFEF7D9BCFFF781BAFFF7EFBA0000AC
:101B600010B5FFF709FD0020FFF752FDFFF7F0FC6D
:101B7000094C2080FFF7E6FC6080FFF7C3FC20B132
:101B8000012805D04FF6FF7004E047F64A0001E057
:101B900047F26A10A08010BD1C0000207CB5DDE972
:101BA0000645CDE90045FFF771FF7CBD1CB5FEF78A
:101BB00017FEFFF7DBF9FFF795F9FFF75DF9FFF780
:101BC000FBFAFFF7CDFFFFF7C8FF4FF6FF70FFF7F7
:101BD000C2FF4FF478411020CDE90001052343F204
:101BE000390232210A20FFF7D9FFFEE74FF040709B
:101BF000E1EE100A70470000000000000000010242
:101C000003040607080900000000000000000000AF
:101C10000000000000003F40000000000000000045
:101C20003000400030004000000009000BC03D00C3
:101C30000BC03D00090018C024407FE022403180E5
:101C40000000180024C01B000D803240018003807A
:101C50001C4027401C80074000401000600000002E
:101C60000000000000000000000000001F80204075
:101C700040200000402020401F800000000009009C
:101C800006001F80060009000000040004003F80D9
:101C900004000400000000100060000000000000CC
:101CA0000000040004000400040004000000000020
:101CB00000400000000000000000002001C00600FD
:101CC0003800400000001F802040204020401F803E
:101CD0000000000010403FC000400000000018C09D
:101CE0002140224024401840000010802040244021
:101CF00024401B80000002000D0011003FC0014085
:101D000000003C80244024402440238000001F80A9
:101D1000244024403440038000003000200027C0CD
:101D20003800200000001B802440244024401B80F9
:101D300000001C0022C0224022401F800000000042
:101D400000000840000000000000000000000460E7
:101D5000000000000000000004000A0011002080C4
:101D600040400900090009000900090000000000C6
:101D70004040208011000A00040018002000234089
:101D80002400180000001F802040274029401F40E9
:101D90000000004007C039000F0001C00040204093
:101DA0003FC0244024401B8000001F802040204072
:101DB00020403080000020403FC0204020401F8055
:101DC000000020403FC024402E4030C00000204092
:101DD0003FC024402E00300000000F001080204043
:101DE00022403380020020403FC0040004003FC076
:101DF0002040204020403FC02040204000000060A4
:101E0000202020203FC02000200020403FC0244050
:101E10000B0030C0204020403FC020400040004028
:101E200000C03FC03C0003C03C003FC00000204059
:101E30003FC00C4023003FC020001F8020402040B6
:101E400020401F80000020403FC024402400180094
:101E500000001F802140214020E01FA00000204002
:101E60003FC02440260019C0004018C02440244030
:101E7000224031800000300020403FC02040300030
:101E8000000020003F80004000403F8020002000F4
:101E90003E0001C0070038002000380007C03C00A9
:101EA00007C038000000204039C0060039C020407B
:101EB00000002000384007C03840200000003040BB
:101EC00021C02640384020C00000000000007FE014
:101ED000402040200000000070000C000380004003
:101EE00000000000402040207FE0000000000000D3
:101EF0002000400020000000000000100010001032
:101F00000010001000100000000040000000000061
:101F10000000000002800540054003C00040200092
:101F20003FC00440044003800000000003800440E0
:101F300004400640000000000380044024403FC0ED
:101F40000040000003800540054003400000000001
:101F500004401FC0244024402000000002E005503F
:101F600005500650042020403FC00440040003C038
:101F700000400000044027C00040000000000010A6
:101F80000010041027E00000000020403FC0014086
:101F9000070004C00440204020403FC000400040F3
:101FA000000007C0040007C0040003C00000044094
:101FB00007C00440040003C0004000000380044048
:101FC000044003800000041007F004500440038024
:101FD0000000000003800440045007F0001004409B
:101FE00007C0024004000400000000000640054055
:101FF000054004C00000000004001F8004400040B1
:102000000000040007800040044007C000400400B6
:10201000070004C0018006000400060001C007009C
:1020200001C006000000044006C0010006C00440D4
:1020300000000410071004E0018006000400000006
:10204000044005C0064004400000000000000400F9
:102050007BE040200000000000000000FFF00000D6
:102060000000000040207BE0040000000000400071
:102070008000400020002000400000000000000020
:102080000000000000000000000000000000000050
:102090001FCC000C00000000000000000800300011
:1020A00060000800300060000000022003FC1E20D9
:1020B000022003FC1E200220000000000E18110464
:1020C0003FFF10840C78000000000F0010840F38D0
:1020D00000C0077818840078000000780F8410C4CE
:1020E00011240E9800E400840008080068007000C5
:1020F00000000000000000000000000000000000E0
:1021000007E01818200440020000000040022004EC
:10211000181807E0000000000000024002400180A3
:102120000FF001800240024000000080008000802B
:102130000FF800800080008000000001000D000EFC
:10214000000000000000000000000000008000808F
:10215000008000800080008000800000000C000CE7
:102160000000000000000000000000000006001851
:1021700000600180060018002000000007F0080839
:1021800010041004080807F0000000000804080408
:102190001FFC000400040000000000000E0C1014DE
:1021A0001024104411840E0C000000000C181004C0
:1021B0001104110412880C700000000000E00320DC
:1021C000042408241FFC0024000000001F98108431
:1021D00011041104108810700000000007F0088836
:1021E0001104110418880070000000001C00100089
:1021F00010FC13001C001000000000000E381144F9
:102200001084108411440E38000000000700088C70
:1022100010441044088807F000000000000000008F
:10222000030C030C0000000000000000000000018F
:1022300001060000000000000000000000800140D6
:1022400002200410080810040000022002200220CE
:1022500002200220022002200000000010040808D2
:102260000410022001400080000000000E00120057
:10227000100C106C10800F00000003E00C1813E429
:10228000142417C4082807D000000004003C03C42D
:102290001C40074000E4001C000410041FFC110453
:1022A000110411040E880070000003E00C181004E3
:1022B0001004100410081C10000010041FFC10046F
:1022C00010041004080807F0000010041FFC11049B
:1022D000110417C410040818000010041FFC110496
:1022E000110017C010000800000003E00C181004D3
:1022F000100410441C780040000010041FFC1084DF
:102300000080008010841FFC1004000010041004E2
:102310001FFC100410040000000000030001100165
:1023200010011FFE10001000000010041FFC11041B
:1023300003801464181C1004000010041FFC100417
:10234000000400040004000C000010041FFC1F0027
:1023500000FC1F001FFC1004000010041FFC0C04F4
:10236000030000E010181FFC100007F0080810041C
:1023700010041004080807F0000010041FFC10846B
:102380001080108010800F00000007F00818102443
:102390001024101C080A07F2000010041FFC11048E
:1023A000110011C011300E0C000400000E1C1104AD
:1023B0001084108410441C38000018001000100411
:1023C0001FFC100410001800000010001FF810047B
:1023D0000004000410041FF8100010001E0011E09B
:1023E000001C007013801C0010001FC0103C00E097
:1023F0001F0000E0103C1FC000001004180C163431
:1024000001C001C01634180C100410001C00130485
:1024100000FC13041C00100000000804101C1064D1
:10242000108413041C0410180000000000000000B9
:102430007FFE4002400240020000000030000C001D
:1024400003800060001C0003000000004002400206
:1024500040027FFE0000000000000000000020009D
:102460004000400040002000000000010001000189
:1024700000010001000100010001000040004000D7
:10248000200000000000000000000000009801246F
:1024900001440144014400FC000410001FFC0088BA
:1024A0000104010400880070000000000070008832
:1024B000010401040104008800000000007000888D
:1024C0000104010411081FFC0004000000F801448D
:1024D00001440144014400C800000000010401045B
:1024E0000FFC1104110411001800000000D601298E
:1024F0000129012901C90106000010041FFC008404
:1025000001000100010400FC0004000001041904A2
:1025100019FC00040004000000000000000300019A
:102520000101190119FE0000000010041FFC002425
:10253000004001B4010C010400000000100410046C
:102540001FFC0004000400000000010401FC010461
:10255000010001FC0104010000FC010401FC0084F5
:1025600001000100010400FC0004000000F8010467
:1025700001040104010400F80000010101FF0085CD
:102580000104010400880070000000000070008851
:1025900001040104010501FF00010104010401FC23
:1025A00000840104010001800000000000CC01242F
:1025B0000124012401240198000000000100010011
:1025C00007F80104010400000000010001F8000404
:1025D00000040004010801FC0004010001800170F6
:1025E000000C001001600180010001F0010C0030BE
:1025F00001C00030010C01F0010000000104018C59
:1026000000740170018C010400000101018101715D
:10261000000E001801600180010000000184010C1F
:10262000013401440184010C00000000000000009E
:10263000000001003EFC40024002000000000000DB
:102640000000FFFF00000000000000004002400208
:102650003EFC01000000000000000000600080005F
:10266000800040004000200020000000000000002A
:10267000000000000000000000000000000000005A
:10268000000000000000000000000000000000004A
:10269000000000000000000000000000000F803873
:1026A0000FFE380F8038000000000000000000001E
:1026B00000000000000000000100000600000C0007
:1026C000003800003100000600000C000038000057
:1026D0003000000000000000000061800067F80783
:1026E000F980006180006180006180006180006786
:1026F000F807F98000618000000000000000000081
:1027000001C0E003E0F00630080418081FFFFE04D3
:102710000E080787F00381E000000000000001F0D0
:1027200000060C00040408060C7001F9C0000E003D
:10273000003BE000EC18070808040C180003E00058
:1027400000000001E00007F003F818041C0804175B
:102750000807E1D003C0E00023B0003C08002008D7
:1027600000001000000000000001000031000032F5
:1027700000001C000000000000000000000000003D
:102780000000000000000000000000000000000049
:10279000000000000000000000007F0001FFC007F3
:1027A00080F00C001810000420000200000000005F
:1027B000002000021000040C00180780F001FFC088
:1027C000007F00000000000000000000000000008A
:1027D0000000000000004200006600006600003CAF
:1027E0000000180003FFC0001800003C0000660055
:1027F0000066000042000000000008000008000021
:10280000080000080000080001FFC00008000008E0
:10281000000008000008000008000000000000019F
:1028200000003100003200001C0000000000000029
:102830000000000000000000000000000000000098
:102840000000080000080000080000080000080060
:102850000008000008000008000008000008000050
:1028600000000000000000000000380000380000F8
:102870003800000000000000000000000000000020
:1028800000000000000000000000000600001C0026
:102890000070000180000E0000380000C00007003A
:1028A000001C0000300000000000000000007F80DD
:1028B00001FFE00380700600180400080400080609
:1028C000001803807001FFE0007F8000000000001E
:1028D0000000000001000801000801000803FFF8E3
:1028E00007FFF800000800000800000800000000D2
:1028F000000000000001C03802C058040098040124
:1029000018040218040418061C1803F81801E0F84B
:1029100000000000000000000001C0E003C0F0045F
:10292000000804080804080806180803F41801E75A
:10293000F00001E0000000000000000000000300C3
:10294000000D00001100006100008108030108076C
:10295000FFF80FFFF8000108000108000000000068
:10296000000000E007FCD006080806100806100862
:10297000061008061838060FF00607C00000000011
:102980000000000000003F8001FFE00384300208E7
:1029900018041008041008041008071810030FF09A
:1029A0000007C000000000000000000003C0000796
:1029B00000000600000600F80607F806180006E00A
:1029C0000007000006000000000000000001E1E038
:1029D00003F7F0063410041808041808040C08045F
:1029E0000C0806161803F3F001C1E0000000000017
:1029F0000000F80003FC3003063804020804020853
:102A00000402080404100308F001FFC0007F000066
:102A100000000000000000000000000000000000B6
:102A200000007038007038007038000000000000AE
:102A30000000000000000000000000000000000096
:102A4000000000000000301A00301C0000000000F0
:102A50000000000000000000000000000000000076
:102A600000080000140000220000410000808001E6
:102A700000400200200400100800080000000000D0
:102A800000002100002100002100002100002100A1
:102A90000021000021000021000021000021000091
:102AA0000000000000000000080008040010020000
:102AB000200100400080800041000022000014003E
:102AC00000080000000000000003C00004C0000473
:102AD0000000080038080F380808380810000C30CB
:102AE0000007E00003C000000000000000003F807D
:102AF00000FFE0038070020F1006708804C0880495
:102B00008308047F8802C09003012000FE4000007B
:102B1000080000180001F8003E0801C2000702008A
:102B200007E20000FE00001FC80001F800003800A6
:102B3000000804000807FFF807FFF8040808040865
:102B40000804080804080806180803F41801E7F048
:102B50000001E0000000000000003F8001FFE003F2
:102B60008070020018040008040008040008040033
:102B7000100600200780C000000004000807FFF8CE
:102B800007FFF80400080400080400080400180205
:102B9000001003807001FFE0007F8000000004004F
:102BA0000807FFF807FFF8040808040808040808E5
:102BB000040808043E08040008060018010060002C
:102BC000000004000807FFF807FFF80408080408DD
:102BD00000040800040800043E000600000600008F
:102BE000018000000000000000003F8001FFE003C2
:102BF000807006001804000804020804020802039A
:102C0000F00783F000020000020004000807FFF84C
:102C100007FFF8040808000800000800000800008A
:102C2000080004080807FFF807FFF8040008000080
:102C30000000000004000804000804000807FFF872
:102C400007FFF80400080400080400080000000062
:102C50000000000000000006000007000001040062
:102C60000104000104000307FFFE07FFFC0400004D
:102C700004000004000004000807FFF807FFF80440
:102C80000C08001800003E0004C7800503C80600B9
:102C9000F804003804001800000804000807FFF8D2
:102CA00007FFF80400080000080000080000080002
:102CB0000008000008000018000060000000040088
:102CC0000807FFF807800807FC00007FC00003F832
:102CD0000007C000780007800807FFF807FFF80426
:102CE000000804000807FFF807000803C00000E020
:102CF00000003800001E000007000001C00400F0C2
:102D000007FFF8040000000000007F8001FFE003DF
:102D1000807006001804000804000806001803006C
:102D20003001FFE0007F8000000004000807FFF88A
:102D300007FFF80404080404000404000404000469
:102D40000400060C0003F80001F000000000000081
:102D500000007F8001FFE003807006008804008887
:102D60000400C806003C03003E01FFE6007F84002B
:102D7000000004000807FFF807FFF804080804082B
:102D800000040C00040F00040BC00610F003F03820
:102D900001E00800000800000001E0F803F0300640
:102DA0003010041808041808040C08040C08020663
:102DB000180207F00781E000000001800006000013
:102DC00004000004000004000807FFF807FFF804EF
:102DD0000008040000040000060000018000040058
:102DE0000007FFE007FFF0040018000008000008DB
:102DF00000000800000800000804001007FFE004BD
:102E0000000004000006000007E00007FE00041FA9
:102E1000E00001F80000380001E0043E0007C000B7
:102E200006000004000004000007E00007FFC004E3
:102E30001FF80007C007F80007FF80043FF80007ED
:102E4000C004F800070000040000000000040008AF
:102E500006001807C07805F1C8003E00001F800476
:102E600063E80780F806001804000800000004006A
:102E70000006000007800007E008047C08001FF837
:102E80000007F800180804E0080700000600000426
:102E900000000000000100080600380400F80403E8
:102EA000E8040F08047C0805F00807C008070018AC
:102EB00004006000000000000000000000000000AE
:102EC00000000000003FFFFE200002200002200062
:102ED00002200002200002000000000000000000AC
:102EE00008000007000000C00000380000060000D5
:102EF00001C000003000000E0000010000000000D2
:102F00000000000020000220000220000220000239
:102F10002000023FFFFE0000000000000000000053
:102F20000000000000000000000000080000100089
:102F300000300000200000300000100000080000F9
:102F4000000000000000000001000001000001007E
:102F5000000100000100000100000100000100006C
:102F6000010000010000010000010000000000005D
:102F700000000020000020000010000010000000F1
:102F80000000000000000000000000000000000041
:102F9000000000F00019F8001B18002208002608A5
:102FA000002408002410003FF8001FF8000008006B
:102FB000001800000004000007FFF80FFFF00018E1
:102FC00018001008002008002008003018001FF02A
:102FD000000FC00000000000000007C0001FF0004C
:102FE0001830002008002008002008003C08001CC1
:102FF000100000600000000000000000000007C09A
:10300000001FF000381800200800200800200804E5
:10301000101007FFF80FFFF0000010000000000084
:10302000000000000007C0001FF00012300022184E
:10303000002208002208003208001E10000E2000A6
:10304000000000000000200000200800200801FF10
:10305000F803FFF8062008042008042008072000D1
:1030600003000000000000000000000E000E6E00D3
:103070001FF30031B10020B10020B1003191001FD9
:1030800013002E1E00200E00300000000004000877
:1030900007FFF80FFFF800100800200000200000D4
:1030A0002008003FF8001FF80000080000000000A2
:1030B00000000000002008002008002008063FF85B
:1030C000063FF800000800000800000800000000AB
:1030D00000000000000000000000030000030020CA
:1030E00001002001002003063FFE063FFC00000017
:1030F00000000000000000000004000807FFF80FB7
:10310000FFF8000188000300002FC00038F80020FD
:103110003800200800000800000000000000000047
:1031200004000804000804000807FFF80FFFF80077
:103130000008000008000008000000000000002057
:1031400008003FF8003FF8001008002000003FF89A
:10315000003FF8001008002000003FF8003FF80092
:103160000008000000002008003FF8003FF80010B1
:1031700008001000002000002008003FF8001FF8A1
:103180000000080000000000000007C0000FF00071
:10319000183000300800200800200800300800180F
:1031A00030000FF00007C000000000000000200108
:1031B000003FFF003FFF0010110020090020080021
:1031C0002008003038001FF0000FC0000000000091
:1031D000000007C0001FF000381800200800200879
:1031E000002009001011001FFF003FFF0000010038
:1031F0000000002008002008002008003FF8003FE1
:10320000F800080800100800200800200000300026
:10321000003000000000000000000000000C7800FA
:103220001E1800330800230800210800218800210F
:10323000980030F00038600000000000000020001E
:1032400000200000200000FFF003FFF8002008002D
:1032500020080020080000300000000000000000EE
:1032600000002000003FF0007FF800001800000878
:10327000000008002010003FF8007FF00000100060
:103280000000000000002000003000003C00003F73
:10329000800023F0000078000070002380003C00D4
:1032A000003000002000002000003C00003FE00053
:1032B00023F80000E0002700003E00003FE000216E
:1032C000F80001E0003E000020000000000020089F
:1032D000002008003838003E680027800003C8003E
:1032E0002CF80038380020180020080000000000EA
:1032F00000002000003003003C01003F830023EC6D
:10330000000070002380003C00002000002000002E
:1033100000000000000000000038080020380020F5
:10332000F80023E8002F88003E0800380800201825
:10333000000070000000000000000000000000001D
:1033400000000000000008000014001FF7FC30001F
:103350000620000200000000000000000000000045
:10336000000000000000000000000000FFFFFF0060
:10337000000000000000000000000000000000004D
:10338000000000002000023000061FF7FC001400BF
:103390000008000000000000000000000000000025
:1033A0000000000000180000600000400000400025
:1033B00000200000100000080000040000040000CD
:1033C0000C000010000000000000000000000000E1
:1033D00000000000000000000000000000000000ED
:1033E00000000000000000000000000000000000DD
:1033F00000000000000000000000000000000000CD
:1034000000000000000000000000000000000000BC
:10341000000000000000000000000000000007F0B5
:1034200000C007FFE1E007F001E0000000C000007D
:10343000000000000000000000000000000000008C
:10344000000000000000000000000000000000205C
:10345000000001C00000078000001F0000001E00E7
:1034600000001C20000001C00000078000001F00B9
:1034700000001E0000001C00000000000000000012
:103480000000000000000000000000180C00001800
:103490000C0000180FE0001FFC0003F80C000018DF
:1034A0000C0000180C0000180C0000180C0000188C
:1034B0000FE0001FFC0003F80C0000180C000018BF
:1034C0000C000000000000000000000000000000F0
:1034D0000780007807C000FC0640010E00200307AB
:1034E0000020020380200FFFFFFC0201C020020029
:1034F000E0600130704001F03F8000F01F000000EC
:1035000000000000000000FE000001FF00000301B9
:10351000800002008060030181C001FF070000FEFF
:1035200018000000E0000003BF00000CFFC00071A5
:10353000806001C10020030180600000FFC0000026
:103540003F000000000000001F0000007FC000FCE2
:10355000C0C001FF80600303E02002027820020661
:103560001E2003FC074001F00380000103C000019E
:103570001C600001E020000100200001004000006C
:1035800001800000000000000000002000001C601E
:1035900000001C4000001F8000000F000000000021
:1035A000000000000000000000000000000000001B
:1035B000000000000000000000000000000000000B
:1035C00000000000000000000000000000000000FB
:1035D00000000000000000000000000000000000EB
:1035E00000000007F800003FFF00007807C001C09E
:1035F00000E0030000300400000808000004100090
:10360000000200000000000000001000000208009E
:103610000004040000080300003001C000E000784E
:1036200007C0003FFF000007F80000000000000096
:10363000000000000000000000000000000000008A
:103640000000000000000000000000000000000C6E
:103650001800000E3800000E38000006300000038D
:1036600060000061438000FFFF80006143000003B1
:10367000600000063000000E3800000E3800000C1C
:103680001800000000000000000000000000000022
:10369000800000008000000080000000800000002A
:1036A000800000008000007FFF000000800000001C
:1036B000800000008000000080000000800000000A
:1036C0008000000000000000000000000001000079
:1036D00000E3000000E2000000FC000000780000B1
:1036E00000000000000000000000000000000000DA
:1036F00000000000000000000000000000000000CA
:103700000000000000000000000000008000000039
:1037100080000000800000008000000080000000A9
:103720008000000080000000800000008000000099
:103730008000000080000000800000008000000089
:1037400080000000000000000000000000000000F9
:1037500000C0000001E0000001E0000000C0000027
:103760000000000000000000000000000000000059
:103770000000000000000000000000000000000049
:10378000000000000000000000000000000C00002D
:103790000038000000E00000038000000E00000080
:1037A00038000000E00000038000000E0000003838
:1037B000000000E00000038000000E000000180080
:1037C0000000000000000000000000000000000FEA
:1037D000F800007FFF0000F00780018000C00300B8
:1037E0000060020000200200002002000020030010
:1037F0000060018000C000E00380007FFF00000F38
:10380000F8000000000000000000000000000000C0
:103810000000008000200080002000800020008048
:10382000006001FFFFE003FFFFE000000060000018
:103830000020000000200000002000000000000028
:103840000000000000000000000000000000007800
:1038500000E00098016001000260020004600200C4
:103860000860020010600200206002004060030057
:1038700080600183006001FE00E0007C07800000A2
:10388000000000000000000000000000000000F048
:10389000078001F007C00100004002000020020183
:1038A0000020020100200201002003038020018685
:1038B000804001FCC0C000787F8000001E00000036
:1038C00000000000000000000000000008000000F0
:1038D0003800000048000001880000060800000CC5
:1038E0000810003008100040081001FFFFF003FF2F
:1038F000FFF003FFFFF000000810000008100000B8
:10390000081000000000000000000000000000009F
:103910000780001F864003E100200302002003040B
:1039200000200304002003040020030400200306F9
:103930000040030301C00301FF8003007E0000007C
:103940000000000000000000000000000000000770
:10395000FC00003FFF000070C380008180C00101B7
:103960000060030200200202002002020020020286
:1039700000200203004001C180C000C0FF800000A1
:103980007E0000000000000000000000000000F0C9
:10399000000003C0000003800000030000000300DB
:1039A00007E003003FE00301C00003060000031826
:1039B000000003600000038000000300000000001E
:1039C0000000000000000000000000001F00007860
:1039D0003F8000FC60C0018EC040030780200203CE
:1039E000002002018020020180200201C02003018A
:1039F000E040018670C000FC3F8000781F0000009E
:103A000000000000000000000000003F000000FF78
:103A100081C001C0C1C0010060200200202002005E
:103A200020200200202002002060020040C001008F
:103A3000C18000C18F00007FFE00001FF000000069
:103A40000000000000000000000000000000000076
:103A50000000000000000000000000000000000363
:103A600000C0000781E0000781E0000300C0000003
:103A70000000000000000000000000000000000046
:103A80000000000000000000000000000000000036
:103A90000000000000000000000000000000000620
:103AA0000066000600780000000000000000000032
:103AB0000000000000000000000000000000000006
:103AC00000000000000000000000000000000000F6
:103AD00080000001C0000003600000063000000C00
:103AE000180000180C00003006000060030000C041
:103AF00001800100004002000020040000100000CE
:103B0000000000000000000000000004100000049D
:103B10001000000410000004100000041000000455
:103B20001000000410000004100000041000000445
:103B30001000000410000004100000041000000435
:103B40001000000000000000000000000000040061
:103B50000010020000200100004000C00180006051
:103B600003000030060000180C00000C18000006CE
:103B70003000000360000001C00000008000000071
:103B800000000000000000000000000000000078BD
:103B9000000001F8000002380000020000000400EC
:103BA00000C0040079E0040081E0040100C00403C7
:103BB0000000020200000306000001FC000000F803
:103BC00000000000000000000000000FF800003FAF
:103BD000FE000070078000C000C00101F84003072C
:103BE000FC20021E04200230082002203020023F68
:103BF000FC20013F044001800CC000E03180001F28
:103C0000C200000000000000002000000060000072
:103C100003E000003E200003E020003E200003E01F
:103C200020000380200007FC2000003FE00000038C
:103C3000FE2000003FE0000001E000000020000046
:103C40000020000000000000000002000020020030
:103C5000002003FFFFE003FFFFE00201002002015C
:103C600000200201002002010020020100200303C5
:103C700000200186806001FCC0C000F87F80000049
:103C80001F0000000000000000000007F800003FD7
:103C9000FF000070078000C000C00100004003006A
:103CA000002002000020020000200200002002008C
:103CB000002001000040018000C003C001800030EE
:103CC00006000000000000000000020000200200CA
:103CD000002003FFFFE003FFFFE0020000200200DE
:103CE000002002000020020000200300006001000C
:103CF0000040018000C000F00780007FFE00000F40
:103D0000F800000000000000000002000020020097
:103D1000002003FFFFE003FFFFE00201002002019B
:103D20000020020100200201002002010020020305
:103D30008020020FE0200300006003C000E000606C
:103D4000030000000000000000000200002002004C
:103D5000002003FFFFE003FFFFE00201002002015B
:103D60000020020100000201000002010000020127
:103D7000000002038000030FE0000300000003C006
:103D8000000000600000000000000007F800003F95
:103D9000FE000070078001C001C001000040030068
:103DA000002002000020020000200200002001008C
:103DB00020200100204003C03F8000303F800000F1
:103DC000200000002000020000200200002003FF6D
:103DD000FFE003FFFFE002008020020080200000DF
:103DE00080000000800000008000020080200200AF
:103DF000802003FFFFE003FFFFE00200002002003D
:103E00000020000000000000000000000000000092
:103E1000000002000020020000200200002002003A
:103E2000002003FFFFE003FFFFE00200002002008C
:103E3000002002000020020000200000000000001E
:103E4000000000000000000000000000000E000064
:103E5000000F0000000F000000010200000102003E
:103E60000001020000030200000603FFFFFC03FF45
:103E7000FFF8020000000200000002000000020043
:103E8000000000000000000000000200002002000E
:103E9000002003FFFFE003FFFFE00200C02002015B
:103EA000002000078000000FE0000030F8000260F2
:103EB0003E2003800F20030003E0020000E0020028
:103EC000002000000020000000000200002002008E
:103ED000002003FFFFE003FFFFE0020000200200DC
:103EE0000020000000200000002000000020000052
:103EF00000200000002000000060000000E0000042
:103F0000030000000000020000200200002003FF68
:103F1000FFE003E0002003FF0020001FF00000018D
:103F2000FF8000000FE000001E000003E000003EE4
:103F3000002003E0002003FFFFE003FFFFE002009A
:103F4000002002000020020000200200002003FFE9
:103F5000FFE00380002003F0002000FC0000001FB1
:103F600000000007C0000001F00000007C0002001B
:103F70001F80020007E003FFFFE0020000000200D4
:103F800000000000000000000000000FF800003FEB
:103F9000FE0000F00780018000C001000040020028
:103FA000002002000020020000200200002001008A
:103FB0000040018000C000F00380003FFE00000FC1
:103FC000F8000000000000000000020000200200D5
:103FD000002003FFFFE003FFFFE00200802002005B
:103FE00080200200800002008000020080000200A9
:103FF0008000030180000183000000FE0000007CBF
:1040000000000000000000000000000FF800007F2A
:10401000FF0000F00380018001C0010006400200A3
:1040200004200200042002000620020003E0010038
:1040300000F80180005C00E0038C003FFF0C000FE3
:10404000FC18000000000000000002000020020038
:10405000002003FFFFE003FFFFE002010020020158
:104060000020020180000201E0000201FC000303C5
:104070003F80018607E001FC00E000F8002000001E
:104080000020000000000000000000000000007898
:10409000060000FE01E0018600C0030300400203A9
:1040A000002002018020020180200201C0200200C5
:1040B000C0200100E060018070C003E03F8000008C
:1040C0001F000000000000000000006000000380EE
:1040D00000000300000002000000020000200200B7
:1040E000002003FFFFE003FFFFE0020000200200CA
:1040F000002002000000020000000380000000E039
:10410000000000000000020000000200000003FFA9
:10411000FF0003FFFFC0020000400200006000003B
:10412000002000000020000000200000002002000D
:1041300000400200008003FFFF00020000000200B8
:10414000000000000000000000000200000002006B
:10415000000003C0000003FC0000023FC000000399
:10416000F80000007F80000007E0000007800000EA
:1041700078000203C000023C000003C000000200FF
:104180000000020000000200000003C0000003FF66
:104190008000023FFE0002007FE000000F000200EE
:1041A000F00003EF000003FF8000020FFE0000009C
:1041B0003FE000001F000207E00003F800000300DA
:1041C00000000200000000000000020000200200C9
:1041D0000020038000E003F0032002FC0C20021FFB
:1041E00030000007C0000007F00002187C000260E9
:1041F0001F20038003E0020000E002000020000016
:104200000020000000000000000002000000030089
:10421000000003C0000003F80000023E0020020F6F
:10422000C0200001FFE000007FE000038020021CAE
:104230000020027000000380000002000000020065
:1042400000000000000000000000000000200060EE
:1042500000E0038003E003000FA002003E20020004
:10426000F8200203E020020F8020023E00200278A6
:10427000002003E00060038000E002000300000073
:10428000000000000000000000000000000000002E
:1042900000000000000000000000000000001FFF00
:1042A000FFFC1000000410000004100000041000C7
:1042B00000041000000410000004100000040000BE
:1042C00000000000000000000000000000000000EE
:1042D00000000700000003C0000000780000001E7E
:1042E00000000003C0000000F00000001E000000FD
:1042F0000780000000F00000003C00000006000005
:10430000000000000000000000000000000010009D
:10431000000410000004100000041000000410004D
:10432000000410000004100000041FFFFFFC000048
:10433000000000000000000000000000000000007D
:10434000000000000000000000000000000000006D
:10435000000000000000020000000400000008004F
:1043600000001800000010000000180000001800F5
:104370000000040000000200000000000000000037
:10438000000000000000000000010000000100002B
:104390000001000000010000000100000001000019
:1043A0000001000000010000000100000001000009
:1043B00000010000000100000001000000010000F9
:1043C00000010000000100000000000000000000EB
:1043D0000000100000001000000010000000180095
:1043E00000000800000004000000000000000000C1
:1043F00000000000000000000000000000000000BD
:104400000000000000000000000000000380000128
:104410008FC000038C6000061820000410200004E8
:10442000102000042020000420400006204000034B
:10443000FFC00001FFE0000000200000002000009D
:1044400000C00000000000000000020000000200A8
:10445000000003FFFFE007FFFFC0000180C0000273
:10446000006000020020000400200004002000047E
:10447000002000060040000300C00001FF80000093
:10448000FE0000000000000000000000000000002E
:104490007E000001FF80000381C000020040000692
:1044A000002000040020000400200004002000067A
:1044B00000200003C0400001C08000000300000095
:1044C00000000000000000000000000000000000EC
:1044D0007E000001FF80000380C000060060000431
:1044E000002000040020000400200204004002021A
:1044F000008003FFFFE007FFFFC000000040000056
:10450000004000000000000000000000000000006B
:104510007E000001FF80000311C000021040000473
:104520001060000410200004102000041020000679
:104530001020000310400001F0C0000071000000D6
:104540000000000000000000000000000000000467
:104550000000000400200004002000040020007F70
:10456000FFE001FFFFE0010400200304002002043B
:10457000002002040020020400000200000001C02C
:10458000000001C00000000000000000000000006A
:10459000001C0000E33E0003FFC200020CC3000445
:1045A00004C1000404C1000404C1000404C10006E5
:1045B0000CC10003F8C30005F0620006007E00068F
:1045C000003C00000000000000000200002002008B
:1045D000002003FFFFE007FFFFE0000100200002D2
:1045E0000020000600000004000000040000000499
:1045F0000020000600200003FFE00001FFE00000B3
:10460000002000000020000000000000000000006A
:10461000000000040020000400200004002000042A
:1046200000200387FFE0038FFFE0038000200000ED
:10463000002000000020000000200000000000001A
:10464000000000000000000000000000000000006A
:10465000000000000006000000070000000100004C
:104660000001000400010004000100040003000434
:1046700000060387FFFC038FFFF8038000000000A3
:104680000000000000000000000002000020020006
:10469000002003FFFFE007FFFFE00000082000000C
:1046A0001020000030000000FC0000058E00000714
:1046B00007A0000601E0000400E000040020000064
:1046C00000200000000000000000000000000000CA
:1046D0000000020000200200002002000020020072
:1046E000002003FFFFE007FFFFE0000000200000C4
:1046F000002000000020000000200000000000005A
:10470000000000000000000000000004002000077E
:10471000FFE0000FFFE000020020000400000004A2
:1047200000200007FFE00003FFE00002002000047B
:104730000000000400200007FFE00003FFE000008D
:104740000020000000000000000000040020000421
:1047500000200007FFE0000FFFE000010020000242
:10476000002000020000000400000004000000041B
:104770000020000600200003FFE00001FFE0000031
:1047800000200000002000000000000000000000E9
:104790007E000000FF80000381C000020040000690
:1047A0000020000400200004002000040020000677
:1047B000002000020040000381C00001FF800000D3
:1047C0007E00000000000000000000040001000462
:1047D00000010007FFFF000FFFFF000100C1000202
:1047E0000041000400200004002000040020000418
:1047F000002000060040000301C00001FF8000000F
:104800007E0000000000000000000000000000002A
:104810007E000001FF80000380C0000200600004F1
:1048200000200004002000040020000400200002FA
:104830000041000300C10003FFFF0007FFFF00006D
:10484000000100000001000000000004002000043E
:1048500000200004002000040020000FFFE0000FF3
:10486000FFE00000C0200001002000020020000640
:104870000020000400000004000000070000000306
:104880000000000000000000000000000000000028
:1048900003E00001C0E00003E04000063020000417
:1048A0003020000418200004182000041820000400
:1048B0000C2000020C60000307C00007838000008A
:1048C00000000000000000000000000000000004E4
:1048D00000000004000000040000000C0000001FA5
:1048E000FF8000FFFFC000040060000400200004FF
:1048F00000200004002000040040000001800000AF
:10490000000000000000000000000004000000049F
:1049100000000007FF80000FFFC0000000600000E3
:104920000020000000200000002000000020000403
:104930000040000400800007FFE0000FFFC00000FF
:1049400000400000004000000000000400000004DF
:104950000000000780000007F0000004FE000004D3
:104960001FC0000003E00000038000001C000004E2
:104970006000000780000006000000040000000046
:104980000000000000000004000000060000000716
:10499000C0000007FC0000043F80000003E00004AA
:1049A0000F800006F0000007F0000007FF80000401
:1049B0000FE00000038000043C000007C000000678
:1049C00000000004000000000000000000200004BF
:1049D000002000040060000700E0000783200007BB
:1049E000E6000004F80000003C0000045E20000522
:1049F00087A0000601E00004006000040020000021
:104A0000002000000000000000000004000000047E
:104A10000003000700030007E0010004F8010004A0
:104A20001F02000007FC000000E000000700000477
:104A300038000007C0000006000000040000000469
:104A4000000000000000000000000000000000075F
:104A50008060000600E0000403E0000407A00004FA
:104A60000E2000043C20000470200005E020000718
:104A7000802000070060000400E0000003800000C8
:104A80000000000000000000000000000000000026
:104A90000000000000000000000000000000000016
:104AA000000000008000000080000001400007FEC0
:104AB0003FF808000004100000021000000200008F
:104AC00000000000000000000000000000000000E6
:104AD00000000000000000000000000000000000D6
:104AE000000000000000FFFFFFFF000000000000CA
:104AF00000000000000000000000000000000000B6
:104B00000000000000000000000000000000100095
:104B10000002100000020800000407FE3FF8000138
:104B20004000000080000000800000000000000045
:104B30000000000000000000000000000000000075
:104B4000000000000000000000001800000030001D
:104B50000000400000004000000040000000200075
:104B60000000300000000800000004000000020007
:104B7000000002000000020000000C00000018000D
:104B800000000000000000008A742003E001210002
:104B900020032ED20100E0011716010001006A7106
:104BA000000458022D0000048CA014005802140CBC
:104BB00003000000D44B0008000000202400000087
:104BC000C4010008F84B0008240000200C07000076
:104BD000E0010008000000000000000001000000EB
:104BE00010000000000000000024F400FFFF00009F
:084BF0000000000000000000BD
:040000050800018965
:00000001FF
