:020000040800F2
:10000000A0520020610200087D3200084328000849
:1000100005310008210B0008E13C00080000000049
:10002000000000000000000000000000A101000826
:10003000230B000800000000FD01000851360008F5
:100040007B0200087B0200087B0200087B0200089C
:100050007B0200087B0200087B0200087B0200088C
:100060007B0200087B0200087B0200087B0200087C
:100070007B0200087B0200087B0200087B0200086C
:100080007B0200087B0200087B0200087B0200085C
:100090007B0200087B0200087B0200087B0200084C
:1000A0007B0200087B0200087B0200087B0200083C
:1000B0007B0200087B0200087B0200087B0200082C
:1000C0007B0200087B0200087B0200087B0200081C
:1000D0007B0200087B020008C93C0008D53C0008F0
:1000E0007B0200087B0200087B0200087B020008FC
:1000F0007B0200087B0200087B0200087B020008EC
:100100007B0200087B0200087B0200087B020008DB
:100110007B0200087B0200087B0200081137000800
:100120007B0200087B0200087B0200087B020008BB
:100130007B0200087B0200087B0200087B020008AB
:100140007B0200087B0200087B0200087B0200089B
:100150007B0200087B0200087B0200087B0200088B
:100160007B0200087B0200087B0200087B0200087B
:100170007B0200087B0200087B02000800000000F0
:100180007B0200087B020008DFF810D000F08EFB35
:100190000048004725460008AFF30080A052002029
:1001A0002C4B19680868B0E8F04F80F30988BFF35A
:1001B0006F8F4FF0000080F311887047000000003F
:1001C00008480068006880F308884FF0000080F35A
:1001D000148862B661B6BFF34F8FBFF36F8F00DF35
:1001E00000BF00BF08ED00E0DFF80C00016841F43B
:1001F00070010160704700BF88ED00E0EFF30980F7
:10020000BFF36F8F134B1A681EF0100F08BF20ED5D
:10021000108A20E9F04F106009B44FF0500080F3CD
:100220001188BFF34F8FBFF36F8F05F0DDF84FF0EC
:10023000000080F3118809BC19680868B0E8F04F25
:100240001EF0100F08BFB0EC108A80F30988BFF3CE
:100250006F8F70477C000020EFF30580704700002F
:100260000648804706480047FEE7FEE7FEE7FEE750
:10027000FEE7FEE7FEE7FEE7FEE7FEE701370008E0
:10028000890100082DE9F05F0546002092469B4653
:1002900088460646814640241BE02846414647469C
:1002A000224600F017F953465A46C01A914110D31E
:1002B00011461846224600F0FEF82D1A67EB010899
:1002C0004F4622460120002100F0F5F817EB000907
:1002D0004E41201EA4F10104DFDC484631462A4687
:1002E0004346BDE8F09F40EA01039B0703D009E0C5
:1002F00008C9121F08C0042AFAD203E011F8013B12
:1003000000F8013B521EF9D27047D2B201E000F86A
:10031000012B491EFBD270470022F6E710B51346A9
:100320000A4604461946FFF7F0FF204610BD10B5F7
:10033000044604E00B7800F8013B03B1491C521E4F
:10034000F8D2204610BD421C10F8011B0029FBD139
:10035000801A7047034611F8012B00F8012B002A80
:10036000F9D11846704770B5064603F0F5FC0468ED
:1003700005460A220021304600F0BCF82C6070BD12
:100380002DE9FE4F81EA030404F0004421F000410E
:1003900000944FF0000B23F0004350EA01045ED0BC
:1003A00052EA03045BD0C3F30A54C1F30A552C4448
:1003B000A4F2F3340194A0FB0254C1F3130141F4FD
:1003C0008011C3F3130343F4801301FB024400FBC9
:1003D000034E840A970A44EA815447EA8357A4FBF0
:1003E000076802958D0A05FB07854FEA932C04FBED
:1003F0000C542705029D4FEA065847EA1637B5EB1D
:1004000008056EEB070C870E920E47EA811742EA49
:100410008312A7FB0201B6EB0B0164EB00042B0D6A
:1004200043EA0C335E1844EB1C50DA465146E7FBB6
:100430000201C5F313044FEA0B3343EA14534FEAA6
:100440000432019C43EA0603A4F10C040294009CCC
:10045000CDE900B400F095F803B0BDE8F08F0020BE
:100460000146F9E700F0004230F000400AD0C10D2B
:1004700001F56071C0F3160042EA0151C20840075D
:100480001143704700200146704730B50B460146C6
:1004900000202022012409E021FA02F59D4205D323
:1004A00003FA02F5491B04FA02F52844151EA2F1CD
:1004B0000102F1DC30BD202A04DB203A00FA02F10F
:1004C000002070479140C2F1200320FA03F3194342
:1004D00090407047202A04DB203A21FA02F00021E4
:1004E000704721FA02F3D040C2F120029140084344
:1004F000194670472DE9F04791460F46804604465D
:10050000002614F8015B2DB100F0F4F90068405D9D
:10051000C007F6D12B2D02D02D2D18D0641E4A46CF
:100520003946204600F0EAF927B13968A14201D1E5
:10053000C7F8008071054FF002040BD54042002837
:1005400003DD03F009FC0460A007BDE8F08746F472
:100550008066E4E70028F8DA03F0FEFB04606FF041
:100560000040F2E710B5141E73F1000408DA401CD5
:1005700041F1000192185B411A4301D120F00100C2
:1005800010BD2DE9F04D92469B4611B1B1FA81F2B2
:1005900002E0B0FA80F220329046FFF78CFF04466A
:1005A0000F4640EA0A0041EA0B0153465A46084307
:1005B00013D0114653EA010019D0C8F14002504649
:1005C000FFF788FF05460E46504659464246FFF75C
:1005D00072FF084305D0012004E020463946BDE8FB
:1005E000F08D0020054346EAE0762C4337430A9815
:1005F0006305E40AA0EB08000022FD0A44EA475420
:100600000A3002D500200146E9E7010510196941C9
:10061000DDE9084500196941BDE8F04DA2E72DE983
:10062000FE4F804681EA0300C00F0C46009021F087
:10063000004123F00045B8EB0200A94105D2404635
:10064000214690461C460B46024623F000401043CC
:1006500047D0270DC7F30A00C3F30A510290401A8E
:10066000019040286BDAC3F3130040F4801B00981C
:10067000924620B10023D2EB030A63EB0B0B0198E7
:100680005946C0F140025046FFF715FF06460D4699
:1006900050465946019A00F01BF910EB08006141E1
:1006A000002487EA115284EAE7731A4340D0009A83
:1006B00062B3019A012A4FEA075215DC001B61EB75
:1006C00002014FF0004202EA0752CDE90042001C4D
:1006D00041F5801132462B46FFF753FF03B0BDE8CA
:1006E000F08F40462146F9E7001B61EB0201001C38
:1006F00041F5801300185B412018A2F5001747EB65
:10070000030140EAD570B6196D4111E06D084FEA5A
:10071000360645EAC0754FEA0752001B61EB02013D
:10072000001C41F5801149084FEA30000019514181
:1007300032462B4603B0BDE8F04FFFF713BF0098D9
:10074000012240000023D0EB020263EBE07300982B
:1007500021464FEAE074B8EB000061EB0401E9E7E1
:1007600083F000435BE781F0004158E72DE9F04D4D
:1007700081EA030404F0004B21F0004514464FF0D9
:10078000000A23F0004150EA050220D054EA010299
:100790001DD0C5F30A570246C5F31303C1F3130076
:1007A000C1F30A5640F4801543F48013A7EB060802
:1007B000101BD64608F2FD3873EB050002D308F192
:1007C000010801E092185B41B8F1000F03DA002044
:1007D0000146BDE8F08D00204FF4801106468446A6
:1007E0000EE0171B73EB050705D3121B63EB050324
:1007F00006434CEA010C49084FEA300092185B416D
:1008000050EA0107EDD152EA030012D082EA040057
:1008100083EA0501084305D0101BAB4106D2012233
:10082000002306E000224FF0004302E06FF00102D7
:1008300053101AEB06004CEB085110EB0A0041EB89
:100840000B01BDE8F04DFFF78DBEC1F30A52C1F3B5
:10085000130140F2FF3341F480119A4202DA002082
:100860000146704740F233439A42A2F2334202DC1F
:100870005242FFF72FBEFFF71EBE000030B5041E28
:1008800071F1000404DB4FF00044404264EB0101CD
:10089000141E73F1000405DB1C464FF00043524266
:1008A00063EB0403994208BF904230BD064C074DEC
:1008B00006E0E06840F0010394E807009847103430
:1008C000AC42F6D3FFF764FC80600008A06000082B
:1008D000202A06DBCB17203A41FA02F043EAE07304
:1008E00006E041FA02F3D040C2F1200291400843F1
:1008F0001946704700487047246000082DE9F05FF2
:1009000082460078002715468B460AF10104B94655
:10091000302801D09DB113E014F8010B012778288D
:1009200003D0582801D045B10AE00DB1102D07D1F0
:100930000027102514F8010B02E0082500E00A2525
:100940000026B0460EE005FB080005FB06F1012776
:1009500001EB10461FFA80F8B6F5803F00D3B94688
:1009600014F8010B294600F018F80028EBDABBF167
:10097000000F05D00FB1641E00E05446CBF80040D4
:10098000B9F1000F06D003F0E7F902210160C81E9B
:10099000BDE8F09F48EA0640FAE73A2800D230382E
:1009A00020F02002412A01D3A2F13700884201D36E
:1009B0004FF0FF3070470000464910B54A6822F4F6
:1009C00040324A604A6843681A434A6001684A688C
:1009D00022F480724A6001684A68036942EA03228D
:1009E0004A6001684A6822F040724A6001684A68B9
:1009F00083681A434A6001688A6822F400628A6048
:100A000001688A68C3681A438A60816A6FF07062FD
:100A1000D14201688A6822F070628A6001688A683F
:100A20000CD0836A1A438A6001688A6822F04052B7
:100A30008A6001688A68C36A1A4301E022F0405262
:100A40008A6001688A6822F002028A6001688A6806
:100A5000037E42EA43028A6090F820100029016870
:100A60004A680FD042F400624A6001684A6822F482
:100A700060424A6001684A68174C436A04EB43339A
:100A80001A4301E022F400624A600168CA6A22F453
:100A90007002CA620168CA6A838B104C04EB03536C
:100AA0001A43CA6201688A6822F400728A60016887
:100AB0008A6890F8303042EA43228A6001688A6886
:100AC00022F480628A6001688A68406942EA802074
:100AD000886010BD0023014000E0FFFF0000F0FF30
:100AE00070B5094C074A61885054491C88B260802F
:100AF0000A2806D300259572114604A003F00CF9CC
:100B0000658070BD88040020400000205BE8939D54
:100B1000E78999E695B0E68DAE5D2025730D0A0054
:100B2000FEE7704772B6FEE7401A00B2B0F5004F1C
:100B300002DA10F5004F00DA00B2704778B50024F1
:100B4000009490F83C20012A19D0012280F83C2022
:100B50000A6807230568092A13D9EE680A3A02EBE6
:100B6000420293409E43EE600B788A680A3B03EB97
:100B700043039A400368DD682A43DA6010E00220EC
:100B800078BD2E6902EB420293409E432E610B78A2
:100B90008A6803EB43039A4003681D692A431A617C
:100BA0004A681F23072A13D205686E6B521E02EB98
:100BB000820293409E436E630B790A885B1E92B259
:100BC00003EB83039A4003685D6B2A435A6327E073
:100BD00005680D2A12D22E6BD21F02EB82029340BF
:100BE0009E432E630B790A88DB1F92B203EB8303CB
:100BF0009A4003681D6B2A431A6311E0EE6A0D3AAE
:100C000002EB820293409E43EE620B790A880D3B11
:100C100092B203EB83039A400368DD6A2A43DA62E7
:100C2000164B0568144A9D4206D10D68122D03D15A
:100C3000556845F48005556005689D4218D10B68DC
:100C4000102B01D0112B13D1536843F400035360D0
:100C5000096810290CD10A490A4A0968B1FBF2F166
:100C600001EB8101490000E0491E00910029FBD100
:100C700080F83C40002078BD002301400020014066
:100C80003C00002040420F0070B504004FF000050A
:100C900003D0206C002610B107E0012070BD204673
:100CA00000F01CF8666484F83C60206CC00610D428
:100CB000206C20F4885040F0020020642046FFF7AA
:100CC0007BFE6664206C20F0020040F0010020648E
:100CD00000E0012584F83C60284670BD10B586B060
:100CE000044614216846FFF717FB11492068884223
:100CF0001CD110480021026842F480720260006832
:100D000000F4807005900B481438026842F001022C
:100D10000260006800F001000590022000900320AE
:100D2000CDE901016946044800F076F806B010BD2F
:100D30000020014044380240000002402DE9F0410B
:100D40000446876D00F06EF9064694F835000025DC
:100D5000022806D08020606584F834500120BDE868
:100D6000F0812068016821F0160101602068416966
:100D700021F080014161206C08B9A06C20B120688D
:100D8000016821F0080101602068016821F001017B
:100D900001600CE000F046F9801B052807D92020EF
:100DA0006065032084F8350084F83450D7E7206864
:100DB0000068C007EED194F85C103F208840B8600E
:100DC000012084F8350084F834500020C7E790F8FB
:100DD0003510022903D0802141650120704705218B
:100DE00080F835100068016821F0010101600020E1
:100DF0007047000070B5044600F014F90546601C09
:100E000002D004480078044400F00CF9401BA042D2
:100E1000FAD370BD300000202DE9F84FDFF8BCA1F7
:100E20000022012503264FF00F090AF1040BAAF155
:100E3000040E00BF0B6805FA02F42340A34270D1F0
:100E40000F7907F00307012F01D0022F16D1876811
:100E50004FEA420806FA08FC27EA0C07D1F80CC052
:100E60000CFA08FC4CEA070CC0F808C04768A74316
:100E70000C79C4F3001494403C4344600C79E4437F
:100E8000A4070AD0C4684FEA420C06FA0CF7BC4328
:100E90008F6807FA0CF72743C7600C7904F0030446
:100EA000022C12D1D40800EB840CDCF82040570748
:100EB000FF0E09FA07F824EA0804D1F8108008FAAE
:100EC00007F848EA0408CCF8208004684FEA420C8E
:100ED00006FA0CF7BC430F7907F0030707FA0CF783
:100EE000274307604C6814F4403F70D03C4C27689F
:100EF00047F480472760246822F0030704F4804405
:100F00000094384C07EB040CDCF8084897074FEACC
:100F1000177809FA08F7BC43334FB84202D10027CB
:100F200024E054E0314FB84201D101271EE0304F98
:100F3000B84201D1022719E02E4FB84201D1032750
:100F400014E02D4FB84201D104270FE02B4FB842D7
:100F500001D105270AE02A4FB84201D1062705E052
:100F6000284FB84201D1072700E0082707FA08F701
:100F70002743CCF80878DAF800405746D1F804C087
:100F80009C435FEACC2C00D51C433C60DBF800405E
:100F90005F46D1F804C09C435FEA8C2C00D51C430B
:100FA0003C60DEF800407746D1F804C09C435FEA1D
:100FB0008C3C00D51C433C60084F083F3C68D1F88E
:100FC00004C09C435FEACC3C00D51C433C60521CEF
:100FD000102AFFF42FAFBDE8F88F0000083C014055
:100FE000443802400030014000000240000402404A
:100FF00000080240000C02400010024000140240B1
:1010000000180240001C0240426921EA02030A4023
:1010100043EA0241816170470AB181617047090466
:10102000FBE70000014880687047000030000020A6
:1010300070B5040025D094F83D00002520B984F84F
:101040003C50204600F050F9242084F83D002068F0
:10105000016821F0010101602068016841F400414C
:1010600001602068016821F40041016000F04CFB40
:101070004D4A6168914201D84C4900E04C49884290
:1010800001D2012070BD4B492368B0FBF1F15E68CD
:1010900026F03F060E435E606368934206D94FF424
:1010A000967359434FF47A73B1FBF3F12368491CEB
:1010B0001E6A26F03F06314319626168914210D8DA
:1010C0004900401EB0FBF1F2521CC2F30B02042A8D
:1010D00001D2042022E0B0FBF1F0401CC0F30B0071
:1010E0001CE0A268F2B301EBC10303EB0116431E3F
:1010F000B3FBF6F35B1C43F480431B0549D092B36A
:1011000001EBC10202EB0111401EB0FBF1F0401CEB
:10111000C0F30B0040F4804040F400402168CA69ED
:101120004CF6FF739A431043C861D4E9071001439A
:101130002068026822F0C00211430160D4E9030173
:1011400001432068826848F2FF339A43114381606B
:10115000D4E9050108432168CA6822F0FF02104360
:10116000C86001E00EE016E02068016841F001016E
:1011700001602564202084F83D00256384F83E50FA
:10118000002070BD01EB4106431EB3FBF6F35B1C70
:10119000B3E70120C2E701EB4101401EB0FBF1F0D3
:1011A000401CC0F30B00B7E7A086010080841E003E
:1011B00000093D0040420F002DE9FF4F83B09A46E1
:1011C000DDE9119793460446DDF84080FFF72AFFDA
:1011D000054694F83D0020287FD11923012240497B
:1011E0002046009501F0C6FB002876D194F83C001B
:1011F000012872D0012084F83C0020680168C907EA
:1012000003D1016841F0010101602068016821F407
:1012100000610160212084F83D00402084F83E00F8
:1012200000262664C4F82480A4F82A90608D2085C6
:101230002C48E062CDE9007553465A462046049991
:1012400001F018FB70B930E02A463946204601F01B
:1012500037FC58B1206C042804D12068016841F49F
:1012600000710160012007B0BDE8F08F606A21685D
:1012700000780861606A401C6062218D491E89B255
:101280002185628D521E628522685369DB435B07AC
:101290000BD469B100781061606A401C6062208DD7
:1012A000401E2085608D401E6085208D0028CBD19A
:1012B0002A463946204601F031FB0028CAD154F8AD
:1012C0003D0B016841F400710160202004F81E0903
:1012D000E67766770020C6E7FFE70220C3E7000055
:1012E000020010000000FFFF2DE9F04186B0044627
:1012F00014216846FFF710F822683A4C384B002159
:10130000384812260325042710349A4219D102685E
:1013100042F002020260006802AA00F0020005909A
:1013200082E8A200C020CDE9000669462E48FFF7FA
:1013300073FD206840F400102060206800F4001065
:101340001AE02A4B9A421BD1026842F02002026046
:10135000006802AA00F020000590CDE9005682E85E
:10136000A20069462248FFF757FD206840F480003C
:101370002060206800F48000059006B0BDE8F08190
:101380001C4B9A42F9D18846016841F00401016082
:10139000016801F004010591016841F0010101605B
:1013A0000068694600F00100059050158DE8410184
:1013B000CDE903571048FFF72FFD4FF480708DE8FB
:1013C0004101CDE9035769460C48FFF725FD206828
:1013D00040F400002060206800F40000CCE700002A
:1013E00000540040303802400004024000580040E1
:1013F00000140240005C004000080240000002406F
:1014000002488168027811448160704730000020F2
:101410000B4810B5016841F400710160016841F4A6
:1014200080610160016841F480710160032000F077
:101430009FF80F2000F006F800F050F8002010BDD3
:10144000003C024030B505461F4887B000240168C3
:1014500041F020010160006806A900F02000009022
:1014600001A800F031F90498A8B100F04DF940004E
:101470001649174AB0FBF1F11648491E026040F2C6
:10148000E732C0E90324C0E90114846100F08EFB57
:10149000040003D015E000F037F9E9E70D4800F04B
:1014A000CDFB04000DD1372000F034F8102D07D209
:1014B00000222946372000F03BF80748056000E08D
:1014C000012407B0204630BD4038024040420F00A2
:1014D0000014004040040020340000200C4882B07A
:1014E000016841F480410160006800F48040009090
:1014F0000748001F016841F0805101600068002228
:1015000000F0805000900F21901E02B000F010B843
:1015100044380240002809DB00F01F0201219140FD
:101520004009800000F1E020C0F800117047000081
:10153000F0B40E4B1B680C46C3F30223C3F107053E
:10154000042D00D90425191D072901D2002300E02C
:10155000DB1E012606FA05F1491E214099409E40F6
:10156000761E16403143F0BC02F0E6BB0CED00E005
:10157000064900F0070208684FF6FF03184040EAEA
:101580000220034A10430860704700000CED00E0A1
:101590000000FA052DE9F0470E46050065D0DFF89A
:1015A0001481D8F80000F7B200F00700B04207D26B
:1015B00088F80070D8F8000000F00700B04254D15D
:1015C00028683D4C810712D5400703D5206840F4B8
:1015D000E05020602878000703D5206840F4604080
:1015E00020602068A96820F0F00008432060287877
:1015F000C0072DD0304968680839012812D0022868
:1016000013D0032811D00968890700292DDA216831
:1016100021F0030101432160FFF704FD814641F2FF
:10162000883A0EE009688903EFE709688901ECE769
:10163000FFF7F8FCA0EB0901514502D90320BDE8F2
:10164000F0872068696800F00C00B0EB810FEFD1E3
:10165000D8F80010404601F00701B14207D90770E1
:10166000006800F00700B04201D00120E7E72878C9
:10167000400705D52068E96820F4E0500843206061
:101680002878000706D52068296920F4604040EAE0
:10169000C100206000F058F82168084AC1F3031126
:1016A000515CC8400649086006480068FFF7CAFE5A
:1016B0000020C4E7003C024008380240885F000870
:1016C0003C000020340000200F2202600C4A136806
:1016D00003F003034360136803F0F00383601368AF
:1016E00003F4E053C36012684FF4E05303EAD202FC
:1016F00002610448006800F00700086070470000BD
:1017000008380240003C0240044805490068096866
:10171000044AC1F38221515CC84070473C0000205C
:1017200008380240985F00080448054900680968C5
:10173000044AC1F34231515CC84070473C0000206C
:1017400008380240985F0008154810B5006810F08E
:101750000C02144813D01449042A0FD0082A0ED1C1
:101760000F4C241F2268236802F03F025B0207D55A
:101770002068C0F38810A0FB010106E0084610BDF8
:101780002168C1F38811A1FB00010023FEF77AFD57
:101790002168C1F30141491C4900B0FBF1F010BDC3
:1017A000083802400024F40040787D012DE9F84F0C
:1017B00004006ED02078DFF84C93C007A9F104052F
:1017C0004AD009F104000168C1F38101012908D060
:1017D0000068C0F3810002280AD1D9F80000400255
:1017E00006D52868800337D560680028E1D033E04B
:1017F0006068B0F5803F10D0B0F5A02F286810D0F9
:1018000020F480302860286820F4802028606068F8
:10181000A8B1FFF707FC06460DE0286840F48030C9
:10182000F4E740F480202860F7E700BFFFF7FAFBF9
:10183000801B642873D828688003F7D50CE0FFF775
:10184000F1FB064605E000BFFFF7ECFB801B6428B8
:10185000F0D828688003F7D42078DFF8AC828007BE
:101860004FF0000A3ED5A748001D016811F00C0F8B
:1018700008D00068C0F3810002280BD1D9F800001D
:10188000400207D42868800716D5E068012800D1F7
:1018900012E033E1E068B8B10120C8F80000FFF7BA
:1018A000C1FB064605E000BFFFF7BCFB801B02281A
:1018B000C0D828688007F7D52868216920F0F8008B
:1018C00040EAC10028600DE0C8F800A0FFF7AAFBBD
:1018D000064604E0FFF7A6FB801B02281FD82868F5
:1018E0008007F7D42078000722D5864F87486169A2
:1018F000703771B101210160FFF794FB064604E0E7
:10190000FFF790FB801B022809D838688007F7D5BD
:101910000EE0C0F800A0FFF785FB064605E082E078
:10192000FFF780FB801B02287DD838688007F7D43A
:101930002078400768D5DFF8CCB100270BF13C0BCD
:10194000DBF80000C0000BD4DBF8001041F0805140
:10195000CBF80010DBF80000012700F08050009069
:101960006B4E3068C00510D4306840F48070306031
:10197000FFF758FB009005E0FFF754FB0099401A71
:10198000022850D83068C005F6D55E4EA0686C3687
:1019900001280FD00528306810D020F001003060F9
:1019A000306820F004003060A068B8B1FFF73AFB5F
:1019B00000900FE0306840F00100F4E740F00400D0
:1019C0003060F7E7FFF72EFB0099411A41F28830AB
:1019D000814266D830688007F4D50EE0FFF722FB1D
:1019E000009007E0FFF71EFB0099411A41F2883092
:1019F000814256D830688007F4D42FB1DBF800104C
:101A000021F08051CBF80010A069C8B33D49091DF1
:101A10000968C1F3810102294AD00228504607D043
:101A2000C8F8600000E03CE0FFF7FCFA04463BE049
:101A30004746C8F86000FFF7F5FA064605E000BF24
:101A4000FFF7F0FA801B02282BD828688001F7D412
:101A5000D4E907010843A16A2E4A490802EB014173
:101A6000626A41EA8211084394F82C1040EA01614D
:101A7000C9F8001001203866FFF7D4FA044606E0E2
:101A80003EE000BFFFF7CEFA001B022809D8286805
:101A90008001F7D534E000BFFFF7C4FA001B02282D
:101AA00002D90320BDE8F88F28688001F4D427E02C
:101AB0000128F7D0D9F80000E26900F480019142D2
:101AC0001CD1226A00F03F01914217D147F6C07144
:101AD000626A0140B1EB821F10D1A26A4FF0FF335E
:101AE00000F4403103EB5202B1EB024F06D194F8FF
:101AF0002C1000F07060B0EB016F01D00120D1E735
:101B00000020CFE70438024000004742800E4742E1
:101B1000007000400000FFFF7047704770B590F8FC
:101B20003C20012A32D0012480F83C40022280F877
:101B30003D2003685A689D6822F070060A683243A7
:101B40005A60134B02689A4214D0B2F1804F11D000
:101B5000104B9A420ED0104B9A420BD00F4B9A4228
:101B600008D00F4B9A4205D00E4B9A4202D00E4B32
:101B70009A4204D1496825F080031943916080F8A6
:101B80003D40002180F83C10084670BD022070BD29
:101B9000000001400004004000080040000C00402C
:101BA00000040140004001400018004010B504004E
:101BB00003D094F83D0010B107E0012010BD0020D3
:101BC00084F83C00204600F01FF8022084F83D0015
:101BD000211D206801F0A2FD012084F8460084F850
:101BE0003E0084F83F0084F8400084F8410084F807
:101BF000420084F8430084F8440084F8450084F8E7
:101C00003D00002010BD000008B500680949884269
:101C100001D1094804E0B0F1804F09D10648001F06
:101C2000016841F001010160006800F001000090CE
:101C300008BD0000000001404438024090F83D100B
:101C4000012901D001207047022180F83D10016870
:101C5000CA6842F00102CA6000681149884214D083
:101C6000B0F1804F11D00F4988420ED00E49884202
:101C70000BD00E49884208D00D49884205D00D4945
:101C8000884202D00C49884204D1816801F00701E2
:101C9000062903D0016841F001010160002070476E
:101CA000000001400004004000080040000C00401B
:101CB00000040140004001400018004070B5044697
:101CC00090F83C000025012817D0012684F83C60DC
:101CD000022084F83D002068826822F0770222F416
:101CE0007F4282600868502838D00DDC20284FD011
:101CF00005DC90B3102811D14AE0022070BD3028D5
:101D000046D040280AD13BE060282FD070280DD063
:101D1000B0F5805F03D0B0F5005F12D0012584F8E4
:101D20003D60002084F83C00284670BDCB68D1E9B6
:101D30000121206801F067FD2068816841F077018A
:101D400009E0CB68D1E90121206801F05CFD206841
:101D5000816841F480418160E1E719E0CA6849681F
:101D6000206801F025FE5021206806E0CA68496815
:101D7000206801F02EFE6021206801F04EFDCEE7C4
:101D8000CA684968206801F013FE40212068F4E722
:101D9000226801461046F0E72DE9F0410D460400A7
:101DA00003D094F83D0018B108E00120BDE8F081AF
:101DB000002084F83C00204600F040F8022084F81F
:101DC0003D002068816844F2070291438160211D33
:101DD000206801F0A3FC226890689169166A2B685C
:101DE000AF69034340F20330814341EA0721A86809
:101DF000EF6908434FF6FC418843E96840EA072051
:101E0000014328692F6A000140EA073008436968E6
:101E10006D6926F0AA0646EA0515294393602268F3
:101E2000906154F8460B0162012004F81F09E07527
:101E30002076E0762077A0750020B7E730B587B030
:101E4000044614216846FEF767FA214824681F4DAE
:101E500000221F4910380223AC4216D10C6844F00E
:101E600002040C60096801F002010591016841F06B
:101E7000010101600068694600F001000590C02082
:101E80000090CDE90132134819E0134DAC421AD14C
:101E90000C6844F004040C60096801F00401059129
:101EA000016841F0080101600068694600F008001F
:101EB00005904FF440500090CDE901320748CDE93C
:101EC0000323FEF7A9FF07B030BD00000004004067
:101ED000403802400000024000080040000C024070
:101EE00070B590F83E60044690F83F5090F842304C
:101EF00090F84320022021B104290ED0012E1BD1DD
:101F000014E0012E18D1012B16D184F83E0084F87C
:101F1000420001220021206820E0012D0CD1012A7D
:101F20000AD184F83F0084F8430014E0012D03D166
:101F3000012B01D1012A01D0012070BD84F83E009F
:101F400084F83F0084F8420084F843000122002115
:101F5000206801F04BFC01220421206801F046FCBE
:101F60002068016841F001010160002070BD7047E8
:101F70002DE9F04104460068C66805694FF0000786
:101F8000A90713D5B10711D5F91E016101202077EA
:101F9000206880698007204602D0FFF7E8FF04E050
:101FA00000F0A6F8204600F038F92777680716D524
:101FB000700714D521686FF00400086102202077B3
:101FC0002068806910F4407F204602D0FFF7CFFFE1
:101FD00004E000F08DF8204600F01FF9277728076D
:101FE00015D5300713D521686FF00800086104206B
:101FF00020772068C0698007204602D0FFF7B7FF2E
:1020000004E000F075F8204600F007F92777E806AD
:1020100016D5F00614D521686FF01000086108206D
:1020200020772068C06910F4407F204602D0FFF777
:102030009EFF04E000F05CF8204600F0EEF8277701
:10204000E80708D0F00706D021686FF001000861AA
:10205000204600F047F9280608D5300606D5216845
:102060006FF0800008612046FFF756FD680608D52E
:10207000700606D521686FF040000861204600F028
:102080003BF9A8060AD5B00608D521686FF02000F4
:1020900008612046BDE8F041FFF73FBDBDE8F08193
:1020A00010B586B0044614216846FEF735F920685D
:1020B000B0F1804F16D10C480021026842F00202B4
:1020C0000260006800F0020005904FF4406000904C
:1020D0000220CDE901010120CDE903106946034842
:1020E000FEF79AFE06B010BD3038024000040240F0
:1020F000704770B5044690F83C0000260D46012854
:102100000FD0012084F83C006AB1042A1DD0082AAF
:102110002FD00C2A3FD00126002084F83C00304606
:1021200070BD022070BD206801F080FB20688169CD
:1021300041F0080181612068816921F00401816119
:10214000206881692A69114311E0206801F09EFB33
:102150002068816941F4006181612068816921F40E
:1021600080618161206881692A6941EA0221816177
:10217000D2E7206801F0C0FB2068C16941F0080186
:10218000C1612068C16921F00401C1612068C16991
:102190002A69114311E0206801F0E2FB2068C1695F
:1021A00041F40061C1612068C16921F48061C161AD
:1021B0002068C1692A6941EA0221C161ACE710B512
:1021C000040003D094F83D0010B107E0012010BDD9
:1021D000002084F83C00204600F01EF8022084F81D
:1021E0003D00211D206801F099FA012084F8460085
:1021F00084F83E0084F83F0084F8400084F84100F1
:1022000084F8420084F8430084F8440084F84500D0
:1022100084F83D00002010BD7047704710B504469B
:10222000022249B104290ED0082913D094F84100A4
:10223000012816D0012010BD94F83E000128F9D1E4
:1022400084F83E200FE094F83F000128F2D184F892
:102250003F2008E094F840000128EBD184F84020AA
:1022600001E084F841200122206801F0BFFA1649FC
:102270002068164A884201D0904203D1436C43F44F
:10228000004343642068884213D0B0F1804F10D0DF
:102290000F4988420DD00F4988420AD00E49884222
:1022A00007D0904205D00D49884202D00C4988429F
:1022B00004D1816801F00701062903D0016841F0CB
:1022C00001010160002010BD000001400004014038
:1022D0000004004000080040000C004000400140A5
:1022E0000018004000680349884201D1FFF788B810
:1022F000704700000014004070477047074910B550
:10230000884209D106A001F007FDBDE81040012276
:102310000A49024800F00EBA10BD0000B0030020C8
:10232000E8939DE78999E9809AE4BFA1E99499E847
:10233000AFAFEFBC815C720A0000000040000020DB
:10234000F8B5016804460868CA684B6910F00F0FB9
:102350004FF0000559D003F0010602F4907737439F
:1023600065D0C10705D0D10503D5616C41F00101ED
:102370006164410705D5D90703D0616C41F00201C2
:102380006164810705D5D90703D0616C41F0040170
:102390006164010707D502F02001314303D0616C6D
:1023A00041F008016164616C00293AD0800604D5CF
:1023B000900602D5204601F04CFB20684069616C14
:1023C000C0F38010090700D460B3204601F01AFB67
:1023D00020684069400621D52068143050E8001F6D
:1023E00021F0400140E80012002AF5D1E06BA8B1CD
:1023F00072490165E06BFEF7EAFC002811D0E06B42
:10240000016D01B0BDE8F040084783060FD5930683
:102410000DD52046BDE8F84001F01BBB2046FFF774
:102420006DFFF8BD2046FFF769FF6564F8BD266BB8
:102430002023012E7ED1C6067CD5D6067AD5086823
:102440004868009048694FF0020640064DD5E26B9F
:10245000106840684FF480770004000C3AD0A18DDA
:10246000814237D9E085D069B8422DD020680C3040
:1024700050E8001F21F4807140E80012002AF5D1D5
:102480002068143050E8001F21F0010140E80012DC
:10249000002AF5D12068143050E8001F21F04001D7
:1024A00040E80012002AF5D184F842302563206804
:1024B0000C3050E8001F21F0100140E80012002A03
:1024C000F5D1E06BFEF73AFC6663A08DE18D401A12
:1024D00081B206E0A18D8142A8D1D069B842A5D1D0
:1024E00066632046FFF709FFF8BDA08DE18D401A15
:1024F00081B2E08D0028F7D00029F5D020680C309B
:1025000050E8002F22F4907240E80027002FF5D108
:102510002068143050E8002F22F0010240E8002724
:10252000002FF5D184F84230256320680C3050E844
:10253000002F00E006E022F0100240E80023002B0C
:10254000F3D1CDE705062BD5150629D594F8410022
:102550002128C9D1A068B0F5805F01D12069B0B150
:10256000206A411C2162216800784860E08C401E8E
:102570000004000CE084B7D12068C16821F080011C
:10258000C1602068C16841F04001C160F8BD206AA7
:102590000088C0F308004860206A801C2062E5E7DC
:1025A0004006F3D55006F1D5CA68204622F0400215
:1025B000CA6084F8413000F043F9F8BDF7390008EB
:1025C00070B5040004D094F84100002510B106E075
:1025D000012070BD84F84050204600F023F82420EC
:1025E00084F841002068C16821F40051C160204690
:1025F00001F090FA2068016921F49041016120689E
:10260000416921F02A0141612068C16841F400510B
:10261000C1606564202084F8410084F8420065634D
:10262000002070BDF0B587B0044614216846FDF760
:1026300073FE3A4B276800223949022403250726F6
:1026400038489F421CD1364B14331F6847F010079F
:102650001F601B6803F0100305930B6843F0010330
:102660000B60096802AB01F0010105916902CDE937
:10267000001483E864006946FEF7CEFB07B0F0BDA6
:10268000274BDFF8A4C0103367451FD11F6847F4FC
:1026900000371F601B6803F4003305930B6843F099
:1026A00001030B60096802AF01F0010105910C21E3
:1026B000CDE9001487E864006946FEF7ADFB00220F
:1026C00005212620FEF734FF262023E01748874205
:1026D000D4D1186840F480201860186800F4802075
:1026E0000590086840F008000860086802AF00F034
:1026F000080005904FF44070CDE9000487E86400BD
:1027000069460B48FEF788FB002205212720FEF7CB
:102710000FFF2720FEF7FEFEB0E70000001001408B
:1027200030380240000002400044004000480040B1
:10273000000C024090F84230202B01D0022070475C
:1027400021B11AB10023036301F06ABA0120704776
:1027500010B500680C49884207D10C48007800F099
:1027600063FE012209490A4809E00A4988420AD160
:1027700009480078FEF7B4F9074908480122BDE886
:102780001040FFF7D7BF10BD004800407700002081
:10279000F80300200044004040000020B003002067
:1027A0002DE9F843044690F84100984616460D4638
:1027B000202802D00220BDE8F88385B17EB1002038
:1027C0006064212084F84100FEF72CFCA684814639
:1027D000E684A0682027B0F5805F02D003E00120E6
:1027E000E9E7206910B12E4600250EE000260CE036
:1027F0008021204601F02FFAA8B9C6B116F8010BC6
:1028000021684860E08C401EE084E08C4B464FF02D
:102810000002CDF800800028EAD14FF040012046A8
:1028200001F019FA40B184F841700320C3E735F88C
:10283000020BC0F30800E3E784F841700020BAE718
:102840007047FEE701684A69D24352050FD46FF41E
:1028500080624A61002140F8301F20224273817358
:10286000026942F0040202610173012070470020F6
:10287000704700002DE9F843044600680D46DDE985
:10288000089701689846164641F4807101604B46EE
:1028900000224FF001112046009700F06BF848B17C
:1028A00020680068C00502D54FF400702064032042
:1028B000BDE8F883216805F0FE0008613B464A4602
:1028C0001549204600F09EF888B920684169806962
:1028D00000903A464946204600F0F2F848B1206C94
:1028E000042804D12068016841F4007101600120CE
:1028F000DEE7F5B2B8F1010F09D02168300A0861AE
:102900003A464946204600F0DBF80028E7D1206827
:1029100005610020CCE700000200010070B51646FA
:102920000D4604461EE02046FFF78CFF08B101204B
:1029300070BD681C16D0FEF775FB801BA84200D83E
:1029400085B920684069C04340070BD5002044F892
:10295000300F20216173A073216941F020012161B2
:102960002073E4E720684069C0434007DBD40020BF
:1029700070BD00002DE9F047984617460D46044605
:10298000C1F30746DDF820902AE000BFB8F1FF3F11
:1029900026D0FEF747FBA0EB0901414502D8B8F16C
:1029A000000F1DD12068012E16D0806925EA000095
:1029B0000004000C12D00020B84211D1002044F8CD
:1029C000300F20216173A073216941F02001216142
:1029D00020730120BDE8F0874069E7E70120EBE7BD
:1029E0002068012E0AD0806925EA00000004000C4E
:1029F00006D00020B842C9D00020EBE74069F3E7D9
:102A00000120F7E72DE9F047984616460D460446A3
:102A10004FF000094FF0200AC1F3074723E0206878
:102A20004069C043400515D42068016841F4007135
:102A3000016021686FF480604861C4F8309084F8C8
:102A40003DA084F83E90216C41F00401216484F89B
:102A50003C9021E0701C06D0FEF7E4FAA0EB0800E1
:102A6000B04203D816B1012F1FD021E02068012FFA
:102A700015D0806925EA00000004000C18D000BFC2
:102A800044F8309F84F80DA084F80E90216941F03D
:102A90002001216184F80C900120BDE8F087406995
:102AA00025EA00000004000CEAD12068406901E03A
:102AB0002068806925EA00000004000CAFD1ECE733
:102AC00070B516460D4604461EE02046FFF7BAFED6
:102AD00008B1012070BD681C16D0FEF7A3FA801B58
:102AE000A84200D885B920684069C04300060BD5CC
:102AF000002044F8300F20216173A073216941F058
:102B0000200121612073E4E720684069C04300068A
:102B1000DBD4002070BD00001FB5002115480091D6
:102B200001910291124A039102604FF48032C0E990
:102B3000012101240161047680F820100E4AC0E9C9
:102B40000A21C461C16080F830104461FEF79CF82E
:102B500008B1FDF7E7FF04200094CDE90140694684
:102B60000448FDF7EBFF002801D0FDF7DBFF1FBD98
:102B700000200140040100200100000F10B51F4A91
:102B800000211F4801F0B4FD1E4C1C4A0021E060EA
:102B900024321D4801F0ACFD184A20614832002162
:102BA0001A4801F0A5FD154A60616C3200211748F2
:102BB00001F09EFD114AA06190320021144801F0FD
:102BC00097FD0E4AE061B4320021124801F090FDF9
:102BD0000A4A2062D83200210F4801F089FD074AD5
:102BE0006062FC3200210D4801F082FDA0620C4AB7
:102BF00000210C4801F07CFDE06210BD445E00083D
:102C00008534000800000020AD340008B534000809
:102C1000BD340008C5340008CD340008D5340008A0
:102C2000645F0008DD3400082DE9F04F87B01421FF
:102C30006846FDF771FB58480024016841F0040123
:102C40000160016801F004010591016841F0200173
:102C50000160016801F020010591016841F08001E7
:102C60000160016801F080010591016841F00101F6
:102C70000160016801F001010591016841F0020164
:102C80000160016801F002010591016841F0100145
:102C90000160016801F010010591016841F008012F
:102CA00001600068DFF8F49000F008000590002251
:102CB0004FF4B0514846FEF7AFF9DFF8E4B0002218
:102CC00048F206015846FEF7A7F9DFF8D8A04FF4FE
:102CD0008078002241465046FEF79EF900224021AE
:102CE0003148FEF799F9012215213048FEF794F991
:102CF00000220A212D48FEF78FF94FF4C0600090A2
:102D00000125CDE90154694648460394FEF784F84D
:102D100006200090CDE90154694658460394FEF719
:102D20007BF8280311260227CDE90006CDE90257DA
:102D300069464846FEF770F8CDF800800397CDE964
:102D4000015469465046FEF767F868028DE8310085
:102D500069465046FEF760F8E803CDE90006032611
:102D6000CDE9025669465846FEF756F84020CDE9AF
:102D70000005CDE9024669460B48FEF74DF81F20D5
:102D80000090CDE90154694608480394FEF744F8E1
:102D900007B0BDE8F08F0000303802400014024058
:102DA000000402400010024000080240000C0240F3
:102DB0000D4810B50B4901600C49416000214FF4EA
:102DC00080428160C0E9031241618161C161016299
:102DD000FEF72EF9002803D0BDE81040FDF7A2BE93
:102DE00010BD0000005400404C010020801A060075
:102DF0000D4810B50B4901600C49416000214FF4AA
:102E000080428160C0E9031241618161C161016258
:102E1000FEF70EF9002803D0BDE81040FDF782BE92
:102E200010BD000000580040A0010020801A0600DC
:102E30000D4810B50B4901600C49416000214FF469
:102E400080428160C0E9031241618161C161016218
:102E5000FEF7EEF8002803D0BDE81040FDF762BE93
:102E600010BD0000005C0040F4010020A0860100BD
:102E700010B586B00024184800940194029403947D
:102E80000494144905940160A721C0E901144FF688
:102E9000FF71C0E903148021C0E90541FEF786FEF9
:102EA00008B1FDF73FFE4FF48050009069460A4894
:102EB000FEF704FF08B1FDF735FE049404A90648A7
:102EC0000594FEF72BFE002801D0FDF72BFE06B07F
:102ED00010BD0000000001404802002010B58EB077
:102EE00000240794089409940A940B941C216846C2
:102EF0000C94FDF711FA22484FF0804101605321F4
:102F0000C0E901144FF47A71C0E903148021816192
:102F1000FEF74CFE08B1FDF705FE4FF48050079018
:102F200007A91748FEF7CAFE08B1FDF7FBFD1448D4
:102F3000FFF745F908B1FDF7F5FD0B940BA9104813
:102F40000C94FEF7EBFD08B1FDF7ECFD6020CDE938
:102F5000000402940822694609480494FFF7C9F85E
:102F600008B1FDF7DFFD0C2269460548FFF7C1F8FF
:102F700008B1FDF7D7FD0248FFF792F80EB010BD7B
:102F80009002002010B58CB024216846FDF7C4F9EA
:102F900000241648099414490A94C0E900144FF615
:102FA000FF71C0E90241046184610320CDE900049E
:102FB0000120CDE902040494CDE905400794694657
:102FC0000A480894FEF7E8FE08B1FDF7ABFD099446
:102FD00009A906480A94FEF7A1FD002801D0FDF7D3
:102FE000A1FD0CB010BD000000040040D80200207C
:102FF00010B58CB024216846FDF78EF900241648E0
:10300000099414490A94C0E900144FF6FF71C0E90D
:103010000241046184610320CDE900040120CDE96F
:1030200002040494CDE90540079469460A480894CF
:10303000FEF7B2FE08B1FDF775FD099409A906482F
:103040000A94FEF76BFD002801D0FDF76BFD0CB074
:1030500010BD000000080040200300200C4810B5FF
:103060000A4901604FF4E1314160002181600C2286
:10307000C160C0E904128161C161FFF7A1FA0028B3
:1030800003D0BDE81040FDF74DBD10BD001001405C
:10309000680300200C4810B50A4901604FF4E13183
:1030A0004160002181600C22C160C0E9041281618D
:1030B000C161FFF785FA002803D0BDE81040FDF795
:1030C00031BD10BD00440040B00300200C4810B5D5
:1030D0000A4901604FF4E1314160002181600C2216
:1030E000C160C0E904128161C161FFF769FA00287B
:1030F00003D0BDE81040FDF715BD10BD00480040ED
:10310000F8030020FEE7000010B508210E48FFF785
:1031100085F80C210C48FFF781F83C210B48FEF79D
:10312000DFFE3C210A48FEF7DBFE012204210948AC
:10313000FDF772FF05480068416A074801800449AD
:103140000968496A418010BD90020020D802002021
:103150002003002000040240440000202DE9F0413B
:103160001C4615000E46804601D0012200E00022D8
:10317000124F01213846FDF74FFF45B100220221D1
:103180003D463846FDF748FF1CB1012202E001220E
:10319000F5E7002204212846FDF73EFF64B1002236
:1031A00008212846FDF738FF05480268C2F83C8030
:1031B00000680664BDE8F0810122F1E7000C0240DE
:1031C0009002002070B52A480068406A06B229487B
:1031D0000068406A284C05B23046B4F90010FDF78B
:1031E000A3FCA080B4F902102846FDF79DFCE08006
:1031F00026806580B4F904304FF4967251429342B0
:1032000001DDA28002E08B4200DAA180904201DD64
:10321000E28002E0884200DAE180B4F9040094ED33
:10322000040A00EE900AD4ED021AF8EEE00A20EE4D
:10323000201AF7EE000A70EEC00A00EEA11A84ED23
:10324000021AB4F9060001EE100AB8EEC11A20EE17
:10325000010A94ED031A00EE810A84ED030A606905
:10326000401C60610A2801DB0020606170BD000025
:10327000D80200202003002044000020FEE770B5A3
:10328000002404F1B000C0B200F01CF8002000F0EF
:1032900019F8102000F016F80025002000F024F89E
:1032A0006D1CEDB2802DF8D3641CE4B2082CE8D379
:1032B00070BD10B5C820FDF79DFDBDE8104000F0C1
:1032C00011BD000001B584B001214FF4807204A843
:1032D0008DE807000B46002278210248FDF76CFFBD
:1032E00005B000BD4C01002001B584B001214FF4B0
:1032F000807204A88DE807000B464022782102481E
:10330000FDF75AFF05B000BD4C010020F0B587B0B5
:103310000446FDF718F82178562915D1204410F8F5
:10332000011C452910D10026012500F8016C641C00
:1033300005E0605D2B2809D02D2807D06D1C2046A4
:10334000FDF701F8A842F4D807B0F0BD6519FBD02D
:1033500000962F1B01960296039604963A46214644
:1033600068460596FCF7E3FF0DF80760294603A8B9
:10337000FCF7F0FF6846FCF7F6FF064603A8FCF7EB
:10338000F2FF01004FF0010202EBE17402EBE6757F
:103390003046E3B2EAB200D5494201EB810149006F
:1033A00009B2002800DA704200EB8000400000B251
:1033B000FFF7D4FEFFF706FF0D48B0F900100DB17E
:1033C0000CA200E00CA2002900DA49420BA000F098
:1033D000A3FC0D48B0F900100CB106A200E006A253
:1033E000002900DA494205A000F096FCACE7000095
:1033F000480000202B0000002D00000025642C2038
:1034000025730D0A000000004A000020044903480B
:103410000122097801440348FFF78CB98805002090
:1034200078000020F803002070B50D2813D00A287A
:1034300011D00B4C0B4A217871B13F2902D2505464
:10344000491C2170452806D1C8B2002515540548ED
:10345000FFF75CFF257070BD5628F0D070BD0000EE
:1034600078000020880500204FF47A71884200D946
:10347000084603490A68D063096808647047000079
:1034800090020020084C4FF4007526154FF47A770F
:1034900029462046FDF7B8FD31462046FDF7B4FD2C
:1034A000384601F0EAF8F3E7001402400A2001F080
:1034B000E4F8FBE70A2001F0E0F8FBE7012001F067
:1034C000DCF8FBE7142001F0D8F8FBE70A2001F054
:1034D000D4F8FBE7642001F0D0F8FBE72DED048B76
:1034E000444C012202212046FDF796FD00220421D2
:1034F0002046FDF791FD012208212046FDF78CFDB5
:10350000002210212046FDF787FD08213A48FEF7EA
:1035100085FE0C213848FEF781FE3C213748FEF736
:10352000DFFC3C213648FEF7DBFC4FF49670FFF7DA
:103530009BFF324EDFF8C8904FF40047314C9FEDAF
:10354000328ADFED328AC7F1000800254FF47A7A1B
:103550003068406A83B2D9F80000406A82B220889D
:10356000191A6088101AB94201DBA1F58031414572
:1035700001DA01F58031B84201DBA0F58030404529
:1035800001DA00F58030D4F804C0614400EE101A6E
:103590006160D4F808C0B8EEC00A6044A06023801F
:1035A00020EE080A628060EE280A00EE100A10EE93
:1035B000900AB8EEC00A20EE080A20EE289AFCF71E
:1035C00051FF41EC100B12A053EC102B00F0A4FBA8
:1035D00019EE100AFCF746FF41EC100B14A053EC57
:1035E000102B00F099FB65605046A56001F045F88E
:1035F000AEE70000000C024090020020D80200203C
:1036000020030020000000200000803900007042EC
:103610004D6F746F72205370656564202854494D56
:1036200033293A20252E32662052504D0A000000E0
:103630004D6F746F72205370656564202854494D36
:1036400034293A20252E32662052504D0A000000BF
:1036500010B54FF0E020006902F03EFA012803D0D7
:10366000BDE8104001F06CBF10BD000030B593B054
:1036700030216846FCF750FE14210CA8FCF74CFEE4
:103680001D480025016841F080510160006800F08C
:10369000805011901948016841F480410160006830
:1036A000022400F480401190012003901020049027
:1036B000009406940820CDE90750A820CDE909041C
:1036C00004200B906846FEF771F808B172B6FEE769
:1036D0000CA90F2081E831004FF4A0500F904FF457
:1036E0008050109005210CA8FDF754FF002801D050
:1036F00072B6FEE713B030BD4038024000700040A3
:103700000248016841F470010160704788ED00E0F3
:103710000148FEF72DBC000040040020F0B502680F
:10372000274B284D284E294F294C4FF0804C98426A
:1037300009D0604507D0A84205D0B04203D0B842B6
:1037400001D0A04204D122F0700E4A6842EA0E0273
:1037500098421BD0604519D0A84217D0B04215D06E
:10376000B84213D0A04211D01A4DA8420ED01A4D23
:10377000A8420BD0194DA84208D0194DA84205D037
:10378000184DA84202D0184DA84203D122F440752A
:10379000CA682A434D6922F080022A438D68C562B7
:1037A0000D688562984201D0A04201D10969016388
:1037B000016841F004010160012141610260F0BD36
:1037C000000001400004004000080040000C0040E0
:1037D0000004014000400140004401400048014015
:1037E00000180040001C00400020004010B501F00F
:1037F0001F030121046A99408C430462016A9A40C4
:103800001143016210BD10B5846842EA032224F41A
:103810007F440A432243826010BD826822F0700216
:103820000A4342F00701816070470000F0B5036A67
:10383000026A22F00102026242688469124E24F098
:1038400073050C682C4323F002058B682B430D4D48
:10385000A84201D0B04205D123F00807CB683B4312
:1038600023F00403A84201D0B04205D14D6922F4EF
:10387000407215438A692A43426084614968416302
:103880000362F0BD0000014000040140F0B5026A8F
:10389000036A23F010030362436884690D6824F40B
:1038A000E64444EA05248D6822F0200242EA05122B
:1038B0000F4D104EA84201D0B04206D1CF6822F081
:1038C000800242EA071222F04002A84201D0B04230
:1038D00007D14D6923F4406343EA85038D6943EAC8
:1038E000850343608461496881630262F0BD000022
:1038F0000000014000040140F0B5026A036A23F4AD
:10390000807303624368C46922F4007224F0730573
:103910000C68124E2C438D6842EA05220E4DA842D7
:1039200001D0B04206D1CF6822F4006242EA0722F9
:1039300022F48062A84201D0B04207D14D6923F43D
:10394000405343EA05138D6943EA05134360C4619C
:103950004968C1630262F0BD0000014000040140FB
:1039600030B5046A026A22F4805202624268C36976
:103970000D6823F4E64343EA05238D6824F40054DC
:1039800044EA0534084DA84202D0084DA84204D1AB
:103990004D6922F4804242EA85124260C36149685F
:1039A0000164046230BD00000000014000040140D9
:1039B00010B5036A046A24F001040462846924F0E7
:1039C000F00444EA021423F00A020A43846102620A
:1039D00010BD10B5036A046A24F0100404628469FF
:1039E00023F0A00324F4704444EA023243EA0111B4
:1039F0008261016210BD10B5806B0021C185FEF7A8
:103A00007DFC10BD01680C3151E8002F22F490724A
:103A100041E80023002BF5D10168143151E8002F53
:103A200022F0010241E80023002BF5D1016B0129AE
:103A300009D101680C3151E8002F22F0100241E851
:103A40000023002BF5D1202180F8421000210163D2
:103A5000704708B590F84210222901D0022008BD15
:103A600082684FF480539A4201D1016921B1816A81
:103A70009A421BD04AB10AE00268816A5268C2F3D6
:103A800008020A80816A891C08E0026972B1026832
:103A9000526802F07F020A70816A491C8162C18DFE
:103AA000491E0904090CC18503D01BE00268526855
:103AB000F1E70168CA6822F02002CA600168CA689A
:103AC00022F48072CA6001684A6922F001024A61E8
:103AD000202180F8421000214163026B012A03D0AB
:103AE000FEF736FE002008BD016301680C3151E885
:103AF000002F22F0100241E80023002BF5D10168CD
:103B00000A68D20602D50A6849680091818DFEF7DD
:103B1000F4FBE7E770B5044600680169E26821F448
:103B20004051114301612169A068E269084361695C
:103B3000114308432168CA6849F20C639A4302435F
:103B4000CA6020684169A26921F440711143416152
:103B500031492068884202D03049884202D1FDF7BD
:103B6000E3FD01E0FDF7D0FDE269002319216425A2
:103B70003226B2F5004F626828D0A0FB0101930FF6
:103B80009200FCF77FFB0146B0FBF5F06FF01802E6
:103B9000504301EB800006EB0010B0FBF5F000F0A5
:103BA000F002B1FBF5F002EB0012B1FBF5F06FF0A3
:103BB0001803584301EB800006EB0010B0FBF5F052
:103BC00000F00F0021681044886070BDA0FB010167
:103BD00092185B41FCF756FB0146B0FBF5F0020181
:103BE000B1FBF5F06FF01803584301EB800006EBD2
:103BF000C000B0FBF5F000F0F80002EB4002B1FBB2
:103C0000F5F0584301EB800006EBC000B0FBF5F087
:103C100000F00700D6E7000000100140001401404A
:103C200081628285C28500214164222180F8421090
:103C3000016921B10168CA6842F48072CA600168F2
:103C40004A6942F001024A610068C16841F02001FE
:103C5000C160002070472DE9F843984617460D468D
:103C60000446089E24E0701C22D0FDF7DBF9A0EB8F
:103C70000800B0421AD8CEB12068C168490717D5EC
:103C8000802D15D0402D13D00168C94309070FD4EA
:103C900001680025406800902046FFF7B3FE082029
:103CA000606484F840500120BDE8F8830320FBE7FE
:103CB0002068006835EA000004D00020B842D2D065
:103CC0000020F1E70120F9E70148FEF739BB0000C9
:103CD000B00300200148FEF733BB0000F8030020CA
:103CE000FEE70000FEB50024094F4FF48075012661
:103CF0003819CDE9000601230022782102950548F4
:103D0000FDF75AFA641CE4B21B2CF1D3FEBD00008F
:103D10005C0000204C0100200FB4054B10B503A936
:103D2000044A029800F0EEF810BC5DF814FB0000A5
:103D30000D460008FC0000200907090E002804DBDE
:103D400000F1E02080F80014704700F00F0000F14F
:103D5000E02080F8141D70470048704700010020E3
:103D600002E008C8121F08C1002AFAD17047704744
:103D7000002001E001C1121F002AFBD170470000A2
:103D80002DE9FF5F82B00021DDE90430020DDDF88E
:103D900040B0034318D044F61050A2F2FF32424321
:103DA0001514119801281FD0A5EB0B00401C5FEAE9
:103DB000000A4FF000064E4FDFF83891B0465046EB
:103DC00015D5CAF1000413E0119801244AA3012873
:103DD00001D16FEA0B010298119AC0E90031C0E9E4
:103DE000024206B0BDE8F09FCBF10000DFE70446D9
:103DF0000021404A491842EB0450CDE9001012E07E
:103E0000E00707D032463B4640464946FCF7B8FA41
:103E10008046894632463B4610461946FCF7B0FAC2
:103E200006460F466410002CEAD1DDE90401DDE905
:103E30000023BAF1000F06DAFCF7A2FA42464B461D
:103E4000FCF79EFA05E0FCF791FC42464B46FCF776
:103E50008DFC04460E460022284BFCF70FFD03D8CC
:103E60004FF0FF30014607E00022254B2046314647
:103E7000FCF7D5FBFCF7E9FC102409E0002C0ADB79
:103E80000A220023FCF7FEF9039B30321A55641E08
:103E900050EA0102F2D1641C039AC4F111031444E4
:103EA000119A012A03D0012208430DD10AE00843E8
:103EB00004D000204FF0110B119072E7A3EB0B051B
:103EC0006D1E0DE05B4504DD4FF0000205F10105BC
:103ED00004E003DA4FF00002A5F10105002AECD05E
:103EE00002981199C0E90231C0E9004579E7000064
:103EF000000014400000F03F300000000000F043DC
:103F00000000E03F2DE9FF4F95B09A4688460646EF
:103F10000025EEE1252877D100242746F94A012122
:103F2000039400E0044316F8013F203B01FA03F03C
:103F30001042F7D130782A2811D06FF02F03307853
:103F4000A0F13002092A16D8039A44F0020402EBC9
:103F5000820203EB42021044761C0390EFE758F80C
:103F6000042B0392002A03DA504244F400540390D5
:103F700044F00204761C30782E2816D116F8010F72
:103F800044F004042A280DD06FF02F023078A0F1FD
:103F90003003092B09D807EB870302EB4303C7184B
:103FA000761CF3E758F8047B761C30786C280FD029
:103FB00006DC4C2817D068280DD06A2814D104E0FC
:103FC000742810D07A280FD10DE044F400140AE0D0
:103FD00044F4801401E044F440147278824202D127
:103FE00004F58014761C761C307866280BD013DC20
:103FF000582877D009DC002875D04528F6D0462807
:10400000F4D047281AD193E118E0632835D064280A
:1040100079D0652812D18BE1702873D008DC67282D
:10402000F1D069286FD06E280DD06F2806D1ACE092
:1040300073282CD0752874D0782853D052461799FD
:1040400090476D1C54E1C4F30250022809D00328A4
:104050000DD0D8F8001004280DD00D6008F1040828
:1040600046E1D8F80010EA17C1E90052F6E7D8F89F
:1040700000100D80F2E70D70F0E718F8041B8DF8C2
:10408000001000208DF80100EB46012003E058F8F5
:1040900004BB4FF0FF3061074FF0000102D40DE088
:1040A00009F101018946B9420FDA8145F8DB1BF8B5
:1040B00009100029F4D108E009F101018946814283
:1040C000FADB1BF809100029F6D103985346A0EB40
:1040D000090721463846179A00F080FA284400EB79
:1040E000090507E044E008E10DE01BF8010B52462A
:1040F00017999047B9F10109F7D25346214638463E
:10410000179AF2E039E00A21C4F302524FF0000B93
:104110000091022A06D058F8040BC117032A09D0CF
:104120000AE023E008F1070020F00702F2E80201AC
:10413000904605E000B2C117042A01D140B2C11770
:10414000002906DA0A460021404261EB02012D22D5
:1041500002E0220504D52B228DF80420012203E081
:10416000E20701D02022F7E7914657E00A2100E05C
:1041700010214FF0000B00910BE010214FF0000BCD
:1041800044F004040827009103E008204FF0000BDE
:104190000090C4F30252022A05D058F8040B002103
:1041A000032A08D008E008F1070020F00702F2E82F
:1041B0000201904603E080B2042A00D1C0B24FF061
:1041C000000922072AD53278702A07D0DDF800C00E
:1041D0008CF0100C5CEA0B0C05D00EE040228DF840
:1041E0000420012208E050EA010306D030238DF8B4
:1041F00004308DF8052002229146009B83F00803CD
:1042000053EA0B030AD150EA010201D1620705D536
:1042100030228DF804204FF001097F1E3278582A91
:1042200004D039A20C920CAA02920BE03BA2F9E74F
:104230005B46009AFCF726F80C9B9B5C029A521E88
:104240000292137050EA0102F2D1029804A9081AEE
:1042500000F1200B600702D524F4803400E0012730
:104260005F4502DDA7EB0B0000E0002000EB0B0137
:10427000009003984944401A0390E00306D4534643
:104280002146179A039800F0A9F90544002706E093
:1042900001A85246C05D179990476D1C7F1C4F4581
:1042A000F6DBE0030CD553462146179A039800F03D
:1042B00095F9054404E030205246179990476D1C4B
:1042C0000099481E00900029F5DC08E00298029948
:1042D00052460078491C0291179990476D1CBBF11A
:1042E0000001ABF1010BF1DC5BE100F065F9054485
:1042F000761C307800287FF40DAE19B02846BDE852
:10430000F08F000009280100303132333435363760
:104310003839616263646566000000003031323311
:1043200034353637383941424344454600000000B1
:10433000600700D4062708F1070020F00700F0E826
:104340000223804603F0004C5FEA0C0001D097A0E6
:1043500009E0200501D596A005E0E00701D095A071
:1043600001E0AFF24C001390307823F00043652851
:104370000CD006DC452809D046281DD047287FD11F
:104380003BE0662818D067287AD136E00021112F4B
:1043900001DB112000E0781CCDE9000104A90CA884
:1043A000FFF7EEFCDDE90D010C9A4FF0000B07F171
:1043B0000109109200914EE04FF000400097CDE9C6
:1043C000011004A90CA8FFF7DBFCDDE90D020C9B32
:1043D0000F994FF0000B91461093009211B9791C80
:1043E00000EB0109B7EB090003D4C0F1FF3B07F173
:1043F0000109A9EB0700019042E0012F00DA012733
:104400000021112F01DD112000E03846CDE9000127
:1044100004A90CA8FFF7B4FCDDE90D010C9A00918A
:104420004FF0000BB946109221070FD4009A4A456D
:1044300003DA914601E0A9F10109B9F1010F05DDA7
:10444000109AA9F10101515C3029F4D0B84202DA86
:1044500010F1040F03DA0121CDE9011010E000286A
:1044600003DC8344A9EB000102E0411C494500DD67
:104470008946A0EB0B00401C01904FF000400290D9
:10448000200705D40198484502DB4FF0FF3001902A
:1044900000208DF84B0002980DF14B07B0F1004F52
:1044A00025D002200C902B200D90029800280CDAC9
:1044B000404202902D200D9007E00A210298FBF760
:1044C000E4FF3031029007F8011D0C99481E0C9052
:1044D0000029F2DC02980028EFD1791E0D980870AF
:1044E000307800F0200040F0450007F8020D11A8D8
:1044F000C01BC01D02901398007800B1012000EB92
:104500000901019801EBE071029801440398401AF7
:10451000401E0390E00306D453462146179A0398A1
:1045200000F05CF805441398007818B152461799CA
:1045300090476D1CE00323D553462146179A0398F4
:1045400000F04CF805441BE0BBF1000F07DB0098BE
:10455000584504DD1098179910F80B0001E01799E1
:1045600030205246904701980BF1010B401E05F197
:104570000105019004D12E205246179990476D1CD9
:10458000B9F10001A9F10109DEDC05E017F8010B22
:104590005246179990476D1C0299481E02900029B7
:1045A000F4DC53462146179A03989EE62D0000003E
:1045B0002B000000200000002DE9F04104460025FA
:1045C0001E461746880404D405E039462020B0472B
:1045D0006D1C641EF9D52846BDE8F0812DE9F04137
:1045E000044600251E469046C80301D5302700E04A
:1045F0002027880404D505E041463846B0476D1CA5
:10460000641EF9D52846BDE8F081000013B54FF0CF
:10461000FF33012269460248FEF7C2F800981CBD2C
:10462000F8030020FCF7F4FEFFF720F8FEF7FCFA91
:10463000FEF71EFCFEF712FDFEF72CFDFEF74EFC0A
:10464000FEF7A0FCFEF7D4FCFEF740FDFEF764FA8F
:10465000FEF7AEFBFEF7CCFBFEF7EAFBFEF754FDE0
:10466000FEF7D4FE00F016F8FEF788FA00F024F802
:10467000FEF71FFEFEF703FEFEE710B5EFF3058120
:1046800011B16FF0050403E0002408B100F0F8FD5B
:10469000204610BDEFF3058010B16FF005007047A4
:1046A0000448016811B14FF0FF30704701210160EB
:1046B00000207047CC00002010B5EFF3058010B14A
:1046C0006FF0050010BD08480168012902D04FF0C5
:1046D000FF3010BD054A002182F8141D022101603F
:1046E00000F036FE002010BDCC0000200BE000E002
:1046F0002DE9FF414FEA01034FF00005EFF305817B
:10470000039549BB40B38027182100244AB316689B
:1047100006B1344696691EB13146761E382E02D255
:104720001679F60703D0002004B0BDE8F081566981
:1047300006B1B708D2F808C0BCF1000F0DD0D5689B
:104740005C2D18D312693AB136B18DE806103A469D
:10475000214601F096F903900DE0D6685EB9126922
:104760004AB903AACDE90012BAB2214601F05CF9B8
:10477000012800D003950398D6E700002DE9F04109
:10478000134C0F460546E6682068001D00F044FC07
:10479000681C07D137B12168BDE8F0410D48091DFB
:1047A00000F08ABC20683544B5424560216805D2D6
:1047B000A06BBDE8F041091D00F066BC606B091DEF
:1047C00000F062FCA06A854200D2A562BDE8F081DB
:1047D0007C000020B80A00202DE9F041054600F0D9
:1047E00077FC2D4CA068401CA06020682B4F10B1B6
:1047F000606930B32BE02560A068012827D100262E
:1048000006EB860007EB800000F030FC761C382EAB
:10481000F6D3234800F02AFC2148143000F026FC8F
:104820001F48283000F022FC1D483C3000F01EFCE0
:104830001B48503000F01AFC194860631430A06324
:1048400005E02068E96AC06A884200D82560606A8D
:10485000401C60626864E86A2169884200D920616E
:1048600000EB800007EB8000291D00F025FC00F024
:104870004FFC606900280CD02068E96AC06A884251
:1048800007D208494FF080500860BFF34F8FBFF345
:104890006F8FBDE8F08100007C000020080600203A
:1048A000680A002004ED00E038B500F011FC104C5F
:1048B0002068C8B90F4800F0D9FB0E48143000F04A
:1048C000D5FB0C48E060143020610A4B0020F03B1F
:1048D000009003F1500210210A2000F047FE2060F2
:1048E00010B105A100F096FCBDE8384000F010BC06
:1048F000B8000020BC0B0020546D72510000000075
:1049000030B4026C0B46002A0BD0C1681144C16060
:104910008468A14201D30168C16030BC1846FBF72E
:10492000E2BC30BC70472DE9F041856B1746044668
:104930000026026C82B1C7B1E068FBF7D4FCE168E5
:10494000206C091AE1602268914202D2A168081A1B
:10495000E060022F16D017E02068A8B9A06801F027
:1049600033F906460020A0600EE06068FBF7BBFC50
:10497000216C606808446060A168884204D32068A4
:10498000606001E005B16D1E6D1CA5633046BDE899
:10499000F08110B5044690F8590058B101280CD0A8
:1049A00002280FD0502080F31188BFF34F8FBFF340
:1049B0006F8FFEE7206B00F0BFFB2046BDE8104084
:1049C00000F0BABB10BD000010484FF47051420710
:1049D00006D0C01D0D4920F00700411AC1F57051E5
:1049E0000B4A00230144C2E900030839183A21F0B8
:1049F000070111604B600B600B1AC0E90013936054
:104A00004FF0004053605061704700009C1200203E
:104A1000E8000020144E154CA6F29C474FF0805839
:104A2000DFF84C9012E000BF00F052FBF068C56860
:104A3000281D00F0F1FAA068401EA0606068401ECA
:104A4000606000F065FB2846FFF7A3FF6068002860
:104A5000EAD138680128F9D9C9F80080BFF34F8F2F
:104A6000BFF36F8FF2E70000A40A00207C00002053
:104A700004ED00E070B51D46049C51B1C4F800205F
:104A8000C4E90F010121204600F0A4FD84F84C5038
:104A900070BD2460F4E700002DE9F05F8846DDE991
:104AA0000B941546834691009A460A9EA522206BD8
:104AB000FBF72BFC6FF00301206B01EB8501084431
:104AC00020F00707780707D0502080F31188BFF344
:104AD0004F8FBFF36F8FFEE70025B8F1000F0FD0A7
:104AE0005FF00000221818F8001082F8341018F84F
:104AF000001011B1401C1028F4D384F8435001E099
:104B000084F83450382E00D33726E662C4E91365A2
:104B1000201D00F0B6FA04F1180000F0B2FA24618A
:104B2000C6F138006462A061656584F85850524649
:104B30005946384600F05AFA2060B9F1000F01D00A
:104B4000C9F80040BDE8F09F30B5114900E01146BA
:104B50000A688242FBD34B685C18844203D14068E8
:104B600018444860084643681C18944209D1084C10
:104B7000183C2468A24209D052681A4442600A686C
:104B800012680260814200D0086030BD0460F9E71D
:104B9000E800002070B5002441600B4D0061914297
:104BA00006D8D11A8269914206D2011D286907E010
:104BB0009A4203D2994201D3012403E0011DE8681F
:104BC00000F062FA204670BDB800002010B504461F
:104BD00000F07EFAA06B28B15FF0000400F098FAB4
:104BE000204610BD0124F9E730B589B03C4D6EE098
:104BF0000498002806DADDE90601059A9047049832
:104C0000002864DB069C606910B1201D00F004FAE6
:104C100003A800F0D7F8024604980A2857D2DFE824
:104C200000F00505052D334A05052D3394F82800BD
:104C300040F0010084F828000599A069059B014413
:104C40002046FFF7A7FF68B3216A2046884794F8FB
:104C5000280040073BD5002000900598A16900235B
:104C600042181946204601F0B9F8D8B9502080F30F
:104C70001188BFF34F8FBFF36F8FFEE714F8280F33
:104C800020F00100207022E094F8280040F001009C
:104C900084F828000598A06128B1811813462046A1
:104CA000FFF778FF13E0502080F31188BFF34F8F98
:104CB000BFF36F8FFEE794F82800810703D42046E6
:104CC00000F03AFA03E020F0010084F82800002206
:104CD00004A9286800F0D2FD002889D109B030BDB0
:104CE000B80000202DE9FC410F46054600F074FB9A
:104CF00001A800F067F80446019818B100F0DCFF45
:104D0000BDE8FC81254EAFB130690068D0B3002703
:104D1000291B3A46306800F091FA00F0CDFF0028D8
:104D2000EED11F494FF080500860BFF34F8FBFF3A3
:104D30006F8FE5E7A542EBD800F0BEFFF06827468D
:104D4000C068C468201D00F067F994F82800410786
:104D500019D5A0692B4641193A462046FFF71AFF9C
:104D6000A8B100200346014600902A46204601F0E3
:104D700035F860B9502080F31188BFF34F8FBFF32F
:104D80006F8FFEE707E020F0010084F82800216A19
:104D900020468847B4E70127BAE70000B8000020A2
:104DA00004ED00E00648416B096829B1416BC96810
:104DB000C9684968816270474FF0FF31FAE7000027
:104DC0007C00002070B5054600F094FE064E0446B7
:104DD000B068844203D200F009F8012000E000200E
:104DE00028602046B46070BDB8000020F8B5194DA9
:104DF00020E0C068C4680668201D00F00DF9216A33
:104E00002046884794F82800400713D5A06930440D
:104E1000B04206D924616060211DE86800F034F9D1
:104E200008E000200346014600903246204600F08C
:104E3000D5FF38B1E86801680029DAD12969C5E9E8
:104E40000310F8BD502080F31188BFF34F8FBFF3DC
:104E50006F8FFEE7B800002008484068401C4FF004
:104E6000500080F3118804D0BFF34F8FBFF36F8FD2
:104E7000FEE7BFF34F8FBFF36F8FFEE7F000002018
:104E8000074CE068016841B1C0680021D0F800001B
:104E9000FFF728FFFFF7A8FEF3E701210020F7E75F
:104EA000B80000202DE9F041044600F011F994F912
:104EB000455004F1240609E0606A48B1304600F02C
:104EC000C3FE08B100F00AFA6D1E6DB2002DF3DCCE
:104ED0004FF0FF3684F8456000F01AF900F0F8F85A
:104EE00094F9445004F1100709E0206948B13846AC
:104EF00000F0AAFE08B100F0F1F96D1E6DB2002DB0
:104F0000F3DC84F84460BDE8F04100F001B9000032
:104F10002DE9F0410546002700F05EFA324E306878
:104F200008B9FFF751FD706905424ED1C5B3083588
:104F300068070ED005F00700C0F1080005446807B7
:104F400007D0502080F31188BFF34F8FBFF36F8FCE
:104F5000FEE72DB37068854237D8234818300146E4
:104F60000C6801E020460C466168A94202D2216823
:104F70000029F7D131688C4227D007682168016089
:104F800060680837411B10290FD96019420708D003
:104F9000502080F31188BFF34F8FBFF36F8FFEE770
:104FA00013E041606560FFF7CFFD61687068401AEB
:104FB0007060B268904200D2B06070690143002016
:104FC000C4E90001F068401CF06000F075FE78074D
:104FD00007D0502080F31188BFF34F8FBFF36F8F3E
:104FE000FEE73846BDE8F081D000002010B5031F71
:104FF0004FF080741C601B1F21F001011960191F04
:10500000044B0B6014390A60091F6FF00202443828
:105010000A6010BD594E0008D0E9013201699A605A
:10502000D0E901235A604A68824201D182684A600D
:10503000002202610868401E08600868704700008E
:10504000034B036003F15C00086080201060704730
:10505000E40B0020044B036003F15C0008604FF494
:105060008070106070470000400E002000F10801C1
:105070004FF0FF32C0E90112C160016100210160FF
:10508000704700210161704730B50B685A1C02D08F
:1050900000F1080202E0026904E022465468256833
:1050A0009D42FAD953684B6099608A6051600861EB
:1050B0000168491C016030BD42684A6093688B609A
:1050C00093685960916008610168491C01607047EC
:1050D000502080F31188BFF34F8FBFF36F8F0A49C1
:1050E0004868401C486001280CD10848006810F04E
:1050F000FF0F07D0502080F31188BFF34F8FBFF30D
:105100006F8FFEE770470000F000002004ED00E024
:105110000849486828B1401E486001D180F31188D1
:105120007047502080F31188BFF34F8FBFF36F8F0C
:10513000FEE70000F000002070B500282AD0164DD0
:10514000A0F1080460686969084207D1502080F323
:105150001188BFF34F8FBFF36F8FFEE722683AB11C
:10516000502080F31188BFF34F8FBFF36F8FFEE79E
:105170008843606000F030F96068696808446860DE
:105180002046FFF7E1FC2869401C2861BDE870401B
:1051900000F092BD70BD0000D00000204FF0E02074
:1051A00000210161816105494FF47A720968B1FB00
:1051B000F2F1491E41610721016170473C00002066
:1051C00010B5FBF749F8114910280ED300F1E02083
:1051D00090F8F0030A78904207D2502080F31188AB
:1051E000BFF34F8FBFF36F8FFEE7094800688968F0
:1051F00000F4E060884207D9502080F31188BFF3A3
:105200004F8FBFF36F8FFEE710BD0000F00000204E
:105210000CED00E010B5084B002200BF53F83240FF
:105220001CB1521C082AF9D310BD43F8321003EB0D
:10523000C201486010BD0000C805002070B51546C9
:105240000E460446FFF744FF94F944100020491C21
:1052500001D184F8440094F94510491C01D184F827
:105260004500FFF755FFA06B28B92A46314604F1E7
:10527000240000F051F82046BDE87040FFF712BE50
:1052800010B5020014D00F48006B38B1502080F3E5
:105290001188BFF34F8FBFF36F8FFEE700F09CF8CC
:1052A00000211046FFF76AFA00F006FD002807D13A
:1052B00005494FF080500860BFF34F8FBFF36F8FE9
:1052C00010BD00007C00002004ED00E002490A6AE5
:1052D0000260C968416070477C00002001490120DC
:1052E000C86170477C00002010B50C4650B10949D8
:1052F00009681831FFF7C8FE2046BDE810400121BB
:10530000FFF73CBA502080F31188BFF34F8FBFF3F3
:105310006F8FFEE77C00002070B514460D4668B123
:105320000A4909681831FFF7C7FE0CB14FF0FF3585
:1053300021462846BDE87040FFF720BA502080F390
:105340001188BFF34F8FBFF36F8FFEE77C00002003
:1053500030B587B00024039405AA04A903A80494D7
:10536000FFF76EFEDDE903010094CDE90110002393
:1053700015A11748059A00F084FB164D0028E86235
:105380001FD000F0FBFC012809D0401C19D150208F
:1053900080F31188BFF34F8FBFF36F8FFEE750206C
:1053A00080F31188BFF34F8FBFF36F8F4FF0FF3043
:1053B000A86201206861EC6007B0BDE8304000F0F1
:1053C00045B807B030BD000049444C45000000001E
:1053D000154A00087C0000200248016B491C01634B
:1053E000704700007C000020164810B5016B11B119
:1053F0000121C16110BD0021C1610169124A01E0B2
:10540000B9B1491E01EB810352F82330002BF7D0CC
:1054100001EB810302EB830202F1080453685B682D
:105420005360A34201D15B685360DA680260016196
:1054300010BD502080F31188BFF34F8FBFF36F8FE3
:10544000FEE700007C000020080600201CB537485D
:105450000168374A914207D1502080F31188BFF389
:105460004F8FBFF36F8FFEE700683149491E8842B6
:1054700007D1502080F31188BFF34F8FBFF36F8F98
:10548000FEE72C4908780190FF20087008788DF815
:1054900000009DF800009DF8002000F0F000904210
:1054A00007D0502080F31188BFF34F8FBFF36F8F69
:1054B000FEE79DF80000204C00F05000207007200F
:1054C000A06005E09DF8002052008DF80020401EED
:1054D0009DF800201206F5D4A060032807D05020C4
:1054E00080F31188BFF34F8FBFF36F8FFEE74FF448
:1054F0004070A060019808700C482030016841F4A9
:1055000070010160016841F070410160FFF746FEE3
:1055100000206060FAF768FE0848016841F04041E9
:105520000160FAF74DFE00201CBD000000ED00E018
:1055300071C20F4100E400E0F000002034EF00E011
:1055400010B5502080F31188BFF34F8FBFF36F8FDA
:1055500000F0D6FA18B104494FF0805008600020DE
:1055600080F3118810BD000004ED00E038B5049D03
:1055700018B153B1CAB181B120E0502080F3118835
:10558000BFF34F8FBFF36F8FFEE7502080F311887A
:10559000BFF34F8FBFF36F8FFEE7502080F311886A
:1055A000BFF34F8FBFF36F8FFEE739B1502080F309
:1055B0001188BFF34F8FBFF36F8FFEE750241C4657
:1055C000012384F846302B460094FFF753FA204617
:1055D00038BD000070B50D46040025D0FFF778FDFA
:1055E000D4E90F20216802FB0011A1600021A16312
:1055F000216861600A46D4E90F01401E00FB0121C9
:10560000E16021464FF0FF3001F8440F487004F18B
:1056100010008DB1FFF72AFD04F12400FFF726FDED
:10562000FFF776FD012070BD502080F31188BFF395
:105630004F8FBFF36F8FFEE721690029F0D000F094
:1056400003FB0028ECD004494FF080500860BFF302
:105650004F8FBFF36F8FE3E704ED00E02DE9FF47C5
:1056600082B01D468A464FF00008040003D0BAF10C
:10567000000F08D011E0502080F31188BFF34F8F46
:10568000BFF36F8FFEE7206C38B1502080F3118894
:10569000BFF34F8FBFF36F8FFEE7022D0AD1E06B90
:1056A000012807D0502080F31188BFF34F8FBFF33C
:1056B0006F8FFEE700F010FA3F4F4FF000094FF0F8
:1056C000805648B9049838B1502080F31188BFF350
:1056D0004F8FBFF36F8FFEE7FFF7FAFCA06BE16B14
:1056E000884207D3022D05D00498D0B1B8F1000F3D
:1056F0001AD01EE02A4651462046FFF714F9616A87
:1057000019B104F1240000F09FFA20B13E60BFF30C
:105710004F8FBFF36F8FFFF7FBFC012006B0BDE892
:10572000F087FFF7F5FC22E06846FFF7CFFD4FF06A
:105730000108FFF7EDFCFFF74FFEFFF7C9FC94F9F6
:105740004400401C01D184F8449094F94500401C69
:1057500001D184F84590FFF7DBFC04A9684600F00E
:1057600029F930B12046FFF79DFB00F0A5FA002093
:10577000D4E7FFF7ADFCA06BE16B884213D1FFF7D4
:10578000C7FC04F110000499FFF7AEFD2046FFF7B7
:1057900089FB00F091FA00289ED13E60BFF34F8F45
:1057A000BFF36F8F98E7FFF7B3FC2046FFF77AFB54
:1057B00000F082FA90E7000004ED00E02DE9F047E8
:1057C0001F4690468946040003D0B9F1000F08D067
:1057D00011E0502080F31188BFF34F8FBFF36F8F1C
:1057E000FEE7206C38B1502080F31188BFF34F8F53
:1057F000BFF36F8FFEE7022F0AD1E06B012807D0BD
:10580000502080F31188BFF34F8FBFF36F8FFEE7F7
:10581000FFF7D6FC5020EFF3118680F31188BFF319
:105820004F8FBFF36F8FA06BE16B884206D3022FBF
:1058300004D0002086F31188BDE8F08794F9455024
:10584000A06B3A4649462046FFF76DF8681C04D025
:105850006D1C84F845500120ECE7606A0028FAD0FE
:1058600004F1240000F0F0F90028F4D0B8F1000FA2
:10587000F1D00121C8F80010EDE700002DE9F7474D
:10588000002683B08A46040003D0BAF1000F08D086
:1058900011E0502080F31188BFF34F8FBFF36F8F5B
:1058A000FEE7206C38B1502080F31188BFF34F8F92
:1058B000BFF36F8FFEE700F00FF9DFF8F4804FF0D1
:1058C00000094FF0805748B9059838B1502080F34F
:1058D0001188BFF34F8FBFF36F8FFEE7FFF7F8FB21
:1058E000A56BC5B151462046FFF70AF86D1EA563AA
:1058F000206950B104F1100000F0A6F928B1C8F8F1
:105900000070BFF34F8FBFF36F8FFFF701FC0120D3
:1059100006B0BDE8F087059808B11EB106E0FFF7B4
:10592000F7FB27E06846FFF7D1FC0126FFF7F0FB05
:10593000FFF752FDFFF7CCFB94F94400401C01D166
:1059400084F8449094F94500401C01D184F84590B6
:10595000FFF7DEFB05A9684600F02CF8002820467A
:105960000AD0FFF79FFA00F0A7F92046FFF72EF9BB
:105970000028B3D00020CBE7FFF728F990B104F15D
:1059800024000599FFF7B0FC2046FFF78BFA00F0E2
:1059900093F90028A2D1C8F80070BFF34F8FBFF36E
:1059A0006F8F9BE72046FFF77DFA00F085F995E7BA
:1059B00004ED00E02DE9F0410C46050011D0C4B122
:1059C000FFF786FB174BDA686E682068911B471C4F
:1059D00017D02F681B6A9F4219D0964217D801240E
:1059E00010E0502080F31188BFF34F8FBFF36F8F0B
:1059F000FEE7502080F31188BFF34F8FBFF36F8F06
:105A0000FEE70024FFF784FB2046BDE8F0818842D2
:105A100005D9401A20602846FFF758FCF1E700201E
:105A20002060DCE77C0000202DE9FF5F8346DDE994
:105A30000E87994616468A469000FFF769FA0500D8
:105A40001CD05C20FFF764FA040014D0002025630A
:105A500084F85900CDE90240CDE900874B46324633
:105A600051465846FFF718F82046FEF7B5FE0120CC
:105A700004B0BDE8F09F2846FFF75EFB4FF0FF3013
:105A8000F6E7F0B585B0DDE90B640A9DA6B1DCB19F
:105A90005C2700972663022684F85960002604AF2D
:105AA000CDE90246CDE90057FEF7F6FF2046FEF7A6
:105AB00093FE049805B0F0BD502080F31188BFF329
:105AC0004F8FBFF36F8FFEE7502080F31188BFF335
:105AD0004F8FBFF36F8FFEE70548416919B1006B27
