:020000040800F2
:10000000A80B002439030008B74200089F400008ED
:10001000B342000845050008315600080000000002
:1000200000000000000000000000000085450008FE
:100030004905000800000000BB4200088745000891
:100040005F0300085F0300085F0300085F03000808
:100050005F0300085F0300085F0300085F030008F8
:100060005F0300085F0300085F0300085F030008E8
:100070005F0300085F0300085F0300085F030008D8
:100080005F0300085F0300085F0300085F030008C8
:100090005F0300085F0300085F0300085F030008B8
:1000A0005F0300085F0300085F0300085F030008A8
:1000B0005F0300085F0300085F0300085F03000898
:1000C0005F0300085F0300085F0300085F03000888
:1000D0005F030008E15500085F0300085F030008A4
:1000E0005F0300085F030008000000005F030008D2
:1000F0005F0300085F0300085F0300085F03000858
:100100005F0300085F0300085F0300085F03000847
:100110005F0300085F0300085F0300085F03000837
:100120005F0300085F0300085F0300085F03000827
:100130005F0300085F0300085F0300085F03000817
:1001400000000000000000000000000000000000AF
:100150005F0300085F0300085F0300085F030008F7
:100160005F0300085F0300085F0300085F030008E7
:100170005F0300085F0300085F0300080000000041
:100180005F0300085F0300085F0300085F030008C7
:100190005F0300085F0300085F0300085F030008B7
:1001A0005F0300085F0300085F0300085F030008A7
:1001B0005F0300085F0300085F0300085F03000897
:1001C0005F0300085F0300085F0300085F03000887
:1001D0005F0300085F0300085F0300085F03000877
:1001E0005F0300085F0300085F0300085F03000867
:1001F0005F0300085F0300085F0300085F03000857
:100200005F0300085F0300085F0300085F03000846
:100210005F0300085F0300085F0300085F03000836
:100220005F0300085F0300085F0300080000000090
:100230005F0300085F030008000000005F03000880
:100240005F0300085F0300085F0300085F03000806
:100250005F0300085F0300085F0300085F030008F6
:100260005F0300085F0300085F0300085F030008E6
:100270005F0300085F0300085F0300080000000040
:100280005F0300085F0300085F0300080000000030
:10029000000000005F03000800F002F800F03CF8E6
:1002A0000AA090E8000C82448344AAF10107DA45D1
:1002B00001D100F031F8AFF2090EBAE80F0013F0E7
:1002C000010F18BFFB1A43F0010318476CC300006D
:1002D0008CC30000103A24BF78C878C1FAD85207FE
:1002E00024BF30C830C144BF04680C6070470000B0
:1002F0000023002400250026103A28BF78C1FBD82F
:10030000520728BF30C148BF0B6070471FB509F0C6
:10031000B9F91FBD10B510BD00F0E2F81146FFF7A6
:10032000F5FF08F073FE00F000F903B4FFF7F2FFE9
:1003300003BC05F09BF90000DFF83000016841F4D0
:10034000700101600A4880470A480047FEE7FEE75F
:10035000FEE7FEE7FEE7FEE7FEE7FEE7FEE7FEE775
:1003600005480649044A064B7047000088ED00E046
:100370009145000899020008A8030024A80B002456
:10038000A8030024704753EA020C00F069802DE9AD
:10039000F04B4FF00006002B1FBFB3FA83F503FAB2
:1003A00005F424FA05F65E4012BF1643B2FA82F550
:1003B00002FA05F4C5F120051EBF22FA05FC44EA45
:1003C0000C04203556EA044C4FEA144418BF641C50
:1003D0004FF000084FF00009904271EB030C39D345
:1003E000002919BFB1FA81F701FA07F6B0FA80F7D0
:1003F00000FA07F6C7F120071EBF20FA07FC46EAFD
:100400000C062037B6FBF4FCA7EB0507103F07F0FE
:100410001F0BCBF120060CFA0BFB2CFA06F644BF9F
:10042000B3460026202FA4BF5E464FF0000B5BEAC8
:10043000060C08BF4FF0010B19EB0B09ABFB027C5C
:1004400048EB0608C01B06FB02CC0BFB03CC71EB90
:100450000C01C1E70B46024641464846BDE8F08B19
:1004600013B54FF000004FF00001AFF30080BDE87E
:100470001C40704710B5203AC0F00B80B1E818500E
:10048000203AA0E81850B1E81850A0E81850BFF47E
:10049000F5AF5FEA027C24BFB1E81850A0E818501D
:1004A00044BF18C918C0BDE810405FEA827C24BF71
:1004B00051F8043B40F8043B08BF7047D20728BFFF
:1004C00031F8023B48BF11F8012B28BF20F8023B4E
:1004D00048BF00F8012B704770477047704770475E
:1004E000754600F02BF8AE4605006946534620F0ED
:1004F0000700854618B020B5FFF732FFBDE8204061
:100500004FF000064FF000074FF000084FF0000BCF
:1005100021F00701AC46ACE8C009ACE8C009ACE882
:10052000C009ACE8C0098D46704710B50446AFF36A
:1005300000802046BDE81040FFF7F7BE0048704736
:100540004803002400BFFEE77047000070B5044672
:10055000B3F5804F13D1D1E9000540EA05108D684D
:1005600040EA05208D6928438D8940EA054054F80A
:100570002250064E3540284344F8220003E06FF035
:10058000704044F82200002070BD00000000F0CF51
:1005900070B50246086852F8200020F001000E688D
:1005A00042F826008868082801D1402500E000258F
:1005B000486828438E683043CE6830430E69304324
:1005C0004E6930438E693043CE6930430E6A304302
:1005D0004E6A30438E6A3043CE6A40EA0603086BA7
:1005E0000343486B0343886B0343114C44F480146A
:1005F00044F4001444F4E024086852F82000A043B6
:1006000018430E6842F82600086BB0F5801F07D12A
:10061000086828B1106820F480100E6B3043106019
:10062000086818B110684E6B30431060002070BD30
:100630007FFB080030B50346D1E9000540EA05100C
:100640008D6840EA05208D8940EA0545088A401EEC
:1006500045EA0055087D801E45EA00608D69284303
:10066000551C53F8255005F040452843551C43F8C8
:100670002500186800F48010B0F5801F0BD1586871
:1006800020F47004088A401E44EA0054586820F49C
:10069000700020435860002030BD02460868B0B9A1
:1006A000D1E901031843CB6818430B6918434B6920
:1006B00018438B691843CB6918430B6A18434B6A7C
:1006C000184313686FF30E031843106019E0D1E963
:1006D000070318434B6A1843136823F4F84318437D
:1006E0001060D1E901031843CB6818430B69184324
:1006F0004B6918438B69184353686FF30E03184313
:100700005060002070470246506943F6FE739843DC
:1007100040EA410050610020704710B50346D1E91E
:10072000000420438C68641E40EA4410CC6840EA10
:1007300044201C696FF3150420431861002010BD8C
:1007400030B50346FAB90868401E4C68641E40EA9A
:1007500004148868401E44EA0024C868401E44EA25
:100760000034088A401E44EA0044888A401E44EA55
:100770000054087E401E44EA00609C6804F0704407
:100780002043986022E0C868401E0403888A401E07
:1007900044EA00509C680E4D2C4020439860086845
:1007A000401E4C68641E40EA04148868401E44EAF7
:1007B0000024088A401E44EA0044087E401E44EAA1
:1007C0000060DC6804F070442043D860002030BD35
:1007D000FF0F0FFF2DE9F041044600F05BFD80465E
:1007E00014B90120BDE8F08194F83500022808D042
:1007F0008020606500BF002084F8340000BF012025
:10080000F0E7FE492068884249D0FC491831206849
:10081000884244D0F9493031206888423FD0F749B6
:100820004831206888423AD0F449603120688842D3
:1008300035D0F24978312068884230D0EF49903184
:10084000206888422BD0ED49A8312068884226D004
:10085000EB492068884222D0E94918312068884253
:100860001DD0E74930312068884218D0E44948312A
:100870002068884213D0E2496031206888420ED057
:10088000DF4978312068884209D0DD4990312068FD
:10089000884204D0DA49A8312068884201D1012079
:1008A00000E0002068B12068006820F01E00216888
:1008B00008602068406920F0800021684861256850
:1008C00006E02068006820F00E00216808602568B6
:1008D000CA492068884270D0C849183120688842C7
:1008E0006BD0C64930312068884266D0C349483150
:1008F0002068884261D0C1496031206888425CD05C
:10090000BE4978312068884257D0BC499031206870
:10091000884252D0B949A831206888424DD0B849A0
:100920002068884249D0B64918312068884244D0AE
:10093000B3493031206888423FD0B14948312068FE
:1009400088423AD0AE4960312068884235D0AC49FF
:1009500078312068884230D0A94990312068884297
:100960002BD0A749A8312068884226D0A549206805
:10097000884222D0A3491431206888421DD0A14961
:1009800028312068884218D09E493C31206888422E
:1009900013D09C495031206888420ED09949643167
:1009A0002068884209D0974978312068884204D06D
:1009B00094498C312068884201D1012000E0002058
:1009C00028B1206E006820F48070216E08608B4989
:1009D0002068884249D0894918312068884244D02B
:1009E00086493031206888423FD0844948312068A8
:1009F00088423AD0814960312068884235D07F49A9
:100A000078312068884230D07C4990312068884213
:100A10002BD07A49A8312068884226D078492068AE
:100A2000884222D076491831206888421DD0744906
:100A300030312068884218D0714948312068884296
:100A400013D06F496031206888420ED06C497831EC
:100A50002068884209D06A4990312068884204D0D1
:100A60006749A8312068884206D12068006820F0D4
:100A700001002168086005E02068006820F001009E
:100A80002168086011E000F005FCA0EB08000528D3
:100A90000BD920206065032084F8350000BF0020BA
:100AA00084F8340000BF01209CE6286800F00100B3
:100AB0000028E8D151492068884249D04F4918316F
:100AC0002068884244D04D493031206888423FD068
:100AD0004A494831206888423AD048496031206804
:100AE000884235D0454978312068884230D0434922
:100AF0009031206888422BD04049A8312068884234
:100B000026D03F492068884222D03D4918312068CC
:100B100088421DD03A4930312068884218D038497F
:100B200048312068884213D03549603120688842B6
:100B30000ED0334978312068884209D0304990314D
:100B40002068884204D02E49A8312068884201D10B
:100B5000012000E0002040B1A66D94F85C0000F098
:100B60001F013F208840B06007E0A76D94F85C004B
:100B700000F01F01012088407860204920688842E9
:100B800076D01E4918312068884271D01B49303117
:100B9000206888426CD0194948312068884267D063
:100BA000164960312068884262D014497831206843
:100BB00088425DD0114990312068884258D00F4951
:100BC000A8312068884253D00D49206888424FD010
:100BD0000B491831206888424AD0094930312068D1
:100BE000884245D0064948312068884240D00449AF
:100BF0006031206888423BD0014905E01000024086
:100C000010040240085402587831206888422FD0DE
:100C10002549206888422BD0234918312068884212
:100C200026D022492068884222D0204914312068E9
:100C300088421DD01D4928312068884218D01B49A0
:100C40003C312068884213D01849503120688842CE
:100C50000ED0164964312068884209D01349783192
:100C60002068884204D011498C312068884201D123
:100C7000012000E0002068B1D4E919104860E06E5E
:100C800040B1E06E006820F48070E16E0860D4E945
:100C90001C104860012084F8350000BF002084F853
:100CA000340000BF00BF9DE5A00402400854025874
:100CB00070B504460CB9012070BD94F835000228C7
:100CC00003D0802060650120F6E7DC492068884277
:100CD00049D0DA4918312068884244D0D7493031A8
:100CE000206888423FD0D5494831206888423AD0B0
:100CF000D24960312068884235D0D04978312068A7
:100D0000884230D0CD499031206888422BD0CB49E1
:100D1000A8312068884226D0C9492068884222D05C
:100D2000C7491831206888421DD0C5493031206834
:100D3000884218D0C24948312068884213D0C0493F
:100D40006031206888420ED0BD49783120688842E1
:100D500009D0BB4990312068884204D0B849A831F5
:100D60002068884201D1012000E00020F0B3042077
:100D700084F83500B149206888424BD0AF4918311A
:100D80002068884246D0AD4930312068884241D041
:100D9000AA494831206888423CD0A849603120687F
:100DA000884237D0A54978312068884232D0A3499B
:100DB0009031206888422DD0A049A831206888420F
:100DC00028D09F492068884224D09D491831206846
:100DD00088421FD09A493031206888421AD09849F9
:100DE00048312068884215D0954900E020E0603104
:100DF000206888420ED0924978312068884209D014
:100E00008F4990312068884204D08D49A8312068EC
:100E1000884206D12068006820F00100216808603F
:100E200009E12068006820F001002168086002E103
:100E30002068006820F00E00216808607F49206863
:100E4000884249D07D4918312068884244D07B4986
:100E50003031206888423FD0784948312068884244
:100E60003AD0764960312068884235D0734978316C
:100E70002068884230D071499031206888422BD058
:100E80006E49A8312068884226D06D492068884282
:100E900022D06B491831206888421DD06849303112
:100EA0002068884218D0664948312068884213D0AB
:100EB00063496031206888420ED0614978312068EA
:100EC000884209D05E4990312068884204D05C494C
:100ED000A8312068884206D12068006820F001000F
:100EE0002168086005E02068006820F001002168A2
:100EF000086052492068884270D0504918312068F3
:100F000088426BD04D4930312068884266D04B49C9
:100F100048312068884261D0484960312068884261
:100F20005CD0464978312068884257D04349903197
:100F30002068884252D04149A831206888424DD06B
:100F40003F492068884249D03D491831206888428D
:100F500044D03B493031206888423FD0384948313D
:100F6000206888423AD0364960312068884235D0BE
:100F7000334978312068884230D031499031206837
:100F800088422BD02E49A8312068884226D02D498E
:100F90002068884222D02B491431206888421DD015
:100FA000284928312068884218D026493C312068D9
:100FB000884213D023495031206888420ED02149FD
:100FC00064312068884209D01E49783120688842FF
:100FD00004D01C498C312068884201D1012000E0F6
:100FE0000020D8B1206E006820F48070216E086067
:100FF000A56D94F85C0000F01F0101208840686036
:10100000D4E919104860E06E40B1E06E006820F449
:101010008070E16E0860D4E91C104860012084F8FB
:10102000350000BF002084F8340000BF206D10B1EF
:101030002046216D884700203EE600001000024057
:1010400010040240085402580348006840F00100B0
:10105000014908607047000020040058F8B50246B6
:101060000B4600216F4DD7E001278F401E6806EA2E
:101070000704002C72D01E7906F00306012E04D05E
:101080001E7906F00306022E13D190684F00032646
:10109000BE40B0434F00DE68BE40304390605068B1
:1010A00001268E40B0431E79C6F300168E403043B1
:1010B00050601E7906F00306032E09D0D0684F0059
:1010C0000326BE40B0434F009E68BE403043D06010
:1010D0001E7906F00306022E13D1CF0802F1200676
:1010E00056F827004E07F70E0F26BE40B0434F07B5
:1010F000FF0E1E69BE403043CF0802F1200646F8BD
:10110000270010684F000326BE40B0431E7906F04A
:1011100003064F00BE40304310605E6806F4403660
:10112000002E78D000BF404E366846F002063E4F93
:101130003E603E46366806F00206009600BF00BFDD
:101140003A4E8F0856F827008E07370F0F26BE40FD
:10115000B043374EB24202D100262EE05BE0354E5E
:10116000B24201D1012628E0334EB24201D102261B
:1011700023E0324EB24201D103261EE0304EB2428D
:1011800001D1042619E02F4EB24201D1052614E008
:101190002D4EB24201D106260FE02C4EB24201D1B3
:1011A00007260AE02A4EB24201D1082605E0294E60
:1011B000B24201D1092600E00A268F073F0FBE4048
:1011C00030431A4E8F0846F827004FF0B04630687B
:1011D000A0435E6806F4801606B120434FF0B04687
:1011E00030607068A0435E6806F4001606B12043C4
:1011F0004FF0B04670606868A0435E6806F4003641
:1012000006B1204368602868A0435E6806F4803613
:1012100006B120432860491C1E68CE40002E7FF492
:1012200023AFF8BD80000058F44402580804005869
:10123000000002580004025800080258000C02582E
:10124000001002580014025800180258001C0258DE
:101250000020025800240258024613690B400BB1CB
:10126000012000E00020704710B5426921EA020326
:1012700002EA010443EA0443836110BD0AB18161BB
:1012800001E00B048361704701480068000C70475F
:101290000010005C01480068704700001400002442
:1012A0000348006803490978084401490860704709
:1012B000140000241C00002410B5052000F002FBDF
:1012C00001F0ECFC10490968C1F303210F4A515C9D
:1012D00001F01F0120FA01F40B48006800F00F0034
:1012E0001146085C00F01F0024FA00F0084908606D
:1012F000084804600F2000F00FF808B1012010BD6D
:1013000000F08EFA0020FAE7184402588E96000882
:10131000040000240000002470B504461148007841
:1013200008B9012070BD0F4800784FF47A71B1FB05
:10133000F0F00D490968B1FBF0F5284602F040FBDA
:1013400008B10120EEE7102C07D200222146501EE2
:1013500000F07BFA0548046001E00120E2E700208C
:10136000E0E700001C000024000000241800002416
:1013700070B504460E46154600BF94F8A00001283B
:1013800001D1022070BD012084F8A00000BF02201E
:1013900084F8A10005EB850101EBC50204F13801D9
:1013A00001EB820034223146FFF764F82A463146C9
:1013B000204602F076FE01202168486284F8A100F0
:1013C00000BF002084F8A00000BF00BFDAE70000E3
:1013D00070B504460CB9012070BD94F8A10028B97D
:1013E000002084F8A000204600F07EF8022084F857
:1013F000A1002068806920F0704021688861D4E9EC
:1014000001010843E16808432169084321688969AB
:101410000843216888612068806832490840216853
:101420008860A08A050420688068A1692943084370
:10143000216888602068C0682A4908402168C8601F
:10144000A08B05042068C068216A294308432168ED
:10145000C860206800692349084021680861A08CA1
:10146000050420680069A16A2943084321680861CE
:10147000206840691B49084021684861A08D050427
:1014800020684069216B294308432168486194F82A
:101490003500050294F8360006042068C06A00F0A2
:1014A0007F402168C86246EA050094F8341008437A
:1014B0002168C96A08432168C8622068406B40F00F
:1014C0000600216848632068806940F001002168B7
:1014D00088610020C4F8A400012084F8A100002045
:1014E0007AE7000000F800F010B586B0044600BFAF
:1014F0005D48006840F008005B49086008460068E5
:1015000000F00800009000BF00BF00BF5648103830
:10151000006840F01000544910390860084600681F
:1015200000F01000009000BF00BF00BF00BF4E4899
:10153000001F006840F002004B49091F0860084680
:10154000006800F00200009000BF00BF00BF00BFB5
:1015500000BF0846006840F02000086008460068A8
:1015600000F02000009000BF00BF00BF00BF00BF20
:101570000846006840F4807008600846006800F47F
:101580008070009000BF00BF00BF00BF00BF0846D2
:10159000006840F4807008600846006800F48070BD
:1015A000009000BF00BF00BF00BF00BF084600683A
:1015B00040F0400008600846006800F040000090DD
:1015C00000BF00BF00BF00BF0846006840F08000B9
:1015D00008600846006800F08000009000BF00BF6F
:1015E000202001900120029003900320049001A983
:1015F0001E48FFF733FD4FF48060019002200290F7
:1016000000200390032004900E20059001A91848A3
:10161000FFF724FD4FF40070019001A91548FFF772
:101620001DFD4FF48060019001A91248FFF716FDDF
:101630008020019001A91048FFF710FD4FF40460CD
:10164000019001A90C48FFF709FD4FF47E4001907D
:1016500001A90A48FFF702FDF720019001A90548FA
:10166000FFF7FCFC06B010BDE44402580004025829
:10167000001402580020025800180258001C02589A
:101680002DE9F04104460E461746984600BF94F8EF
:10169000A000012802D10220BDE8F081012084F8D9
:1016A000A00000BF022084F8A10008EB880000EB36
:1016B000C80104F1380000EB81052E60A86A3044AF
:1016C0006860AF60E86A3844E860424629462046D0
:1016D00002F0E7FC01202168486284F8A10000BF05
:1016E000002084F8A00000BF00BFD5E72DE9F0413D
:1016F00004460E461746984600BF94F8A0000128FD
:1017000002D10220BDE8F081012084F8A00000BFD2
:10171000022084F8A10008EB880000EBC80104F166
:10172000380000EB8105286830446860A8683844B8
:10173000E860AE62EF6242462946204602F0B1FC04
:1017400001202168486284F8A10000BF002084F8CD
:10175000A00000BF00BFD5E74178154A11600178AD
:10176000F9B1121D41681160017B0907C27A41EA93
:101770000261827A41EAC241427B41EA8241827B34
:1017800041EA4241C27B41EA0241427A41EA0221F6
:10179000027A41EA420102781143054A0832116097
:1017A00005E00021024A121D1160121D11607047F0
:1017B00098ED00E000BF00BF00BFBFF35F8F00BF28
:1017C00000BF00BF0548006820F48030034908606E
:1017D00000200249703108607047000024ED00E0ED
:1017E00040F001010D4A11600C497039096841F45B
:1017F00080310A4A703A116000BF00BF00BFBFF3DA
:101800004F8F00BF00BF00BF00BF00BF00BFBFF3CE
:101810006F8F00BF00BF00BF7047000094ED00E075
:1018200070470146084600280DDB00BF00BF00F0EE
:101830001F0301229A4043099B0003F1E023C3F8F0
:10184000002100BF00BF00BF70472DE9F05F804658
:101850000D46164603F0EEFE074639462A46334645
:1018600001F00700C0F1070ABAF1040F02D94FF0E6
:10187000040A01E0C0F1070AD14600F1040ABAF1F6
:10188000070F02D24FF0000A01E0A0F1030AD4468C
:101890004FF0010A0AFA09FAAAF1010A0AEA020A51
:1018A0000AFA0CFA4FF0010B0BFA0CFBABF1010B2F
:1018B0000BEA030B4AEA0B042146404603F0C2FE42
:1018C000BDE8F09F00BF00F00702064B19684FF615
:1018D000FF031940044B0B4343EA0221014B1960FB
:1018E00000BF70470CED00E00000FA0503480068F7
:1018F00040F0807001490860704700000C480258B1
:1019000010B501F081F905490968C1F30211044AD3
:10191000515C01F01F01C84010BD00002044025876
:101920008E96000870B50146844D2D6805F00303BE
:10193000824D2D68C5F30530804D2D1D2D68C5F3F2
:1019400000147E4D14352D68C5F3CC0515FB04F548
:1019500001EE105AB8EE411AF0EE410A00286FD09D
:1019600023B1012B4ED0022B6BD16BE0734D283D80
:101970002D68C5F340153DB3704D283D2D68C5F366
:10198000C1066F4D25FA06F201EE102AF8EE411A53
:1019900001EE100AB8EE411A81EE812A9FED691A14
:1019A000C0EE811A654D10352D68C5F3080501EEAE
:1019B000105AB8EE411A31EE811AF7EE001A31EEE4
:1019C000211A22EE010A1CE001EE100AB8EE411ABB
:1019D000DFED5D1A81EE812A9FED5A1AC0EE811A61
:1019E000564D10352D68C5F3080501EE105AB8EEB6
:1019F000411A31EE811AF7EE001A31EE211A22EE69
:101A0000010A5BE001EE100AB8EE411ADFED4F1A51
:101A100081EE812A9FED4B1AC0EE811A474D103599
:101A20002D68C5F3080501EE105AB8EE411A31EEE3
:101A3000811AF7EE001A31EE211A22EE010A3DE07A
:101A400077E01DE001EE100AB8EE411A9FED402A42
:101A5000C2EE011A9FED3B1A80EE812A374D1035F8
:101A60002D68C5F3080501EE105AB8EE411A32EEA2
:101A7000011AB7EE002A31EE021A21EE810A1DE0AA
:101A800001EE100AB8EE411ADFED301A81EE812A1C
:101A90009FED2C1AC0EE811A284D10352D68C5F324
:101AA000080501EE105AB8EE411A31EE811AF7EE30
:101AB000001A31EE211A22EE010A00BF00BF1F4DAD
:101AC00010352D68C5F3462501EE105AB8EE411ABF
:101AD000F7EE001A31EE211AC0EE011ABCEEE11A3F
:101AE00081ED001A154D10352D68C5F3064501EE40
:101AF000105AB8EE411AF7EE001A31EE211AC0EE74
:101B0000011ABCEEE11A81ED011A0C4D10352D6859
:101B1000C5F3066501EE105AB8EE411AF7EE001A49
:101B200031EE211AC0EE011ABCEEE11A81ED021A63
:101B300003E000250D604D608D6070BD28440258A3
:101B40000090D003000000460024744C0024744A26
:101B500020BCBE4B70B50146844D2D6805F00303D3
:101B6000824D2D68C5F30550804D2D1D2D68C5F3A0
:101B700000247E4D1C352D68C5F3CC0515FB04F5FE
:101B800001EE105AB8EE411AF0EE410A00286FD06B
:101B900023B1012B4ED0022B6BD16BE0734D283D4E
:101BA0002D68C5F340153DB3704D283D2D68C5F334
:101BB000C1066F4D25FA06F201EE102AF8EE411A21
:101BC00001EE100AB8EE411A81EE812A9FED691AE2
:101BD000C0EE811A654D18352D68C5F3080501EE74
:101BE000105AB8EE411A31EE811AF7EE001A31EEB2
:101BF000211A22EE010A1CE001EE100AB8EE411A89
:101C0000DFED5D1A81EE812A9FED5A1AC0EE811A2E
:101C1000564D18352D68C5F3080501EE105AB8EE7B
:101C2000411A31EE811AF7EE001A31EE211A22EE36
:101C3000010A5BE001EE100AB8EE411ADFED4F1A1F
:101C400081EE812A9FED4B1AC0EE811A474D18355F
:101C50002D68C5F3080501EE105AB8EE411A31EEB1
:101C6000811AF7EE001A31EE211A22EE010A3DE048
:101C700077E01DE001EE100AB8EE411A9FED402A10
:101C8000C2EE011A9FED3B1A80EE812A374D1835BE
:101C90002D68C5F3080501EE105AB8EE411A32EE70
:101CA000011AB7EE002A31EE021A21EE810A1DE078
:101CB00001EE100AB8EE411ADFED301A81EE812AEA
:101CC0009FED2C1AC0EE811A284D18352D68C5F3EA
:101CD000080501EE105AB8EE411A31EE811AF7EEFE
:101CE000001A31EE211A22EE010A00BF00BF1F4D7B
:101CF00018352D68C5F3462501EE105AB8EE411A85
:101D0000F7EE001A31EE211AC0EE011ABCEEE11A0C
:101D100081ED001A154D18352D68C5F3064501EE05
:101D2000105AB8EE411AF7EE001A31EE211AC0EE41
:101D3000011ABCEEE11A81ED011A0C4D18352D681F
:101D4000C5F3066501EE105AB8EE411AF7EE001A17
:101D500031EE211AC0EE011ABCEEE11A81ED021A31
:101D600003E000250D604D608D6070BD2844025871
:101D70000090D003000000460024744C0024744AF4
:101D800020BCBE4B2DE9F04104460025A846206842
:101D900000F00060B0F1006F30D1606E48B1B0F576
:101DA000801F0DD0B0F5001F10D0B0F5401F15D129
:101DB00013E0F948006840F40030F74908600FE08C
:101DC0000221201D02F07AFA054609E0022104F101
:101DD000240002F025FB054602E001E0012500BFDA
:101DE00000BF55B9EC482430006820F44010616E03
:101DF0000843E9492431086000E0A846208800F43F
:101E00008070B0F5807F2DD1606D05281AD2DFE893
:101E100000F0030A10171800DF48006840F4003093
:101E2000DD49086010E00021201D02F047FA054658
:101E30000AE0002104F1240002F0F2FA054603E072
:101E400002E001E0012500BF00BF55B9D2482430AF
:101E5000006820F00700616D0843CF492431086015
:101E600000E0A846208800F40070B0F5007F33D170
:101E7000A06D802817D003DC40B140281CD10CE0B5
:101E8000C02817D0B0F5807F16D114E0C248006892
:101E900040F40030C049086010E00021201D02F02D
:101EA0000DFA05460AE0002104F1240002F0B8FA18
:101EB000054603E002E001E0012500BF00BF55B97F
:101EC000B5482430006820F4E070A16D0843B249A1
:101ED0002431086000E0A846208800F48060B0F556
:101EE000806F38D1D4F8A400B0F5800F19D004DC8D
:101EF00050B1B0F5001F1DD10DE0B0F5C00F17D0E7
:101F0000B0F5000F16D114E0A348006840F400308B
:101F1000A149086010E00021201D02F0CFF905461C
:101F20000AE0002104F1240002F07AFA054603E0F9
:101F300002E001E0012500BF00BF5DB996482C30EA
:101F4000006820F46000D4F8A410084392492C31B2
:101F5000086000E0A846208800F40060B0F5006F3B
:101F600038D1D4F8A800B0F1007F19D004DC50B10A
:101F7000B0F1807F1DD10DE0B0F1407F17D0B0F1FE
:101F8000806F16D114E08448006840F40030824924
:101F9000086010E00021201D02F090F905460AE0DB
:101FA000002104F1240002F03BFA054603E002E0C0
:101FB00001E0012500BF00BF5DB977482C30006803
:101FC00020F0E060D4F8A810084373492C31086071
:101FD00000E0A846206800F00070B0F1007F27D133
:101FE000A06CA0B1102804D0202809D030280FD12F
:101FF0000CE06948006840F400306749086009E077
:102000000221201D02F05AF9054603E002E001E03A
:10201000012500BF00BF55B95F482030006820F09F
:102020003000A16C08435C492031086000E0A846FC
:10203000208800F48050B0F5805F36D1E06DB0F5B7
:10204000005F19D004DC50B1B0F5805F1DD10DE008
:10205000B0F5405F17D0B0F5804F16D114E04E4870
:10206000006840F400304C49086010E00021201D59
:1020700002F024F905460AE0002104F1240002F0F0
:10208000CFF9054603E002E001E0012500BF00BFF3
:1020900055B941482430006820F4E040E16D084320
:1020A0003D492431086000E0A846208800F4005033
:1020B000B0F5005F34D1206EB0F5403F1DD007DC95
:1020C00068B1B0F5803F0BD0B0F5003F18D10DE0FE
:1020D000B0F5802F12D0B0F5A02F11D10FE011E094
:1020E0000121201D02F0EAF805460BE0012104F170
:1020F000240002F095F9054604E003E002E001E067
:10210000012500BF00BF55B923482430006820F4E2
:10211000E020216E084320492431086000E0A846F1
:10212000208800F48040B0F5804F38D1D4F8AC005E
:10213000B0F1405F1DD007DC68B1B0F1805F0BD01B
:10214000B0F1005F18D10DE0B0F1804F12D0B0F1C6
:10215000A04F11D10FE011E00121201D02F0AEF8D7
:1021600005460BE0012104F1240002F059F905466F
:1021700004E003E002E001E0012500BF00BF6DB90B
:1021800005482C30006820F0E040D4F8AC1008433B
:1021900001492C31086002E02C440258A8462088EE
:1021A00000F40040B0F5004F26D1E06E98B1B0F1D8
:1021B000805F03D0B0F1005F0ED106E0F9480068FF
:1021C00040F40030F749086008E00121201D02F0CA
:1021D00075F8054602E001E0012500BF00BF55B9D2
:1021E000F0482430006820F04050E16E0843ED498B
:1021F0002431086000E0A846206800F08070B0F14B
:10220000807F27D1606CA0B1012804D0022809D0BA
:1022100003280FD10CE0E348006840F40030E149A6
:10222000086009E00221201D02F048F8054603E09D
:1022300002E001E0012500BF00BF55B9D9482030B8
:10224000006820F00300616C0843D6492031086023
:1022500000E0A846206800F48000B0F5800F7DD132
:10226000D148006840F48070CF490860FFF712F849
:10227000064606E0FFF70EF8801B642801D9032507
:1022800005E0C948006800F480700028F2D000BF63
:1022900085BBC4484430006800F44070B4F8B01006
:1022A00001F44071884213D0BE484430006820F4E5
:1022B0004077BC484430006840F48030B94944312C
:1022C00008600846006820F480300860084607600F
:1022D000D4F8B000B0F5807F15D1FEF7DBFF0646DD
:1022E00009E0FEF7D7FF801B41F28831884202D90E
:1022F000032507E038E0AB4844300068C0F34000F5
:102300000028EED000BF55BB00BFB4F8B00000F409
:102310004070B0F5407F0ED1A2481C38006820F410
:102320007C51A24AD4F8B000104041EA10109D49F7
:102330001C39086007E09B481C38006820F47C507A
:1023400098491C390860974844300068B4F8B010C8
:10235000C1F30B0108439349443101E005E001E07A
:10236000086002E0A84600E0A846207800F00100DE
:1023700068B3A06F182819D005DC48B1082808D028
:10238000102816D10BE0202811D0282811D10FE0F9
:1023900011E00121201D01F091FF05460BE0012114
:1023A00004F1240002F03CF8054604E003E002E0FA
:1023B00001E0012500BF00BF55B97A482830006808
:1023C00020F03800A16F084376492831086000E00A
:1023D000A846207800F00200022828D1606F062865
:1023E00015D2DFE800F003040A11121311E00121F5
:1023F000201D01F063FF05460BE0012104F12400DC
:1024000002F00EF8054604E003E002E001E00125D9
:1024100000BF00BF55B963482830006820F00700AE
:10242000616F08435F492831086000E0A8462078C2
:1024300000F0040004282AD1D4F89000062815D210
:10244000DFE800F003040A11121311E00121201D3E
:1024500001F034FF05460BE0012104F1240001F0F6
:10246000DFFF054604E003E002E001E0012500BFD4
:1024700000BF5DB94B482C30006820F00700D4F84D
:102480009010084347492C31086000E0A8462078A6
:1024900000F02000202836D1D4F88C00B0F1405F45
:1024A0001DD007DC68B1B0F1805F0BD0B0F1005FE8
:1024B00018D10DE0B0F1804F12D0B0F1A04F11D182
:1024C0000FE011E00021201D01F0F8FE05460BE0B1
:1024D000022104F1240001F0A3FF054604E003E01B
:1024E00002E001E0012500BF00BF5DB92D482830A2
:1024F000006820F0E040D4F88C10084329492831C6
:10250000086000E0A846207800F04000402836D15E
:10251000D4F89800B0F5406F1DD007DC68B1B0F575
:10252000806F0BD0B0F5006F18D10DE0B0F5805F73
:1025300012D0B0F5A05F11D10FE011E00021201DF5
:1025400001F0BCFE05460BE0022104F1240001F07D
:1025500067FF054604E003E002E001E0012500BF5B
:1025600000BF5DB90F482C30006820F4E050D4F86B
:10257000981008430B492C31086000E0A8462078E9
:1025800000F0800080283AD1D4F89C00B0F5C04F0C
:1025900023D00DDC98B1B0F5005F11D0B0F5804FBD
:1025A0001ED113E02C44025800480258FFFCFF0FD4
:1025B000B0F5004F12D0B0F5204F11D10FE011E06F
:1025C0000021201D01F07AFE05460BE0022104F1F6
:1025D000240001F025FF054604E003E002E001E0ED
:1025E000012500BF00BF4DB9BE48006820F460401F
:1025F000D4F89C100843BB49086000E0A846207846
:1026000000F00800082817D1D4F88000B0F5805FEA
:1026100007D1022104F1240001F002FF08B14FF0BC
:102620000108B048001F006820F44050D4F8801022
:102630000843AC49091F0860207800F010001028FA
:1026400015D1D4F89400B0F5807F07D1022104F1B0
:10265000240001F0E5FE08B14FF00108A148006830
:1026600020F44070D4F8941008439E490860206814
:1026700000F40020B0F5002F26D1D4F8A00030B12E
:10268000B0F5803F09D0B0F5003F0ED10CE000213D
:10269000201D01F013FE054609E0022104F124008B
:1026A00001F0BEFE054602E001E0012500BF00BFCB
:1026B0004DB98C48006820F44030D4F8A01008438D
:1026C0008849086000E0A846206800F48020B0F542
:1026D000802F2DD1D4F88400B0F5801F06D0B0F53E
:1026E000001F0CD0B0F5401F11D10FE07D482C38F1
:1026F000006840F400307B492C39086009E0012172
:1027000004F1240001F08CFE054602E001E0012501
:1027100000BF00BF5DB97348001F006820F440107F
:10272000D4F8841008436F49091F086000E0A846E8
:10273000206800F48030B0F5803F24D1E06C18B1FF
:10274000B0F5803F0FD108E066482C38006840F4AF
:10275000003064492C39086007E00221201D01F097
:10276000ADFD054601E0012500BF00BF55B95D483C
:102770000C38006820F48030E16C084359490C396A
:10278000086000E0A846206800F00050B0F1005F4B
:1027900007D1022104F1240001F042FE08B14FF0FC
:1027A0000108206800F40030B0F5003F27D1E06F49
:1027B000A0B1B0F5807F06D0B0F5007F0CD0B0F5A9
:1027C000407F0CD109E047482C38006840F40030C5
:1027D00044492C39086004E003E002E001E00125EF
:1027E00000BF00BF55B93F48001F006820F440708B
:1027F000E16F08433B49091F086000E0A8462068D4
:1028000000F48010B0F5801F09D136480838006800
:1028100020F00040216F08433249083908602068E1
:1028200000F08050B0F1805F0AD12E48483800682F
:1028300020F48040D4F8B41008432A49483908608D
:10284000206800F40010B0F5001F09D125480838B1
:10285000006820F08070A16E0843224908390860A2
:10286000206800F08040B0F1804F11D100BF1D48BA
:102870004838006820F400401A4948390860084682
:102880000068D4F8B810084316494839086000BFFA
:10289000206800F00040B0F1004F09D111480C3819
:1028A000006820F04050216D08430E490C39086043
:1028B000206800F40000B0F5000F0AD10948001F9D
:1028C000006820F44000D4F8881008430549091F27
:1028D0000860B8F1000F02D10020BDE8F0810120AE
:1028E000FBE70000584402582DE9F04104460D462C
:1028F00014B90120BDE8F081BD48006800F00F0068
:10290000A8420ED2BA48006820F00F002843B84908
:1029100008600846006800F00F00A84201D00120BE
:10292000E8E7207800F0040004280ED1B1492069BE
:10293000096801F07001884207D9AE48006820F0AC
:10294000700021690843AB490860207800F0080056
:10295000082811D1A749091D6069096801F07001B3
:10296000884209D9A348001D006820F07000616901
:102970000843A049091D0860207800F010001028C5
:1029800011D19C49091DA069096801F4E0618842E0
:1029900009D99848001D006820F4E060A169084347
:1029A0009449091D0860207800F02000202811D1EA
:1029B00090490831E069096801F07001884209D93D
:1029C0008C480830006820F07000E16908438949AC
:1029D00008310860207800F0020002280ED18549F5
:1029E000E068096801F00F01884207D98148006852
:1029F00020F00F00E16808437E490860207800F06D
:102A00000100002850D07B48006820F47060A16865
:102A10000843784908606068022807D1754818386B
:102A20000068C0F34040F8B9012063E760680328FC
:102A300007D1704818380068C0F34060A0B9012081
:102A400058E76068012807D16A4818380068C0F361
:102A5000002048B901204DE7664818380068C0F3E7
:102A6000800008B9012045E762480838006820F076
:102A70000700616808435F4908390860FEF70AFCEF
:102A8000064608E0FEF706FC801B41F288318842CA
:102A900001D903202EE757480838006800F03800B5
:102AA0006168B0EBC10FEDD1207800F00200022880
:102AB0000ED15049E068096801F00F01884207D241
:102AC0004C48006820F00F00E1680843494908605D
:102AD0004748006800F00F00A8420ED9444800683B
:102AE00020F00F002843424908600846006800F0C3
:102AF0000F00A84201D00120FCE6207800F004007D
:102B000004280ED13B492069096801F07001884210
:102B100007D23848006820F0700021690843354921
:102B20000860207800F00800082811D13149091DFB
:102B30006069096801F07001884209D22D48001DC2
:102B4000006820F07000616908432A49091D086087
:102B5000207800F01000102811D12649091DA06925
:102B6000096801F4E061884209D22248001D00682A
:102B700020F4E060A16908431E49091D086020781F
:102B800000F02000202811D11A490831E0690968B5
:102B900001F07001884209D216480830006820F020
:102BA0007000E169084313490831086000F076F8C5
:102BB00010490968C1F303210F4A515C01F01F015C
:102BC00020FA01F70B48006800F00F001146085C7E
:102BD00000F01F0027FA00F0084908600848076065
:102BE00008480068FEF798FB8046404682E60000F1
:102BF00000200052184402588E9600080400002459
:102C0000000000241800002410B500F047F80D491A
:102C10000968C1F303210C4A515C01F01F0120FA3D
:102C200001F40848006800F00F001146085C00F04D
:102C30001F0024FA00F005490860054804600846B2
:102C4000006810BD184402588E9600080400002445
:102C50000000002400B5FFF7D7FF05490968C1F35C
:102C60000211044A515C01F01F01C84000BD000080
:102C70001C4402588E96000800B5FFF7C5FF0549B1
:102C80000968C1F30221044A515C01F01F01C840E8
:102C900000BD00001C4402588E960008F0B5824E1C
:102CA000366806F0380636B1082E15D0102E15D02D
:102CB000182E7DD114E07C4E103E3668C6F34016C7
:102CC00046B1794E103E3668C6F3C107774E26FAF4
:102CD00007F000E07548E5E07548E3E07548E1E09D
:102CE000714E1836366806F003046F4E1836366893
:102CF000C6F305116C4E1C36366806F001056A4EA7
:102D000024363668C6F3CC0616FB05F601EE106ACB
:102D1000B8EE410A002971D024B1012C50D0022C08
:102D20006DD16DE0604E103E3668C6F340163EB37E
:102D30005D4E103E3668C6F3C1075C4E26FA07F3B7
:102D400001EE103AF8EE411A01EE101AB8EE411AEF
:102D500081EE812A9FED581AC0EE011A524E20369C
:102D60003668C6F3080601EE106AB8EE411A31EE75
:102D7000811AF7EE001A31EE211A62EE010A1EE006
:102D800001EE101AB8EE411ADFED4C1A81EE812ADD
:102D90009FED491AC0EE011A434E20363668C6F33D
:102DA000080601EE106AB8EE411A31EE811A00E011
:102DB00076E0F7EE001A31EE211A62EE010A5BE0CE
:102DC00001EE101AB8EE411A9FED3D2AC2EE011A2B
:102DD0009FED391A80EE012A334E20363668C6F34D
:102DE000080601EE106AB8EE411A32EE011AB7EE8B
:102DF000002A31EE021A61EE810A3DE04EE01DE04C
:102E000001EE101AB8EE411ADFED2E1A81EE812A7A
:102E10009FED291AC0EE011A234E20363668C6F3FC
:102E2000080601EE106AB8EE411A31EE811AF7EE8B
:102E3000001A31EE211A62EE010A1DE001EE101AAD
:102E4000B8EE411A9FED1E2AC2EE011A9FED1A1A22
:102E500080EE012A144E20363668C6F3080601EECD
:102E6000106AB8EE411A32EE011AB7EE002A31EEBE
:102E7000021A61EE810A00BF00BF0B4E2036366891
:102E8000C6F34626721C01EE102AB8EE411AC0EEB7
:102E9000811ABCEEE11A11EE100A00E0002001E0F8
:102EA000034800BF00BFF0BD104402580090D0039B
:102EB00000093D0040787D01000000460024744C6C
:102EC0000024744A20BCBE4B2DE9F047044614B9D7
:102ED0000120BDE8F087207800F00100002870D0C4
:102EE000FA48006800F03808F8481830D0F8009028
:102EF000B8F1100F06D0B8F1180F0FD109F0030088
:102F000002280BD1F14810380068C0F34040002877
:102F10006AD06068002867D10120DAE700BF6068E6
:102F2000B0F5803F08D1E9481038006840F480309F
:102F3000E649103908602EE0606868B9E348103847
:102F4000006820F48030E1491039086008460068C4
:102F500020F4802008601EE06068B0F5A02F0DD13D
:102F6000DA481038006840F48020D84910390860E9
:102F70000846006840F4803008600CE0D348103800
:102F8000006820F48030D149103908600846006894
:102F900020F48020086000BF606898B1FEF77AF9DD
:102FA000054606E0FEF776F9401B642801D90320A8
:102FB0008FE7C64810380068C0F340400028F1D0C1
:102FC00012E012E0FEF766F9054606E0FEF762F948
:102FD000401B642801D903207BE7BC4810380068F7
:102FE000C0F340400028F1D100BF207800F002007B
:102FF000022874D1B548006800F03808B34818308A
:10300000D0F80090B8F1000F05D0B8F1180F56D1E4
:1030100009F00300D0BBAD4810380068C0F3800051
:1030200018B1E06808B9012053E7A84810380068D3
:1030300020F01900E1680843A44910390860FEF740
:1030400029F9054606E0FEF725F9401B022801D9BB
:1030500003203EE79D4810380068C0F38000002838
:10306000F1D000BFFEF710F941F2030188421AD8EF
:10307000206940280BD195480C38006820F47C303A
:1030800040F4003091490C39086017E017E08F4890
:103090000C38006820F47C30216940EA01308B490B
:1030A0000C3908600AE089480C38006820F0FE40BE
:1030B000217C40EA016085490C39086066E0E068DF
:1030C00088B382481038006820F01900E16808438E
:1030D0007E4910390860FEF7DDF8054607E056E046
:1030E000FEF7D8F8401B022801D90320F1E6774803
:1030F00010380068C0F380000028F1D000BFFEF750
:10310000C3F841F2030188421AD8206940280BD144
:103110006E480C38006820F47C3040F400306B4975
:103120000C39086017E017E068480C38006820F494
:103130007C30216940EA013064490C3908600AE0BA
:1031400062480C38006820F0FE40217C40EA0160B3
:103150005E490C39086019E05C481038006820F0BE
:1031600001005A4910390860FEF794F8054606E058
:10317000FEF790F8401B022801D90320A9E6534826
:1031800010380068C0F380000028F1D100BF20781B
:1031900000F0100010287CD14C48006800F038087E
:1031A0004A481830D0F80090B8F1080F06D0B8F1AE
:1031B000180F3DD109F00300012839D143481038D8
:1031C0000068C0F3002020B1E069802801D0012010
:1031D0007FE600BFFEF758F841F2030188421AD893
:1031E000206A20280AD139480C38006820F0F840BD
:1031F00040F0804035490C39086018E033480C38FD
:10320000006820F0F84094F8201040EA81602F49CF
:103210000C3908600BE02D48001F006820F07C503E
:1032200094F8201040EA01602849091F086066E010
:10323000E06978B325481038006840F080002349E1
:1032400010390860FEF726F8054606E0FEF722F87A
:10325000401B022801D903203BE61C4810380068B7
:10326000C0F300200028F1D000BFFEF70DF841F2B6
:10327000030188421CD8206A20280CD113480C383E
:10328000006820F0F84040F0804010490C39086098
:103290001AE035E01CE00D480C38006820F0F840DA
:1032A00094F8201040EA816008490C3908600BE06E
:1032B0000648001F006820F07C5094F8201040EA77
:1032C00001600249091F086019E00000104402581B
:1032D000FA48006820F08000F8490860FDF7DAFF3E
:1032E000054606E0FDF7D6FF401B022801D9032062
:1032F000EFE5F2480068C0F300200028F2D100BFDB
:10330000207800F00800082836D16069D0B1EB4879
:103310007430006840F00100E84974310860FDF73E
:10332000B9FF054606E0FDF7B5FF401B022801D9AD
:103330000320CEE5E14874300068C0F34000002867
:10334000F1D019E0DD487430006820F00100DB495D
:1033500074310860FDF79EFF054606E0FDF79AFF11
:10336000401B022801D90320B3E5D448743000681B
:10337000C0F340000028F1D1207800F02000202880
:1033800030D1A069B8B1CD48006840F48050CB4935
:103390000860FDF77FFF054606E0FDF77BFF401B59
:1033A000022801D9032094E5C4480068C0F34030E6
:1033B0000028F2D016E0C148006820F48050BF49D0
:1033C0000860FDF767FF054606E0FDF763FF401B59
:1033D000022801D903207CE5B8480068C0F34030DA
:1033E0000028F2D1207800F0040004287DD1B448F0
:1033F000006840F48070B2490860FDF74BFF054655
:1034000006E0FDF747FF401B642801D9032060E573
:10341000AB48006800F480700028F2D000BFA068BC
:10342000012808D1A5487030006840F00100A34988
:10343000703108602DE0A06868B9A048703000685D
:1034400020F001009D49703108600846006820F0B6
:10345000040008601DE0A06805280DD19748703071
:10346000006840F004009549703108600846006823
:1034700040F0010008600CE090487030006820F0D7
:1034800001008E49703108600846006820F0040091
:10349000086000BFA068A0B1FDF7FCFE054608E08B
:1034A000FDF7F8FE401B41F28831884201D9032024
:1034B0000FE5824870300068C0F340000028EFD06C
:1034C00013E0FDF7E7FE054608E0FDF7E3FE401BCD
:1034D00041F28831884201D90320FAE477487030FC
:1034E0000068C0F340000028EFD1606A00287DD05A
:1034F00072481030006800F03800182877D0606AF1
:10350000022875D16D48006820F080706B49086012
:10351000FDF7C0FE054606E0FDF7BCFE401B022895
:1035200001D90320D5E465480068C0F34060002855
:10353000F2D100BFD4E90A1041EA00105F492831F6
:10354000096840F2F332914308435C49283108602E
:10355000208E401EC0F30800616B491E4FF47E426E
:1035600002EA41210843218F491ED20102EA0141AA
:1035700008433C21095D491E120202EA0161084329
:103580004E493031086000BF081F006820F001007C
:10359000091F08604948343000684FF6F8718843C5
:1035A000A16C40EAC10045493431086043482C30E1
:1035B000006820F00C00216C084340492C31086061
:1035C0000846006820F00200616C08433B492C313A
:1035D00008600846006840F48030086008460068CB
:1035E00040F4003008600846006802E06AE038E015
:1035F0001FE040F4802008600846006840F00100A9
:1036000008602E48006840F080702C490860FDF783
:1036100041FE054606E0FDF73DFE401B022801D9AC
:10362000032056E425480068C0F340600028F2D02B
:1036300048E02248006820F0807020490860FDF7CB
:1036400029FE054606E0FDF725FE401B022801D9AC
:1036500003203EE419480068C0F340600028F2D11E
:1036600030E0164828300768144830300668606A31
:10367000012821D007F00301A06A81421CD1C7F3C1
:103680000511E06A884217D1C6F30801206B401E7D
:10369000814211D1606B401EC6F3462188420BD196
:1036A000A06B401EC6F30641884205D1E06B401E68
:1036B000C6F30661884205D001200AE4004402589E
:1036C00000480258002004E470B504460D460CB9C9
:1036D000012070BD94F82C0028B9002084F82D003A
:1036E000204600F019F8022084F82C00211D2068E3
:1036F000FCF7D3FF2946D4E90002FDF721F805487D
:10370000006840F0004003490860012084F82C0064
:103710000020DEE70040005210B586B0044600BF2E
:103720003E48006840F480503C4908600846006804
:1037300000F48050009000BF00BF00BF37480C303D
:10374000006840F0040035490C3108600846006804
:1037500000F00400009000BF00BF00BF08460068F2
:1037600040F0080008600846006800F0080000907B
:1037700000BF00BF00BF0846006840F010000860AE
:103780000846006800F01000009000BF00BF00BFB6
:103790000846006840F0200008600846006800F015
:1037A0002000009000BF00BF00BF0846006840F046
:1037B000400008600846006800F04000009000BF2C
:1037C00000BF0D20019002200290012003900320F1
:1037D00004900C20059001A91148FDF73FFC4CF224
:1037E0000370019001A90F48FDF738FC4FF6837074
:1037F000019001A90C48FDF731FC4FF63F00019004
:1038000001A90A48FDF72AFC48F23710019001A9E6
:103810000748FDF723FC06B010BD0000D444025851
:1038200000080258000C02580010025800140258F8
:103830000018025870B504460D4694F82C00022872
:1038400000D170BD94F82C0001280AD1022084F820
:103850002C0029462068FCF756FF012084F82C0034
:1038600001E00120EDE70020EBE72DE9F0410446FF
:103870000E46174694F82C50022D02D10220BDE8C6
:10388000F081012D01D0052D12D1022084F82C00E9
:103890003A4631462068FCF740FF3068022803D1E1
:1038A000052084F82C0005E0012084F82C0001E0BC
:1038B0000120E4E70020E2E770B504460E46154615
:1038C0000CB9012070BD94F8450028B9002084F897
:1038D0004400204600F028F804F108012068FCF7B5
:1038E00057FE3146A2682068FCF7A4FE2946E36A29
:1038F000D4E90102FCF72AFEA168206850F82100F3
:1039000040F00100A268216841F8220005480068E3
:1039100040F0004003490860012084F84500002081
:10392000D0E700000040005210B586B0044600BF4A
:103930002048006840F480501E490860084600682E
:1039400000F48050009000BF00BF00BF19480C3049
:10395000006840F0080017490C310860084600680C
:1039600000F00800009000BF00BF00BF08460068DC
:1039700040F0100008600846006800F01000009059
:1039800000BF00BF4EF2B3700190022002900120F0
:103990000390022004900C20059001A90648FDF731
:1039A0005DFB4FF68070019001A90448FDF756FBBE
:1039B00006B010BDD4440258000C02580010025842
:1039C00070B504462546681EB0F1807F01D3012002
:1039D0000FE0681E4FF0E02148610F214FF0FF30EB
:1039E00001F030FE00204FF0E021886107200861DF
:1039F000002070BD704770477047704770470146A0
:103A0000D1F88430D1F8882043EA020070470000E2
:103A10002DE9F04704462068C569206806682068DB
:103A2000876840F60F0005EA0009B9F1000F0FD1D1
:103A300005F0200060B106F0200010B907F08050BA
:103A400030B1206F10B12046216F8847BDE8F08764
:103A5000B9F1000F7ED0F948384018B9F848304025
:103A60000028F7D005F0010058B106F4807040B18D
:103A7000012021680862D4F88C0040F00100C4F8ED
:103A80008C0005F0020058B107F0010040B102209F
:103A900021680862D4F88C0040F00400C4F88C005F
:103AA00005F0040058B107F0010040B1042021687E
:103AB0000862D4F88C0040F00200C4F88C0005F0D5
:103AC000080070B106F0200010B9DC48384040B161
:103AD000082021680862D4F88C0040F00800C4F87F
:103AE0008C0005F4006060B106F0806048B14FF4CE
:103AF000006021680862D4F88C0040F02000C4F80F
:103B00008C00D4F88C0000284ED005F0200050B175
:103B100006F0200010B907F0805020B1206F10B1DE
:103B20002046216F8847D4F88CA02068806800F078
:103B30004000402802D00AF0280070B3204600F070
:103B400069FE2068806800F04000402821D100BF55
:103B500000BF00E029E02168083151E8001F21F092
:103B600040002168083141E80002002AF1D100BF7D
:103B7000E06F50B1B348E16F0865E06FFDF798F86A
:103B800090B1E06F016D88470EE02046FFF736FFE9
:103B90000AE02046FFF732FF06E0FFE72046FFF786
:103BA0002DFF0020C4F88C0050E7E06E012872D190
:103BB00005F0100000286ED006F010000028FAD0A2
:103BC0001020216808622068806800F040004028CA
:103BD0007ED1E06F00689C49884258D0E06F006851
:103BE00099491831884252D0E06F006896493031C7
:103BF00088424CD0E06F006893494831884246D0F3
:103C0000E06F006890496031884240D0E06F006802
:103C10008D49783188423AD0E06F00688A49903106
:103C2000884234D0E06F00688749A83188422ED09E
:103C3000E06F00688549884229D0E06F00688349B9
:103C40001831884223D0E06F0068804930318842C3
:103C50001DD0E06F00687D494831884217D0E06F81
:103C600000687A496031884211D0E06F0068774976
:103C7000783188420BD0E06F0068744990318842F7
:103C800005D0E06F00687149A831884204D1E06F27
:103C90000068406803E0A0E0E06F006840681FFA39
:103CA00080F8B8F1000F55D0B4F85C00404551DD04
:103CB000A4F85E80E06FC069B0F5807F41D000BF9E
:103CC00000BF216851E8001F21F48070226800E0E5
:103CD00041E042E800010029F3D100BF00BF00BF6E
:103CE0002168083151E8001F21F0010021680831E6
:103CF00041E80002002AF3D100BF00BF00BF2168E5
:103D0000083151E8001F21F040002168083141E8E6
:103D10000002002AF3D100BF2020C4F88800002050
:103D2000E06600BF00BF216851E8001F21F01000CD
:103D3000226842E800010029F5D100BFE06FFCF7DE
:103D400049FDB4F85C00B4F85E20801A81B22046C8
:103D5000FFF750FE7AE634F85C0F6188401A1FFACC
:103D600080F860885C3CB8B3B8F1000F34D000BF75
:103D700000BF216851E8001F21F49070226842E8DA
:103D800000010029F5D100BF00BF00BF2168083144
:103D900051E8001F294AD24301EA02002168083194
:103DA00041E80002002AF1D100BF2020C4F88800B9
:103DB0000020E066206700BF00BF216851E8001FB7
:103DC00021F01000226842E800010029F5D100BF6F
:103DD00041462046FFF70EFE38E605F4801050B14C
:103DE00007F4800038B14FF4801021680862204643
:103DF000FFF703FE2AE605F0800058B106F08000C8
:103E000010B907F4000028B1606F10B12046616F4F
:103E100088471BE605F0400030B106F0400018B1BD
:103E2000204600F02DFD11E605F4000080B106F0FB
:103E3000804068B12046FFF7DFFD07E60100001073
:103E400020010004FB47000810000240100402405B
:103E500005F0807030B106F0004018B12046FFF741
:103E6000CAFDF3E500BFF1E510B504460CB9012029
:103E700010BDA06900B100E000BFD4F8840028B9EB
:103E8000002084F88000204600F02AF82420C4F89E
:103E900084002068006820F0010021680860204646
:103EA00000F0A0FF012800D1E2E7A06A10B120468F
:103EB00000F0ECFB2068406820F4904021684860E6
:103EC0002068806820F02A002168886020680068E7
:103ED00040F0010021680860204600F053FCC7E76D
:103EE00010B586B004462B492068884250D100BFE7
:103EF00000BF2948006840F01000274908600846C4
:103F0000006800F01000009000BF00BF00BF00BFBD
:103F100000BF21481038006840F001001E491039E8
:103F200008600846006800F00100009000BF00BF74
:103F300000BF00BF00BF0846006840F001000860F5
:103F40000846006800F00100009000BF00BF00BFFD
:103F50004FF4007001900220029001200390022093
:103F600004900720059001A90C48FDF777F84FF45D
:103F7000806001900720059001A90848FDF76EF8C0
:103F80002520FDF74EFC032211462520FDF75DFCA0
:103F900006B010BD00100140F04402580000025865
:103FA00070B504460D461646D4F8880020282CD15A
:103FB00005B10EB9012070BD00BF94F88000012842
:103FC00001D10220F7E7012084F8800000BF002023
:103FD000E0660F492068884211D02068406800F4EC
:103FE000000060B100BF00BF216851E8001F41F030
:103FF0008060226842E800010029F5D100BF324606
:104000002946204601F0B4F9D5E70220D3E70000A5
:10401000000C00581D4A0168914236D11C4909889C
:1040200001F4004189BB1A49098801F4804171B14A
:10403000184909780A2903D00021154A118024E083
:104040001349098841F40041114A11801DE01149CA
:1040500009780D2906D10E49098841F480410C4A9E
:10406000118012E00B490978094A1288C2F30D0247
:10407000094B995406490988491C054A1180114683
:104080000988C72901DD0021118070470010014017
:10409000100000241200002430000024704700BFEC
:1040A000FEE7F0B58E880768FF68C7F30B473E440C
:1040B000330406688436802707FB0266766806F4B8
:1040C0007047066884364FF0800C0CFB0266776000
:1040D0000E680768FF68C7F30B473E44761C1E4313
:1040E000076884370CFB02777E608E890768FF685B
:1040F000C7F30A073E44330406688436802707FB6B
:104100000266B66806F47047066884360CFB0266E1
:10411000B7608E680768FF68C7F30A073E44761CDD
:1041200046EA0307066884360CFB0266B760066839
:104130008436802707FB0266366926F00707066883
:1041400084360CFB026637610F69066884360CFB07
:10415000026637613126765C33023226765C34049F
:104160000E7E350606688436802707FB0266B66930
:104170000027066884360CFB0266B76191F8306050
:104180001E43264346EA0507066884360CFB026692
:10419000B76106688436802707FB0266766926F0D9
:1041A000FF07066884360CFB026677614F69066874
:1041B00084360CFB0266776106688436802707FB2D
:1041C0000266F66940F20777BE43076884370CFB46
:1041D0000277FE61D1E907763743066884360CFB27
:1041E0000266F76106688436802707FB0266B66AB6
:1041F0000027066884360CFB0266B7624F6A0668C1
:1042000084360CFB0266B7620E690EB9042313E014
:104210000E69012E01D103230EE00E69042E08D091
:104220000E69022E05D00E69032E02D00E69072EEC
:1042300001D1022300E0012306688436802707FBB2
:104240000266F66A06F0E027066884364FF0800CB6
:104250000CFB0266F762D1E90076F61B5E43F61DA1
:104260000F8D5F4346EA0747066884360CFB0266FB
:10427000F76206688436802707FB0266366BF70A0A
:10428000FF02066884360CFB02663763CF6A066855
:1042900084360CFB0266376306688436D701F6590C
:1042A00046F00107066884364FEAC21C46F80C70D7
:1042B000F0BD00BFFEE700BFFEE770472DE9F0410B
:1042C00004460E4600275548006800F00300032806
:1042D00002D10120BDE8F08150482838006820F064
:1042E00080604E4928390860FCF7D4FF054606E097
:1042F000FCF7D0FF401B022801D90320EAE747481A
:1043000028380068C0F3C0600028F1D100BF4348DE
:10431000006820F47C30216840EA01303F490860A1
:10432000A088401EC0F30800A168491E4FF47E42D9
:1043300002EA41210843A189491ED20102EA014152
:104340000843217C491E120202EA016108433349F5
:104350001031086000BF3148001D006820F0C00027
:10436000616908432D49091D08600846006820F06E
:104370002000A16908432949091D08600846006812
:1043800020F0100008602548143000684FF6F871DE
:104390008843E16940EAC1002049143108601F48A0
:1043A000001D006840F010001C49091D08602EB96E
:1043B0000846006840F40020086012E0012E08D191
:1043C0001648001D006840F480101449091D08605B
:1043D00007E01248001D006840F400100F49091D55
:1043E00008600E482838006840F080600B49283982
:1043F0000860FCF74FFF054606E0FCF74BFF401B4B
:10440000022801D9032065E7044828380068C0F372
:10441000C0600028F1D038465CE70000284402580C
:104420002DE9F04104460E4600275548006800F08B
:104430000300032802D10120BDE8F081504828384C
:10444000006820F080504E4928390860FCF722FFB0
:10445000054606E0FCF71EFF401B022801D9032099
:10446000EAE7474828380068C0F340700028F1D1D7
:1044700000BF4348006820F07C70218840EA01506A
:104480003F490860A088401EC0F30800A168491E8B
:104490004FF47E4202EA41210843A189491ED2011C
:1044A00002EA01410843217C491E120202EA01612D
:1044B000084333491831086000BF3148001D0068C7
:1044C00020F44060616908432D49091D08600846D1
:1044D000006820F40070A16908432949091D08609B
:1044E0000846006820F48070086025481C30006889
:1044F0004FF6F8718843E16940EAC10020491C3158
:1045000008601F48001D006840F480701C49091DA8
:1045100008602EB90846006840F48000086012E088
:10452000012E08D11648001D006840F4000014490F
:10453000091D086007E01248001D006840F0807007
:104540000F49091D08600E482838006840F0805067
:104550000B4928390860FCF79DFE054606E0FCF78C
:1045600099FE401B022801D9032065E7044828383A
:104570000068C0F340700028F1D038465CE70000C6
:1045800028440258704710B5FCF78AFE10BD0000A1
:104590003448006840F470003249086032480068CE
:1045A00000F00F00072806D22F48006820F00F0007
:1045B000C01D2D4908602D48006840F001002B49BE
:1045C00008600020294910310860284800682849FF
:1045D0000840264908602448006800F00F000728BA
:1045E00006D92148006820F00F00C01D1E49086050
:1045F00000201E4918310860091D0860091D086067
:104600001C481A49283108601B48091D08601B48CE
:10461000091D08600020091D08601848091D086070
:104620000020091D08601548091D08600020091DAB
:1046300008600E48006820F480200C4908600020C3
:104640000A49603108600E4800686FF30F00B0F14E
:10465000005F02D201200B49086043F2D2000A49F0
:104660000860704788ED00E00020005200440258C6
:104670007FEDF6EA000202020000FF018002010164
:104680000010005C088100510040005290F8281092
:1046900001F0010139B10168496821F40031C26AB1
:1046A00011430268516090F8281001F002010229BC
:1046B00007D10168496821F48031026B1143026817
:1046C000516090F8281001F00401042907D1016815
:1046D000496821F48021426B11430268516090F8CF
:1046E000281001F00801082907D10168496821F460
:1046F0000041826B11430268516090F8281001F06C
:104700001001102907D10168896821F48051C26B1A
:1047100011430268916090F8281001F020012029CF
:1047200007D10168896821F40051026C11430268C5
:10473000916090F8281001F04001402913D10168E0
:10474000496821F48011426C114302685160416C48
:10475000B1F5801F07D10168496821F4C001826C5E
:1047600011430268516090F8281001F080018029FF
:1047700007D10168496821F40021C26C1143026825
:104780005160704738B504460020C4F88C00FCF72F
:1047900081FD05462068006800F0080008280CD15B
:1047A0006FF07E402B4600224FF40011009020460F
:1047B00000F096FE08B1032038BD2068006800F0C4
:1047C000040004280CD16FF07E402B4600224FF4E9
:1047D00080010090204600F083FE08B10320EBE743
:1047E0002020C4F88400C4F888000020E06600BFE0
:1047F00084F8800000BF00BFDEE770B50546AC6BF3
:104800000020A4F85E00A4F856002046FFF7F6F852
:1048100070BD000000BF00BF026852E8002F22F404
:104820009071036843E80012002AF5D100BF00BF71
:1048300000BF0268083252E8002F104B02EA030161
:104840000268083242E80013002BF2D100BFC16EAB
:1048500001290CD100BF00BF026852E8002F22F0EE
:104860001001036843E80012002AF5D100BF20219F
:10487000C0F888100021C16601677047FEFFFFEF96
:1048800010B5044600BF00BF216851E8001F21F0A9
:104890004000226842E800010029F5D100BF202035
:1048A000C4F88400002060672046FFF7F7FB10BDC6
:1048B0002DE9F0410446B4F86070D4F8880022284D
:1048C00057D12068406A86B2A56D06EA07002880A5
:1048D000A06D801CA065B4F85E00401EA4F85E00C8
:1048E000B4F85E0000284AD100BF00BF216851E83B
:1048F000001F21F49070226842E800010029F5D1E0
:1049000000BF00BF00BF2168083151E8001F21F03F
:1049100001002168083141E80002002AF3D100BFFC
:104920002020C4F8880000202067E06E01281CD1F8
:104930000020E06600BF00BF216851E8001F21F0A1
:104940001000226842E800010029F5D100BF20686C
:10495000C069C0F3001010B1102021680862B4F8DB
:104960005C102046FFF746F809E02046FFF752FBAF
:1049700005E02068806940F0080021688861BDE892
:10498000F08100002DE9F84F0446B4F860B02068CB
:10499000C5692068006800902068D0F808A0D4F8A5
:1049A000880022287ED1B4F8689096E02068406A9A
:1049B0001FFA80F8A76D08EA0B003880A06D801CF4
:1049C000A065B4F85E00401EA4F85E002068C569CA
:1049D00005F00700B0B305F0010060B1009800F4E5
:1049E000807040B1012021680862D4F88C0040F04A
:1049F0000100C4F88C0005F0020058B10AF0010073
:104A000040B1022021680862D4F88C0040F0040014
:104A1000C4F88C0005F0040058B10AF0010040B160
:104A2000042021680862D4F88C0040F00200C4F829
:104A30008C00D4F88C0028B12046FEF7DFFF002060
:104A4000C4F88C00B4F85E0068BB00BF00BF2168EA
:104A500051E8001F21F48070226842E8000100291B
:104A6000F5D100BF00BF00BF2168083151E8001F29
:104A7000344A01EA02002168083141E80002002AB4
:104A8000F2D100BF2020C4F8880000202067E06E2B
:104A900001281FD10020E06600BF00BF216851E857
:104AA000001F01E046E018E021F01000226842E813
:104AB00000010029F2D100BF2068C069C0F30010D6
:104AC00010B1102021680862B4F85C102046FEF78F
:104AD00091FF02E02046FFF79DFAB9F1000F04D0E4
:104AE00005F0200000287FF461AFB4F85E6006B3E3
:104AF000B4F86800B04223DD00BF00BF2168083170
:104B000051E8001F21F080502168083141E800027F
:104B1000002AF3D100BF0C48206700BF00BF216806
:104B200051E8001F41F02000226842E800010029FE
:104B3000F5D105E02068806940F0080021688861AF
:104B4000BDE8F88FFEFFFFEFB148000870B50446DE
:104B5000B4F86060D4F88800222857D12068406AF1
:104B600085B2F0B22840A16D0870A06D401CA06510
:104B7000B4F85E00401EA4F85E00B4F85E000028A1
:104B80004AD100BF00BF216851E8001F21F4907096
:104B9000226842E800010029F5D100BF00BF00BF34
:104BA0002168083151E8001F21F001002168083117
:104BB00041E80002002AF3D100BF2020C4F8880099
:104BC00000202067E06E01281CD10020E06600BFB5
:104BD00000BF216851E8001F21F01000226842E860
:104BE00000010029F5D100BF2068C069C0F30010A2
:104BF00010B1102021680862B4F85C102046FEF75E
:104C0000F9FE09E02046FFF705FA05E02068806913
:104C100040F008002168886170BD00002DE9F05F58
:104C20000446B4F860A02068C5692068D0F800B0D8
:104C30002068D0F80890D4F8880022287DD1B4F8F4
:104C4000688095E02068406A87B20AF0FF0038402B
:104C5000A16D0870A06D401CA065B4F85E00401EF8
:104C6000A4F85E002068C56905F00700A8B305F048
:104C7000010058B10BF4807040B101202168086236
:104C8000D4F88C0040F00100C4F88C0005F002005C
:104C900058B109F0010040B1022021680862D4F83F
:104CA0008C0040F00400C4F88C0005F0040058B1FA
:104CB00009F0010040B1042021680862D4F88C009A
:104CC00040F00200C4F88C00D4F88C0028B12046D3
:104CD000FEF794FE0020C4F88C00B4F85E0068BBB8
:104CE00000BF00BF216851E8001F21F480702268D6
:104CF00042E800010029F5D100BF00BF00BF2168D4
:104D0000083151E8001F354A01EA020021680831E4
:104D100041E80002002AF2D100BF2020C4F8880038
:104D200000202067E06E01281FD10020E06600BF50
:104D300000BF216851E8001F01E046E018E021F0C3
:104D40001000226842E800010029F2D100BF20686B
:104D5000C069C0F3001010B1102021680862B4F8D7
:104D60005C102046FEF746FE02E02046FFF752F9AF
:104D7000B8F1000F04D005F0200000287FF462AFE6
:104D8000B4F85E6006B3B4F86800B04223DD00BF3B
:104D900000BF2168083151E8001F21F080502168D0
:104DA000083141E80002002AF3D100BF0C48206717
:104DB00000BF00BF216851E8001F41F020002268B9
:104DC00042E800010029F5D105E02068806940F043
:104DD000080021688861BDE8F09F0000FEFFFFEF3A
:104DE0004D4B00082DE9F04F89B005460020089092
:104DF000F8492868884200D100E000BF2969A86806
:104E0000084369690843E96940EA010828680068BD
:104E1000F149084040EA08002968086028684068AD
:104E200020F44050E968084329684860D5F81880A4
:104E3000E8492868884202D0286A40EA08082868B9
:104E40008068E649084040EA0800296888602868C8
:104E5000C06A20F00F00696A08432968C86200BF71
:104E6000DF492868884220D1DE48006800F0380019
:104E7000182811D005DC48B1082809D0102811D114
:104E800008E020280AD028280CD109E001240BE0F2
:104E9000042409E0082407E0102405E0202403E0AE
:104EA000402401E0802400BFF8E0CF492868884210
:104EB00019D1CC48006800F00700062810D2DFE8BE
:104EC00000F0030507090B0D00240BE0042409E0A2
:104ED000082407E0102405E0202403E0402401E03A
:104EE000802400BFDAE0C1492868884219D1BD4852
:104EF000006800F00700062810D2DFE800F0030584
:104F000007090B0D00240BE0042409E0082407E046
:104F1000102405E0202403E0402401E0802400BFA9
:104F2000BCE0B3492868884219D1AE48006800F057
:104F30000700062810D2DFE800F0030507090B0D73
:104F400000240BE0042409E0082407E0102405E015
:104F5000202403E0402401E0802400BF9EE0A54916
:104F60002868884219D19F48006800F00700062889
:104F700010D2DFE800F0030507090B0D00240BE059
:104F8000042409E0082407E0102405E0202403E0BD
:104F9000402401E0802400BF80E0974928688842CF
:104FA00020D19048006800F03800182811D005DCA6
:104FB00048B1082809D0102811D108E020280AD0CB
:104FC00028280CD109E001240BE0042409E008247E
:104FD00007E0102405E0202403E0402401E08024C1
:104FE00000BF5BE085492868884219D17D48006888
:104FF00000F00700062810D2DFE800F003050709DB
:105000000B0D00240BE0042409E0082407E0102421
:1050100005E0202403E0402401E0802400BF3DE0BF
:1050200077492868884219D16E48006800F0070067
:10503000062810D2DFE800F0030507090B0D002455
:105040000BE0042409E0082407E0102405E02024F4
:1050500003E0402401E0802400BF1FE05D49286890
:1050600088421AD15F48001D006800F0070006283A
:1050700010D2DFE800F0030507090B0D02240BE056
:10508000042409E0082407E0102405E0202403E0BC
:10509000402401E0802400BF00E0802400BF4D498F
:1050A000286888427DD1102C1AD006DC022C09D049
:1050B000042C0BD0082C29D10DE0202C21D0402C21
:1050C00024D120E0FCF71CFC064623E005A8FCF7F1
:1050D00029FC069E1EE002A8FCF73CFD039E19E099
:1050E000404854380068C0F3401040B13D4854383F
:1050F0000068C0F3C101434820FA01F600E0414EC8
:1051000008E0414E06E04FF4004603E0002601208F
:10511000089000BF00BF002E10D03C49686A31F8EB
:105120001000B6FBF0F9686800EB4000484503D872
:1051300068680003484502D20120089003E1334922
:10514000686A31F810C06246002330461946FBF702
:105150001AF94FF4807300228446ACFB030B01FB69
:1051600003B10CFB021C69684908034659184CEB53
:105170000200CDE90010D5F804C0624600230846BD
:105180000199FBF700F90746B7F5407F06D3B7F55D
:10519000801F03D22868C760D5E002E00120089094
:1051A000D1E0E869B0F5004F7BD1082C39D005DC9F
:1051B0005CB1012C2CD0042C4CD12DE0102C35D01E
:1051C000202C42D0402C45D141E0FDF743FD06465E
:1051D00044E00000000C0058F369FFCFFFF4FF111A
:1051E0000010014054440258004400400048004070
:1051F000004C004000500040001401400078004086
:10520000007C00400090D00300093D009E960008FD
:10521000FDF732FD064621E005A8FCF783FB069E5C
:105220001CE002A8FCF796FC039E17E04C480068BF
:10523000C0F3401038B14A480068C0F3C101494882
:1052400020FA01F600E0474E08E0474E06E04FF432
:10525000004603E000260120089000BF00BFFEB119
:105260004249686A31F81000B6FBF0F04000696806
:1052700000EB5100B0FBF1F7102F0FD3B7F5803FD3
:105280000CD24FF6F07007EA000AC7F342004AEA70
:10529000000A2868C0F80CA055E002E00120089040
:1052A00051E0082C1AD005DC5CB1012C0DD0042C87
:1052B0002DD10EE0102C16D0202C23D0402C26D13E
:1052C00022E0FDF7C7FC064625E0FDF7D5FC0646C3
:1052D00021E005A8FCF726FB069E1CE002A8FCF7CF
:1052E00039FC039E17E01E480068C0F3401038B137
:1052F0001B480068C0F3C1011A4820FA01F600E01B
:10530000184E08E0184E06E04FF4004603E0002671
:105310000120089000BF00BFAEB11449686A31F89F
:105320001000B6FBF0F0696800EB5100B0FBF1F73C
:10533000102F06D3B7F5803F03D2B8B22968C860F2
:1053400001E0012008900120A5F86A00A5F8680096
:10535000002028676867089809B0BDE8F08F000052
:10536000004402580090D00300093D009E960008BA
:1053700030B503469965A3F85C20A3F85E200020B1
:10538000186700BF9868B0F5805F0AD1186920B926
:1053900040F2FF10A3F8600020E0FF20A3F86000B7
:1053A0001CE0986848B9186918B9FF20A3F8600094
:1053B00014E07F20A3F8600010E09868B0F1805FEF
:1053C00009D1186918B97F20A3F8600006E03F20D2
:1053D000A3F8600002E00020A3F8600000BF0020F6
:1053E000C3F88C002220C3F8880000BF00BF1C68EF
:1053F000083454E8004F44F001001C68083444E8C5
:105400000005002DF3D100BF586EB0F1005F31D11F
:10541000B3F8680090422DDC9868B0F5805F04D145
:10542000186910B92A48186701E02A48186700BFB0
:10543000002083F8800000BF186960B100BF00BF82
:105440001C6854E8004F44F480701D6845E800046F
:10545000002CF5D100BF00BF00BF1C68083454E821
:10546000004F44F080501C68083444E80005002DCB
:10547000F3D12BE09868B0F5805F04D1186910B9BA
:105480001548186701E01548186700BF002083F829
:10549000800000BF186960B100BF00BF1C6854E8FD
:1054A000004F44F490701D6845E80004002CF5D1CD
:1054B0000CE000BF00BF1C6854E8004F44F020001F
:1054C0001D6845E80004002CF5D100BF002030BD68
:1054D000854900081D4C0008B14800084D4B0008E4
:1054E0002DE9F04104460D4617469846069E6AE0AF
:1054F000701C002867D0FBF7CDFEA0EB0800B0427F
:1055000000D846BB00BF00BF216851E8001F21F44E
:10551000D070226842E800010029F5D100BF00BF29
:1055200000BF2168083151E8001F21F00100216807
:10553000083141E80002002AF3D100BF2020C4F85E
:105540008400C4F8880000BF002084F8800000BFF9
:105550000320BDE8F0812068006800F0040088B3F3
:105560002068C069C0F3C02060B34FF400602168B8
:10557000086200BF00BF216851E8001F21F4D0700D
:10558000226842E800010029F5D100BF00BF00BF3A
:105590002168083151E8001F21F00100216808311D
:1055A00041E80002002AF3D100BF202044F8840F14
:1055B0006060A060843C00BF002084F8800000BFD1
:1055C0000320C6E7FFE72068C0692840A84201D150
:1055D000012000E00020B8428AD00020B9E7000096
:1055E00070B500240F4D1048FEF712FA00BF03E01B
:1055F000641CAC4200D904E00B48FEF700FA2028F6
:10560000F6D100BF002403E0641CAC4200D906E0E0
:10561000012206490448FEF7C3FC0028F4D100BF6C
:1056200070BD0000FFFF0100F800002412000024FC
:1056300000BFFEE702480068C0F302207047000088
:105640000CED00E010B5002804DB0A07130E054A34
:10565000135406E00A07140E034A00F00F031B1F41
:10566000D45410BD00E400E018ED00E000BF704726
:1056700001490860704700000800002410B5044686
:105680004FF47A7104FB01F000F002F810BD000045
:1056900070B5034600224FF0E02675690D4E36685E
:1056A00003FB06F44FF0E026B16910E04FF0E0266E
:1056B000B06988420BD0884202D20E1A324402E00E
:1056C0002E1A0E4432440146A24200D300E0EDE718
:1056D00000BF70BD0800002470B50024002504E060
:1056E000601CC4B20120FFF7D3FF4FF480510F4874
:1056F000FBF7B2FD08B1642CF2DB642C01DB012561
:1057000011E0002404E0601CC4B20120FFF7C0FFD8
:105710004FF480510548FBF79FFD08B9642CF2DB7C
:10572000642C00DB0125284670BD000000040258EF
:1057300000B587B000BF00BF1048006840F002000D
:105740000E4908600846006800F00200019000BFA2
:1057500000BF00BF4FF48050029011200390012041
:1057600004900220059002A90548FBF777FC00F0A1
:1057700073F8FFF7B1FF07B000BD0000E044025826
:105780000004025810B5002404E0601CC4B20120DB
:10579000FFF77EFF4FF480511048FBF75DFD08B125
:1057A000642CF2DB002404E0601CC4B20120FFF78B
:1057B0006FFF4FF480510948FBF74EFD08B9642C88
:1057C000F2DB2820FFF764FF4FF480510348FBF71A
:1057D00043FD08B1012010BD0020FCE70004025881
:1057E00070B50024002506E06006040EFFF7CAFF2E
:1057F0000443681CC5B2082DF6DB204670BD7CB59D
:1058000005460E4600F028F8FFF766FFF8B90024B9
:1058100005E0FFF7E5FF0DF80400601CC4B2052C9D
:10582000F7DB9DF800009DF8011008449DF8021078
:1058300008449DF8031008449DF80410884208D1DC
:105840009DF8000030709DF80200287001E00120F2
:105850007CBD0020FCE7000010B500BF00224FF423
:1058600080510948FBF70AFD00BF1420FFF706FF2F
:1058700000BF012211030448FBF700FD00BF1E20FA
:10588000FFF706FF10BD00000004025870B5044683
:1058900000260D4805880D48006818B1204603F021
:1058A0006BF80FE00848408845430021084602F0A5
:1058B00019FE03F009F8002602E005480480761C72
:1058C000AE42FAD370BD0000D401002428030024A6
:1058D0000000086010B504465048847150480068C4
:1058E00050B1204603F072F84D48C08A4B490880F9
:1058F0004B48008B488010BD002C45D1F020474913
:1059000008804FF4A07048800846808845F2105106
:10591000884210D14FF43050404908814FF428504C
:1059200048814FF42C5088814FF4F07008804FF478
:10593000487048801AE03948808841F663118842EF
:105940000DD12C20354908812B2048812A208881BF
:105950004FF4F07008804FF44870488006E02C2027
:105960002E4908812A2048812B2088812B48808855
:1059700045F2103188424CD14FF4A070274908807D
:105980004FF4F070488044E04FF4A0702349088041
:10599000F02048800846808845F21051884210D196
:1059A0004FF430501D4908814FF4285048814FF47E
:1059B0002C5088814FF4487008804FF4F070488074
:1059C0001AE01648808841F6631188420DD12C20D8
:1059D000124908812A2048812B2088814FF4487081
:1059E00008804FF4F070488006E02C200B490881B5
:1059F0002A2048812B2088810848808845F2103170
:105A0000884206D14FF4F070044908804FF4A0702A
:105A10004880002002F04EFC00BF6CE7D401002457
:105A20002803002470B505460E4614460848006851
:105A300028B122463146284602F0DEFF07E0314613
:105A4000284602F04FFD02F03FFF02490C8070BD76
:105A5000280300240000086010B5CF2002F028FFC2
:105A6000002002F019FFC12002F016FF302002F0E2
:105A700013FFED2002F01CFF642002F00DFF032055
:105A800002F00AFF122002F007FF812002F004FF5B
:105A9000E82002F00DFF852002F0FEFE102002F04B
:105AA000FBFE7A2002F0F8FECB2002F001FF392045
:105AB00002F0F2FE2C2002F0EFFE002002F0ECFEDD
:105AC000342002F0E9FE022002F0E6FEF72002F0A8
:105AD000EFFE202002F0E0FEEA2002F0E9FE0020C6
